01REMESSA01COBRANCA       00000000000004991454AIRES CONSTRUTORA E INCORPORAD237BRADESCO       010920        MX0000163                                                                                                                                                                                                                                                                                     000001
100000000000000000000009077090001674800000000000000000000000010002100099740409201100000000002            2  01997404092009092000000003338690000000001N010920000000000000000000000000000000000000000000000000000000000000000100099740451853ARNALDO DA SILVA SALES                  RUA ALEGRE - 210 - VILA SAO RAFAEL - GUA            07053100                                                            000002
2SR. CAIXA, APOS O VENCIMENTO COBRAR 10% DE MULTA                                NAO RECEBER APOS 30 DIAS DO VENCIMENTO.                                                                                                                                                                                                         01092000000000000000109200000000000000       0090770900016748997404092011000003
100000000000000000000009077090001674800000000000000000000000010002100044380709201600000000002            2  01443807092009092000000005385670000000001N010920000000000000000000000000000000000000000000000000000000000000000100044380725812FERNANDO FIRMINO DOS SANTOS             RUA BARAO GERALDO DE RESENDE - 401 - BAI            05205220                                                            000005
2SR. CAIXA, APOS O VENCIMENTO COBRAR 10% DE MULTA                                NAO RECEBER APOS 30 DIAS DO VENCIMENTO.                                                                                                                                                                                                         01092000000000000000109200000000000000       0090770900016748443807092016000006
100000000000000000000009077090001674800000000000000000000000010002100025469409201700000000002            2  01254694092009092000000001676450000000001N010920000000000000000000000000000000000000000000000000000000000000000100025469470873JULIA MARIA RODRIGUES MARTINS           AVENIDA JOAO FIRMINO - 1229 AP.21 - BAIR            09810260                                                            000008
2SR. CAIXA, APOS O VENCIMENTO COBRAR 10% DE MULTA                                NAO RECEBER APOS 30 DIAS DO VENCIMENTO.                                                                                                                                                                                                         01092000000000000000109200000000000000       0090770900016748254694092017000009
100000000000000000000009077090001674800000000000000000000000010002100004759509201800000000002            2  01047595092009092000000004058870000000001N010920000000000000000000000000000000000000000000000000000000000000000100004759534873AGNALDO PORFIRIO DOS SANTOS             RUA JUVENCIO GASPAR DA SILVA - 35 - SAO             04303060                                                            000011
2SR. CAIXA, APOS O VENCIMENTO COBRAR 10% DE MULTA                                NAO RECEBER APOS 30 DIAS DO VENCIMENTO.                                                                                                                                                                                                         01092000000000000000109200000000000000       0090770900016748047595092018000012
100000000000000000000009077090001674800000000000000000000000010002100090830409201100000000002            2  01908304092009092000000001279590000000001N010920000000000000000000000000000000000000000000000000000000000000000100090830490868IVONETE FERNANDES                       AVENIDA FREDERICO OZANAN - 5504 - VILA R            13215276                                                            000014
2SR. CAIXA, APOS O VENCIMENTO COBRAR 10% DE MULTA                                NAO RECEBER APOS 30 DIAS DO VENCIMENTO.                                                                                                                                                                                                         01092000000000000000109200000000000000       0090770900016748908304092011000015
100000000000000000000009077090001674800000000000000000000000010002100027093909201300000000002            2  01270939092009092000000003172140000000001N010920000000000000000000000000000000000000000000000000000000000000000100027093944809DAVID ALEXANDRE XAVIER ROCHA            RUA MONTE CASTELO - 296 AP.54 - AVIACAO             11702720                                                            000017
2SR. CAIXA, APOS O VENCIMENTO COBRAR 10% DE MULTA                                NAO RECEBER APOS 30 DIAS DO VENCIMENTO.                                                                                                                                                                                                         01092000000000000000109200000000000000       0090770900016748270939092013000018
100000000000000000000009077090001674800000000000000000000000010002100068273209201P00000000002            2  01682732092009092000000002309090000000001N010920000000000000000000000000000000000000000000000000000000000000000100068273290891DERNEVAL JOSE MUNIZ                     RUA MARTINOPOLIS - 98 - JARDIM OTAWA - G            07230230                                                            000020
2SR. CAIXA, APOS O VENCIMENTO COBRAR 10% DE MULTA                                NAO RECEBER APOS 30 DIAS DO VENCIMENTO.                                                                                                                                                                                                         01092000000000000000109200000000000000       009077090001674868273209201P000021
100000000000000000000009077090001674800000000000000000000000010002100001817509201200000000002            2  01018175092009092000000001973400000000001N010920000000000000000000000000000000000000000000000000000000000000000100001817534807SANTINA SALVINA SOARES                  RUA CAIAPOS - 1066 AP.43 - VILA TUPI - P            11703320                                                            000023
2SR. CAIXA, APOS O VENCIMENTO COBRAR 10% DE MULTA                                NAO RECEBER APOS 30 DIAS DO VENCIMENTO.                                                                                                                                                                                                         01092000000000000000109200000000000000       0090770900016748018175092012000024
100000000000000000000009077090001674800000000000000000000000010002100086755709201P00000000002            2  01867557092009092000000002131940000000001N010920000000000000000000000000000000000000000000000000000000000000000100086755790800GERALDO JAIR BROGLIATTO                 DR.ARMANDO COSTA MAGALHAES - 176 - VILA             13270490                                                            000026
2SR. CAIXA, APOS O VENCIMENTO COBRAR 10% DE MULTA                                NAO RECEBER APOS 30 DIAS DO VENCIMENTO.                                                                                                                                                                                                         01092000000000000000109200000000000000       009077090001674886755709201P000027
100000000000000000000009077090001674800000000000000000000000010002100007996009201300000000002            2  01079960092009092000000002117860000000001N010920000000000000000000000000000000000000000000000000000000000000000100007996062862HENRIQUE SALVADOR                       RUA DARDANELOS - 689 - PARQUE NOVO ORATO            09260060                                                            000029
2SR. CAIXA, APOS O VENCIMENTO COBRAR 10% DE MULTA                                NAO RECEBER APOS 30 DIAS DO VENCIMENTO.                                                                                                                                                                                                         01092000000000000000109200000000000000       0090770900016748079960092013000030
100000000000000000000009077090001674800000000000000000000000010002100010066009201000000000002            2  01100660092009092000000002837200000000001N010920000000000000000000000000000000000000000000000000000000000000000100010066071534MOISES ROQUE DO ROSARIO                 RUA DAS PAPOULAS - 53 - VILA BELA - SAO             03202010                                                            000032
2SR. CAIXA, APOS O VENCIMENTO COBRAR 10% DE MULTA                                NAO RECEBER APOS 30 DIAS DO VENCIMENTO.                                                                                                                                                                                                         01092000000000000000109200000000000000       0090770900016748100660092010000033
100000000000000000000009077090001674800000000000000000000000010002100085910009201100000000002            2  01859100092009092000000003237340000000001N010920000000000000000000000000000000000000000000000000000000000000000100085910031872SERGIO NOGUEIRA                         RUA MONTE CASTELO - 262 AP.55 - AVIACAO             11702720                                                            000035
2SR. CAIXA, APOS O VENCIMENTO COBRAR 10% DE MULTA                                NAO RECEBER APOS 30 DIAS DO VENCIMENTO.                                                                                                                                                                                                         01092000000000000000109200000000000000       0090770900016748859100092011000036
100000000000000000000009077090001674800000000000000000000000010002100000746809201500000000002            2  01007468092009092000000002617280000000001N010920000000000000000000000000000000000000000000000000000000000000000100000746845820ANTONIO CARLOS DE MELLO                 RUA CONGO - 118 - PARQUE MONTE ALEGRE -             06756270                                                            000038
2SR. CAIXA, APOS O VENCIMENTO COBRAR 10% DE MULTA                                NAO RECEBER APOS 30 DIAS DO VENCIMENTO.                                                                                                                                                                                                         01092000000000000000109200000000000000       0090770900016748007468092015000039
100000000000000000000009077090001674800000000000000000000000010002100028196109201000000000002            2  01281961092009092000000001884680000000001N010920000000000000000000000000000000000000000000000000000000000000000100028196184808VANESSA NOGUEIRA CAMBUI DA SILVA        ERNESTO PEDRON - 314 - JARDIM LAS VEGAS             09182165                                                            000041
2SR. CAIXA, APOS O VENCIMENTO COBRAR 10% DE MULTA                                NAO RECEBER APOS 30 DIAS DO VENCIMENTO.                                                                                                                                                                                                         01092000000000000000109200000000000000       0090770900016748281961092010000042
100000000000000000000009077090001674800000000000000000000000010002100049730809201600000000002            2  01497308092009092000000001547080000000001N010920000000000000000000000000000000000000000000000000000000000000000100049730835420PEDRO LUIZ DO BOM FIM FILHO             RUA NASCER DO SOL - 91 - BAIRRO PIRAPORI            09951475                                                            000044
2SR. CAIXA, APOS O VENCIMENTO COBRAR 10% DE MULTA                                NAO RECEBER APOS 30 DIAS DO VENCIMENTO.                                                                                                                                                                                                         01092000000000000000109200000000000000       0090770900016748497308092016000045
100000000000000000000009077090001674800000000000000000000000010002100027067009201100000000002            2  01270670092009092000000001919440000000001N010920000000000000000000000000000000000000000000000000000000000000000100027067002893MARCIA NASCIMENTO DE MORAES             RUA MONTE CASTELO - 296 AP.11 - AVIACAO             11702720                                                            000047
2SR. CAIXA, APOS O VENCIMENTO COBRAR 10% DE MULTA                                NAO RECEBER APOS 30 DIAS DO VENCIMENTO.                                                                                                                                                                                                         01092000000000000000109200000000000000       0090770900016748270670092011000048
100000000000000000000009077090001674800000000000000000000000010002100094921809201500000000002            2  01949218092009092000000001905150000000001N010920000000000000000000000000000000000000000000000000000000000000000100094921890897JOAO JORGE DA ROSA FILHO                RUA OLAVO EGIDIO DE SOUZA ARANHA - 368 A            03822000                                                            000050
2SR. CAIXA, APOS O VENCIMENTO COBRAR 10% DE MULTA                                NAO RECEBER APOS 30 DIAS DO VENCIMENTO.                                                                                                                                                                                                         01092000000000000000109200000000000000       0090770900016748949218092015000051
100000000000000000000009077090001674800000000000000000000000010002100008364809201100000000002            2  01083648092009092000000002311230000000001N010920000000000000000000000000000000000000000000000000000000000000000100008364834800JOSEFINA CORREA RAMA DOS SANTOS         AVENIDA PRESIDENTE CASTELO BRANCO - 3.78            11702700                                                            000053
2SR. CAIXA, APOS O VENCIMENTO COBRAR 10% DE MULTA                                NAO RECEBER APOS 30 DIAS DO VENCIMENTO.                                                                                                                                                                                                         01092000000000000000109200000000000000       0090770900016748083648092011000054
100000000000000000000009077090001674800000000000000000000000010002100037713309201200000000002            2  01377133092009092000000001890970000000001N010920000000000000000000000000000000000000000000000000000000000000000100037713356800JAMILLE PAULA BUENO LOPES               RUA CURIO (COND.NEW VILLE) - 172 - SURU             06509031                                                            000056
2SR. CAIXA, APOS O VENCIMENTO COBRAR 10% DE MULTA                                NAO RECEBER APOS 30 DIAS DO VENCIMENTO.                                                                                                                                                                                                         01092000000000000000109200000000000000       0090770900016748377133092012000057
100000000000000000000009077090001674800000000000000000000000010002100027100909201P00000000002            2  01271009092009092000000002203020000000001N010920000000000000000000000000000000000000000000000000000000000000000100027100951810MARCIA RAMALHO RODRIGUES                RUA MONTE CASTELO - 296 AP.82 - AVIACAO             11702720                                                            000059
2SR. CAIXA, APOS O VENCIMENTO COBRAR 10% DE MULTA                                NAO RECEBER APOS 30 DIAS DO VENCIMENTO.                                                                                                                                                                                                         01092000000000000000109200000000000000       009077090001674827100909201P000060
100000000000000000000009077090001674800000000000000000000000010002100076207909201000000000002            2  01762079092009092000000002375880000000001N010920000000000000000000000000000000000000000000000000000000000000000100076207943872JOSE MACEDO RICARTE FILHO               RUA ARTUR LOBO - 181 - JARDIM JABAQUARA             04384060                                                            000062
2SR. CAIXA, APOS O VENCIMENTO COBRAR 10% DE MULTA                                NAO RECEBER APOS 30 DIAS DO VENCIMENTO.                                                                                                                                                                                                         01092000000000000000109200000000000000       0090770900016748762079092010000063
100000000000000000000009077090001674800000000000000000000000010002100094672609201300000000002            2  01946726092009092000000003000490000000001N010920000000000000000000000000000000000000000000000000000000000000000100094672660834JOSE HENRIQUE SOARES PEREIRA INACIO     RUA MONTE CASTELO - 296 AP.34 - AVIACAO             11702720                                                            000065
2SR. CAIXA, APOS O VENCIMENTO COBRAR 10% DE MULTA                                NAO RECEBER APOS 30 DIAS DO VENCIMENTO.                                                                                                                                                                                                         01092000000000000000109200000000000000       0090770900016748946726092013000066
100000000000000000000009077090001674800000000000000000000000010002100025265209201400000000002            2  01252652092009092000000001631390000000001N010920000000000000000000000000000000000000000000000000000000000000000100025265260862SONIA MARIA CECILIO DA SILVA            RUA PRESIDENTE TANCREDO NEVES - 1093 AP.            06329350                                                            000068
2SR. CAIXA, APOS O VENCIMENTO COBRAR 10% DE MULTA                                NAO RECEBER APOS 30 DIAS DO VENCIMENTO.                                                                                                                                                                                                         01092000000000000000109200000000000000       0090770900016748252652092014000069
100000000000000000000009077090001674800000000000000000000000010002100020105509201800000000002            2  01201055092009092000000002520390000000001N010920000000000000000000000000000000000000000000000000000000000000000100020105503827VALTER DE SOUSA LIBARINO FILHO          RUA DAS PAINEIRAS - 140 - BAIRRO LARANJE            07741205                                                            000071
2SR. CAIXA, APOS O VENCIMENTO COBRAR 10% DE MULTA                                NAO RECEBER APOS 30 DIAS DO VENCIMENTO.                                                                                                                                                                                                         01092000000000000000109200000000000000       0090770900016748201055092018000072
100000000000000000000009077090001674800000000000000000000000010002100003010509201500000000002            2  01030105092009092000000002723290000000001N010920000000000000000000000000000000000000000000000000000000000000000100003010502877GIZELA VIEIRA BARROS                    RUA GIACOMO DALCIN - 157 - NOVA GERTY -             09580350                                                            000074
2SR. CAIXA, APOS O VENCIMENTO COBRAR 10% DE MULTA                                NAO RECEBER APOS 30 DIAS DO VENCIMENTO.                                                                                                                                                                                                         01092000000000000000109200000000000000       0090770900016748030105092015000075
100000000000000000000009077090001674800000000000000000000000010002100036712509201600000000002            2  01367125092009092000000002028630000000001N010920000000000000000000000000000000000000000000000000000000000000000100036712580803WALTER BARRETO DE ALMEIDA               RUA MONTE CASTELO - 296 AP.44 - AVIACAO             11702720                                                            000077
2SR. CAIXA, APOS O VENCIMENTO COBRAR 10% DE MULTA                                NAO RECEBER APOS 30 DIAS DO VENCIMENTO.                                                                                                                                                                                                         01092000000000000000109200000000000000       0090770900016748367125092016000078
9                                                                                                                                                                                                                                                                                                                                                                                                         000079