01REMESSA01COBRANCA       00000000000004991454AIRES CONSTRUTORA E INCORPORAD237BRADESCO       130718        MX0000112                                                                                                                                                                                                                                                                                     000001
100000000000000000000009077090001674800000000000000000000000010002100049736707182000000000002            2  01497367071824071800000001369100000000001N120718000000000000000000000000000000000000000000000000000000000000000100049736787320RAIMUNDO VIEIRA DA SILVA                RUA BOLIVIA - 81 AP.ZELADORIA - JARDIM G            11701850                                                            000002
2SR. CAIXA, APOS O VENCIMENTO COBRAR 10% DE MULTA                                NAO RECEBER APOS 30 DIAS DO VENCIMENTO.                                                                                                                                                                                                         13071800000000000001307180000000000000       0090770900016748497367071820000003
100000000000000000000009077090001674800000000000000000000000010002100068806207181200000000002            2  01688062071824071800000001215080000000001N120718000000000000000000000000000000000000000000000000000000000000000100068806272853FATIMA MOREIRA SALOMAO                  RUA TORQUATO DE CAMILLO - 84 - CARANDA B            79032031                                                            000005
2SR. CAIXA, APOS O VENCIMENTO COBRAR 10% DE MULTA                                NAO RECEBER APOS 30 DIAS DO VENCIMENTO.                                                                                                                                                                                                         13071800000000000001307180000000000000       0090770900016748688062071812000006
100000000000000000000009077090001674800000000000000000000000010002100004201607181900000000002            2  01042016071824071800000001764740000000001N120718000000000000000000000000000000000000000000000000000000000000000100004201640817SANDRA APARECIDA TOJAL                  AVENIDA MASCOTE - 81 AP.132 BL.A - VILA             04363000                                                            000008
2SR. CAIXA, APOS O VENCIMENTO COBRAR 10% DE MULTA                                NAO RECEBER APOS 30 DIAS DO VENCIMENTO.                                                                                                                                                                                                         13071800000000000001307180000000000000       0090770900016748042016071819000009
100000000000000000000009077090001674800000000000000000000000010002100025278907181200000000002            2  01252789071824071800000001889820000000001N120718000000000000000000000000000000000000000000000000000000000000000100025278913819FERNANDO LOPES DA SILVA                 RUA RUBEN DE SOUZA - 387 AP.24A - VILA I            04653170                                                            000011
2SR. CAIXA, APOS O VENCIMENTO COBRAR 10% DE MULTA                                NAO RECEBER APOS 30 DIAS DO VENCIMENTO.                                                                                                                                                                                                         13071800000000000001307180000000000000       0090770900016748252789071812000012
100000000000000000000009077090001674800000000000000000000000010002100000024607181300000000002            2  01000246071824071800000002100900000000001N120718000000000000000000000000000000000000000000000000000000000000000100000024633852JAYME MASRI                             RUA MONTE CASTELO - 296 AP.24 - BAIRRO A            11702720                                                            000014
2SR. CAIXA, APOS O VENCIMENTO COBRAR 10% DE MULTA                                NAO RECEBER APOS 30 DIAS DO VENCIMENTO.                                                                                                                                                                                                         13071800000000000001307180000000000000       0090770900016748000246071813000015
100000000000000000000009077090001674800000000000000000000000010002100013184407181700000000002            2  01131844071824071800000002181480000000001N120718000000000000000000000000000000000000000000000000000000000000000100013184404838CLAUDIO GOMES BAHIA                     RUA MARIA CONCEICAO - 89 - VILA SAO PEDR            07032070                                                            000017
2SR. CAIXA, APOS O VENCIMENTO COBRAR 10% DE MULTA                                NAO RECEBER APOS 30 DIAS DO VENCIMENTO.                                                                                                                                                                                                         13071800000000000001307180000000000000       0090770900016748131844071817000018
100000000000000000000009077090001674800000000000000000000000010002100006055507181200000000002            2  01060555071824071800000003303500000000001N120718000000000000000000000000000000000000000000000000000000000000000100006055565803EDSON ALVES                             RUA EDGAR CODAZZI - 49 CASA 02 - CIDADE             08225280                                                            000020
2SR. CAIXA, APOS O VENCIMENTO COBRAR 10% DE MULTA                                NAO RECEBER APOS 30 DIAS DO VENCIMENTO.                                                                                                                                                                                                         13071800000000000001307180000000000000       0090770900016748060555071812000021
100000000000000000000009077090001674800000000000000000000000010002100021899207181600000000002            2  01218992071824071800000002406940000000001N120718000000000000000000000000000000000000000000000000000000000000000100021899277811ALESSANDRE ALVES ANDRADE                RUA MONTE CASTELO - 262 AP.132 - AVIACAO            11702720                                                            000023
2SR. CAIXA, APOS O VENCIMENTO COBRAR 10% DE MULTA                                NAO RECEBER APOS 30 DIAS DO VENCIMENTO.                                                                                                                                                                                                         13071800000000000001307180000000000000       0090770900016748218992071816000024
100000000000000000000009077090001674800000000000000000000000010002100003441207181000000000002            2  01034412071824071800000002098710000000001N120718000000000000000000000000000000000000000000000000000000000000000100003441232860LUIZ CARLOS CAMARGO BIANCHI             RUA GENERAL LEITE DE CASTRO - 200 - JARD            04182020                                                            000026
2SR. CAIXA, APOS O VENCIMENTO COBRAR 10% DE MULTA                                NAO RECEBER APOS 30 DIAS DO VENCIMENTO.                                                                                                                                                                                                         13071800000000000001307180000000000000       0090770900016748034412071810000027
100000000000000000000009077090001674800000000000000000000000010002100014681407181P00000000002            2  01146814071824071800000002177240000000001N120718000000000000000000000000000000000000000000000000000000000000000100014681490830HUMBERTO MOZART CALIXTO                 RUA MONTE CASTELO - 296 AP.41 - AVIACAO             11702720                                                            000029
2SR. CAIXA, APOS O VENCIMENTO COBRAR 10% DE MULTA                                NAO RECEBER APOS 30 DIAS DO VENCIMENTO.                                                                                                                                                                                                         13071800000000000001307180000000000000       009077090001674814681407181P000030
100000000000000000000009077090001674800000000000000000000000010002100023007707181200000000002            2  01230077071824071800000001780260000000001N120718000000000000000000000000000000000000000000000000000000000000000100023007705800BRUNA ANTUN AZEVEDO                     RUA MONTE CASTELO - 296 AP.62 - AVIACAO             11702720                                                            000032
2SR. CAIXA, APOS O VENCIMENTO COBRAR 10% DE MULTA                                NAO RECEBER APOS 30 DIAS DO VENCIMENTO.                                                                                                                                                                                                         13071800000000000001307180000000000000       0090770900016748230077071812000033
100000000000000000000009077090001674800000000000000000000000010002100006550707181000000000002            2  01065507071824071800000001838070000000001N120718000000000000000000000000000000000000000000000000000000000000000100006550730864IVONE APARECIDA VIEIRA GADI TEIXEIRA    RUA SAO FLORENCIO  - 1500 AP.44 BLOCO 01            03733020                                                            000035
2SR. CAIXA, APOS O VENCIMENTO COBRAR 10% DE MULTA                                NAO RECEBER APOS 30 DIAS DO VENCIMENTO.                                                                                                                                                                                                         13071800000000000001307180000000000000       0090770900016748065507071810000036
100000000000000000000009077090001674800000000000000000000000010002100000930607181500000000002            2  01009306071824071800000003317890000000001N120718000000000000000000000000000000000000000000000000000000000000000100000930668642VALERIA RODRIGUES DANTAS                RUA MONTE CASTELO - 262 AP.21 - AVIACAO             11702720                                                            000038
2SR. CAIXA, APOS O VENCIMENTO COBRAR 10% DE MULTA                                NAO RECEBER APOS 30 DIAS DO VENCIMENTO.                                                                                                                                                                                                         13071800000000000001307180000000000000       0090770900016748009306071815000039
100000000000000000000009077090001674800000000000000000000000010002100084057907181900000000002            2  01840579071827071800000002000000000000001N120718000000000000000000000000000000000000000000000000000000000000000100084057904891ANTONIO GONZAGA DOS SANTOS              RUA BRIGADEIRO JOSE FERREIRA - 319 - CAN            11700470                                                            000041
2SR. CAIXA, APOS O VENCIMENTO COBRAR 10% DE MULTA                                NAO RECEBER APOS 30 DIAS DO VENCIMENTO.                                                                                                                                                                                                         13071800000000000001307180000000000000       0090770900016748840579071819000042
100000000000000000000009077090001674800000000000000000000000010002100075574007181900000000002            2  01755740071824071800000002845240000000001N120718000000000000000000000000000000000000000000000000000000000000000100075574063891CASSIO TADEU DA SILVEIRA                RUA CONSELHEIRO MOREIRA DE BARROS - 1.55            02430000                                                            000044
2SR. CAIXA, APOS O VENCIMENTO COBRAR 10% DE MULTA                                NAO RECEBER APOS 30 DIAS DO VENCIMENTO.                                                                                                                                                                                                         13071800000000000001307180000000000000       0090770900016748755740071819000045
100000000000000000000009077090001674800000000000000000000000010002100000764607181700000000002            2  01007646071824071800000002104200000000001N120718000000000000000000000000000000000000000000000000000000000000000100000764632817LUIZ CARLOS ANTUNES JUNIOR              RUA MONTE CASTELO - 262 AP.35 - AVIACAO             11702720                                                            000047
2SR. CAIXA, APOS O VENCIMENTO COBRAR 10% DE MULTA                                NAO RECEBER APOS 30 DIAS DO VENCIMENTO.                                                                                                                                                                                                         13071800000000000001307180000000000000       0090770900016748007646071817000048
100000000000000000000009077090001674800000000000000000000000010002100027317607181700000000002            2  01273176071824071800000002062510000000001N120718000000000000000000000000000000000000000000000000000000000000000100027317668591ERONILTON SOUSA MOTA                    AVENIDA PRESIDENTE KENNEDY - 3203 - AVIA            11701330                                                            000050
2SR. CAIXA, APOS O VENCIMENTO COBRAR 10% DE MULTA                                NAO RECEBER APOS 30 DIAS DO VENCIMENTO.                                                                                                                                                                                                         13071800000000000001307180000000000000       0090770900016748273176071817000051
100000000000000000000009077090001674800000000000000000000000010002100066104107181700000000002            2  01661041071824071800000002127210000000001N120718000000000000000000000000000000000000000000000000000000000000000100066104106820ANADIR FERREIRA                         RUA MONTE CASTELO - 296 AP.61 - AVIACAO             11702720                                                            000053
2SR. CAIXA, APOS O VENCIMENTO COBRAR 10% DE MULTA                                NAO RECEBER APOS 30 DIAS DO VENCIMENTO.                                                                                                                                                                                                         13071800000000000001307180000000000000       0090770900016748661041071817000054
100000000000000000000009077090001674800000000000000000000000010002100072078307181400000000002            2  01720783071824071800000001069560000000001N120718000000000000000000000000000000000000000000000000000000000000000100072078332704FATIMA DA CONCEICAO BEZERRA             RUA DO MANIFESTO - 2.822 CASA 5 - IPIRAN            04209003                                                            000056
2SR. CAIXA, APOS O VENCIMENTO COBRAR 10% DE MULTA                                NAO RECEBER APOS 30 DIAS DO VENCIMENTO.                                                                                                                                                                                                         13071800000000000001307180000000000000       0090770900016748720783071814000057
100000000000000000000009077090001674800000000000000000000000010002100057014507181300000000002            2  01570145071824071800000002388350000000001N120718000000000000000000000000000000000000000000000000000000000000000100057014582887SONIA MARIA DA SILVA PEGORARO           RUA FRANCO PAULISTA  - 80 - AGUA FRIA -             02332030                                                            000059
2SR. CAIXA, APOS O VENCIMENTO COBRAR 10% DE MULTA                                NAO RECEBER APOS 30 DIAS DO VENCIMENTO.                                                                                                                                                                                                         13071800000000000001307180000000000000       0090770900016748570145071813000060
100000000000000000000009077090001674800000000000000000000000010002100006505307181000000000002            2  01065053071824071800000002595890000000001N120718000000000000000000000000000000000000000000000000000000000000000100006505382852LUIS ANTONIO DINIS HENRIQUES            RUA ESTEVAO  BAIAO - 520 AP.93A - CAMPO             04624002                                                            000062
2SR. CAIXA, APOS O VENCIMENTO COBRAR 10% DE MULTA                                NAO RECEBER APOS 30 DIAS DO VENCIMENTO.                                                                                                                                                                                                         13071800000000000001307180000000000000       0090770900016748065053071810000063
100000000000000000000009077090001674800000000000000000000000010002100011544707181300000000002            2  01115447071824071800000004715790000000001N120718000000000000000000000000000000000000000000000000000000000000000100011544777620GRACIELY RODRIGUES FERNANDES            RUA MONTE CASTELO - 262 AP.111 - AVIACAO            11702720                                                            000065
2SR. CAIXA, APOS O VENCIMENTO COBRAR 10% DE MULTA                                NAO RECEBER APOS 30 DIAS DO VENCIMENTO.                                                                                                                                                                                                         13071800000000000001307180000000000000       0090770900016748115447071813000066
100000000000000000000009077090001674800000000000000000000000010002100005629007181800000000002            2  01056290071824071800000003429780000000001N120718000000000000000000000000000000000000000000000000000000000000000100005629087819ROMILDO MARTINS PIZA                    RUA MAESTRO ARTURO DE ANGELIS - 190 AP.3            05139010                                                            000068
2SR. CAIXA, APOS O VENCIMENTO COBRAR 10% DE MULTA                                NAO RECEBER APOS 30 DIAS DO VENCIMENTO.                                                                                                                                                                                                         13071800000000000001307180000000000000       0090770900016748056290071818000069
100000000000000000000009077090001674800000000000000000000000010002100004290907181700000000002            2  01042909071824071800000001828190000000001N120718000000000000000000000000000000000000000000000000000000000000000100004290973876WLADIMIR PAIOLA BORREGO                 RUA GOMES - 429 - VILA IVONE - SAO PAULO            03275010                                                            000071
2SR. CAIXA, APOS O VENCIMENTO COBRAR 10% DE MULTA                                NAO RECEBER APOS 30 DIAS DO VENCIMENTO.                                                                                                                                                                                                         13071800000000000001307180000000000000       0090770900016748042909071817000072
100000000000000000000009077090001674800000000000000000000000010002100034325507181200000000002            2  01343255071824071800000001730790000000001N120718000000000000000000000000000000000000000000000000000000000000000100034325567801LUIZ FERNANDO ALAMINO                   RUA MONTE CASTELO - 296 AP.21 - AVIACAO             11702720                                                            000074
2SR. CAIXA, APOS O VENCIMENTO COBRAR 10% DE MULTA                                NAO RECEBER APOS 30 DIAS DO VENCIMENTO.                                                                                                                                                                                                         13071800000000000001307180000000000000       0090770900016748343255071812000075
100000000000000000000009077090001674800000000000000000000000010002100018272707181800000000002            2  01182727071827071800000001800000000000001N120718000000000000000000000000000000000000000000000000000000000000000100018272729881HENRY CESAR UEDA                        RUA MONTE CASTELO - 295 AP.94 - AVIACAO             11702720                                                            000077
2SR. CAIXA, APOS O VENCIMENTO COBRAR 10% DE MULTA                                NAO RECEBER APOS 30 DIAS DO VENCIMENTO.                                                                                                                                                                                                         13071800000000000001307180000000000000       0090770900016748182727071818000078
100000000000000000000009077090001674800000000000000000000000010002100021335407181500000000002            2  01213354071824071800000001309750000000001N120718000000000000000000000000000000000000000000000000000000000000000100021335464808RAQUEL FERREIRA RAMOS                   RUA ANTONIO SEVERIANO DE ANDRADE E SILVA            11702400                                                            000080
2SR. CAIXA, APOS O VENCIMENTO COBRAR 10% DE MULTA                                NAO RECEBER APOS 30 DIAS DO VENCIMENTO.                                                                                                                                                                                                         13071800000000000001307180000000000000       0090770900016748213354071815000081
9                                                                                                                                                                                                                                                                                                                                                                                                         000082