01REMESSA01COBRANCA       00000000000004991788AIRES DESENVOLVIMENTO IMOBILIA237BRADESCO       010919        MX0000160                                                                                                                                                                                                                                                                                     000001
100000000000000000000009077090011897400000000000000000000000010002100012708309191900000000002            2  01127083091910091900000001796540000000001N010919000000000000000000000000000000000000000000000000000000000000000100012708342827ADRIANA RATIER CRUZ                     RUA JOSE CALIXTO DO CARMO - 295 APTO 31             11702690                                                            000002
2SR. CAIXA, APOS O VENCIMENTO COBRAR 10% DE MULTA                                NAO RECEBER APOS 30 DIAS DO VENCIMENTO.                                                                                                                                                                                                         01091900000000000000109190000000000000       0090770900118974127083091919000003
100000000000000000000009077090011897400000000000000000000000010002100000452409191500000000002            2  01004524091910091900000001371450000000001N010919000000000000000000000000000000000000000000000000000000000000000100000452415896MARILUCE SANTOS DE ALMEIDA              RUA JOSE CALIXTO DO CARMO - 295 AP.74 -             11702690                                                            000005
2SR. CAIXA, APOS O VENCIMENTO COBRAR 10% DE MULTA                                NAO RECEBER APOS 30 DIAS DO VENCIMENTO.                                                                                                                                                                                                         01091900000000000000109190000000000000       0090770900118974004524091915000006
100000000000000000000009077090011897400000000000000000000000010002100003406909191600000000002            2  01034069091909091900000001561290000000001N010919000000000000000000000000000000000000000000000000000000000000000100003406972888RONALDO CANDIDO PANSONATO               AV. DOM JAIME DE BARROS CAMERA - 565 AP.            09895400                                                            000008
2SR. CAIXA, APOS O VENCIMENTO COBRAR 10% DE MULTA                                NAO RECEBER APOS 30 DIAS DO VENCIMENTO.                                                                                                                                                                                                         01091900000000000000109190000000000000       0090770900118974034069091916000009
100000000000000000000009077090011897400000000000000000000000010002100013191209191000000000002            2  01131912091911091900000001800000000000001N010919000000000000000000000000000000000000000000000000000000000000000100013191291881MARCELO RICARDO MASCAROS SOUTO          RUA MONTE CASTELO - 295 AP.102 - AVIACAO            11702720                                                            000011
2SR. CAIXA, APOS O VENCIMENTO COBRAR 10% DE MULTA                                NAO RECEBER APOS 30 DIAS DO VENCIMENTO.                                                                                                                                                                                                         01091900000000000000109190000000000000       0090770900118974131912091910000012
100000000000000000000009077090011897400000000000000000000000010002100037288709191600000000002            2  01372887091911091900000001550000000000001N010919000000000000000000000000000000000000000000000000000000000000000100037288754812EVERTON CARDOSO DOS SANTOS              RUA CONSELHEIRO ELIAS DE CARVALHO - 50 A            04373000                                                            000014
2SR. CAIXA, APOS O VENCIMENTO COBRAR 10% DE MULTA                                NAO RECEBER APOS 30 DIAS DO VENCIMENTO.                                                                                                                                                                                                         01091900000000000000109190000000000000       0090770900118974372887091916000015
100000000000000000000009077090011897400000000000000000000000010002100001461009191500000000002            2  01014610091909091900000001395700000000001N010919000000000000000000000000000000000000000000000000000000000000000100001461096863ARGEVAL LOURENCO MAZOLA                 RUA ZELY DIAS DE FIGUEIREDO - 81 - VILA             02617060                                                            000017
2SR. CAIXA, APOS O VENCIMENTO COBRAR 10% DE MULTA                                NAO RECEBER APOS 30 DIAS DO VENCIMENTO.                                                                                                                                                                                                         01091900000000000000109190000000000000       0090770900118974014610091915000018
9                                                                                                                                                                                                                                                                                                                                                                                                         000019