01REMESSA01COBRANCA       00000000000004991454AIRES CONSTRUTORA E INCORPORAD237BRADESCO       010520        MX0000155                                                                                                                                                                                                                                                                                     000001
100000000000000000000009077090001674800000000000000000000000010002100099740405201P00000000002            2  01997404052009052000000003240380000000001N010520000000000000000000000000000000000000000000000000000000000000000100099740451853ARNALDO DA SILVA SALES                  RUA ALEGRE - 210 - VILA SAO RAFAEL - GUA            07053100                                                            000002
2SR. CAIXA, APOS O VENCIMENTO COBRAR 10% DE MULTA                                NAO RECEBER APOS 30 DIAS DO VENCIMENTO.                                                                                                                                                                                                         01052000000000000000105200000000000000       009077090001674899740405201P000003
100000000000000000000009077090001674800000000000000000000000010002100044380705201400000000002            2  01443807052009052000000005227090000000001N010520000000000000000000000000000000000000000000000000000000000000000100044380725812FERNANDO FIRMINO DOS SANTOS             RUA BARAO GERALDO DE RESENDE - 401 - BAI            05205220                                                            000005
2SR. CAIXA, APOS O VENCIMENTO COBRAR 10% DE MULTA                                NAO RECEBER APOS 30 DIAS DO VENCIMENTO.                                                                                                                                                                                                         01052000000000000000105200000000000000       0090770900016748443807052014000006
100000000000000000000009077090001674800000000000000000000000010002100025469405201500000000002            2  01254694052009052000000001627090000000001N010520000000000000000000000000000000000000000000000000000000000000000100025469470873JULIA MARIA RODRIGUES MARTINS           AVENIDA JOAO FIRMINO - 1229 AP.21 - BAIR            09810260                                                            000008
2SR. CAIXA, APOS O VENCIMENTO COBRAR 10% DE MULTA                                NAO RECEBER APOS 30 DIAS DO VENCIMENTO.                                                                                                                                                                                                         01052000000000000000105200000000000000       0090770900016748254694052015000009
100000000000000000000009077090001674800000000000000000000000010002100004759505201600000000002            2  01047595052009052000000003939350000000001N010520000000000000000000000000000000000000000000000000000000000000000100004759534873AGNALDO PORFIRIO DOS SANTOS             RUA JUVENCIO GASPAR DA SILVA - 35 - SAO             04303060                                                            000011
2SR. CAIXA, APOS O VENCIMENTO COBRAR 10% DE MULTA                                NAO RECEBER APOS 30 DIAS DO VENCIMENTO.                                                                                                                                                                                                         01052000000000000000105200000000000000       0090770900016748047595052016000012
100000000000000000000009077090001674800000000000000000000000010002100090830405201P00000000002            2  01908304052009052000000001241920000000001N010520000000000000000000000000000000000000000000000000000000000000000100090830490868IVONETE FERNANDES                       AVENIDA FREDERICO OZANAN - 5504 - VILA R            13215276                                                            000014
2SR. CAIXA, APOS O VENCIMENTO COBRAR 10% DE MULTA                                NAO RECEBER APOS 30 DIAS DO VENCIMENTO.                                                                                                                                                                                                         01052000000000000000105200000000000000       009077090001674890830405201P000015
100000000000000000000009077090001674800000000000000000000000010002100027093905201100000000002            2  01270939052009052000000003078740000000001N010520000000000000000000000000000000000000000000000000000000000000000100027093944809DAVID ALEXANDRE XAVIER ROCHA            RUA MONTE CASTELO - 296 AP.54 - AVIACAO             11702720                                                            000017
2SR. CAIXA, APOS O VENCIMENTO COBRAR 10% DE MULTA                                NAO RECEBER APOS 30 DIAS DO VENCIMENTO.                                                                                                                                                                                                         01052000000000000000105200000000000000       0090770900016748270939052011000018
100000000000000000000009077090001674800000000000000000000000010002100068273205201800000000002            2  01682732052009052000000002241100000000001N010520000000000000000000000000000000000000000000000000000000000000000100068273290891DERNEVAL JOSE MUNIZ                     RUA MARTINOPOLIS - 98 - JARDIM OTAWA - G            07230230                                                            000020
2SR. CAIXA, APOS O VENCIMENTO COBRAR 10% DE MULTA                                NAO RECEBER APOS 30 DIAS DO VENCIMENTO.                                                                                                                                                                                                         01052000000000000000105200000000000000       0090770900016748682732052018000021
100000000000000000000009077090001674800000000000000000000000010002100001817505201000000000002            2  01018175052009052000000001915300000000001N010520000000000000000000000000000000000000000000000000000000000000000100001817534807SANTINA SALVINA SOARES                  RUA CAIAPOS - 1066 AP.43 - VILA TUPI - P            11703320                                                            000023
2SR. CAIXA, APOS O VENCIMENTO COBRAR 10% DE MULTA                                NAO RECEBER APOS 30 DIAS DO VENCIMENTO.                                                                                                                                                                                                         01052000000000000000105200000000000000       0090770900016748018175052010000024
100000000000000000000009077090001674800000000000000000000000010002100086755705201800000000002            2  01867557052009052000000002069160000000001N010520000000000000000000000000000000000000000000000000000000000000000100086755790800GERALDO JAIR BROGLIATTO                 DR.ARMANDO COSTA MAGALHAES - 176 - VILA             13270490                                                            000026
2SR. CAIXA, APOS O VENCIMENTO COBRAR 10% DE MULTA                                NAO RECEBER APOS 30 DIAS DO VENCIMENTO.                                                                                                                                                                                                         01052000000000000000105200000000000000       0090770900016748867557052018000027
100000000000000000000009077090001674800000000000000000000000010002100007996005201100000000002            2  01079960052009052000000002055490000000001N010520000000000000000000000000000000000000000000000000000000000000000100007996062862HENRIQUE SALVADOR                       RUA DARDANELOS - 689 - PARQUE NOVO ORATO            09260060                                                            000029
2SR. CAIXA, APOS O VENCIMENTO COBRAR 10% DE MULTA                                NAO RECEBER APOS 30 DIAS DO VENCIMENTO.                                                                                                                                                                                                         01052000000000000000105200000000000000       0090770900016748079960052011000030
100000000000000000000009077090001674800000000000000000000000010002100010066005201900000000002            2  01100660052009052000000002753660000000001N010520000000000000000000000000000000000000000000000000000000000000000100010066071534MOISES ROQUE DO ROSARIO                 RUA DAS PAPOULAS - 53 - VILA BELA - SAO             03202010                                                            000032
2SR. CAIXA, APOS O VENCIMENTO COBRAR 10% DE MULTA                                NAO RECEBER APOS 30 DIAS DO VENCIMENTO.                                                                                                                                                                                                         01052000000000000000105200000000000000       0090770900016748100660052019000033
100000000000000000000009077090001674800000000000000000000000010002100085910005201P00000000002            2  01859100052009052000000003142010000000001N010520000000000000000000000000000000000000000000000000000000000000000100085910031872SERGIO NOGUEIRA                         RUA MONTE CASTELO - 262 AP.55 - AVIACAO             11702720                                                            000035
2SR. CAIXA, APOS O VENCIMENTO COBRAR 10% DE MULTA                                NAO RECEBER APOS 30 DIAS DO VENCIMENTO.                                                                                                                                                                                                         01052000000000000000105200000000000000       009077090001674885910005201P000036
100000000000000000000009077090001674800000000000000000000000010002100000746805201300000000002            2  01007468052009052000000002540220000000001N010520000000000000000000000000000000000000000000000000000000000000000100000746845820ANTONIO CARLOS DE MELLO                 RUA CONGO - 118 - PARQUE MONTE ALEGRE -             06756270                                                            000038
2SR. CAIXA, APOS O VENCIMENTO COBRAR 10% DE MULTA                                NAO RECEBER APOS 30 DIAS DO VENCIMENTO.                                                                                                                                                                                                         01052000000000000000105200000000000000       0090770900016748007468052013000039
100000000000000000000009077090001674800000000000000000000000010002100028196105201900000000002            2  01281961052009052000000001829180000000001N010520000000000000000000000000000000000000000000000000000000000000000100028196184808VANESSA NOGUEIRA CAMBUI DA SILVA        CRISTOVAO COLOMBO - 217 - VILA AMERICA -            09110160                                                            000041
2SR. CAIXA, APOS O VENCIMENTO COBRAR 10% DE MULTA                                NAO RECEBER APOS 30 DIAS DO VENCIMENTO.                                                                                                                                                                                                         01052000000000000000105200000000000000       0090770900016748281961052019000042
100000000000000000000009077090001674800000000000000000000000010002100049730805201400000000002            2  01497308052009052000000001501520000000001N010520000000000000000000000000000000000000000000000000000000000000000100049730835420PEDRO LUIZ DO BOM FIM FILHO             RUA NASCER DO SOL - 91 - BAIRRO PIRAPORI            09951475                                                            000044
2SR. CAIXA, APOS O VENCIMENTO COBRAR 10% DE MULTA                                NAO RECEBER APOS 30 DIAS DO VENCIMENTO.                                                                                                                                                                                                         01052000000000000000105200000000000000       0090770900016748497308052014000045
100000000000000000000009077090001674800000000000000000000000010002100027067005201P00000000002            2  01270670052009052000000001862920000000001N010520000000000000000000000000000000000000000000000000000000000000000100027067002893MARCIA NASCIMENTO DE MORAES             RUA MONTE CASTELO - 296 AP.11 - AVIACAO             11702720                                                            000047
2SR. CAIXA, APOS O VENCIMENTO COBRAR 10% DE MULTA                                NAO RECEBER APOS 30 DIAS DO VENCIMENTO.                                                                                                                                                                                                         01052000000000000000105200000000000000       009077090001674827067005201P000048
100000000000000000000009077090001674800000000000000000000000010002100094921805201300000000002            2  01949218052009052000000001849050000000001N010520000000000000000000000000000000000000000000000000000000000000000100094921890897JOAO JORGE DA ROSA FILHO                RUA OLAVO EGIDIO DE SOUZA ARANHA - 368 A            03822000                                                            000050
2SR. CAIXA, APOS O VENCIMENTO COBRAR 10% DE MULTA                                NAO RECEBER APOS 30 DIAS DO VENCIMENTO.                                                                                                                                                                                                         01052000000000000000105200000000000000       0090770900016748949218052013000051
100000000000000000000009077090001674800000000000000000000000010002100008364805201P00000000002            2  01083648052009052000000002243170000000001N010520000000000000000000000000000000000000000000000000000000000000000100008364834800JOSEFINA CORREA RAMA DOS SANTOS         AVENIDA PRESIDENTE CASTELO BRANCO - 3.78            11702700                                                            000053
2SR. CAIXA, APOS O VENCIMENTO COBRAR 10% DE MULTA                                NAO RECEBER APOS 30 DIAS DO VENCIMENTO.                                                                                                                                                                                                         01052000000000000000105200000000000000       009077090001674808364805201P000054
100000000000000000000009077090001674800000000000000000000000010002100037713305201000000000002            2  01377133052009052000000001835290000000001N010520000000000000000000000000000000000000000000000000000000000000000100037713356800JAMILLE PAULA BUENO LOPES               RUA CURIO (COND.NEW VILLE) - 172 - SURU             06509031                                                            000056
2SR. CAIXA, APOS O VENCIMENTO COBRAR 10% DE MULTA                                NAO RECEBER APOS 30 DIAS DO VENCIMENTO.                                                                                                                                                                                                         01052000000000000000105200000000000000       0090770900016748377133052010000057
100000000000000000000009077090001674800000000000000000000000010002100027100905201800000000002            2  01271009052009052000000002138140000000001N010520000000000000000000000000000000000000000000000000000000000000000100027100951810MARCIA RAMALHO RODRIGUES                RUA MONTE CASTELO - 296 AP.82 - AVIACAO             11702720                                                            000059
2SR. CAIXA, APOS O VENCIMENTO COBRAR 10% DE MULTA                                NAO RECEBER APOS 30 DIAS DO VENCIMENTO.                                                                                                                                                                                                         01052000000000000000105200000000000000       0090770900016748271009052018000060
100000000000000000000009077090001674800000000000000000000000010002100076207905201900000000002            2  01762079052009052000000002305930000000001N010520000000000000000000000000000000000000000000000000000000000000000100076207943872JOSE MACEDO RICARTE FILHO               RUA ARTUR LOBO - 181 - JARDIM JABAQUARA             04384060                                                            000062
2SR. CAIXA, APOS O VENCIMENTO COBRAR 10% DE MULTA                                NAO RECEBER APOS 30 DIAS DO VENCIMENTO.                                                                                                                                                                                                         01052000000000000000105200000000000000       0090770900016748762079052019000063
100000000000000000000009077090001674800000000000000000000000010002100094672605201100000000002            2  01946726052009052000000002912140000000001N010520000000000000000000000000000000000000000000000000000000000000000100094672660834JOSE HENRIQUE SOARES PEREIRA INACIO     RUA MONTE CASTELO - 296 AP.34 - AVIACAO             11702720                                                            000065
2SR. CAIXA, APOS O VENCIMENTO COBRAR 10% DE MULTA                                NAO RECEBER APOS 30 DIAS DO VENCIMENTO.                                                                                                                                                                                                         01052000000000000000105200000000000000       0090770900016748946726052011000066
100000000000000000000009077090001674800000000000000000000000010002100025265205201200000000002            2  01252652052009052000000001583360000000001N010520000000000000000000000000000000000000000000000000000000000000000100025265260862SONIA MARIA CECILIO DA SILVA            RUA PRESIDENTE TANCREDO NEVES - 1093 AP.            06329350                                                            000068
2SR. CAIXA, APOS O VENCIMENTO COBRAR 10% DE MULTA                                NAO RECEBER APOS 30 DIAS DO VENCIMENTO.                                                                                                                                                                                                         01052000000000000000105200000000000000       0090770900016748252652052012000069
100000000000000000000009077090001674800000000000000000000000010002100011381905201P00000000002            2  01113819052009052000000003017810000000001N010520000000000000000000000000000000000000000000000000000000000000000100011381987818MARIO DONIZETE MIGUEL DA SILVA          RUA JASPE - 215 - HIGIANOPOLIS - JANDIRA            06642270                                                            000071
2SR. CAIXA, APOS O VENCIMENTO COBRAR 10% DE MULTA                                NAO RECEBER APOS 30 DIAS DO VENCIMENTO.                                                                                                                                                                                                         01052000000000000000105200000000000000       009077090001674811381905201P000072
100000000000000000000009077090001674800000000000000000000000010002100020105505201600000000002            2  01201055052009052000000002446180000000001N010520000000000000000000000000000000000000000000000000000000000000000100020105503827VALTER DE SOUSA LIBARINO FILHO          RUA DAS PAINEIRAS - 140 - BAIRRO LARANJE            07741205                                                            000074
2SR. CAIXA, APOS O VENCIMENTO COBRAR 10% DE MULTA                                NAO RECEBER APOS 30 DIAS DO VENCIMENTO.                                                                                                                                                                                                         01052000000000000000105200000000000000       0090770900016748201055052016000075
100000000000000000000009077090001674800000000000000000000000010002100003010505201300000000002            2  01030105052009052000000002643110000000001N010520000000000000000000000000000000000000000000000000000000000000000100003010502877GIZELA VIEIRA BARROS                    RUA GIACOMO DALCIN - 157 - NOVA GERTY -             09580350                                                            000077
2SR. CAIXA, APOS O VENCIMENTO COBRAR 10% DE MULTA                                NAO RECEBER APOS 30 DIAS DO VENCIMENTO.                                                                                                                                                                                                         01052000000000000000105200000000000000       0090770900016748030105052013000078
100000000000000000000009077090001674800000000000000000000000010002100036712505201400000000002            2  01367125052009052000000001968890000000001N010520000000000000000000000000000000000000000000000000000000000000000100036712580803WALTER BARRETO DE ALMEIDA               RUA MONTE CASTELO - 296 AP.44 - AVIACAO             11702720                                                            000080
2SR. CAIXA, APOS O VENCIMENTO COBRAR 10% DE MULTA                                NAO RECEBER APOS 30 DIAS DO VENCIMENTO.                                                                                                                                                                                                         01052000000000000000105200000000000000       0090770900016748367125052014000081
100000000000000000000009077090001674800000000000000000000000010002100004213005201800000000002            2  01042130052009052000000001923700000000001N010520000000000000000000000000000000000000000000000000000000000000000100004213020894ELIETE DRUGOVICH DE LIMA                RUA OSVALDO CRUZ - 141 AP.144-B - SANTA             09541270                                                            000083
2SR. CAIXA, APOS O VENCIMENTO COBRAR 10% DE MULTA                                NAO RECEBER APOS 30 DIAS DO VENCIMENTO.                                                                                                                                                                                                         01052000000000000000105200000000000000       0090770900016748042130052018000084
9                                                                                                                                                                                                                                                                                                                                                                                                         000085