01REMESSA01COBRANCA       00000000000004991788AIRES DESENVOLVIMENTO IMOBILIA237BRADESCO       080520        MX0000177                                                                                                                                                                                                                                                                                     000001
100000000000000000000009077090011897400000000000000000000000010002100027324005201500000000002            2  01273240052024052000000001744140000000001N050520000000000000000000000000000000000000000000000000000000000000000100027324099874LEONARDO BORGES DUARTE SILVA            RUA JOSE CALIXTO DO CARMO - 265 AP.94 -             11702690                                                            000002
2SR. CAIXA, APOS O VENCIMENTO COBRAR 10% DE MULTA                                NAO RECEBER APOS 30 DIAS DO VENCIMENTO.                                                                                                                                                                                                         08052000000000000000805200000000000000       0090770900118974273240052015000003
100000000000000000000009077090011897400000000000000000000000010002100027300905201000000000002            2  01273009052024052000000001954190000000001N050520000000000000000000000000000000000000000000000000000000000000000100027300953816HOSANA DOS SANTOS MOLEIRO               RUA JOSE CALIXTO DO CARMO - 295 AP.61 -             11702690                                                            000005
2SR. CAIXA, APOS O VENCIMENTO COBRAR 10% DE MULTA                                NAO RECEBER APOS 30 DIAS DO VENCIMENTO.                                                                                                                                                                                                         08052000000000000000805200000000000000       0090770900118974273009052010000006
100000000000000000000009077090011897400000000000000000000000010002100006476005201P00000000002            2  01064760052024052000000001679010000000001N050520000000000000000000000000000000000000000000000000000000000000000100006476037803CLAUDIO JOSE LEMOS                      RUA MISSIONS - 127 - VILA BUENOS AIRES -            03736060                                                            000008
2SR. CAIXA, APOS O VENCIMENTO COBRAR 10% DE MULTA                                NAO RECEBER APOS 30 DIAS DO VENCIMENTO.                                                                                                                                                                                                         08052000000000000000805200000000000000       009077090011897406476005201P000009
9                                                                                                                                                                                                                                                                                                                                                                                                         000010