01REMESSA01COBRANCA       00000000000004991454AIRES CONSTRUTORA E INCORPORAD237BRADESCO       011118        MX0000119                                                                                                                                                                                                                                                                                     000001
100000000000000000000009077090001674800000000000000000000000010002100099740411181400000000002            2  01997404111809111800000002832620000000001N011118000000000000000000000000000000000000000000000000000000000000000100099740451853ARNALDO DA SILVA SALES                  RUA ALEGRE - 210 - VILA SAO RAFAEL - GUA            07053100                                                            000002
2SR. CAIXA, APOS O VENCIMENTO COBRAR 10% DE MULTA                                NAO RECEBER APOS 30 DIAS DO VENCIMENTO.                                                                                                                                                                                                         01111800000000000000111180000000000000       0090770900016748997404111814000003
100000000000000000000009077090001674800000000000000000000000010002100049736711181400000000002            2  01497367111809111800000001718830000000001N011118000000000000000000000000000000000000000000000000000000000000000100049736787320RAIMUNDO VIEIRA DA SILVA                RUA BOLIVIA - 81 AP.ZELADORIA - JARDIM G            11701850                                                            000005
2SR. CAIXA, APOS O VENCIMENTO COBRAR 10% DE MULTA                                NAO RECEBER APOS 30 DIAS DO VENCIMENTO.                                                                                                                                                                                                         01111800000000000000111180000000000000       0090770900016748497367111814000006
100000000000000000000009077090001674800000000000000000000000010002100044380711181900000000002            2  01443807111809111800000004569290000000001N011118000000000000000000000000000000000000000000000000000000000000000100044380725812FERNANDO FIRMINO DOS SANTOS             RUA BARAO GERALDO DE RESENDE - 401 - BAI            05205220                                                            000008
2SR. CAIXA, APOS O VENCIMENTO COBRAR 10% DE MULTA                                NAO RECEBER APOS 30 DIAS DO VENCIMENTO.                                                                                                                                                                                                         01111800000000000000111180000000000000       0090770900016748443807111819000009
100000000000000000000009077090001674800000000000000000000000010002100025469411181P00000000002            2  01254694111809111800000001422330000000001N011118000000000000000000000000000000000000000000000000000000000000000100025469470873JULIA MARIA RODRIGUES MARTINS           AVENIDA JOAO FIRMINO - 1229 AP.21 - BAIR            09810260                                                            000011
2SR. CAIXA, APOS O VENCIMENTO COBRAR 10% DE MULTA                                NAO RECEBER APOS 30 DIAS DO VENCIMENTO.                                                                                                                                                                                                         01111800000000000000111180000000000000       009077090001674825469411181P000012
100000000000000000000009077090001674800000000000000000000000010002100004759511181000000000002            2  01047595111809111800000003443600000000001N011118000000000000000000000000000000000000000000000000000000000000000100004759534873AGNALDO PORFIRIO DOS SANTOS             RUA JUVENCIO GASPAR DA SILVA - 35 - SAO             04303060                                                            000014
2SR. CAIXA, APOS O VENCIMENTO COBRAR 10% DE MULTA                                NAO RECEBER APOS 30 DIAS DO VENCIMENTO.                                                                                                                                                                                                         01111800000000000000111180000000000000       0090770900016748047595111810000015
100000000000000000000009077090001674800000000000000000000000010002100014924011181700000000002            2  01149240111809111800000001855790000000001N011118000000000000000000000000000000000000000000000000000000000000000100014924049859KATIA REGINA DE OLIVEIRA SILVA          RUA ANTONIO SIMIONATO - 73 AP.14 - SANTA            09780180                                                            000017
2SR. CAIXA, APOS O VENCIMENTO COBRAR 10% DE MULTA                                NAO RECEBER APOS 30 DIAS DO VENCIMENTO.                                                                                                                                                                                                         01111800000000000000111180000000000000       0090770900016748149240111817000018
100000000000000000000009077090001674800000000000000000000000010002100090830411181400000000002            2  01908304111809111800000001085630000000001N011118000000000000000000000000000000000000000000000000000000000000000100090830490868IVONETE FERNANDES                       AVENIDA FREDERICO OZANAN - 5504 - VILA R            13215276                                                            000020
2SR. CAIXA, APOS O VENCIMENTO COBRAR 10% DE MULTA                                NAO RECEBER APOS 30 DIAS DO VENCIMENTO.                                                                                                                                                                                                         01111800000000000000111180000000000000       0090770900016748908304111814000021
100000000000000000000009077090001674800000000000000000000000010002100027093911181600000000002            2  01270939111809111800000002691300000000001N011118000000000000000000000000000000000000000000000000000000000000000100027093944809DAVID ALEXANDRE XAVIER ROCHA            RUA MONTE CASTELO - 296 AP.54 - AVIACAO             11702720                                                            000023
2SR. CAIXA, APOS O VENCIMENTO COBRAR 10% DE MULTA                                NAO RECEBER APOS 30 DIAS DO VENCIMENTO.                                                                                                                                                                                                         01111800000000000000111180000000000000       0090770900016748270939111816000024
100000000000000000000009077090001674800000000000000000000000010002100068273211181200000000002            2  01682732111809111800000001959080000000001N011118000000000000000000000000000000000000000000000000000000000000000100068273290891DERNEVAL JOSE MUNIZ                     RUA MARTINOPOLIS - 98 - JARDIM OTAWA - G            07230230                                                            000026
2SR. CAIXA, APOS O VENCIMENTO COBRAR 10% DE MULTA                                NAO RECEBER APOS 30 DIAS DO VENCIMENTO.                                                                                                                                                                                                         01111800000000000000111180000000000000       0090770900016748682732111812000027
100000000000000000000009077090001674800000000000000000000000010002100001817511181500000000002            2  01018175111809111800000001674270000000001N011118000000000000000000000000000000000000000000000000000000000000000100001817534807SANTINA SALVINA SOARES                  RUA CAIAPOS - 1066 AP.43 - VILA TUPI - P            11703320                                                            000029
2SR. CAIXA, APOS O VENCIMENTO COBRAR 10% DE MULTA                                NAO RECEBER APOS 30 DIAS DO VENCIMENTO.                                                                                                                                                                                                         01111800000000000000111180000000000000       0090770900016748018175111815000030
100000000000000000000009077090001674800000000000000000000000010002100086755711181200000000002            2  01867557111809111800000001808770000000001N011118000000000000000000000000000000000000000000000000000000000000000100086755790800GERALDO JAIR BROGLIATTO                 DR.ARMANDO COSTA MAGALHAES - 176 - VILA             13270490                                                            000032
2SR. CAIXA, APOS O VENCIMENTO COBRAR 10% DE MULTA                                NAO RECEBER APOS 30 DIAS DO VENCIMENTO.                                                                                                                                                                                                         01111800000000000000111180000000000000       0090770900016748867557111812000033
100000000000000000000009077090001674800000000000000000000000010002100007996011181600000000002            2  01079960111809111800000001796820000000001N011118000000000000000000000000000000000000000000000000000000000000000100007996062862HENRIQUE SALVADOR                       RUA DARDANELOS - 689 - PARQUE NOVO ORATO            09260060                                                            000035
2SR. CAIXA, APOS O VENCIMENTO COBRAR 10% DE MULTA                                NAO RECEBER APOS 30 DIAS DO VENCIMENTO.                                                                                                                                                                                                         01111800000000000000111180000000000000       0090770900016748079960111816000036
100000000000000000000009077090001674800000000000000000000000010002100010066011181300000000002            2  01100660111809111800000002407130000000001N011118000000000000000000000000000000000000000000000000000000000000000100010066071534MOISES ROQUE DO ROSARIO                 RUA DAS PAPOULAS - 53 - VILA BELA - SAO             03202010                                                            000038
2SR. CAIXA, APOS O VENCIMENTO COBRAR 10% DE MULTA                                NAO RECEBER APOS 30 DIAS DO VENCIMENTO.                                                                                                                                                                                                         01111800000000000000111180000000000000       0090770900016748100660111813000039
100000000000000000000009077090001674800000000000000000000000010002100085910011181400000000002            2  01859100111809111800000002746620000000001N011118000000000000000000000000000000000000000000000000000000000000000100085910031872SERGIO NOGUEIRA                         RUA MONTE CASTELO - 262 AP.55 - AVIACAO             11702720                                                            000041
2SR. CAIXA, APOS O VENCIMENTO COBRAR 10% DE MULTA                                NAO RECEBER APOS 30 DIAS DO VENCIMENTO.                                                                                                                                                                                                         01111800000000000000111180000000000000       0090770900016748859100111814000042
100000000000000000000009077090001674800000000000000000000000010002100000746811181800000000002            2  01007468111809111800000002220550000000001N011118000000000000000000000000000000000000000000000000000000000000000100000746845820ANTONIO CARLOS DE MELLO                 RUA CONGO - 118 - PARQUE MONTE ALEGRE -             06756270                                                            000044
2SR. CAIXA, APOS O VENCIMENTO COBRAR 10% DE MULTA                                NAO RECEBER APOS 30 DIAS DO VENCIMENTO.                                                                                                                                                                                                         01111800000000000000111180000000000000       0090770900016748007468111818000045
100000000000000000000009077090001674800000000000000000000000010002100028196111181300000000002            2  01281961111809111800000001598990000000001N011118000000000000000000000000000000000000000000000000000000000000000100028196184808VANESSA NOGUEIRA CAMBUI DA SILVA        CRISTOVAO COLOMBO - 217 - VILA AMERICA -            09110160                                                            000047
2SR. CAIXA, APOS O VENCIMENTO COBRAR 10% DE MULTA                                NAO RECEBER APOS 30 DIAS DO VENCIMENTO.                                                                                                                                                                                                         01111800000000000000111180000000000000       0090770900016748281961111813000048
100000000000000000000009077090001674800000000000000000000000010002100049730811181900000000002            2  01497308111809111800000001312560000000001N011118000000000000000000000000000000000000000000000000000000000000000100049730835420PEDRO LUIZ DO BOM FIM FILHO             RUA NASCER DO SOL - 91 - BAIRRO PIRAPORI            09951475                                                            000050
2SR. CAIXA, APOS O VENCIMENTO COBRAR 10% DE MULTA                                NAO RECEBER APOS 30 DIAS DO VENCIMENTO.                                                                                                                                                                                                         01111800000000000000111180000000000000       0090770900016748497308111819000051
100000000000000000000009077090001674800000000000000000000000010002100027067011181400000000002            2  01270670111809111800000001628490000000001N011118000000000000000000000000000000000000000000000000000000000000000100027067002893MARCIA NASCIMENTO DE MORAES             RUA MONTE CASTELO - 296 AP.11 - AVIACAO             11702720                                                            000053
2SR. CAIXA, APOS O VENCIMENTO COBRAR 10% DE MULTA                                NAO RECEBER APOS 30 DIAS DO VENCIMENTO.                                                                                                                                                                                                         01111800000000000000111180000000000000       0090770900016748270670111814000054
100000000000000000000009077090001674800000000000000000000000010002100064435711181900000000002            2  01644357111809111800000001628490000000001N011118000000000000000000000000000000000000000000000000000000000000000100064435741849JURACY DA SILVA                         RUA JACARATINGA - 192 - JARDIM PIRAJUCAR            05786120                                                            000056
2SR. CAIXA, APOS O VENCIMENTO COBRAR 10% DE MULTA                                NAO RECEBER APOS 30 DIAS DO VENCIMENTO.                                                                                                                                                                                                         01111800000000000000111180000000000000       0090770900016748644357111819000057
100000000000000000000009077090001674800000000000000000000000010002100094921811181800000000002            2  01949218111809111800000001616370000000001N011118000000000000000000000000000000000000000000000000000000000000000100094921890897JOAO JORGE DA ROSA FILHO                RUA OLAVO EGIDIO DE SOUZA ARANHA - 368 A            03822000                                                            000059
2SR. CAIXA, APOS O VENCIMENTO COBRAR 10% DE MULTA                                NAO RECEBER APOS 30 DIAS DO VENCIMENTO.                                                                                                                                                                                                         01111800000000000000111180000000000000       0090770900016748949218111818000060
100000000000000000000009077090001674800000000000000000000000010002100008364811181400000000002            2  01083648111809111800000001960860000000001N011118000000000000000000000000000000000000000000000000000000000000000100008364834800JOSEFINA CORREA RAMA DOS SANTOS         AVENIDA PRESIDENTE CASTELO BRANCO - 3.78            11702700                                                            000062
2SR. CAIXA, APOS O VENCIMENTO COBRAR 10% DE MULTA                                NAO RECEBER APOS 30 DIAS DO VENCIMENTO.                                                                                                                                                                                                         01111800000000000000111180000000000000       0090770900016748083648111814000063
100000000000000000000009077090001674800000000000000000000000010002100037713311181500000000002            2  01377133111809111800000001604340000000001N011118000000000000000000000000000000000000000000000000000000000000000100037713356800JAMILLE PAULA BUENO LOPES               RUA CURIO (COND.NEW VILLE) - 172 - SURU             06509031                                                            000065
2SR. CAIXA, APOS O VENCIMENTO COBRAR 10% DE MULTA                                NAO RECEBER APOS 30 DIAS DO VENCIMENTO.                                                                                                                                                                                                         01111800000000000000111180000000000000       0090770900016748377133111815000066
100000000000000000000009077090001674800000000000000000000000010002100027100911181200000000002            2  01271009111809111800000001869070000000001N011118000000000000000000000000000000000000000000000000000000000000000100027100951810MARCIA RAMALHO RODRIGUES                RUA MONTE CASTELO - 296 AP.82 - AVIACAO             11702720                                                            000068
2SR. CAIXA, APOS O VENCIMENTO COBRAR 10% DE MULTA                                NAO RECEBER APOS 30 DIAS DO VENCIMENTO.                                                                                                                                                                                                         01111800000000000000111180000000000000       0090770900016748271009111812000069
100000000000000000000009077090001674800000000000000000000000010002100076207911181300000000002            2  01762079111809111800000002015730000000001N011118000000000000000000000000000000000000000000000000000000000000000100076207943872JOSE MACEDO RICARTE FILHO               RUA ARTUR LOBO - 181 - JARDIM JABAQUARA             04384060                                                            000071
2SR. CAIXA, APOS O VENCIMENTO COBRAR 10% DE MULTA                                NAO RECEBER APOS 30 DIAS DO VENCIMENTO.                                                                                                                                                                                                         01111800000000000000111180000000000000       0090770900016748762079111813000072
100000000000000000000009077090001674800000000000000000000000010002100094672611181600000000002            2  01946726111809111800000002545650000000001N011118000000000000000000000000000000000000000000000000000000000000000100094672660834JOSE HENRIQUE SOARES PEREIRA INACIO     RUA MONTE CASTELO - 296 AP.34 - AVIACAO             11702720                                                            000074
2SR. CAIXA, APOS O VENCIMENTO COBRAR 10% DE MULTA                                NAO RECEBER APOS 30 DIAS DO VENCIMENTO.                                                                                                                                                                                                         01111800000000000000111180000000000000       0090770900016748946726111816000075
100000000000000000000009077090001674800000000000000000000000010002100025265211181700000000002            2  01252652111809111800000001384080000000001N011118000000000000000000000000000000000000000000000000000000000000000100025265260862SONIA MARIA CECILIO DA SILVA            RUA PRESIDENTE TANCREDO NEVES - 1093 AP.            06329350                                                            000077
2SR. CAIXA, APOS O VENCIMENTO COBRAR 10% DE MULTA                                NAO RECEBER APOS 30 DIAS DO VENCIMENTO.                                                                                                                                                                                                         01111800000000000000111180000000000000       0090770900016748252652111817000078
100000000000000000000009077090001674800000000000000000000000010002100011381911181400000000002            2  01113819111809111800000002638040000000001N011118000000000000000000000000000000000000000000000000000000000000000100011381987818MARIO DONIZETE MIGUEL DA SILVA          RUA JASPE - 215 - HIGIANOPOLIS - JANDIRA            06642270                                                            000080
2SR. CAIXA, APOS O VENCIMENTO COBRAR 10% DE MULTA                                NAO RECEBER APOS 30 DIAS DO VENCIMENTO.                                                                                                                                                                                                         01111800000000000000111180000000000000       0090770900016748113819111814000081
9                                                                                                                                                                                                                                                                                                                                                                                                         000082