01REMESSA01COBRANCA       00000000000004991788AIRES DESENVOLVIMENTO IMOBILIA237BRADESCO       090517        MX0000098                                                                                                                                                                                                                                                                                     000001
100000000000000000000009077090011897400000000000000000000000010002100000051578070200000000002            2  01005157807025051700000001773430000000001N090517000000000000000000000000000000000000000000000000000000000000000100011088018890LUIZ CARLOS VITORINO MADEIRA            RUA JOSE CALIXTO DO CARMO - 265 AP. 32 -            11702690                                                            000002
2SR. CAIXA, APOS O VENCIMENTO COBRAR 10% DE MULTA                                NAO RECEBER APOS 30 DIAS DO VENCIMENTO.                                                                                                                                                                                                         09051700000000000000905170000000000000       0090770900118974000515780702000003
100000000000000000000009077090011897400000000000000000000000010002100000054738274100000000002            2  01005473827425051700000002382040000000001N090517000000000000000000000000000000000000000000000000000000000000000100000310954886MARIO CESAR FERREIRA DE LIMA            AVENIDA DO CURSINO - 6485 BLOCO A AP.86             04169000                                                            000005
2SR. CAIXA, APOS O VENCIMENTO COBRAR 10% DE MULTA                                NAO RECEBER APOS 30 DIAS DO VENCIMENTO.                                                                                                                                                                                                         09051700000000000000905170000000000000       0090770900118974000547382741000006
100000000000000000000009077090011897400000000000000000000000010002100000059718680300000000002            2  01005971868025051700000002444540000000001N090517000000000000000000000000000000000000000000000000000000000000000100094905290872CARLOS  ROBERTO FERREIRA CORAZZA        RUA PROFESSOR TEODORO BRAGA - 57 - FREGU            02966020                                                            000008
2SR. CAIXA, APOS O VENCIMENTO COBRAR 10% DE MULTA                                NAO RECEBER APOS 30 DIAS DO VENCIMENTO.                                                                                                                                                                                                         09051700000000000000905170000000000000       0090770900118974000597186803000009
100000000000000000000009077090011897400000000000000000000000010002100000066889388300000000002            2  01006688938825051700000002580570000000001N090517000000000000000000000000000000000000000000000000000000000000000100004007807809CLAUDIO CANESCHI                        RUA AGRESTE  DE ITABAINA - 663 - VILA UN            03683000                                                            000011
2SR. CAIXA, APOS O VENCIMENTO COBRAR 10% DE MULTA                                NAO RECEBER APOS 30 DIAS DO VENCIMENTO.                                                                                                                                                                                                         09051700000000000000905170000000000000       0090770900118974000668893883000012
100000000000000000000009077090011897400000000000000000000000010002100000071479893900000000002            2  01007147989325051700000002372610000000001N090517000000000000000000000000000000000000000000000000000000000000000100025998413806CELESTE ERMELINDA NEVES DA SILVA        RUA CIRO CARNEIRO - 920 - JARDIM GUILHER            11702220                                                            000014
2SR. CAIXA, APOS O VENCIMENTO COBRAR 10% DE MULTA                                NAO RECEBER APOS 30 DIAS DO VENCIMENTO.                                                                                                                                                                                                         09051700000000000000905170000000000000       0090770900118974000714798939000015
100000000000000000000009077090011897400000000000000000000000010002100007956106103100000000002            2  01795610610325051700000003147460000000001N090517000000000000000000000000000000000000000000000000000000000000000100000677443897JOSE CARLOS CORDEIRO CALADO             RUA HERMOGENES DA SILVA - 190 - VILA OLI            03379150                                                            000017
2SR. CAIXA, APOS O VENCIMENTO COBRAR 10% DE MULTA                                NAO RECEBER APOS 30 DIAS DO VENCIMENTO.                                                                                                                                                                                                         09051700000000000000905170000000000000       0090770900118974079561061031000018
100000000000000000000009077090011897400000000000000000000000010002100008485112108200000000002            2  01848511210825051700000002878260000000001N090517000000000000000000000000000000000000000000000000000000000000000100000796517800WLADIMIR RODRIGUES                      R:JOSE DA SILVA RIBEIRO - 576 AP.233 - B            05726130                                                            000020
2SR. CAIXA, APOS O VENCIMENTO COBRAR 10% DE MULTA                                NAO RECEBER APOS 30 DIAS DO VENCIMENTO.                                                                                                                                                                                                         09051700000000000000905170000000000000       0090770900118974084851121082000021
100000000000000000000009077090011897400000000000000000000000010002100008832116112700000000002            2  01883211611225051700000002781710000000001N090517000000000000000000000000000000000000000000000000000000000000000100077595971853CARLOS EDUARDO RODRIGUES TEIXEIRA       RUA JOSE APARECIDO PAVAN - 423 - PARQUE             13086080                                                            000023
2SR. CAIXA, APOS O VENCIMENTO COBRAR 10% DE MULTA                                NAO RECEBER APOS 30 DIAS DO VENCIMENTO.                                                                                                                                                                                                         09051700000000000000905170000000000000       0090770900118974088321161127000024
100000000000000000000009077090011897400000000000000000000000010002100008918117113100000000002            2  01891811711325051700000002800000000000001N090517000000000000000000000000000000000000000000000000000000000000000100015110751803LILIAN CARRARA DA SILVA CANDIDO         ALAMEDA VICENTE DE CARVALHO - 65 - JARDI            07600000                                                            000026
2SR. CAIXA, APOS O VENCIMENTO COBRAR 10% DE MULTA                                NAO RECEBER APOS 30 DIAS DO VENCIMENTO.                                                                                                                                                                                                         09051700000000000000905170000000000000       0090770900118974089181171131000027
100000000000000000000009077090011897400000000000000000000000010002100009090119115P00000000002            2  01909011911525051700000002708470000000001N090517000000000000000000000000000000000000000000000000000000000000000100005204692835RINALDO DA MOTTA                        JOSE CALIXTO DO CARMO - 265 AP.93 - AVIA            11702690                                                            000029
2SR. CAIXA, APOS O VENCIMENTO COBRAR 10% DE MULTA                                NAO RECEBER APOS 30 DIAS DO VENCIMENTO.                                                                                                                                                                                                         09051700000000000000905170000000000000       009077090011897409090119115P000030
100000000000000000000009077090011897400000000000000000000000010002100009351122118900000000002            2  01935112211825051700000002145540000000001N090517000000000000000000000000000000000000000000000000000000000000000100022090439807FELIPE LUCIO LOPES                      RUA JOSE CALIXTO DO CARMO - 265 AP.103 -            11702690                                                            000032
2SR. CAIXA, APOS O VENCIMENTO COBRAR 10% DE MULTA                                NAO RECEBER APOS 30 DIAS DO VENCIMENTO.                                                                                                                                                                                                         09051700000000000000905170000000000000       0090770900118974093511221189000033
100000000000000000000009077090011897400000000000000000000000010002100000962145123500000000002            2  01096214512325051700000002670300000000001N090517000000000000000000000000000000000000000000000000000000000000000100070237824434ANTONIO FERREIRA NETO                   RUA HENRIQUE MINDLIM - 161 - JD. ORIENTA            04349250                                                            000035
2SR. CAIXA, APOS O VENCIMENTO COBRAR 10% DE MULTA                                NAO RECEBER APOS 30 DIAS DO VENCIMENTO.                                                                                                                                                                                                         09051700000000000000905170000000000000       0090770900118974009621451235000036
100000000000000000000009077090011897400000000000000000000000010002100010092131129700000000002            2  01100921311225051700000002818370000000001N090517000000000000000000000000000000000000000000000000000000000000000100005677409863ROSA MARIA OLIVIERI MEMOLI              CONSELHEIRO NEBIAS - 1409 - CAMPOS ELISE            01203002                                                            000038
2SR. CAIXA, APOS O VENCIMENTO COBRAR 10% DE MULTA                                NAO RECEBER APOS 30 DIAS DO VENCIMENTO.                                                                                                                                                                                                         09051700000000000000905170000000000000       0090770900118974100921311297000039
100000000000000000000009077090011897400000000000000000000000010002100010538138137300000000002            2  01105381381325051700000002693220000000001N090517000000000000000000000000000000000000000000000000000000000000000100034771609837MARCELO ALEXANDRE CARVALHO              RUA ECAUNA - 222 - JARDIM UMARIZAL - SAO            05754040                                                            000041
2SR. CAIXA, APOS O VENCIMENTO COBRAR 10% DE MULTA                                NAO RECEBER APOS 30 DIAS DO VENCIMENTO.                                                                                                                                                                                                         09051700000000000000905170000000000000       0090770900118974105381381373000042
100000000000000000000009077090011897400000000000000000000000010002100010651139139900000000002            2  01106511391325051700000006492540000000001N090517000000000000000000000000000000000000000000000000000000000000000100084057904891ANTONIO GONZAGA DOS SANTOS              RUA BRIGADEIRO JOSE FERREIRA - 319 - CAN            11700470                                                            000044
2SR. CAIXA, APOS O VENCIMENTO COBRAR 10% DE MULTA                                NAO RECEBER APOS 30 DIAS DO VENCIMENTO.                                                                                                                                                                                                         09051700000000000000905170000000000000       0090770900118974106511391399000045
100000000000000000000009077090011897400000000000000000000000010002100014194108192P00000000002            2  01141941081924051700000001764130000000001N090517000000000000000000000000000000000000000000000000000000000000000100014497915816FERNANDO JOSE ARRUDA                    RUA JOSE CALIXTO DO CARMO - 265 AP.113 -            11702690                                                            000047
2SR. CAIXA, APOS O VENCIMENTO COBRAR 10% DE MULTA                                NAO RECEBER APOS 30 DIAS DO VENCIMENTO.                                                                                                                                                                                                         09051700000000000000905170000000000000       009077090011897414194108192P000048
100000000000000000000009077090011897400000000000000000000000010002100001422387193700000000002            2  01142238719324051700000001330480000000001N090517000000000000000000000000000000000000000000000000000000000000000100027324099874LEONARDO BORGES DUARTE SILVA            RUA JOSE CALIXTO DO CARMO - 265 AP.94 -             11702690                                                            000050
2SR. CAIXA, APOS O VENCIMENTO COBRAR 10% DE MULTA                                NAO RECEBER APOS 30 DIAS DO VENCIMENTO.                                                                                                                                                                                                         09051700000000000000905170000000000000       0090770900118974014223871937000051
9                                                                                                                                                                                                                                                                                                                                                                                                         000052