01REMESSA01COBRANCA       00000000000004991788AIRES DESENVOLVIMENTO IMOBILIA237BRADESCO       010917        MX0000100                                                                                                                                                                                                                                                                                     000001
100000000000000000000009077090011897400000000000000000000000010002100000000195182600000000002            2  01000019518210091700000002363070000000001N010917000000000000000000000000000000000000000000000000000000000000000100021570843805RODRIGO LESSANDRO FREGATE               RUA JOSE PEDRO DORO - 451 BLOCO RIO GRAN            02880010                                                            000002
2SR. CAIXA, APOS O VENCIMENTO COBRAR 10% DE MULTA                                NAO RECEBER APOS 30 DIAS DO VENCIMENTO.                                                                                                                                                                                                         01091700000000000000109170000000000000       0090770900118974000001951826000003
100000000000000000000009077090011897400000000000000000000000010002100000055728375P00000000002            2  01005572837510091700000002304640000000001N010917000000000000000000000000000000000000000000000000000000000000000100007456836817REGINA CELIA RONDELLI                   RUA CANANEIA - 168 APTO 134 BL.C2 - SANT            09060480                                                            000005
2SR. CAIXA, APOS O VENCIMENTO COBRAR 10% DE MULTA                                NAO RECEBER APOS 30 DIAS DO VENCIMENTO.                                                                                                                                                                                                         01091700000000000000109170000000000000       009077090011897400055728375P000006
100000000000000000000009077090011897400000000000000000000000010002100000057878478300000000002            2  01005787847810091700000002713250000000001N010917000000000000000000000000000000000000000000000000000000000000000100007508759842LAERCIO DA CRUZ FERREIRA                RUA JOSE BENEDITO SALINAS - 110 APTO 161            04674200                                                            000008
2SR. CAIXA, APOS O VENCIMENTO COBRAR 10% DE MULTA                                NAO RECEBER APOS 30 DIAS DO VENCIMENTO.                                                                                                                                                                                                         01091700000000000000109170000000000000       0090770900118974000578784783000009
100000000000000000000009077090011897400000000000000000000000010002100000061588882900000000002            2  01006158888210091700000002451120000000001N010917000000000000000000000000000000000000000000000000000000000000000100010653257899MARCIO DE SOUZA AZEVEDO                 RUA CASABLANCA - 105 - PARQUE MONTE ALEG            06756400                                                            000011
2SR. CAIXA, APOS O VENCIMENTO COBRAR 10% DE MULTA                                NAO RECEBER APOS 30 DIAS DO VENCIMENTO.                                                                                                                                                                                                         01091700000000000000109170000000000000       0090770900118974000615888829000012
100000000000000000000009077090011897400000000000000000000000010002100000062508983500000000002            2  01006250898310091700000002440230000000001N010917000000000000000000000000000000000000000000000000000000000000000100068006292868FRANCISCO VIEIRA SOUSA                  RUA SERRA DA CANTAREIRA - 104 - JARDIM E            06413090                                                            000014
2SR. CAIXA, APOS O VENCIMENTO COBRAR 10% DE MULTA                                NAO RECEBER APOS 30 DIAS DO VENCIMENTO.                                                                                                                                                                                                         01091700000000000000109170000000000000       0090770900118974000625089835000015
100000000000000000000009077090011897400000000000000000000000010002100000070599792900000000002            2  01007059979210091700000002904950000000001N010917000000000000000000000000000000000000000000000000000000000000000100022288772808FERNANDA TAVARES MASANO                 RUA JOSE CALIXTO DO CARMO - 265 AP. 124             11702690                                                            000017
2SR. CAIXA, APOS O VENCIMENTO COBRAR 10% DE MULTA                                NAO RECEBER APOS 30 DIAS DO VENCIMENTO.                                                                                                                                                                                                         01091700000000000000109170000000000000       0090770900118974000705997929000018
100000000000000000000009077090011897400000000000000000000000010002100000761810298700000000002            2  01076181029810091700000002712710000000001N010917000000000000000000000000000000000000000000000000000000000000000100032223890806ELISANGELA CAMARGO BRAGA                RUA JOSE CALIXTO DO CARMO - 265 AP.24 -             11702690                                                            000020
2SR. CAIXA, APOS O VENCIMENTO COBRAR 10% DE MULTA                                NAO RECEBER APOS 30 DIAS DO VENCIMENTO.                                                                                                                                                                                                         01091700000000000000109170000000000000       0090770900118974007618102987000021
100000000000000000000009077090011897400000000000000000000000010002100007868105101700000000002            2  01786810510110091700000002599160000000001N010917000000000000000000000000000000000000000000000000000000000000000100010177135883VERONICA DE LIMA SANTOS                 RUA ARAGAO - 1099 - TUCURUVI - SAO PAULO            02308001                                                            000023
2SR. CAIXA, APOS O VENCIMENTO COBRAR 10% DE MULTA                                NAO RECEBER APOS 30 DIAS DO VENCIMENTO.                                                                                                                                                                                                         01091700000000000000109170000000000000       0090770900118974078681051017000024
100000000000000000000009077090011897400000000000000000000000010002100008575113109500000000002            2  01857511310910091700000002580940000000001N010917000000000000000000000000000000000000000000000000000000000000000100031000769828ANDREIA CARLA SOUSA                     RUA JOSE CALIXTO DO CARMO - 265 AP.73 -             11702690                                                            000026
2SR. CAIXA, APOS O VENCIMENTO COBRAR 10% DE MULTA                                NAO RECEBER APOS 30 DIAS DO VENCIMENTO.                                                                                                                                                                                                         01091700000000000000109170000000000000       0090770900118974085751131095000027
100000000000000000000009077090011897400000000000000000000000010002100008751115111300000000002            2  01875111511110091700000003287570000000001N010917000000000000000000000000000000000000000000000000000000000000000100027324650899LUCIANO MARTINEZ                        RUA MORGADO DE MATEUS - 473 - VILA MARIA            04015051                                                            000029
2SR. CAIXA, APOS O VENCIMENTO COBRAR 10% DE MULTA                                NAO RECEBER APOS 30 DIAS DO VENCIMENTO.                                                                                                                                                                                                         01091700000000000000109170000000000000       0090770900118974087511151113000030
100000000000000000000009077090011897400000000000000000000000010002100009928129127P00000000002            2  01992812912710091700000002294600000000001N010917000000000000000000000000000000000000000000000000000000000000000100005253129863ADILSON JOSE BORGES                     RUA CIRIACO JIMENEZ - 83 - PARQUE NACOES            02996070                                                            000032
2SR. CAIXA, APOS O VENCIMENTO COBRAR 10% DE MULTA                                NAO RECEBER APOS 30 DIAS DO VENCIMENTO.                                                                                                                                                                                                         01091700000000000000109170000000000000       009077090011897409928129127P000033
100000000000000000000009077090011897400000000000000000000000010002100010330136134P00000000002            2  01103301361310091700000002424560000000001N010917000000000000000000000000000000000000000000000000000000000000000100003996827830RONALDO PINTO BORGES                    MAGNOLIA DELFIM DA SILVA - 44 - JARDIM O            05363040                                                            000035
2SR. CAIXA, APOS O VENCIMENTO COBRAR 10% DE MULTA                                NAO RECEBER APOS 30 DIAS DO VENCIMENTO.                                                                                                                                                                                                         01091700000000000000109170000000000000       009077090011897410330136134P000036
100000000000000000000009077090011897400000000000000000000000010002100001070122141700000000002            2  01107012214110091700000001421120000000001N010917000000000000000000000000000000000000000000000000000000000000000100012708342827ADRIANA RATIER CRUZ                     RUA JOSE CALIXTO DO CARMO - 295 APTO 31             11702690                                                            000038
2SR. CAIXA, APOS O VENCIMENTO COBRAR 10% DE MULTA                                NAO RECEBER APOS 30 DIAS DO VENCIMENTO.                                                                                                                                                                                                         01091700000000000000109170000000000000       0090770900118974010701221417000039
100000000000000000000009077090011897400000000000000000000000010002100010881143149200000000002            2  01108811431410091700000001216730000000001N010917000000000000000000000000000000000000000000000000000000000000000100000452415896MARILUCE SANTOS DE ALMEIDA              RUA JOSE CALIXTO DO CARMO - 295 AP.74 -             11702690                                                            000041
2SR. CAIXA, APOS O VENCIMENTO COBRAR 10% DE MULTA                                NAO RECEBER APOS 30 DIAS DO VENCIMENTO.                                                                                                                                                                                                         01091700000000000000109170000000000000       0090770900118974108811431492000042
100000000000000000000009077090011897400000000000000000000000010002100015539127207300000000002            2  01155391272001091700000003425810000000001N010917000000000000000000000000000000000000000000000000000000000000000100028379879805EDMILSON DANIEL GARCIA WATANUKI         AVENIDA PRESIDENTE CASTELO BRANCO - 4718            11702700                                                            000044
2SR. CAIXA, APOS O VENCIMENTO COBRAR 10% DE MULTA                                NAO RECEBER APOS 30 DIAS DO VENCIMENTO.                                                                                                                                                                                                         01091700000000000000109170000000000000       0090770900118974155391272073000045
100000000000000000000009077090011897400000000000000000000000010002100016120146214900000000002            2  01161201462111091700000001563110000000001N010917000000000000000000000000000000000000000000000000000000000000000100037491305822NATASHA SILVEIRA DA SILVA               RUA CONSELHEIRO ELIAS DE CARVALHO - 50 A            04373000                                                            000047
2SR. CAIXA, APOS O VENCIMENTO COBRAR 10% DE MULTA                                NAO RECEBER APOS 30 DIAS DO VENCIMENTO.                                                                                                                                                                                                         01091700000000000000109170000000000000       0090770900118974161201462149000048
100000000000000000000009077090011897400000000000000000000000010002100016132140215800000000002            2  01161321402105091700000001526270000000001N010917000000000000000000000000000000000000000000000000000000000000000100019851254800DOUGLAS TADEU DE ALMEIDA JECKS          RUA CONSELHEIRO ELIAS DE CARVALHO - 50 A            04373000                                                            000050
2SR. CAIXA, APOS O VENCIMENTO COBRAR 10% DE MULTA                                NAO RECEBER APOS 30 DIAS DO VENCIMENTO.                                                                                                                                                                                                         01091700000000000000109170000000000000       0090770900118974161321402158000051
9                                                                                                                                                                                                                                                                                                                                                                                                         000052