01REMESSA01COBRANCA       00000000000004991788AIRES DESENVOLVIMENTO IMOBILIA237BRADESCO       130718        MX0000133                                                                                                                                                                                                                                                                                     000001
100000000000000000000009077090011897400000000000000000000000010002100011088007181800000000002            2  01110880071825071800000001905630000000001N120718000000000000000000000000000000000000000000000000000000000000000100011088018890LUIZ CARLOS VITORINO MADEIRA            RUA JOSE CALIXTO DO CARMO - 265 AP. 32 -            11702690                                                            000002
2SR. CAIXA, APOS O VENCIMENTO COBRAR 10% DE MULTA                                NAO RECEBER APOS 30 DIAS DO VENCIMENTO.                                                                                                                                                                                                         13071800000000000001307180000000000000       0090770900118974110880071818000003
100000000000000000000009077090011897400000000000000000000000010002100015110707181500000000002            2  01151107071825071800000003008710000000001N120718000000000000000000000000000000000000000000000000000000000000000100015110751803LILIAN CARRARA DA SILVA CANDIDO         ALAMEDA VICENTE DE CARVALHO - 65 - JARDI            07600000                                                            000005
2SR. CAIXA, APOS O VENCIMENTO COBRAR 10% DE MULTA                                NAO RECEBER APOS 30 DIAS DO VENCIMENTO.                                                                                                                                                                                                         13071800000000000001307180000000000000       0090770900118974151107071815000006
100000000000000000000009077090011897400000000000000000000000010002100014497907181100000000002            2  01144979071824071800000001962090000000001N120718000000000000000000000000000000000000000000000000000000000000000100014497915816FERNANDO JOSE ARRUDA                    RUA JOSE CALIXTO DO CARMO - 265 AP.113 -            11702690                                                            000008
2SR. CAIXA, APOS O VENCIMENTO COBRAR 10% DE MULTA                                NAO RECEBER APOS 30 DIAS DO VENCIMENTO.                                                                                                                                                                                                         13071800000000000001307180000000000000       0090770900118974144979071811000009
100000000000000000000009077090011897400000000000000000000000010002100027324007181800000000002            2  01273240071824071800000001479760000000001N120718000000000000000000000000000000000000000000000000000000000000000100027324099874LEONARDO BORGES DUARTE SILVA            RUA JOSE CALIXTO DO CARMO - 265 AP.94 -             11702690                                                            000011
2SR. CAIXA, APOS O VENCIMENTO COBRAR 10% DE MULTA                                NAO RECEBER APOS 30 DIAS DO VENCIMENTO.                                                                                                                                                                                                         13071800000000000001307180000000000000       0090770900118974273240071818000012
100000000000000000000009077090011897400000000000000000000000010002100036782007181P00000000002            2  01367820071824071800000006126910000000001N120718000000000000000000000000000000000000000000000000000000000000000100036782058871ANA PAULA BUENO DA COSTA                RUA MARIQUITA ARTACHO - 218 CASA 3 - JAR            03716000                                                            000014
2SR. CAIXA, APOS O VENCIMENTO COBRAR 10% DE MULTA                                NAO RECEBER APOS 30 DIAS DO VENCIMENTO.                                                                                                                                                                                                         13071800000000000001307180000000000000       009077090011897436782007181P000015
100000000000000000000009077090011897400000000000000000000000010002100036782007182800000000002            2  01367820071824071800000001424510000000001N120718000000000000000000000000000000000000000000000000000000000000000100036782058871ANA PAULA BUENO DA COSTA                RUA MARIQUITA ARTACHO - 218 CASA 3 - JAR            03716000                                                            000017
2SR. CAIXA, APOS O VENCIMENTO COBRAR 10% DE MULTA                                NAO RECEBER APOS 30 DIAS DO VENCIMENTO.                                                                                                                                                                                                         13071800000000000001307180000000000000       0090770900118974367820071828000018
9                                                                                                                                                                                                                                                                                                                                                                                                         000019