01REMESSA01COBRANCA       00000000000004991454AIRES CONSTRUTORA E INCORPORAD237BRADESCO       100518        MX0000108                                                                                                                                                                                                                                                                                     000001
100000000000000000000009077090001674800000000000000000000000010002100049736705182P00000000002            2  01497367051824051800000001348790000000001N100518000000000000000000000000000000000000000000000000000000000000000100049736787320RAIMUNDO VIEIRA DA SILVA                RUA BOLIVIA - 81 AP.ZELADORIA - JARDIM G            11701850                                                            000002
2SR. CAIXA, APOS O VENCIMENTO COBRAR 10% DE MULTA                                NAO RECEBER APOS 30 DIAS DO VENCIMENTO.                                                                                                                                                                                                         10051800000000000001005180000000000000       009077090001674849736705182P000003
100000000000000000000009077090001674800000000000000000000000010002100068806205181100000000002            2  01688062051824051800000001197050000000001N100518000000000000000000000000000000000000000000000000000000000000000100068806272853FATIMA MOREIRA SALOMAO                  RUA TORQUATO DE CAMILLO - 84 - CARANDA B            79032031                                                            000005
2SR. CAIXA, APOS O VENCIMENTO COBRAR 10% DE MULTA                                NAO RECEBER APOS 30 DIAS DO VENCIMENTO.                                                                                                                                                                                                         10051800000000000001005180000000000000       0090770900016748688062051811000006
100000000000000000000009077090001674800000000000000000000000010002100004201605181800000000002            2  01042016051824051800000001738560000000001N100518000000000000000000000000000000000000000000000000000000000000000100004201640817SANDRA APARECIDA TOJAL                  AVENIDA MASCOTE - 81 AP.132 BL.A - VILA             04363000                                                            000008
2SR. CAIXA, APOS O VENCIMENTO COBRAR 10% DE MULTA                                NAO RECEBER APOS 30 DIAS DO VENCIMENTO.                                                                                                                                                                                                         10051800000000000001005180000000000000       0090770900016748042016051818000009
100000000000000000000009077090001674800000000000000000000000010002100025278905181100000000002            2  01252789051824051800000012244630000000001N100518000000000000000000000000000000000000000000000000000000000000000100025278913819FERNANDO LOPES DA SILVA                 RUA RUBEN DE SOUZA - 387 AP.24A - VILA I            04653170                                                            000011
2SR. CAIXA, APOS O VENCIMENTO COBRAR 10% DE MULTA                                NAO RECEBER APOS 30 DIAS DO VENCIMENTO.                                                                                                                                                                                                         10051800000000000001005180000000000000       0090770900016748252789051811000012
100000000000000000000009077090001674800000000000000000000000010002100025278905182P00000000002            2  01252789051824051800000001861790000000001N100518000000000000000000000000000000000000000000000000000000000000000100025278913819FERNANDO LOPES DA SILVA                 RUA RUBEN DE SOUZA - 387 AP.24A - VILA I            04653170                                                            000014
2SR. CAIXA, APOS O VENCIMENTO COBRAR 10% DE MULTA                                NAO RECEBER APOS 30 DIAS DO VENCIMENTO.                                                                                                                                                                                                         10051800000000000001005180000000000000       009077090001674825278905182P000015
100000000000000000000009077090001674800000000000000000000000010002100000024605181200000000002            2  01000246051824051800000002069740000000001N100518000000000000000000000000000000000000000000000000000000000000000100000024633852JAYME MASRI                             RUA MONTE CASTELO - 296 AP.24 - BAIRRO A            11702720                                                            000017
2SR. CAIXA, APOS O VENCIMENTO COBRAR 10% DE MULTA                                NAO RECEBER APOS 30 DIAS DO VENCIMENTO.                                                                                                                                                                                                         10051800000000000001005180000000000000       0090770900016748000246051812000018
100000000000000000000009077090001674800000000000000000000000010002100013184405181600000000002            2  01131844051824051800000002149120000000001N100518000000000000000000000000000000000000000000000000000000000000000100013184404838CLAUDIO GOMES BAHIA                     RUA MARIA CONCEICAO - 89 - VILA SAO PEDR            07032070                                                            000020
2SR. CAIXA, APOS O VENCIMENTO COBRAR 10% DE MULTA                                NAO RECEBER APOS 30 DIAS DO VENCIMENTO.                                                                                                                                                                                                         10051800000000000001005180000000000000       0090770900016748131844051816000021
100000000000000000000009077090001674800000000000000000000000010002100006055505181100000000002            2  01060555051824051800000003254500000000001N100518000000000000000000000000000000000000000000000000000000000000000100006055565803EDSON ALVES                             RUA EDGAR CODAZZI - 49 CASA 02 - CIDADE             08225280                                                            000023
2SR. CAIXA, APOS O VENCIMENTO COBRAR 10% DE MULTA                                NAO RECEBER APOS 30 DIAS DO VENCIMENTO.                                                                                                                                                                                                         10051800000000000001005180000000000000       0090770900016748060555051811000024
100000000000000000000009077090001674800000000000000000000000010002100021899205181500000000002            2  01218992051824051800000002371240000000001N100518000000000000000000000000000000000000000000000000000000000000000100021899277811ALESSANDRE ALVES ANDRADE                RUA MONTE CASTELO - 262 AP.132 - AVIACAO            11702720                                                            000026
2SR. CAIXA, APOS O VENCIMENTO COBRAR 10% DE MULTA                                NAO RECEBER APOS 30 DIAS DO VENCIMENTO.                                                                                                                                                                                                         10051800000000000001005180000000000000       0090770900016748218992051815000027
100000000000000000000009077090001674800000000000000000000000010002100015739605181700000000002            2  01157396051824051800000002055900000000001N100518000000000000000000000000000000000000000000000000000000000000000100015739602840EZEQUIEL DOS SANTOS LIMA                RUA MONGUBA - 464 - VILA CARRAO - SAO PA            03438000                                                            000029
2SR. CAIXA, APOS O VENCIMENTO COBRAR 10% DE MULTA                                NAO RECEBER APOS 30 DIAS DO VENCIMENTO.                                                                                                                                                                                                         10051800000000000001005180000000000000       0090770900016748157396051817000030
100000000000000000000009077090001674800000000000000000000000010002100003441205181P00000000002            2  01034412051824051800000002067580000000001N100518000000000000000000000000000000000000000000000000000000000000000100003441232860LUIZ CARLOS CAMARGO BIANCHI             RUA GENERAL LEITE DE CASTRO - 200 - JARD            04182020                                                            000032
2SR. CAIXA, APOS O VENCIMENTO COBRAR 10% DE MULTA                                NAO RECEBER APOS 30 DIAS DO VENCIMENTO.                                                                                                                                                                                                         10051800000000000001005180000000000000       009077090001674803441205181P000033
100000000000000000000009077090001674800000000000000000000000010002100014681405181900000000002            2  01146814051824051800000002144940000000001N100518000000000000000000000000000000000000000000000000000000000000000100014681490830HUMBERTO MOZART CALIXTO                 RUA MONTE CASTELO - 296 AP.41 - AVIACAO             11702720                                                            000035
2SR. CAIXA, APOS O VENCIMENTO COBRAR 10% DE MULTA                                NAO RECEBER APOS 30 DIAS DO VENCIMENTO.                                                                                                                                                                                                         10051800000000000001005180000000000000       0090770900016748146814051819000036
100000000000000000000009077090001674800000000000000000000000010002100023007705181100000000002            2  01230077051824051800000001753860000000001N100518000000000000000000000000000000000000000000000000000000000000000100023007705800BRUNA ANTUN AZEVEDO                     RUA MONTE CASTELO - 296 AP.62 - AVIACAO             11702720                                                            000038
2SR. CAIXA, APOS O VENCIMENTO COBRAR 10% DE MULTA                                NAO RECEBER APOS 30 DIAS DO VENCIMENTO.                                                                                                                                                                                                         10051800000000000001005180000000000000       0090770900016748230077051811000039
100000000000000000000009077090001674800000000000000000000000010002100006550705181P00000000002            2  01065507051824051800000001810810000000001N100518000000000000000000000000000000000000000000000000000000000000000100006550730864IVONE APARECIDA VIEIRA GADI TEIXEIRA    RUA SAO FLORENCIO  - 1500 AP.44 BLOCO 01            03733020                                                            000041
2SR. CAIXA, APOS O VENCIMENTO COBRAR 10% DE MULTA                                NAO RECEBER APOS 30 DIAS DO VENCIMENTO.                                                                                                                                                                                                         10051800000000000001005180000000000000       009077090001674806550705181P000042
100000000000000000000009077090001674800000000000000000000000010002100000930605181400000000002            2  01009306051824051800000003268670000000001N100518000000000000000000000000000000000000000000000000000000000000000100000930668642VALERIA RODRIGUES DANTAS                RUA MONTE CASTELO - 262 AP.21 - AVIACAO             11702720                                                            000044
2SR. CAIXA, APOS O VENCIMENTO COBRAR 10% DE MULTA                                NAO RECEBER APOS 30 DIAS DO VENCIMENTO.                                                                                                                                                                                                         10051800000000000001005180000000000000       0090770900016748009306051814000045
100000000000000000000009077090001674800000000000000000000000010002100084057905181800000000002            2  01840579051827051800000002000000000000001N100518000000000000000000000000000000000000000000000000000000000000000100084057904891ANTONIO GONZAGA DOS SANTOS              RUA BRIGADEIRO JOSE FERREIRA - 319 - CAN            11700470                                                            000047
2SR. CAIXA, APOS O VENCIMENTO COBRAR 10% DE MULTA                                NAO RECEBER APOS 30 DIAS DO VENCIMENTO.                                                                                                                                                                                                         10051800000000000001005180000000000000       0090770900016748840579051818000048
100000000000000000000009077090001674800000000000000000000000010002100075574005181800000000002            2  01755740051824051800000002803040000000001N100518000000000000000000000000000000000000000000000000000000000000000100075574063891CASSIO TADEU DA SILVEIRA                RUA CONSELHEIRO MOREIRA DE BARROS - 1.55            02430000                                                            000050
2SR. CAIXA, APOS O VENCIMENTO COBRAR 10% DE MULTA                                NAO RECEBER APOS 30 DIAS DO VENCIMENTO.                                                                                                                                                                                                         10051800000000000001005180000000000000       0090770900016748755740051818000051
100000000000000000000009077090001674800000000000000000000000010002100000764605181600000000002            2  01007646051824051800000002072990000000001N100518000000000000000000000000000000000000000000000000000000000000000100000764632817LUIZ CARLOS ANTUNES JUNIOR              RUA MONTE CASTELO - 262 AP.35 - AVIACAO             11702720                                                            000053
2SR. CAIXA, APOS O VENCIMENTO COBRAR 10% DE MULTA                                NAO RECEBER APOS 30 DIAS DO VENCIMENTO.                                                                                                                                                                                                         10051800000000000001005180000000000000       0090770900016748007646051816000054
100000000000000000000009077090001674800000000000000000000000010002100027317605181600000000002            2  01273176051824051800000002031920000000001N100518000000000000000000000000000000000000000000000000000000000000000100027317668591ERONILTON SOUSA MOTA                    AVENIDA PRESIDENTE KENNEDY - 3203 - AVIA            11701330                                                            000056
2SR. CAIXA, APOS O VENCIMENTO COBRAR 10% DE MULTA                                NAO RECEBER APOS 30 DIAS DO VENCIMENTO.                                                                                                                                                                                                         10051800000000000001005180000000000000       0090770900016748273176051816000057
100000000000000000000009077090001674800000000000000000000000010002100066104105181600000000002            2  01661041051824051800000002095650000000001N100518000000000000000000000000000000000000000000000000000000000000000100066104106820ANADIR FERREIRA                         RUA MONTE CASTELO - 296 AP.61 - AVIACAO             11702720                                                            000059
2SR. CAIXA, APOS O VENCIMENTO COBRAR 10% DE MULTA                                NAO RECEBER APOS 30 DIAS DO VENCIMENTO.                                                                                                                                                                                                         10051800000000000001005180000000000000       0090770900016748661041051816000060
100000000000000000000009077090001674800000000000000000000000010002100000741205181200000000002            2  01007412051824051800000001053700000000001N100518000000000000000000000000000000000000000000000000000000000000000100000741264820JOSE JORGE SILVEIRA                     RUA JOSE CALIXTO DO CARMO - 174 AP.82 -             11702690                                                            000062
2SR. CAIXA, APOS O VENCIMENTO COBRAR 10% DE MULTA                                NAO RECEBER APOS 30 DIAS DO VENCIMENTO.                                                                                                                                                                                                         10051800000000000001005180000000000000       0090770900016748007412051812000063
100000000000000000000009077090001674800000000000000000000000010002100057014505181200000000002            2  01570145051824051800000002352920000000001N100518000000000000000000000000000000000000000000000000000000000000000100057014582887SONIA MARIA DA SILVA PEGORARO           RUA FRANCO PAULISTA  - 80 - AGUA FRIA -             02332030                                                            000065
2SR. CAIXA, APOS O VENCIMENTO COBRAR 10% DE MULTA                                NAO RECEBER APOS 30 DIAS DO VENCIMENTO.                                                                                                                                                                                                         10051800000000000001005180000000000000       0090770900016748570145051812000066
100000000000000000000009077090001674800000000000000000000000010002100006505305181P00000000002            2  01065053051824051800000002557390000000001N100518000000000000000000000000000000000000000000000000000000000000000100006505382852LUIS ANTONIO DINIS HENRIQUES            RUA ESTEVAO  BAIAO - 520 AP.93A - CAMPO             04624002                                                            000068
2SR. CAIXA, APOS O VENCIMENTO COBRAR 10% DE MULTA                                NAO RECEBER APOS 30 DIAS DO VENCIMENTO.                                                                                                                                                                                                         10051800000000000001005180000000000000       009077090001674806505305181P000069
100000000000000000000009077090001674800000000000000000000000010002100011544705181200000000002            2  01115447051824051800000004645840000000001N100518000000000000000000000000000000000000000000000000000000000000000100011544777620GRACIELY RODRIGUES FERNANDES            RUA MONTE CASTELO - 262 AP.111 - AVIACAO            11702720                                                            000071
2SR. CAIXA, APOS O VENCIMENTO COBRAR 10% DE MULTA                                NAO RECEBER APOS 30 DIAS DO VENCIMENTO.                                                                                                                                                                                                         10051800000000000001005180000000000000       0090770900016748115447051812000072
100000000000000000000009077090001674800000000000000000000000010002100005629005181700000000002            2  01056290051824051800000010458530000000001N100518000000000000000000000000000000000000000000000000000000000000000100005629087819ROMILDO MARTINS PIZA                    RUA MAESTRO ARTURO DE ANGELIS - 190 AP.3            05139010                                                            000074
2SR. CAIXA, APOS O VENCIMENTO COBRAR 10% DE MULTA                                NAO RECEBER APOS 30 DIAS DO VENCIMENTO.                                                                                                                                                                                                         10051800000000000001005180000000000000       0090770900016748056290051817000075
100000000000000000000009077090001674800000000000000000000000010002100005629005182500000000002            2  01056290051824051800000003378910000000001N100518000000000000000000000000000000000000000000000000000000000000000100005629087819ROMILDO MARTINS PIZA                    RUA MAESTRO ARTURO DE ANGELIS - 190 AP.3            05139010                                                            000077
2SR. CAIXA, APOS O VENCIMENTO COBRAR 10% DE MULTA                                NAO RECEBER APOS 30 DIAS DO VENCIMENTO.                                                                                                                                                                                                         10051800000000000001005180000000000000       0090770900016748056290051825000078
100000000000000000000009077090001674800000000000000000000000010002100004290905181600000000002            2  01042909051824051800000001801070000000001N100518000000000000000000000000000000000000000000000000000000000000000100004290973876WLADIMIR PAIOLA BORREGO                 RUA GOMES - 429 - VILA IVONE - SAO PAULO            03275010                                                            000080
2SR. CAIXA, APOS O VENCIMENTO COBRAR 10% DE MULTA                                NAO RECEBER APOS 30 DIAS DO VENCIMENTO.                                                                                                                                                                                                         10051800000000000001005180000000000000       0090770900016748042909051816000081
100000000000000000000009077090001674800000000000000000000000010002100034325505181100000000002            2  01343255051824051800000001705120000000001N100518000000000000000000000000000000000000000000000000000000000000000100034325567801LUIZ FERNANDO ALAMINO                   RUA MONTE CASTELO - 296 AP.21 - AVIACAO             11702720                                                            000083
2SR. CAIXA, APOS O VENCIMENTO COBRAR 10% DE MULTA                                NAO RECEBER APOS 30 DIAS DO VENCIMENTO.                                                                                                                                                                                                         10051800000000000001005180000000000000       0090770900016748343255051811000084
9                                                                                                                                                                                                                                                                                                                                                                                                         000085