01REMESSA01COBRANCA       00000000000004991454AIRES CONSTRUTORA E INCORPORAD237BRADESCO       010617        MX0000082                                                                                                                                                                                                                                                                                     000001
100000000000000000000009077090001674800000000000000000000000010002100014418169196900000000002            2  01144181691911061700000001800000000000001N010617000000000000000000000000000000000000000000000000000000000000000100013191291881MARCELO RICARDO MASCAROS SOUTO          RUA MONTE CASTELO - 295 AP.102 - AVIACAO            11702720                                                            000002
2SR. CAIXA, APOS O VENCIMENTO COBRAR 10% DE MULTA                                NAO RECEBER APOS 30 DIAS DO VENCIMENTO.                                                                                                                                                                                                         01061700000000000000106170000000000000       0090770900016748144181691969000003
9                                                                                                                                                                                                                                                                                                                                                                                                         000004