01REMESSA01COBRANCA       00000000000004991788AIRES DESENVOLVIMENTO IMOBILIA237BRADESCO       010517        MX0000097                                                                                                                                                                                                                                                                                     000001
100000000000000000000009077090011897400000000000000000000000010002100000000191182400000000002            2  01000019118210051700000002312130000000001N010517000000000000000000000000000000000000000000000000000000000000000100021570843805RODRIGO LESSANDRO FREGATE               RUA JOSE PEDRO DORO - 451 BLOCO RIO GRAN            02880010                                                            000002
2SR. CAIXA, APOS O VENCIMENTO COBRAR 10% DE MULTA                                NAO RECEBER APOS 30 DIAS DO VENCIMENTO.                                                                                                                                                                                                         01051700000000000000105170000000000000       0090770900118974000001911824000003
100000000000000000000009077090011897400000000000000000000000010002100000057838478500000000002            2  01005783847810051700000002654760000000001N010517000000000000000000000000000000000000000000000000000000000000000100007508759842LAERCIO DA CRUZ FERREIRA                RUA JOSE BENEDITO SALINAS - 110 APTO 161            04674200                                                            000005
2SR. CAIXA, APOS O VENCIMENTO COBRAR 10% DE MULTA                                NAO RECEBER APOS 30 DIAS DO VENCIMENTO.                                                                                                                                                                                                         01051700000000000000105170000000000000       0090770900118974000578384785000006
100000000000000000000009077090011897400000000000000000000000010002100000061548882000000000002            2  01006154888210051700000002398290000000001N010517000000000000000000000000000000000000000000000000000000000000000100010653257899MARCIO DE SOUZA AZEVEDO                 RUA CASABLANCA - 105 - PARQUE MONTE ALEG            06756400                                                            000008
2SR. CAIXA, APOS O VENCIMENTO COBRAR 10% DE MULTA                                NAO RECEBER APOS 30 DIAS DO VENCIMENTO.                                                                                                                                                                                                         01051700000000000000105170000000000000       0090770900118974000615488820000009
100000000000000000000009077090011897400000000000000000000000010002100000062468983900000000002            2  01006246898310051700000002387640000000001N010517000000000000000000000000000000000000000000000000000000000000000100068006292868FRANCISCO VIEIRA SOUSA                  RUA SERRA DA CANTAREIRA - 104 - JARDIM E            06413090                                                            000011
2SR. CAIXA, APOS O VENCIMENTO COBRAR 10% DE MULTA                                NAO RECEBER APOS 30 DIAS DO VENCIMENTO.                                                                                                                                                                                                         01051700000000000000105170000000000000       0090770900118974000624689839000012
100000000000000000000009077090011897400000000000000000000000010002100000070559792000000000002            2  01007055979210051700000002842330000000001N010517000000000000000000000000000000000000000000000000000000000000000100022288772808FERNANDA TAVARES MASANO                 RUA JOSE CALIXTO DO CARMO - 265 AP. 124             11702690                                                            000014
2SR. CAIXA, APOS O VENCIMENTO COBRAR 10% DE MULTA                                NAO RECEBER APOS 30 DIAS DO VENCIMENTO.                                                                                                                                                                                                         01051700000000000000105170000000000000       0090770900118974000705597920000015
100000000000000000000009077090011897400000000000000000000000010002100007864105101400000000002            2  01786410510110051700000002543140000000001N010517000000000000000000000000000000000000000000000000000000000000000100010177135883VERONICA DE LIMA SANTOS                 RUA ARAGAO - 1099 - TUCURUVI - SAO PAULO            02308001                                                            000017
2SR. CAIXA, APOS O VENCIMENTO COBRAR 10% DE MULTA                                NAO RECEBER APOS 30 DIAS DO VENCIMENTO.                                                                                                                                                                                                         01051700000000000000105170000000000000       0090770900118974078641051014000018
100000000000000000000009077090011897400000000000000000000000010002100008571113109200000000002            2  01857111310910051700000002525320000000001N010517000000000000000000000000000000000000000000000000000000000000000100031000769828ANDREIA CARLA SOUSA                     RUA JOSE CALIXTO DO CARMO - 265 AP.73 -             11702690                                                            000020
2SR. CAIXA, APOS O VENCIMENTO COBRAR 10% DE MULTA                                NAO RECEBER APOS 30 DIAS DO VENCIMENTO.                                                                                                                                                                                                         01051700000000000000105170000000000000       0090770900118974085711131092000021
100000000000000000000009077090011897400000000000000000000000010002100008747115111500000000002            2  01874711511110051700000003216710000000001N010517000000000000000000000000000000000000000000000000000000000000000100027324650899LUCIANO MARTINEZ                        RUA MORGADO DE MATEUS - 473 - VILA MARIA            04015051                                                            000023
2SR. CAIXA, APOS O VENCIMENTO COBRAR 10% DE MULTA                                NAO RECEBER APOS 30 DIAS DO VENCIMENTO.                                                                                                                                                                                                         01051700000000000000105170000000000000       0090770900118974087471151115000024
100000000000000000000009077090011897400000000000000000000000010002100009924129127700000000002            2  01992412912710051700000002245150000000001N010517000000000000000000000000000000000000000000000000000000000000000100005253129863ADILSON JOSE BORGES                     RUA CIRIACO JIMENEZ - 83 - PARQUE NACOES            02996070                                                            000026
2SR. CAIXA, APOS O VENCIMENTO COBRAR 10% DE MULTA                                NAO RECEBER APOS 30 DIAS DO VENCIMENTO.                                                                                                                                                                                                         01051700000000000000105170000000000000       0090770900118974099241291277000027
100000000000000000000009077090011897400000000000000000000000010002100010326136134100000000002            2  01103261361310051700000002372300000000001N010517000000000000000000000000000000000000000000000000000000000000000100003996827830RONALDO PINTO BORGES                    MAGNOLIA DELFIM DA SILVA - 44 - JARDIM O            05363040                                                            000029
2SR. CAIXA, APOS O VENCIMENTO COBRAR 10% DE MULTA                                NAO RECEBER APOS 30 DIAS DO VENCIMENTO.                                                                                                                                                                                                         01051700000000000000105170000000000000       0090770900118974103261361341000030
100000000000000000000009077090011897400000000000000000000000010002100001069722141500000000002            2  01106972214110051700000001363020000000001N010517000000000000000000000000000000000000000000000000000000000000000100012708342827ADRIANA RATIER CRUZ                     RUA JOSE CALIXTO DO CARMO - 295 APTO 31             11702690                                                            000032
2SR. CAIXA, APOS O VENCIMENTO COBRAR 10% DE MULTA                                NAO RECEBER APOS 30 DIAS DO VENCIMENTO.                                                                                                                                                                                                         01051700000000000000105170000000000000       0090770900118974010697221415000033
100000000000000000000009077090011897400000000000000000000000010002100010877143149400000000002            2  01108771431410051700000001190510000000001N010517000000000000000000000000000000000000000000000000000000000000000100000452415896MARILUCE SANTOS DE ALMEIDA              RUA JOSE CALIXTO DO CARMO - 295 AP.74 -             11702690                                                            000035
2SR. CAIXA, APOS O VENCIMENTO COBRAR 10% DE MULTA                                NAO RECEBER APOS 30 DIAS DO VENCIMENTO.                                                                                                                                                                                                         01051700000000000000105170000000000000       0090770900118974108771431494000036
100000000000000000000009077090011897400000000000000000000000010002100012993142175700000000002            2  01129931421701051700000003425810000000001N010517000000000000000000000000000000000000000000000000000000000000000100028379879805EDMILSON DANIEL GARCIA WATANUKI         AV.PRESIDENTE CASTELO BRANCO - 4718 LOJA            11702700                                                            000038
2SR. CAIXA, APOS O VENCIMENTO COBRAR 10% DE MULTA                                NAO RECEBER APOS 30 DIAS DO VENCIMENTO.                                                                                                                                                                                                         01051700000000000000105170000000000000       0090770900118974129931421757000039
100000000000000000000009077090011897400000000000000000000000010002100013411140181P00000000002            2  01134111401805051700000001526270000000001N010517000000000000000000000000000000000000000000000000000000000000000100019851254800DOUGLAS TADEU DE ALMEIDA JECKS          RUA CONSELHEIRO ELIAS DE CARVALHO - 50 A            04373000                                                            000041
2SR. CAIXA, APOS O VENCIMENTO COBRAR 10% DE MULTA                                NAO RECEBER APOS 30 DIAS DO VENCIMENTO.                                                                                                                                                                                                         01051700000000000000105170000000000000       009077090011897413411140181P000042
100000000000000000000009077090011897400000000000000000000000010002100013423146182400000000002            2  01134231461811051700000001563110000000001N010517000000000000000000000000000000000000000000000000000000000000000100037491305822NATASHA SILVEIRA DA SILVA               RUA CONSELHEIRO ELIAS DE CARVALHO - 50 A            04373000                                                            000044
2SR. CAIXA, APOS O VENCIMENTO COBRAR 10% DE MULTA                                NAO RECEBER APOS 30 DIAS DO VENCIMENTO.                                                                                                                                                                                                         01051700000000000000105170000000000000       0090770900118974134231461824000045
9                                                                                                                                                                                                                                                                                                                                                                                                         000046