01REMESSA01COBRANCA       00000000000004991454AIRES CONSTRUTORA E INCORPORAD237BRADESCO       080819        MX0000138                                                                                                                                                                                                                                                                                     000001
100000000000000000000009077090001674800000000000000000000000010002100026984108191000000000002            2  01269841081924081900000001508760000000001N070819000000000000000000000000000000000000000000000000000000000000000100026984181844GISELE APARECIDA MAGALHAES              RUA GRACILIANO RAMOS - 181 - BAIRRO SAO             09581410                                                            000002
2SR. CAIXA, APOS O VENCIMENTO COBRAR 10% DE MULTA                                NAO RECEBER APOS 30 DIAS DO VENCIMENTO.                                                                                                                                                                                                         08081900000000000000808190000000000000       0090770900016748269841081910000003
100000000000000000000009077090001674800000000000000000000000010002100068806208191500000000002            2  01688062081924081900000001339020000000001N070819000000000000000000000000000000000000000000000000000000000000000100068806272853FATIMA MOREIRA SALOMAO                  RUA TORQUATO DE CAMILLO - 84 - CARANDA B            79032031                                                            000005
2SR. CAIXA, APOS O VENCIMENTO COBRAR 10% DE MULTA                                NAO RECEBER APOS 30 DIAS DO VENCIMENTO.                                                                                                                                                                                                         08081900000000000000808190000000000000       0090770900016748688062081915000006
100000000000000000000009077090001674800000000000000000000000010002100004201608191100000000002            2  01042016081924081900000001944770000000001N070819000000000000000000000000000000000000000000000000000000000000000100004201640817SANDRA APARECIDA TOJAL                  AVENIDA MASCOTE - 81 AP.132 BL.A - VILA             04363000                                                            000008
2SR. CAIXA, APOS O VENCIMENTO COBRAR 10% DE MULTA                                NAO RECEBER APOS 30 DIAS DO VENCIMENTO.                                                                                                                                                                                                         08081900000000000000808190000000000000       0090770900016748042016081911000009
100000000000000000000009077090001674800000000000000000000000010002100000024608191600000000002            2  01000246081924081900000002315200000000001N070819000000000000000000000000000000000000000000000000000000000000000100000024633852JAYME MASRI                             RUA MONTE CASTELO - 296 AP.24 - BAIRRO A            11702720                                                            000011
2SR. CAIXA, APOS O VENCIMENTO COBRAR 10% DE MULTA                                NAO RECEBER APOS 30 DIAS DO VENCIMENTO.                                                                                                                                                                                                         08081900000000000000808190000000000000       0090770900016748000246081916000012
100000000000000000000009077090001674800000000000000000000000010002100013184408191P00000000002            2  01131844081924081900000002404010000000001N070819000000000000000000000000000000000000000000000000000000000000000100013184404838CLAUDIO GOMES BAHIA                     RUA MARIA CONCEICAO - 89 - VILA SAO PEDR            07032070                                                            000014
2SR. CAIXA, APOS O VENCIMENTO COBRAR 10% DE MULTA                                NAO RECEBER APOS 30 DIAS DO VENCIMENTO.                                                                                                                                                                                                         08081900000000000000808190000000000000       009077090001674813184408191P000015
100000000000000000000009077090001674800000000000000000000000010002100006055508191500000000002            2  01060555081924081900000003640500000000001N070819000000000000000000000000000000000000000000000000000000000000000100006055565803EDSON ALVES                             RUA EDGAR CODAZZI - 49 CASA 02 - CIDADE             08225280                                                            000017
2SR. CAIXA, APOS O VENCIMENTO COBRAR 10% DE MULTA                                NAO RECEBER APOS 30 DIAS DO VENCIMENTO.                                                                                                                                                                                                         08081900000000000000808190000000000000       0090770900016748060555081915000018
100000000000000000000009077090001674800000000000000000000000010002100021899208191900000000002            2  01218992081924081900000002652470000000001N070819000000000000000000000000000000000000000000000000000000000000000100021899277811ALESSANDRE ALVES ANDRADE                RUA MONTE CASTELO - 262 AP.132 - AVIACAO            11702720                                                            000020
2SR. CAIXA, APOS O VENCIMENTO COBRAR 10% DE MULTA                                NAO RECEBER APOS 30 DIAS DO VENCIMENTO.                                                                                                                                                                                                         08081900000000000000808190000000000000       0090770900016748218992081919000021
100000000000000000000009077090001674800000000000000000000000010002100003441208191300000000002            2  01034412081924081900000002312820000000001N070819000000000000000000000000000000000000000000000000000000000000000100003441232860LUIZ CARLOS CAMARGO BIANCHI             RUA GENERAL LEITE DE CASTRO - 200 - JARD            04182020                                                            000023
2SR. CAIXA, APOS O VENCIMENTO COBRAR 10% DE MULTA                                NAO RECEBER APOS 30 DIAS DO VENCIMENTO.                                                                                                                                                                                                         08081900000000000000808190000000000000       0090770900016748034412081913000024
100000000000000000000009077090001674800000000000000000000000010002100014681408191200000000002            2  01146814081924081900000002399360000000001N070819000000000000000000000000000000000000000000000000000000000000000100014681490830HUMBERTO MOZART CALIXTO                 RUA MONTE CASTELO - 296 AP.41 - AVIACAO             11702720                                                            000026
2SR. CAIXA, APOS O VENCIMENTO COBRAR 10% DE MULTA                                NAO RECEBER APOS 30 DIAS DO VENCIMENTO.                                                                                                                                                                                                         08081900000000000000808190000000000000       0090770900016748146814081912000027
100000000000000000000009077090001674800000000000000000000000010002100023007708191500000000002            2  01230077081924081900000001961850000000001N070819000000000000000000000000000000000000000000000000000000000000000100023007705800BRUNA ANTUN AZEVEDO                     RUA MONTE CASTELO - 296 AP.62 - AVIACAO             11702720                                                            000029
2SR. CAIXA, APOS O VENCIMENTO COBRAR 10% DE MULTA                                NAO RECEBER APOS 30 DIAS DO VENCIMENTO.                                                                                                                                                                                                         08081900000000000000808190000000000000       0090770900016748230077081915000030
100000000000000000000009077090001674800000000000000000000000010002100006550708191300000000002            2  01065507081924081900000002025580000000001N070819000000000000000000000000000000000000000000000000000000000000000100006550730864IVONE APARECIDA VIEIRA GADI TEIXEIRA    RUA SAO FLORENCIO  - 1500 AP.44 BLOCO 01            03733020                                                            000032
2SR. CAIXA, APOS O VENCIMENTO COBRAR 10% DE MULTA                                NAO RECEBER APOS 30 DIAS DO VENCIMENTO.                                                                                                                                                                                                         08081900000000000000808190000000000000       0090770900016748065507081913000033
100000000000000000000009077090001674800000000000000000000000010002100000930608191800000000002            2  01009306081924081900000003629140000000001N070819000000000000000000000000000000000000000000000000000000000000000100000930668642VALERIA RODRIGUES DANTAS                RUA MONTE CASTELO - 262 AP.21 - AVIACAO             11702720                                                            000035
2SR. CAIXA, APOS O VENCIMENTO COBRAR 10% DE MULTA                                NAO RECEBER APOS 30 DIAS DO VENCIMENTO.                                                                                                                                                                                                         08081900000000000000808190000000000000       0090770900016748009306081918000036
100000000000000000000009077090001674800000000000000000000000010002100075574008191100000000002            2  01755740081924081900000003135480000000001N070819000000000000000000000000000000000000000000000000000000000000000100075574063891CASSIO TADEU DA SILVEIRA                RUA CONSELHEIRO MOREIRA DE BARROS - 1.55            02430000                                                            000038
2SR. CAIXA, APOS O VENCIMENTO COBRAR 10% DE MULTA                                NAO RECEBER APOS 30 DIAS DO VENCIMENTO.                                                                                                                                                                                                         08081900000000000000808190000000000000       0090770900016748755740081911000039
100000000000000000000009077090001674800000000000000000000000010002100000764608191P00000000002            2  01007646081924081900000002318850000000001N070819000000000000000000000000000000000000000000000000000000000000000100000764632817LUIZ CARLOS ANTUNES JUNIOR              RUA MONTE CASTELO - 262 AP.35 - AVIACAO             11702720                                                            000041
2SR. CAIXA, APOS O VENCIMENTO COBRAR 10% DE MULTA                                NAO RECEBER APOS 30 DIAS DO VENCIMENTO.                                                                                                                                                                                                         08081900000000000000808190000000000000       009077090001674800764608191P000042
100000000000000000000009077090001674800000000000000000000000010002100066104108191P00000000002            2  01661041081924081900000002344200000000001N070819000000000000000000000000000000000000000000000000000000000000000100066104106820ANADIR FERREIRA                         RUA MONTE CASTELO - 296 AP.61 - AVIACAO             11702720                                                            000044
2SR. CAIXA, APOS O VENCIMENTO COBRAR 10% DE MULTA                                NAO RECEBER APOS 30 DIAS DO VENCIMENTO.                                                                                                                                                                                                         08081900000000000000808190000000000000       009077090001674866104108191P000045
100000000000000000000009077090001674800000000000000000000000010002100057014508191600000000002            2  01570145081924081900000002631980000000001N070819000000000000000000000000000000000000000000000000000000000000000100057014582887SONIA MARIA DA SILVA PEGORARO           RUA FRANCO PAULISTA  - 80 - AGUA FRIA -             02332030                                                            000047
2SR. CAIXA, APOS O VENCIMENTO COBRAR 10% DE MULTA                                NAO RECEBER APOS 30 DIAS DO VENCIMENTO.                                                                                                                                                                                                         08081900000000000000808190000000000000       0090770900016748570145081916000048
100000000000000000000009077090001674800000000000000000000000010002100057014508192400000000002            2  01570145081924081900000002631830000000001N070819000000000000000000000000000000000000000000000000000000000000000100057014582887SONIA MARIA DA SILVA PEGORARO           RUA FRANCO PAULISTA  - 80 - AGUA FRIA -             02332030                                                            000050
2SR. CAIXA, APOS O VENCIMENTO COBRAR 10% DE MULTA                                NAO RECEBER APOS 30 DIAS DO VENCIMENTO.                                                                                                                                                                                                         08081900000000000000808190000000000000       0090770900016748570145081924000051
100000000000000000000009077090001674800000000000000000000000010002100057014508193200000000002            2  01570145081924081900000002631840000000001N070819000000000000000000000000000000000000000000000000000000000000000100057014582887SONIA MARIA DA SILVA PEGORARO           RUA FRANCO PAULISTA  - 80 - AGUA FRIA -             02332030                                                            000053
2SR. CAIXA, APOS O VENCIMENTO COBRAR 10% DE MULTA                                NAO RECEBER APOS 30 DIAS DO VENCIMENTO.                                                                                                                                                                                                         08081900000000000000808190000000000000       0090770900016748570145081932000054
100000000000000000000009077090001674800000000000000000000000010002100057014508194000000000002            2  01570145081924081900000002631850000000001N070819000000000000000000000000000000000000000000000000000000000000000100057014582887SONIA MARIA DA SILVA PEGORARO           RUA FRANCO PAULISTA  - 80 - AGUA FRIA -             02332030                                                            000056
2SR. CAIXA, APOS O VENCIMENTO COBRAR 10% DE MULTA                                NAO RECEBER APOS 30 DIAS DO VENCIMENTO.                                                                                                                                                                                                         08081900000000000000808190000000000000       0090770900016748570145081940000057
100000000000000000000009077090001674800000000000000000000000010002100006505308191300000000002            2  01065053081924081900000002860700000000001N070819000000000000000000000000000000000000000000000000000000000000000100006505382852LUIS ANTONIO DINIS HENRIQUES            RUA ESTEVAO  BAIAO - 520 AP.93A - CAMPO             04624002                                                            000059
2SR. CAIXA, APOS O VENCIMENTO COBRAR 10% DE MULTA                                NAO RECEBER APOS 30 DIAS DO VENCIMENTO.                                                                                                                                                                                                         08081900000000000000808190000000000000       0090770900016748065053081913000060
100000000000000000000009077090001674800000000000000000000000010002100011544708191600000000002            2  01115447081924081900000005196850000000001N070819000000000000000000000000000000000000000000000000000000000000000100011544777620GRACIELY RODRIGUES FERNANDES            RUA MONTE CASTELO - 262 AP.111 - AVIACAO            11702720                                                            000062
2SR. CAIXA, APOS O VENCIMENTO COBRAR 10% DE MULTA                                NAO RECEBER APOS 30 DIAS DO VENCIMENTO.                                                                                                                                                                                                         08081900000000000000808190000000000000       0090770900016748115447081916000063
100000000000000000000009077090001674800000000000000000000000010002100005629008191000000000002            2  01056290081924081900000003779650000000001N070819000000000000000000000000000000000000000000000000000000000000000100005629087819ROMILDO MARTINS PIZA                    RUA MAESTRO ARTURO DE ANGELIS - 190 AP.3            05139010                                                            000065
2SR. CAIXA, APOS O VENCIMENTO COBRAR 10% DE MULTA                                NAO RECEBER APOS 30 DIAS DO VENCIMENTO.                                                                                                                                                                                                         08081900000000000000808190000000000000       0090770900016748056290081910000066
100000000000000000000009077090001674800000000000000000000000010002100004290908191P00000000002            2  01042909081924081900000002014700000000001N070819000000000000000000000000000000000000000000000000000000000000000100004290973876WLADIMIR PAIOLA BORREGO                 RUA GOMES - 429 - VILA IVONE - SAO PAULO            03275010                                                            000068
2SR. CAIXA, APOS O VENCIMENTO COBRAR 10% DE MULTA                                NAO RECEBER APOS 30 DIAS DO VENCIMENTO.                                                                                                                                                                                                         08081900000000000000808190000000000000       009077090001674804290908191P000069
100000000000000000000009077090001674800000000000000000000000010002100034325508191500000000002            2  01343255081924081900000001907360000000001N070819000000000000000000000000000000000000000000000000000000000000000100034325567801LUIZ FERNANDO ALAMINO                   RUA GALDINO NASCIMENTO - 45 - PARQUE GUA            08431650                                                            000071
2SR. CAIXA, APOS O VENCIMENTO COBRAR 10% DE MULTA                                NAO RECEBER APOS 30 DIAS DO VENCIMENTO.                                                                                                                                                                                                         08081900000000000000808190000000000000       0090770900016748343255081915000072
100000000000000000000009077090001674800000000000000000000000010002100021335408191800000000002            2  01213354081924081900000001443360000000001N070819000000000000000000000000000000000000000000000000000000000000000100021335464808RAQUEL FERREIRA RAMOS                   RUA ANTONIO SEVERIANO DE ANDRADE E SILVA            11702400                                                            000074
2SR. CAIXA, APOS O VENCIMENTO COBRAR 10% DE MULTA                                NAO RECEBER APOS 30 DIAS DO VENCIMENTO.                                                                                                                                                                                                         08081900000000000000808190000000000000       0090770900016748213354081918000075
100000000000000000000009077090001674800000000000000000000000010002100005627908191700000000002            2  01056279081924081900000001692490000000001N070819000000000000000000000000000000000000000000000000000000000000000100005627947861FERNANDO CESAR MARCELINO                TRAVESSA CHARLES LEBRUN - 83 - VILA NOVA            02312060                                                            000077
2SR. CAIXA, APOS O VENCIMENTO COBRAR 10% DE MULTA                                NAO RECEBER APOS 30 DIAS DO VENCIMENTO.                                                                                                                                                                                                         08081900000000000000808190000000000000       0090770900016748056279081917000078
100000000000000000000009077090001674800000000000000000000000010002100026187908191300000000002            2  01261879081924081900000001766150000000001N070819000000000000000000000000000000000000000000000000000000000000000100026187960807CARINA CANTACESSO DE SOUZA              RUA MONTE CASTELO - 296 AP.91 - AVIACAO             11702720                                                            000080
2SR. CAIXA, APOS O VENCIMENTO COBRAR 10% DE MULTA                                NAO RECEBER APOS 30 DIAS DO VENCIMENTO.                                                                                                                                                                                                         08081900000000000000808190000000000000       0090770900016748261879081913000081
100000000000000000000009077090001674800000000000000000000000010002100004864908191900000000002            2  01048649081924081900000002360540000000001N070819000000000000000000000000000000000000000000000000000000000000000100004864924600RENATO SANTACHIARA SALVADORI            RUA PENSYLVANIA - 116 - PAYSAGE BRISE -             06730000                                                            000083
2SR. CAIXA, APOS O VENCIMENTO COBRAR 10% DE MULTA                                NAO RECEBER APOS 30 DIAS DO VENCIMENTO.                                                                                                                                                                                                         08081900000000000000808190000000000000       0090770900016748048649081919000084
100000000000000000000009077090001674800000000000000000000000010002100026647608191500000000002            2  01266476081924081900000002614630000000001N070819000000000000000000000000000000000000000000000000000000000000000100026647690816CLAUDIA FUKUDA OGATA BURATTO            RUA DINAMARCA - 449 - BAIRRO TABOAO - SA            09668080                                                            000086
2SR. CAIXA, APOS O VENCIMENTO COBRAR 10% DE MULTA                                NAO RECEBER APOS 30 DIAS DO VENCIMENTO.                                                                                                                                                                                                         08081900000000000000808190000000000000       0090770900016748266476081915000087
9                                                                                                                                                                                                                                                                                                                                                                                                         000088