01REMESSA01COBRANCA       00000000000004991788AIRES DESENVOLVIMENTO IMOBILIA237BRADESCO       080617        MX0000100                                                                                                                                                                                                                                                                                     000001
100000000000000000000009077090011897400000000000000000000000010002100000051588070700000000002            2  01005158807025061700000001783810000000001N080617000000000000000000000000000000000000000000000000000000000000000100011088018890LUIZ CARLOS VITORINO MADEIRA            RUA JOSE CALIXTO DO CARMO - 265 AP. 32 -            11702690                                                            000002
2SR. CAIXA, APOS O VENCIMENTO COBRAR 10% DE MULTA                                NAO RECEBER APOS 30 DIAS DO VENCIMENTO.                                                                                                                                                                                                         08061700000000000000806170000000000000       0090770900118974000515880707000003
100000000000000000000009077090011897400000000000000000000000010002100000054748274600000000002            2  01005474827425061700000002395980000000001N080617000000000000000000000000000000000000000000000000000000000000000100000310954886MARIO CESAR FERREIRA DE LIMA            AVENIDA DO CURSINO - 6485 BLOCO A AP.86             04169000                                                            000005
2SR. CAIXA, APOS O VENCIMENTO COBRAR 10% DE MULTA                                NAO RECEBER APOS 30 DIAS DO VENCIMENTO.                                                                                                                                                                                                         08061700000000000000806170000000000000       0090770900118974000547482746000006
100000000000000000000009077090011897400000000000000000000000010002100000066899388800000000002            2  01006689938825061700000002595670000000001N080617000000000000000000000000000000000000000000000000000000000000000100004007807809CLAUDIO CANESCHI                        RUA AGRESTE  DE ITABAINA - 663 - VILA UN            03683000                                                            000008
2SR. CAIXA, APOS O VENCIMENTO COBRAR 10% DE MULTA                                NAO RECEBER APOS 30 DIAS DO VENCIMENTO.                                                                                                                                                                                                         08061700000000000000806170000000000000       0090770900118974000668993888000009
100000000000000000000009077090011897400000000000000000000000010002100000071489893300000000002            2  01007148989325061700000002386490000000001N080617000000000000000000000000000000000000000000000000000000000000000100025998413806CELESTE ERMELINDA NEVES DA SILVA        RUA CIRO CARNEIRO - 920 - JARDIM GUILHER            11702220                                                            000011
2SR. CAIXA, APOS O VENCIMENTO COBRAR 10% DE MULTA                                NAO RECEBER APOS 30 DIAS DO VENCIMENTO.                                                                                                                                                                                                         08061700000000000000806170000000000000       0090770900118974000714898933000012
100000000000000000000009077090011897400000000000000000000000010002100007957106103P00000000002            2  01795710610325061700000003165880000000001N080617000000000000000000000000000000000000000000000000000000000000000100000677443897JOSE CARLOS CORDEIRO CALADO             RUA HERMOGENES DA SILVA - 190 - VILA OLI            03379150                                                            000014
2SR. CAIXA, APOS O VENCIMENTO COBRAR 10% DE MULTA                                NAO RECEBER APOS 30 DIAS DO VENCIMENTO.                                                                                                                                                                                                         08061700000000000000806170000000000000       009077090011897407957106103P000015
100000000000000000000009077090011897400000000000000000000000010002100008486112108000000000002            2  01848611210825061700000002895100000000001N080617000000000000000000000000000000000000000000000000000000000000000100000796517800WLADIMIR RODRIGUES                      R:JOSE DA SILVA RIBEIRO - 576 AP.233 - B            05726130                                                            000017
2SR. CAIXA, APOS O VENCIMENTO COBRAR 10% DE MULTA                                NAO RECEBER APOS 30 DIAS DO VENCIMENTO.                                                                                                                                                                                                         08061700000000000000806170000000000000       0090770900118974084861121080000018
100000000000000000000009077090011897400000000000000000000000010002100008833116112500000000002            2  01883311611225061700000002797990000000001N080617000000000000000000000000000000000000000000000000000000000000000100077595971853CARLOS EDUARDO RODRIGUES TEIXEIRA       RUA JOSE APARECIDO PAVAN - 423 - PARQUE             13086080                                                            000020
2SR. CAIXA, APOS O VENCIMENTO COBRAR 10% DE MULTA                                NAO RECEBER APOS 30 DIAS DO VENCIMENTO.                                                                                                                                                                                                         08061700000000000000806170000000000000       0090770900118974088331161125000021
100000000000000000000009077090011897400000000000000000000000010002100008919117113P00000000002            2  01891911711325061700000002816380000000001N080617000000000000000000000000000000000000000000000000000000000000000100015110751803LILIAN CARRARA DA SILVA CANDIDO         ALAMEDA VICENTE DE CARVALHO - 65 - JARDI            07600000                                                            000023
2SR. CAIXA, APOS O VENCIMENTO COBRAR 10% DE MULTA                                NAO RECEBER APOS 30 DIAS DO VENCIMENTO.                                                                                                                                                                                                         08061700000000000000806170000000000000       009077090011897408919117113P000024
100000000000000000000009077090011897400000000000000000000000010002100009091119115800000000002            2  01909111911525061700000002724320000000001N080617000000000000000000000000000000000000000000000000000000000000000100005204692835RINALDO DA MOTTA                        JOSE CALIXTO DO CARMO - 265 AP.93 - AVIA            11702690                                                            000026
2SR. CAIXA, APOS O VENCIMENTO COBRAR 10% DE MULTA                                NAO RECEBER APOS 30 DIAS DO VENCIMENTO.                                                                                                                                                                                                         08061700000000000000806170000000000000       0090770900118974090911191158000027
100000000000000000000009077090011897400000000000000000000000010002100009352122118700000000002            2  01935212211825061700000002158090000000001N080617000000000000000000000000000000000000000000000000000000000000000100022090439807FELIPE LUCIO LOPES                      RUA JOSE CALIXTO DO CARMO - 265 AP.103 -            11702690                                                            000029
2SR. CAIXA, APOS O VENCIMENTO COBRAR 10% DE MULTA                                NAO RECEBER APOS 30 DIAS DO VENCIMENTO.                                                                                                                                                                                                         08061700000000000000806170000000000000       0090770900118974093521221187000030
100000000000000000000009077090011897400000000000000000000000010002100000962245123900000000002            2  01096224512325061700000002712850000000001N080617000000000000000000000000000000000000000000000000000000000000000100070237824434ANTONIO FERREIRA NETO                   RUA HENRIQUE MINDLIM - 161 - JD. ORIENTA            04349250                                                            000032
2SR. CAIXA, APOS O VENCIMENTO COBRAR 10% DE MULTA                                NAO RECEBER APOS 30 DIAS DO VENCIMENTO.                                                                                                                                                                                                         08061700000000000000806170000000000000       0090770900118974009622451239000033
100000000000000000000009077090011897400000000000000000000000010002100010093131129500000000002            2  01100931311225061700000002834860000000001N080617000000000000000000000000000000000000000000000000000000000000000100005677409863ROSA MARIA OLIVIERI MEMOLI              CONSELHEIRO NEBIAS - 1409 - CAMPOS ELISE            01203002                                                            000035
2SR. CAIXA, APOS O VENCIMENTO COBRAR 10% DE MULTA                                NAO RECEBER APOS 30 DIAS DO VENCIMENTO.                                                                                                                                                                                                         08061700000000000000806170000000000000       0090770900118974100931311295000036
100000000000000000000009077090011897400000000000000000000000010002100010539138137100000000002            2  01105391381325061700000002708980000000001N080617000000000000000000000000000000000000000000000000000000000000000100034771609837MARCELO ALEXANDRE CARVALHO              RUA ECAUNA - 222 - JARDIM UMARIZAL - SAO            05754040                                                            000038
2SR. CAIXA, APOS O VENCIMENTO COBRAR 10% DE MULTA                                NAO RECEBER APOS 30 DIAS DO VENCIMENTO.                                                                                                                                                                                                         08061700000000000000806170000000000000       0090770900118974105391381371000039
100000000000000000000009077090011897400000000000000000000000010002100010652139139700000000002            2  01106521391325061700000006530530000000001N080617000000000000000000000000000000000000000000000000000000000000000100084057904891ANTONIO GONZAGA DOS SANTOS              RUA BRIGADEIRO JOSE FERREIRA - 319 - CAN            11700470                                                            000041
2SR. CAIXA, APOS O VENCIMENTO COBRAR 10% DE MULTA                                NAO RECEBER APOS 30 DIAS DO VENCIMENTO.                                                                                                                                                                                                         08061700000000000000806170000000000000       0090770900118974106521391397000042
100000000000000000000009077090011897400000000000000000000000010002100014195108192800000000002            2  01141951081924061700000001779110000000001N080617000000000000000000000000000000000000000000000000000000000000000100014497915816FERNANDO JOSE ARRUDA                    RUA JOSE CALIXTO DO CARMO - 265 AP.113 -            11702690                                                            000044
2SR. CAIXA, APOS O VENCIMENTO COBRAR 10% DE MULTA                                NAO RECEBER APOS 30 DIAS DO VENCIMENTO.                                                                                                                                                                                                         08061700000000000000806170000000000000       0090770900118974141951081928000045
100000000000000000000009077090011897400000000000000000000000010002100001422487193000000000002            2  01142248719324061700000001341780000000001N080617000000000000000000000000000000000000000000000000000000000000000100027324099874LEONARDO BORGES DUARTE SILVA            RUA JOSE CALIXTO DO CARMO - 265 AP.94 -             11702690                                                            000047
2SR. CAIXA, APOS O VENCIMENTO COBRAR 10% DE MULTA                                NAO RECEBER APOS 30 DIAS DO VENCIMENTO.                                                                                                                                                                                                         08061700000000000000806170000000000000       0090770900118974014224871930000048
9                                                                                                                                                                                                                                                                                                                                                                                                         000049