01REMESSA01COBRANCA       00000000000004991788AIRES DESENVOLVIMENTO IMOBILIA237BRADESCO       060720        MX0000181                                                                                                                                                                                                                                                                                     000001
100000000000000000000009077090011897400000000000000000000000010002100027324007201600000000002            2  01273240072024072000000001770400000000001N020720000000000000000000000000000000000000000000000000000000000000000100027324099874LEONARDO BORGES DUARTE SILVA            RUA JOSE CALIXTO DO CARMO - 265 AP.94 -             11702690                                                            000002
2SR. CAIXA, APOS O VENCIMENTO COBRAR 10% DE MULTA                                NAO RECEBER APOS 30 DIAS DO VENCIMENTO.                                                                                                                                                                                                         06072000000000000000607200000000000000       0090770900118974273240072016000003
100000000000000000000009077090011897400000000000000000000000010002100027300907201100000000002            2  01273009072024072000000001983620000000001N020720000000000000000000000000000000000000000000000000000000000000000100027300953816HOSANA DOS SANTOS MOLEIRO               RUA JOSE CALIXTO DO CARMO - 295 AP.61 -             11702690                                                            000005
2SR. CAIXA, APOS O VENCIMENTO COBRAR 10% DE MULTA                                NAO RECEBER APOS 30 DIAS DO VENCIMENTO.                                                                                                                                                                                                         06072000000000000000607200000000000000       0090770900118974273009072011000006
100000000000000000000009077090011897400000000000000000000000010002100006476007201000000000002            2  01064760072024072000000001704290000000001N020720000000000000000000000000000000000000000000000000000000000000000100006476037803CLAUDIO JOSE LEMOS                      RUA MISSIONS - 127 - VILA BUENOS AIRES -            03736060                                                            000008
2SR. CAIXA, APOS O VENCIMENTO COBRAR 10% DE MULTA                                NAO RECEBER APOS 30 DIAS DO VENCIMENTO.                                                                                                                                                                                                         06072000000000000000607200000000000000       0090770900118974064760072010000009
100000000000000000000009077090011897400000000000000000000000010002100084057907201700000000002            2  01840579072027072000000002000000000000001N020720000000000000000000000000000000000000000000000000000000000000000100084057904891ANTONIO GONZAGA DOS SANTOS              RUA BRIGADEIRO JOSE FERREIRA - 319 - CAN            11700470                                                            000011
2SR. CAIXA, APOS O VENCIMENTO COBRAR 10% DE MULTA                                NAO RECEBER APOS 30 DIAS DO VENCIMENTO.                                                                                                                                                                                                         06072000000000000000607200000000000000       0090770900118974840579072017000012
9                                                                                                                                                                                                                                                                                                                                                                                                         000013