01REMESSA01COBRANCA       00000000000004991788AIRES DESENVOLVIMENTO IMOBILIA237BRADESCO       120419        MX0000151                                                                                                                                                                                                                                                                                     000001
100000000000000000000009077090011897400000000000000000000000010002100014497904191200000000002            2  01144979041924041900000002098590000000001N100419000000000000000000000000000000000000000000000000000000000000000100014497915816FERNANDO JOSE ARRUDA                    RUA JOSE CALIXTO DO CARMO - 265 AP.113 -            11702690                                                            000002
2SR. CAIXA, APOS O VENCIMENTO COBRAR 10% DE MULTA                                NAO RECEBER APOS 30 DIAS DO VENCIMENTO.                                                                                                                                                                                                         12041900000000000001204190000000000000       0090770900118974144979041912000003
100000000000000000000009077090011897400000000000000000000000010002100027324004191900000000002            2  01273240041924041900000001582690000000001N100419000000000000000000000000000000000000000000000000000000000000000100027324099874LEONARDO BORGES DUARTE SILVA            RUA JOSE CALIXTO DO CARMO - 265 AP.94 -             11702690                                                            000005
2SR. CAIXA, APOS O VENCIMENTO COBRAR 10% DE MULTA                                NAO RECEBER APOS 30 DIAS DO VENCIMENTO.                                                                                                                                                                                                         12041900000000000001204190000000000000       0090770900118974273240041919000006
100000000000000000000009077090011897400000000000000000000000010002100084057904191P00000000002            2  01840579041927041900000002000000000000001N100419000000000000000000000000000000000000000000000000000000000000000100084057904891ANTONIO GONZAGA DOS SANTOS              RUA BRIGADEIRO JOSE FERREIRA - 319 - CAN            11700470                                                            000008
2SR. CAIXA, APOS O VENCIMENTO COBRAR 10% DE MULTA                                NAO RECEBER APOS 30 DIAS DO VENCIMENTO.                                                                                                                                                                                                         12041900000000000001204190000000000000       009077090011897484057904191P000009
100000000000000000000009077090011897400000000000000000000000010002100036782004191000000000002            2  01367820041924041900000001523590000000001N100419000000000000000000000000000000000000000000000000000000000000000100036782058871ANA PAULA BUENO DA COSTA                RUA MARIQUITA ARTACHO - 218 CASA 3 - JAR            03716000                                                            000011
2SR. CAIXA, APOS O VENCIMENTO COBRAR 10% DE MULTA                                NAO RECEBER APOS 30 DIAS DO VENCIMENTO.                                                                                                                                                                                                         12041900000000000001204190000000000000       0090770900118974367820041910000012
100000000000000000000009077090011897400000000000000000000000010002100018272704191900000000002            2  01182727041927041900000001800000000000001N100419000000000000000000000000000000000000000000000000000000000000000100018272729881HENRY CESAR UEDA                        RUA MONTE CASTELO - 295 AP.94 - AVIACAO             11702720                                                            000014
2SR. CAIXA, APOS O VENCIMENTO COBRAR 10% DE MULTA                                NAO RECEBER APOS 30 DIAS DO VENCIMENTO.                                                                                                                                                                                                         12041900000000000001204190000000000000       0090770900118974182727041919000015
9                                                                                                                                                                                                                                                                                                                                                                                                         000016