01REMESSA01COBRANCA       00000000000004991788AIRES DESENVOLVIMENTO IMOBILIA237BRADESCO       010720        MX0000180                                                                                                                                                                                                                                                                                     000001
100000000000000000000009077090011897400000000000000000000000010002100000452407201500000000002            2  01004524072010072000000001441600000000001N010720000000000000000000000000000000000000000000000000000000000000000100000452415896MARILUCE SANTOS DE ALMEIDA              RUA JOSE CALIXTO DO CARMO - 295 AP.74 -             11702690                                                            000002
2SR. CAIXA, APOS O VENCIMENTO COBRAR 10% DE MULTA                                NAO RECEBER APOS 30 DIAS DO VENCIMENTO.                                                                                                                                                                                                         01072000000000000000107200000000000000       0090770900118974004524072015000003
100000000000000000000009077090011897400000000000000000000000010002100001461007201500000000002            2  01014610072009072000000001504010000000001N010720000000000000000000000000000000000000000000000000000000000000000100001461096863ARGEVAL LOURENCO MAZOLA                 RUA ZELY DIAS DE FIGUEIREDO - 81 - VILA             02617060                                                            000005
2SR. CAIXA, APOS O VENCIMENTO COBRAR 10% DE MULTA                                NAO RECEBER APOS 30 DIAS DO VENCIMENTO.                                                                                                                                                                                                         01072000000000000000107200000000000000       0090770900118974014610072015000006
100000000000000000000009077090011897400000000000000000000000010002100013191207201000000000002            2  01131912072011072000000001800000000000001N010720000000000000000000000000000000000000000000000000000000000000000100013191291881MARCELO RICARDO MASCAROS SOUTO          RUA MONTE CASTELO - 295 AP.102 - AVIACAO            11702720                                                            000008
2SR. CAIXA, APOS O VENCIMENTO COBRAR 10% DE MULTA                                NAO RECEBER APOS 30 DIAS DO VENCIMENTO.                                                                                                                                                                                                         01072000000000000000107200000000000000       0090770900118974131912072010000009
9                                                                                                                                                                                                                                                                                                                                                                                                         000010