01REMESSA01COBRANCA       00000000000004991454AIRES CONSTRUTORA E INCORPORAD237BRADESCO       110717        MX0000085                                                                                                                                                                                                                                                                                     000001
100000000000000000000009077090001674800000000000000000000000010002100010956144150700000000002            2  01109561441524071700000001251100000000001N110717000000000000000000000000000000000000000000000000000000000000000100049736787320RAIMUNDO VIEIRA DA SILVA                RUA BOLIVIA - 81 AP.ZELADORIA - JARDIM G            11701850                                                            000002
2SR. CAIXA, APOS O VENCIMENTO COBRAR 10% DE MULTA                                NAO RECEBER APOS 30 DIAS DO VENCIMENTO.                                                                                                                                                                                                         11071700000000000001107170000000000000       0090770900016748109561441507000003
100000000000000000000009077090001674800000000000000000000000010002100011030145151500000000002            2  01110301451524071700000001110360000000001N110717000000000000000000000000000000000000000000000000000000000000000100068806272853FATIMA MOREIRA SALOMAO                  RUA TORQUATO DE CAMILLO - 84 - CARANDA B            79032031                                                            000005
2SR. CAIXA, APOS O VENCIMENTO COBRAR 10% DE MULTA                                NAO RECEBER APOS 30 DIAS DO VENCIMENTO.                                                                                                                                                                                                         11071700000000000001107170000000000000       0090770900016748110301451515000006
100000000000000000000009077090001674800000000000000000000000010002100011400144159900000000002            2  01114001441524071700000001535860000000001N110717000000000000000000000000000000000000000000000000000000000000000100049736787320RAIMUNDO VIEIRA DA SILVA                RUA BOLIVIA - 81 AP.ZELADORIA - JARDIM G            11701850                                                            000008
2SR. CAIXA, APOS O VENCIMENTO COBRAR 10% DE MULTA                                NAO RECEBER APOS 30 DIAS DO VENCIMENTO.                                                                                                                                                                                                         11071700000000000001107170000000000000       0090770900016748114001441599000009
100000000000000000000009077090001674800000000000000000000000010002100011597149161700000000002            2  01115971491624071700000001612630000000001N110717000000000000000000000000000000000000000000000000000000000000000100004201640817SANDRA APARECIDA TOJAL                  AVENIDA MASCOTE - 81 AP.132 BL.A - VILA             04363000                                                            000011
2SR. CAIXA, APOS O VENCIMENTO COBRAR 10% DE MULTA                                NAO RECEBER APOS 30 DIAS DO VENCIMENTO.                                                                                                                                                                                                         11071700000000000001107170000000000000       0090770900016748115971491617000012
100000000000000000000009077090001674800000000000000000000000010002100011705150162100000000002            2  01117051501624071700000001726940000000001N110717000000000000000000000000000000000000000000000000000000000000000100025278913819FERNANDO LOPES DA SILVA                 RUA RUBEN DE SOUZA - 387 AP.24A - VILA I            04653170                                                            000014
2SR. CAIXA, APOS O VENCIMENTO COBRAR 10% DE MULTA                                NAO RECEBER APOS 30 DIAS DO VENCIMENTO.                                                                                                                                                                                                         11071700000000000001107170000000000000       0090770900016748117051501621000015
100000000000000000000009077090001674800000000000000000000000010002100011807151163800000000002            2  01118071511624071700000001919830000000001N110717000000000000000000000000000000000000000000000000000000000000000100000024633852JAYME MASRI                             RUA MONTE CASTELO - 296 AP.24 - BAIRRO A            11702720                                                            000017
2SR. CAIXA, APOS O VENCIMENTO COBRAR 10% DE MULTA                                NAO RECEBER APOS 30 DIAS DO VENCIMENTO.                                                                                                                                                                                                         11071700000000000001107170000000000000       0090770900016748118071511638000018
100000000000000000000009077090001674800000000000000000000000010002100012316153168200000000002            2  01123161531624071700000001993450000000001N110717000000000000000000000000000000000000000000000000000000000000000100013184404838CLAUDIO GOMES BAHIA                     RUA MARIA CONCEICAO - 89 - VILA SAO PEDR            07032070                                                            000020
2SR. CAIXA, APOS O VENCIMENTO COBRAR 10% DE MULTA                                NAO RECEBER APOS 30 DIAS DO VENCIMENTO.                                                                                                                                                                                                         11071700000000000001107170000000000000       0090770900016748123161531682000021
100000000000000000000009077090001674800000000000000000000000010002100012429154169400000000002            2  01124291541624071700000003018760000000001N110717000000000000000000000000000000000000000000000000000000000000000100006055565803EDSON ALVES                             RUA EDGAR CODAZZI - 49 CASA 02 - CIDADE             08225280                                                            000023
2SR. CAIXA, APOS O VENCIMENTO COBRAR 10% DE MULTA                                NAO RECEBER APOS 30 DIAS DO VENCIMENTO.                                                                                                                                                                                                         11071700000000000001107170000000000000       0090770900016748124291541694000024
100000000000000000000009077090001674800000000000000000000000010002100013353161180500000000002            2  01133531611824071700000002199490000000001N110717000000000000000000000000000000000000000000000000000000000000000100021899277811ALESSANDRE ALVES ANDRADE                RUA MONTE CASTELO - 262 AP.132 - AVIACAO            11702720                                                            000026
2SR. CAIXA, APOS O VENCIMENTO COBRAR 10% DE MULTA                                NAO RECEBER APOS 30 DIAS DO VENCIMENTO.                                                                                                                                                                                                         11071700000000000001107170000000000000       0090770900016748133531611805000027
100000000000000000000009077090001674800000000000000000000000010002100013438162183800000000002            2  01134381621824071700000001907000000000001N110717000000000000000000000000000000000000000000000000000000000000000100015739602840EZEQUIEL DOS SANTOS LIMA                RUA MONGUBA - 464 - VILA CARRAO - SAO PA            03438000                                                            000029
2SR. CAIXA, APOS O VENCIMENTO COBRAR 10% DE MULTA                                NAO RECEBER APOS 30 DIAS DO VENCIMENTO.                                                                                                                                                                                                         11071700000000000001107170000000000000       0090770900016748134381621838000030
100000000000000000000009077090001674800000000000000000000000010002100013886165188000000000002            2  01138861651824071700000001917810000000001N110717000000000000000000000000000000000000000000000000000000000000000100003441232860LUIZ CARLOS CAMARGO BIANCHI             RUA GENERAL LEITE DE CASTRO - 200 - JARD            04182020                                                            000032
2SR. CAIXA, APOS O VENCIMENTO COBRAR 10% DE MULTA                                NAO RECEBER APOS 30 DIAS DO VENCIMENTO.                                                                                                                                                                                                         11071700000000000001107170000000000000       0090770900016748138861651880000033
100000000000000000000009077090001674800000000000000000000000010002100014306168194700000000002            2  01143061681924071700000001989570000000001N110717000000000000000000000000000000000000000000000000000000000000000100014681490830HUMBERTO MOZART CALIXTO                 RUA MONTE CASTELO - 296 AP.41 - AVIACAO             11702720                                                            000035
2SR. CAIXA, APOS O VENCIMENTO COBRAR 10% DE MULTA                                NAO RECEBER APOS 30 DIAS DO VENCIMENTO.                                                                                                                                                                                                         11071700000000000001107170000000000000       0090770900016748143061681947000036
100000000000000000000009077090001674800000000000000000000000010002100015100174203600000000002            2  01151001742024071700000001626820000000001N110717000000000000000000000000000000000000000000000000000000000000000100023007705800BRUNA ANTUN AZEVEDO                     RUA MONTE CASTELO - 296 AP.62 - AVIACAO             11702720                                                            000038
2SR. CAIXA, APOS O VENCIMENTO COBRAR 10% DE MULTA                                NAO RECEBER APOS 30 DIAS DO VENCIMENTO.                                                                                                                                                                                                         11071700000000000001107170000000000000       0090770900016748151001742036000039
100000000000000000000009077090001674800000000000000000000000010002100015201175204400000000002            2  01152011752024071700000001891030000000001N110717000000000000000000000000000000000000000000000000000000000000000100027944402840MARILENE BOTTONI SIMOES DA SILVA        RUA AMAZONAS - 1205 AP.14 - OSVALDO CRUZ            09540201                                                            000041
2SR. CAIXA, APOS O VENCIMENTO COBRAR 10% DE MULTA                                NAO RECEBER APOS 30 DIAS DO VENCIMENTO.                                                                                                                                                                                                         11071700000000000001107170000000000000       0090770900016748152011752044000042
100000000000000000000009077090001674800000000000000000000000010002100015417177206000000000002            2  01154171772024071700000001679650000000001N110717000000000000000000000000000000000000000000000000000000000000000100006550730864IVONE APARECIDA VIEIRA GADI TEIXEIRA    RUA SAO FLORENCIO  - 1500 AP.44 BLOCO 01            03733020                                                            000044
2SR. CAIXA, APOS O VENCIMENTO COBRAR 10% DE MULTA                                NAO RECEBER APOS 30 DIAS DO VENCIMENTO.                                                                                                                                                                                                         11071700000000000001107170000000000000       0090770900016748154171772060000045
9                                                                                                                                                                                                                                                                                                                                                                                                         000046