01REMESSA01COBRANCA       00000000000004991788AIRES DESENVOLVIMENTO IMOBILIA237BRADESCO       011117        MX0000115                                                                                                                                                                                                                                                                                     000001
100000000000000000000009077090011897400000000000000000000000010002100021570811171500000000002            2  01215708111710111700000002386760000000001N011117000000000000000000000000000000000000000000000000000000000000000100021570843805RODRIGO LESSANDRO FREGATE               RUA JOSE PEDRO DORO - 451 BLOCO RIO GRAN            02880010                                                            000002
2SR. CAIXA, APOS O VENCIMENTO COBRAR 10% DE MULTA                                NAO RECEBER APOS 30 DIAS DO VENCIMENTO.                                                                                                                                                                                                         01111700000000000000111170000000000000       0090770900118974215708111715000003
100000000000000000000009077090011897400000000000000000000000010002100007456811171700000000002            2  01074568111710111700000002327740000000001N011117000000000000000000000000000000000000000000000000000000000000000100007456836817REGINA CELIA RONDELLI                   RUA CANANEIA - 168 APTO 134 BL.C2 - SANT            09060480                                                            000005
2SR. CAIXA, APOS O VENCIMENTO COBRAR 10% DE MULTA                                NAO RECEBER APOS 30 DIAS DO VENCIMENTO.                                                                                                                                                                                                         01111700000000000000111170000000000000       0090770900118974074568111717000006
100000000000000000000009077090011897400000000000000000000000010002100007508711171P00000000002            2  01075087111710111700000002740450000000001N011117000000000000000000000000000000000000000000000000000000000000000100007508759842LAERCIO DA CRUZ FERREIRA                RUA JOSE BENEDITO SALINAS - 110 APTO 161            04674200                                                            000008
2SR. CAIXA, APOS O VENCIMENTO COBRAR 10% DE MULTA                                NAO RECEBER APOS 30 DIAS DO VENCIMENTO.                                                                                                                                                                                                         01111700000000000000111170000000000000       009077090011897407508711171P000009
100000000000000000000009077090011897400000000000000000000000010002100010653211171P00000000002            2  01106532111710111700000002475700000000001N011117000000000000000000000000000000000000000000000000000000000000000100010653257899MARCIO DE SOUZA AZEVEDO                 RUA CASABLANCA - 105 - PARQUE MONTE ALEG            06756400                                                            000011
2SR. CAIXA, APOS O VENCIMENTO COBRAR 10% DE MULTA                                NAO RECEBER APOS 30 DIAS DO VENCIMENTO.                                                                                                                                                                                                         01111700000000000000111170000000000000       009077090011897410653211171P000012
100000000000000000000009077090011897400000000000000000000000010002100068006211171600000000002            2  01680062111710111700000002464690000000001N011117000000000000000000000000000000000000000000000000000000000000000100068006292868FRANCISCO VIEIRA SOUSA                  RUA SERRA DA CANTAREIRA - 104 - JARDIM E            06413090                                                            000014
2SR. CAIXA, APOS O VENCIMENTO COBRAR 10% DE MULTA                                NAO RECEBER APOS 30 DIAS DO VENCIMENTO.                                                                                                                                                                                                         01111700000000000000111170000000000000       0090770900118974680062111716000015
100000000000000000000009077090011897400000000000000000000000010002100022288711171000000000002            2  01222887111710111700000002934070000000001N011117000000000000000000000000000000000000000000000000000000000000000100022288772808FERNANDA TAVARES MASANO                 RUA JOSE CALIXTO DO CARMO - 265 AP. 124             11702690                                                            000017
2SR. CAIXA, APOS O VENCIMENTO COBRAR 10% DE MULTA                                NAO RECEBER APOS 30 DIAS DO VENCIMENTO.                                                                                                                                                                                                         01111700000000000000111170000000000000       0090770900118974222887111710000018
100000000000000000000009077090011897400000000000000000000000010002100032223811171400000000002            2  01322238111710111700000002739900000000001N011117000000000000000000000000000000000000000000000000000000000000000100032223890806ELISANGELA CAMARGO BRAGA                RUA JOSE CALIXTO DO CARMO - 265 AP.24 -             11702690                                                            000020
2SR. CAIXA, APOS O VENCIMENTO COBRAR 10% DE MULTA                                NAO RECEBER APOS 30 DIAS DO VENCIMENTO.                                                                                                                                                                                                         01111700000000000000111170000000000000       0090770900118974322238111714000021
100000000000000000000009077090011897400000000000000000000000010002100010177111171100000000002            2  01101771111710111700000002625220000000001N011117000000000000000000000000000000000000000000000000000000000000000100010177135883VERONICA DE LIMA SANTOS                 RUA ARAGAO - 1099 - TUCURUVI - SAO PAULO            02308001                                                            000023
2SR. CAIXA, APOS O VENCIMENTO COBRAR 10% DE MULTA                                NAO RECEBER APOS 30 DIAS DO VENCIMENTO.                                                                                                                                                                                                         01111700000000000000111170000000000000       0090770900118974101771111711000024
100000000000000000000009077090011897400000000000000000000000010002100031000711171300000000002            2  01310007111710111700000002606810000000001N011117000000000000000000000000000000000000000000000000000000000000000100031000769828ANDREIA CARLA SOUSA                     RUA JOSE CALIXTO DO CARMO - 265 AP.73 -             11702690                                                            000026
2SR. CAIXA, APOS O VENCIMENTO COBRAR 10% DE MULTA                                NAO RECEBER APOS 30 DIAS DO VENCIMENTO.                                                                                                                                                                                                         01111700000000000000111170000000000000       0090770900118974310007111713000027
100000000000000000000009077090011897400000000000000000000000010002100027324611171400000000002            2  01273246111710111700000003320530000000001N011117000000000000000000000000000000000000000000000000000000000000000100027324650899LUCIANO MARTINEZ                        RUA MORGADO DE MATEUS - 473 - VILA MARIA            04015051                                                            000029
2SR. CAIXA, APOS O VENCIMENTO COBRAR 10% DE MULTA                                NAO RECEBER APOS 30 DIAS DO VENCIMENTO.                                                                                                                                                                                                         01111700000000000000111170000000000000       0090770900118974273246111714000030
100000000000000000000009077090011897400000000000000000000000010002100005253111171300000000002            2  01052531111710111700000002317600000000001N011117000000000000000000000000000000000000000000000000000000000000000100005253129863ADILSON JOSE BORGES                     RUA CIRIACO JIMENEZ - 83 - PARQUE NACOES            02996070                                                            000032
2SR. CAIXA, APOS O VENCIMENTO COBRAR 10% DE MULTA                                NAO RECEBER APOS 30 DIAS DO VENCIMENTO.                                                                                                                                                                                                         01111700000000000000111170000000000000       0090770900118974052531111713000033
100000000000000000000009077090011897400000000000000000000000010002100003996811171600000000002            2  01039968111710111700000002448860000000001N011117000000000000000000000000000000000000000000000000000000000000000100003996827830RONALDO PINTO BORGES                    MAGNOLIA DELFIM DA SILVA - 44 - JARDIM O            05363040                                                            000035
2SR. CAIXA, APOS O VENCIMENTO COBRAR 10% DE MULTA                                NAO RECEBER APOS 30 DIAS DO VENCIMENTO.                                                                                                                                                                                                         01111700000000000000111170000000000000       0090770900118974039968111716000036
100000000000000000000009077090011897400000000000000000000000010002100012708311171500000000002            2  01127083111710111700000001449760000000001N011117000000000000000000000000000000000000000000000000000000000000000100012708342827ADRIANA RATIER CRUZ                     RUA JOSE CALIXTO DO CARMO - 295 APTO 31             11702690                                                            000038
2SR. CAIXA, APOS O VENCIMENTO COBRAR 10% DE MULTA                                NAO RECEBER APOS 30 DIAS DO VENCIMENTO.                                                                                                                                                                                                         01111700000000000000111170000000000000       0090770900118974127083111715000039
100000000000000000000009077090011897400000000000000000000000010002100000452411171100000000002            2  01004524111710111700000001228920000000001N011117000000000000000000000000000000000000000000000000000000000000000100000452415896MARILUCE SANTOS DE ALMEIDA              RUA JOSE CALIXTO DO CARMO - 295 AP.74 -             11702690                                                            000041
2SR. CAIXA, APOS O VENCIMENTO COBRAR 10% DE MULTA                                NAO RECEBER APOS 30 DIAS DO VENCIMENTO.                                                                                                                                                                                                         01111700000000000000111170000000000000       0090770900118974004524111711000042
100000000000000000000009077090011897400000000000000000000000010002100003406911171200000000002            2  01034069111709111700000001324610000000001N011117000000000000000000000000000000000000000000000000000000000000000100003406972888RONALDO CANDIDO PANSONATO               AV. DOM JAIME DE BARROS CAMERA - 565 AP.            09895400                                                            000044
2SR. CAIXA, APOS O VENCIMENTO COBRAR 10% DE MULTA                                NAO RECEBER APOS 30 DIAS DO VENCIMENTO.                                                                                                                                                                                                         01111700000000000000111170000000000000       0090770900118974034069111712000045
100000000000000000000009077090011897400000000000000000000000010002100028379811171400000000002            2  01283798111701111700000003425810000000001N011117000000000000000000000000000000000000000000000000000000000000000100028379879805EDMILSON DANIEL GARCIA WATANUKI         AVENIDA PRESIDENTE CASTELO BRANCO - 4718            11702700                                                            000047
2SR. CAIXA, APOS O VENCIMENTO COBRAR 10% DE MULTA                                NAO RECEBER APOS 30 DIAS DO VENCIMENTO.                                                                                                                                                                                                         01111700000000000000111170000000000000       0090770900118974283798111714000048
100000000000000000000009077090011897400000000000000000000000010002100037491311171000000000002            2  01374913111711111700000001563110000000001N011117000000000000000000000000000000000000000000000000000000000000000100037491305822NATASHA SILVEIRA DA SILVA               RUA CONSELHEIRO ELIAS DE CARVALHO - 50 A            04373000                                                            000050
2SR. CAIXA, APOS O VENCIMENTO COBRAR 10% DE MULTA                                NAO RECEBER APOS 30 DIAS DO VENCIMENTO.                                                                                                                                                                                                         01111700000000000000111170000000000000       0090770900118974374913111710000051
100000000000000000000009077090011897400000000000000000000000010002100019851211171500000000002            2  01198512111705111700000001526270000000001N011117000000000000000000000000000000000000000000000000000000000000000100019851254800DOUGLAS TADEU DE ALMEIDA JECKS          RUA CONSELHEIRO ELIAS DE CARVALHO - 50 A            04373000                                                            000053
2SR. CAIXA, APOS O VENCIMENTO COBRAR 10% DE MULTA                                NAO RECEBER APOS 30 DIAS DO VENCIMENTO.                                                                                                                                                                                                         01111700000000000000111170000000000000       0090770900118974198512111715000054
9                                                                                                                                                                                                                                                                                                                                                                                                         000055