01REMESSA01COBRANCA       00000000000004991788AIRES DESENVOLVIMENTO IMOBILIA237BRADESCO       010719        MX0000156                                                                                                                                                                                                                                                                                     000001
100000000000000000000009077090011897400000000000000000000000010002100012708307191800000000002            2  01127083071910071900000001761050000000001N010719000000000000000000000000000000000000000000000000000000000000000100012708342827ADRIANA RATIER CRUZ                     RUA JOSE CALIXTO DO CARMO - 295 APTO 31             11702690                                                            000002
2SR. CAIXA, APOS O VENCIMENTO COBRAR 10% DE MULTA                                NAO RECEBER APOS 30 DIAS DO VENCIMENTO.                                                                                                                                                                                                         01071900000000000000107190000000000000       0090770900118974127083071918000003
100000000000000000000009077090011897400000000000000000000000010002100000452407191400000000002            2  01004524071910071900000001357840000000001N010719000000000000000000000000000000000000000000000000000000000000000100000452415896MARILUCE SANTOS DE ALMEIDA              RUA JOSE CALIXTO DO CARMO - 295 AP.74 -             11702690                                                            000005
2SR. CAIXA, APOS O VENCIMENTO COBRAR 10% DE MULTA                                NAO RECEBER APOS 30 DIAS DO VENCIMENTO.                                                                                                                                                                                                         01071900000000000000107190000000000000       0090770900118974004524071914000006
100000000000000000000009077090011897400000000000000000000000010002100003406907191500000000002            2  01034069071909071900000001538130000000001N010719000000000000000000000000000000000000000000000000000000000000000100003406972888RONALDO CANDIDO PANSONATO               AV. DOM JAIME DE BARROS CAMERA - 565 AP.            09895400                                                            000008
2SR. CAIXA, APOS O VENCIMENTO COBRAR 10% DE MULTA                                NAO RECEBER APOS 30 DIAS DO VENCIMENTO.                                                                                                                                                                                                         01071900000000000000107190000000000000       0090770900118974034069071915000009
100000000000000000000009077090011897400000000000000000000000010002100013191207191P00000000002            2  01131912071911071900000001800000000000001N010719000000000000000000000000000000000000000000000000000000000000000100013191291881MARCELO RICARDO MASCAROS SOUTO          RUA MONTE CASTELO - 295 AP.102 - AVIACAO            11702720                                                            000011
2SR. CAIXA, APOS O VENCIMENTO COBRAR 10% DE MULTA                                NAO RECEBER APOS 30 DIAS DO VENCIMENTO.                                                                                                                                                                                                         01071900000000000000107190000000000000       009077090011897413191207191P000012
100000000000000000000009077090011897400000000000000000000000010002100037288707191500000000002            2  01372887071911071900000001550000000000001N010719000000000000000000000000000000000000000000000000000000000000000100037288754812EVERTON CARDOSO DOS SANTOS              RUA CONSELHEIRO ELIAS DE CARVALHO - 50 A            04373000                                                            000014
2SR. CAIXA, APOS O VENCIMENTO COBRAR 10% DE MULTA                                NAO RECEBER APOS 30 DIAS DO VENCIMENTO.                                                                                                                                                                                                         01071900000000000000107190000000000000       0090770900118974372887071915000015
9                                                                                                                                                                                                                                                                                                                                                                                                         000016