01REMESSA01COBRANCA       00000000000004991788AIRES DESENVOLVIMENTO IMOBILIA237BRADESCO       011118        MX0000140                                                                                                                                                                                                                                                                                     000001
100000000000000000000009077090011897400000000000000000000000010002100012708311181200000000002            2  01127083111810111800000001625980000000001N011118000000000000000000000000000000000000000000000000000000000000000100012708342827ADRIANA RATIER CRUZ                     RUA JOSE CALIXTO DO CARMO - 295 APTO 31             11702690                                                            000002
2SR. CAIXA, APOS O VENCIMENTO COBRAR 10% DE MULTA                                NAO RECEBER APOS 30 DIAS DO VENCIMENTO.                                                                                                                                                                                                         01111800000000000000111180000000000000       0090770900118974127083111812000003
100000000000000000000009077090011897400000000000000000000000010002100000452411181900000000002            2  01004524111810111800000001304720000000001N011118000000000000000000000000000000000000000000000000000000000000000100000452415896MARILUCE SANTOS DE ALMEIDA              RUA JOSE CALIXTO DO CARMO - 295 AP.74 -             11702690                                                            000005
2SR. CAIXA, APOS O VENCIMENTO COBRAR 10% DE MULTA                                NAO RECEBER APOS 30 DIAS DO VENCIMENTO.                                                                                                                                                                                                         01111800000000000000111180000000000000       0090770900118974004524111819000006
100000000000000000000009077090011897400000000000000000000000010002100003406911181P00000000002            2  01034069111809111800000001448880000000001N011118000000000000000000000000000000000000000000000000000000000000000100003406972888RONALDO CANDIDO PANSONATO               AV. DOM JAIME DE BARROS CAMERA - 565 AP.            09895400                                                            000008
2SR. CAIXA, APOS O VENCIMENTO COBRAR 10% DE MULTA                                NAO RECEBER APOS 30 DIAS DO VENCIMENTO.                                                                                                                                                                                                         01111800000000000000111180000000000000       009077090011897403406911181P000009
100000000000000000000009077090011897400000000000000000000000010002100013191211181400000000002            2  01131912111811111800000001800000000000001N011118000000000000000000000000000000000000000000000000000000000000000100013191291881MARCELO RICARDO MASCAROS SOUTO          RUA MONTE CASTELO - 295 AP.102 - AVIACAO            11702720                                                            000011
2SR. CAIXA, APOS O VENCIMENTO COBRAR 10% DE MULTA                                NAO RECEBER APOS 30 DIAS DO VENCIMENTO.                                                                                                                                                                                                         01111800000000000000111180000000000000       0090770900118974131912111814000012
100000000000000000000009077090011897400000000000000000000000010002100028379811181100000000002            2  01283798111801111800000003428970000000001N011118000000000000000000000000000000000000000000000000000000000000000100028379879805EDMILSON DANIEL GARCIA WATANUKI         AV.PRESIDENTE CASTELO BRANCO - 4718 LOJA            11702700                                                            000014
2SR. CAIXA, APOS O VENCIMENTO COBRAR 10% DE MULTA                                NAO RECEBER APOS 30 DIAS DO VENCIMENTO.                                                                                                                                                                                                         01111800000000000000111180000000000000       0090770900118974283798111811000015
100000000000000000000009077090011897400000000000000000000000010002100039262511181P00000000002            2  01392625111811111800000001600000000000001N011118000000000000000000000000000000000000000000000000000000000000000100039262563892DAVID AUGUSTO DOS SANTOS                RUA CONSELHEIRO ELIAS DE CARVALHO - 50 A            04373000                                                            000017
2SR. CAIXA, APOS O VENCIMENTO COBRAR 10% DE MULTA                                NAO RECEBER APOS 30 DIAS DO VENCIMENTO.                                                                                                                                                                                                         01111800000000000000111180000000000000       009077090011897439262511181P000018
100000000000000000000009077090011897400000000000000000000000010002100037288711181P00000000002            2  01372887111811111800000001550000000000001N011118000000000000000000000000000000000000000000000000000000000000000100037288754812EVERTON CARDOSO DOS SANTOS              RUA CONSELHEIRO ELIAS DE CARVALHO - 50 A            04373000                                                            000020
2SR. CAIXA, APOS O VENCIMENTO COBRAR 10% DE MULTA                                NAO RECEBER APOS 30 DIAS DO VENCIMENTO.                                                                                                                                                                                                         01111800000000000000111180000000000000       009077090011897437288711181P000021
9                                                                                                                                                                                                                                                                                                                                                                                                         000022