01REMESSA01COBRANCA       00000000000004991454AIRES CONSTRUTORA E INCORPORAD237BRADESCO       010317        MX0000068                                                                                                                                                                                                                                                                                     000001
100000000000000000000009077090001674800000000000000000000000010002100011258147157800000000002            2  01112581471509031700000002432040000000099N010317000000000000000000000000000000000000000000000000000000000000000100099740451853ARNALDO DA SILVA SALES                  RUA ALEGRE - 210 - VILA SAO RAFAEL - GUA            07053100                                                            000002
2SR. CAIXA, APOS O VENCIMENTO COBRAR 10% DE MULTA                                NAO RECEBER APOS 30 DIAS DO VENCIMENTO.                                                                                                                                                                                                         01031700000000000000103170000000000000       0090770900016748112581471578000003
100000000000000000000009077090001674800000000000000000000000010002100011487148160P00000000002            2  01114871481609031700000003923110000000099N010317000000000000000000000000000000000000000000000000000000000000000100044380725812FERNANDO FIRMINO DOS SANTOS             RUA BARAO GERALDO DE RESENDE - 401 - BAI            05205220                                                            000005
2SR. CAIXA, APOS O VENCIMENTO COBRAR 10% DE MULTA                                NAO RECEBER APOS 30 DIAS DO VENCIMENTO.                                                                                                                                                                                                         01031700000000000000103170000000000000       009077090001674811487148160P000006
100000000000000000000009077090001674800000000000000000000000010002100012607155171300000000002            2  01126071551709031700000001221190000000099N010317000000000000000000000000000000000000000000000000000000000000000100025469470873JULIA MARIA RODRIGUES MARTINS           AVENIDA JOAO FIRMINO - 1229 AP.21 - BAIR            09810260                                                            000008
2SR. CAIXA, APOS O VENCIMENTO COBRAR 10% DE MULTA                                NAO RECEBER APOS 30 DIAS DO VENCIMENTO.                                                                                                                                                                                                         01031700000000000000103170000000000000       0090770900016748126071551713000009
100000000000000000000009077090001674800000000000000000000000010002100012789156173600000000002            2  01127891561709031700000001856310000000099N010317000000000000000000000000000000000000000000000000000000000000000100027396176824WALDINEA BORGES DIAS                    RUA CAP. JOAQUIM F.PEREIRA - 95 - JARDIM            13710000                                                            000011
2SR. CAIXA, APOS O VENCIMENTO COBRAR 10% DE MULTA                                NAO RECEBER APOS 30 DIAS DO VENCIMENTO.                                                                                                                                                                                                         01031700000000000000103170000000000000       0090770900016748127891561736000012
100000000000000000000009077090001674800000000000000000000000010002100012891157174800000000002            2  01128911571709031700000002956620000000099N010317000000000000000000000000000000000000000000000000000000000000000100004759534873AGNALDO PORFIRIO DOS SANTOS             RUA JUVENCIO GASPAR DA SILVA - 35 - SAO             04303060                                                            000014
2SR. CAIXA, APOS O VENCIMENTO COBRAR 10% DE MULTA                                NAO RECEBER APOS 30 DIAS DO VENCIMENTO.                                                                                                                                                                                                         01031700000000000000103170000000000000       0090770900016748128911571748000015
100000000000000000000009077090001674800000000000000000000000010002100013112159177400000000002            2  01131121591709031700000001593350000000099N010317000000000000000000000000000000000000000000000000000000000000000100014924049859KATIA REGINA DE OLIVEIRA SILVA          RUA ANTONIO SIMIONATO - 73 AP.14 - SANTA            09780180                                                            000017
2SR. CAIXA, APOS O VENCIMENTO COBRAR 10% DE MULTA                                NAO RECEBER APOS 30 DIAS DO VENCIMENTO.                                                                                                                                                                                                         01031700000000000000103170000000000000       0090770900016748131121591774000018
100000000000000000000009077090001674800000000000000000000000010002100013212160178400000000002            2  01132121601709031700000000932120000000099N010317000000000000000000000000000000000000000000000000000000000000000100090830490868IVONETE FERNANDES                       AVENIDA FREDERICO OZANAN - 5504 - VILA R            13215276                                                            000020
2SR. CAIXA, APOS O VENCIMENTO COBRAR 10% DE MULTA                                NAO RECEBER APOS 30 DIAS DO VENCIMENTO.                                                                                                                                                                                                         01031700000000000000103170000000000000       0090770900016748132121601784000021
100000000000000000000009077090001674800000000000000000000000010002100013293110179600000000002            2  01132931101709031700000001243970000000099N010317000000000000000000000000000000000000000000000000000000000000000100003406972888RONALDO CANDIDO PANSONATO               AV. DOM JAIME DE BARROS CAMERA - 565 AP.            09895400                                                            000023
2SR. CAIXA, APOS O VENCIMENTO COBRAR 10% DE MULTA                                NAO RECEBER APOS 30 DIAS DO VENCIMENTO.                                                                                                                                                                                                         01031700000000000000103170000000000000       0090770900016748132931101796000024
100000000000000000000009077090001674800000000000000000000000010002100013533163184700000000002            2  01135331631809031700000002310690000000099N010317000000000000000000000000000000000000000000000000000000000000000100027093944809DAVID ALEXANDRE XAVIER ROCHA            RUA MONTE CASTELO - 296 AP.54 - AVIACAO             11702720                                                            000026
2SR. CAIXA, APOS O VENCIMENTO COBRAR 10% DE MULTA                                NAO RECEBER APOS 30 DIAS DO VENCIMENTO.                                                                                                                                                                                                         01031700000000000000103170000000000000       0090770900016748135331631847000027
100000000000000000000009077090001674800000000000000000000000010002100013701164186300000000002            2  01137011641809031700000001682040000000099N010317000000000000000000000000000000000000000000000000000000000000000100068273290891DERNEVAL JOSE MUNIZ                     RUA MARTINOPOLIS - 98 - JARDIM OTAWA - G            07230230                                                            000029
2SR. CAIXA, APOS O VENCIMENTO COBRAR 10% DE MULTA                                NAO RECEBER APOS 30 DIAS DO VENCIMENTO.                                                                                                                                                                                                         01031700000000000000103170000000000000       0090770900016748137011641863000030
100000000000000000000009077090001674800000000000000000000000010002100013976166189300000000002            2  01139761661809031700000001437490000000099N010317000000000000000000000000000000000000000000000000000000000000000100001817534807SANTINA SALVINA SOARES                  RUA CAIAPOS - 1054 AP.43 - VILA TUPI - P            11703320                                                            000032
2SR. CAIXA, APOS O VENCIMENTO COBRAR 10% DE MULTA                                NAO RECEBER APOS 30 DIAS DO VENCIMENTO.                                                                                                                                                                                                         01031700000000000000103170000000000000       0090770900016748139761661893000033
100000000000000000000009077090001674800000000000000000000000010002100014077167190900000000002            2  01140771671909031700000001552980000000099N010317000000000000000000000000000000000000000000000000000000000000000100086755790800GERALDO JAIR BROGLIATTO                 DR.ARMANDO COSTA MAGALHAES - 176 - VILA             13270490                                                            000035
2SR. CAIXA, APOS O VENCIMENTO COBRAR 10% DE MULTA                                NAO RECEBER APOS 30 DIAS DO VENCIMENTO.                                                                                                                                                                                                         01031700000000000000103170000000000000       0090770900016748140771671909000036
9                                                                                                                                                                                                                                                                                                                                                                                                         000037