01REMESSA01COBRANCA       00000000000004991454AIRES CONSTRUTORA E INCORPORAD237BRADESCO       010917        MX0000089                                                                                                                                                                                                                                                                                     000001
100000000000000000000009077090001674800000000000000000000000010002100010958144150300000000002            2  01109581441524091700000001270530000000001N010917000000000000000000000000000000000000000000000000000000000000000100049736787320RAIMUNDO VIEIRA DA SILVA                RUA BOLIVIA - 81 AP.ZELADORIA - JARDIM G            11701850                                                            000002
2SR. CAIXA, APOS O VENCIMENTO COBRAR 10% DE MULTA                                NAO RECEBER APOS 30 DIAS DO VENCIMENTO.                                                                                                                                                                                                         01091700000000000000109170000000000000       0090770900016748109581441503000003
100000000000000000000009077090001674800000000000000000000000010002100011032145151100000000002            2  01110321451524091700000001127600000000001N010917000000000000000000000000000000000000000000000000000000000000000100068806272853FATIMA MOREIRA SALOMAO                  RUA TORQUATO DE CAMILLO - 84 - CARANDA B            79032031                                                            000005
2SR. CAIXA, APOS O VENCIMENTO COBRAR 10% DE MULTA                                NAO RECEBER APOS 30 DIAS DO VENCIMENTO.                                                                                                                                                                                                         01091700000000000000109170000000000000       0090770900016748110321451511000006
100000000000000000000009077090001674800000000000000000000000010002100011402144159500000000002            2  01114021441524091700000001559720000000001N010917000000000000000000000000000000000000000000000000000000000000000100049736787320RAIMUNDO VIEIRA DA SILVA                RUA BOLIVIA - 81 AP.ZELADORIA - JARDIM G            11701850                                                            000008
2SR. CAIXA, APOS O VENCIMENTO COBRAR 10% DE MULTA                                NAO RECEBER APOS 30 DIAS DO VENCIMENTO.                                                                                                                                                                                                         01091700000000000000109170000000000000       0090770900016748114021441595000009
100000000000000000000009077090001674800000000000000000000000010002100011599149161300000000002            2  01115991491624091700000001637680000000001N010917000000000000000000000000000000000000000000000000000000000000000100004201640817SANDRA APARECIDA TOJAL                  AVENIDA MASCOTE - 81 AP.132 BL.A - VILA             04363000                                                            000011
2SR. CAIXA, APOS O VENCIMENTO COBRAR 10% DE MULTA                                NAO RECEBER APOS 30 DIAS DO VENCIMENTO.                                                                                                                                                                                                         01091700000000000000109170000000000000       0090770900016748115991491613000012
100000000000000000000009077090001674800000000000000000000000010002100011707150162800000000002            2  01117071501624091700000001753770000000001N010917000000000000000000000000000000000000000000000000000000000000000100025278913819FERNANDO LOPES DA SILVA                 RUA RUBEN DE SOUZA - 387 AP.24A - VILA I            04653170                                                            000014
2SR. CAIXA, APOS O VENCIMENTO COBRAR 10% DE MULTA                                NAO RECEBER APOS 30 DIAS DO VENCIMENTO.                                                                                                                                                                                                         01091700000000000000109170000000000000       0090770900016748117071501628000015
100000000000000000000009077090001674800000000000000000000000010002100011809151163400000000002            2  01118091511624091700000001949650000000001N010917000000000000000000000000000000000000000000000000000000000000000100000024633852JAYME MASRI                             RUA MONTE CASTELO - 296 AP.24 - BAIRRO A            11702720                                                            000017
2SR. CAIXA, APOS O VENCIMENTO COBRAR 10% DE MULTA                                NAO RECEBER APOS 30 DIAS DO VENCIMENTO.                                                                                                                                                                                                         01091700000000000000109170000000000000       0090770900016748118091511634000018
100000000000000000000009077090001674800000000000000000000000010002100012318153168900000000002            2  01123181531624091700000002024420000000001N010917000000000000000000000000000000000000000000000000000000000000000100013184404838CLAUDIO GOMES BAHIA                     RUA MARIA CONCEICAO - 89 - VILA SAO PEDR            07032070                                                            000020
2SR. CAIXA, APOS O VENCIMENTO COBRAR 10% DE MULTA                                NAO RECEBER APOS 30 DIAS DO VENCIMENTO.                                                                                                                                                                                                         01091700000000000000109170000000000000       0090770900016748123181531689000021
100000000000000000000009077090001674800000000000000000000000010002100012431154169600000000002            2  01124311541624091700000003065660000000001N010917000000000000000000000000000000000000000000000000000000000000000100006055565803EDSON ALVES                             RUA EDGAR CODAZZI - 49 CASA 02 - CIDADE             08225280                                                            000023
2SR. CAIXA, APOS O VENCIMENTO COBRAR 10% DE MULTA                                NAO RECEBER APOS 30 DIAS DO VENCIMENTO.                                                                                                                                                                                                         01091700000000000000109170000000000000       0090770900016748124311541696000024
100000000000000000000009077090001674800000000000000000000000010002100013355161180100000000002            2  01133551611824091700000002233660000000001N010917000000000000000000000000000000000000000000000000000000000000000100021899277811ALESSANDRE ALVES ANDRADE                RUA MONTE CASTELO - 262 AP.132 - AVIACAO            11702720                                                            000026
2SR. CAIXA, APOS O VENCIMENTO COBRAR 10% DE MULTA                                NAO RECEBER APOS 30 DIAS DO VENCIMENTO.                                                                                                                                                                                                         01091700000000000000109170000000000000       0090770900016748133551611801000027
100000000000000000000009077090001674800000000000000000000000010002100013440162183P00000000002            2  01134401621824091700000001936620000000001N010917000000000000000000000000000000000000000000000000000000000000000100015739602840EZEQUIEL DOS SANTOS LIMA                RUA MONGUBA - 464 - VILA CARRAO - SAO PA            03438000                                                            000029
2SR. CAIXA, APOS O VENCIMENTO COBRAR 10% DE MULTA                                NAO RECEBER APOS 30 DIAS DO VENCIMENTO.                                                                                                                                                                                                         01091700000000000000109170000000000000       009077090001674813440162183P000030
100000000000000000000009077090001674800000000000000000000000010002100013888165188700000000002            2  01138881651824091700000001947600000000001N010917000000000000000000000000000000000000000000000000000000000000000100003441232860LUIZ CARLOS CAMARGO BIANCHI             RUA GENERAL LEITE DE CASTRO - 200 - JARD            04182020                                                            000032
2SR. CAIXA, APOS O VENCIMENTO COBRAR 10% DE MULTA                                NAO RECEBER APOS 30 DIAS DO VENCIMENTO.                                                                                                                                                                                                         01091700000000000000109170000000000000       0090770900016748138881651887000033
100000000000000000000009077090001674800000000000000000000000010002100014308168194300000000002            2  01143081681924091700000002020480000000001N010917000000000000000000000000000000000000000000000000000000000000000100014681490830HUMBERTO MOZART CALIXTO                 RUA MONTE CASTELO - 296 AP.41 - AVIACAO             11702720                                                            000035
2SR. CAIXA, APOS O VENCIMENTO COBRAR 10% DE MULTA                                NAO RECEBER APOS 30 DIAS DO VENCIMENTO.                                                                                                                                                                                                         01091700000000000000109170000000000000       0090770900016748143081681943000036
100000000000000000000009077090001674800000000000000000000000010002100015102174203200000000002            2  01151021742024091700000001652090000000001N010917000000000000000000000000000000000000000000000000000000000000000100023007705800BRUNA ANTUN AZEVEDO                     RUA MONTE CASTELO - 296 AP.62 - AVIACAO             11702720                                                            000038
2SR. CAIXA, APOS O VENCIMENTO COBRAR 10% DE MULTA                                NAO RECEBER APOS 30 DIAS DO VENCIMENTO.                                                                                                                                                                                                         01091700000000000000109170000000000000       0090770900016748151021742032000039
100000000000000000000009077090001674800000000000000000000000010002100015203175204000000000002            2  01152031752024091700000001920410000000001N010917000000000000000000000000000000000000000000000000000000000000000100027944402840MARILENE BOTTONI SIMOES DA SILVA        RUA AMAZONAS - 1205 AP.14 - OSVALDO CRUZ            09540201                                                            000041
2SR. CAIXA, APOS O VENCIMENTO COBRAR 10% DE MULTA                                NAO RECEBER APOS 30 DIAS DO VENCIMENTO.                                                                                                                                                                                                         01091700000000000000109170000000000000       0090770900016748152031752040000042
100000000000000000000009077090001674800000000000000000000000010002100015416177206200000000002            2  01154161772024091700000016375080000000001N010917000000000000000000000000000000000000000000000000000000000000000100006550730864IVONE APARECIDA VIEIRA GADI TEIXEIRA    RUA SAO FLORENCIO  - 1500 AP.44 BLOCO 01            03733020                                                            000044
2SR. CAIXA, APOS O VENCIMENTO COBRAR 10% DE MULTA                                NAO RECEBER APOS 30 DIAS DO VENCIMENTO.                                                                                                                                                                                                         01091700000000000000109170000000000000       0090770900016748154161772062000045
100000000000000000000009077090001674800000000000000000000000010002100015419177206700000000002            2  01154191772024091700000001705740000000001N010917000000000000000000000000000000000000000000000000000000000000000100006550730864IVONE APARECIDA VIEIRA GADI TEIXEIRA    RUA SAO FLORENCIO  - 1500 AP.44 BLOCO 01            03733020                                                            000047
2SR. CAIXA, APOS O VENCIMENTO COBRAR 10% DE MULTA                                NAO RECEBER APOS 30 DIAS DO VENCIMENTO.                                                                                                                                                                                                         01091700000000000000109170000000000000       0090770900016748154191772067000048
100000000000000000000009077090001674800000000000000000000000010002100015552178208700000000002            2  01155521782024091700000003079010000000001N010917000000000000000000000000000000000000000000000000000000000000000100000930668642VALERIA RODRIGUES DANTAS                RUA MONTE CASTELO - 262 AP.21 - AVIACAO             11702720                                                            000050
2SR. CAIXA, APOS O VENCIMENTO COBRAR 10% DE MULTA                                NAO RECEBER APOS 30 DIAS DO VENCIMENTO.                                                                                                                                                                                                         01091700000000000000109170000000000000       0090770900016748155521782087000051
100000000000000000000009077090001674800000000000000000000000010002100015715179210200000000002            2  01157151792124091700000002640400000000001N010917000000000000000000000000000000000000000000000000000000000000000100075574063891CASSIO TADEU DA SILVEIRA                RUA CONSELHEIRO MOREIRA DE BARROS - 1.55            02430000                                                            000053
2SR. CAIXA, APOS O VENCIMENTO COBRAR 10% DE MULTA                                NAO RECEBER APOS 30 DIAS DO VENCIMENTO.                                                                                                                                                                                                         01091700000000000000109170000000000000       0090770900016748157151792102000054
100000000000000000000009077090001674800000000000000000000000010002100015878180212900000000002            2  01158781802124091700000001952690000000001N010917000000000000000000000000000000000000000000000000000000000000000100000764632817LUIZ CARLOS ANTUNES JUNIOR              RUA MONTE CASTELO - 262 AP.35 - AVIACAO             11702720                                                            000056
2SR. CAIXA, APOS O VENCIMENTO COBRAR 10% DE MULTA                                NAO RECEBER APOS 30 DIAS DO VENCIMENTO.                                                                                                                                                                                                         01091700000000000000109170000000000000       0090770900016748158781802129000057
100000000000000000000009077090001674800000000000000000000000010002100016277182217P00000000002            2  01162771822124091700000001914020000000001N010917000000000000000000000000000000000000000000000000000000000000000100027317668591ERONILTON SOUSA MOTA                    AVENIDA PRESIDENTE KENNEDY - 3203 - AVIA            11701330                                                            000059
2SR. CAIXA, APOS O VENCIMENTO COBRAR 10% DE MULTA                                NAO RECEBER APOS 30 DIAS DO VENCIMENTO.                                                                                                                                                                                                         01091700000000000000109170000000000000       009077090001674816277182217P000060
9                                                                                                                                                                                                                                                                                                                                                                                                         000061