01REMESSA01COBRANCA       00000000000004991454AIRES CONSTRUTORA E INCORPORAD237BRADESCO       061217        MX0000096                                                                                                                                                                                                                                                                                     000001
100000000000000000000009077090001674800000000000000000000000010002100049736712172000000000002            2  01497367121724121700000001299330000000001N061217000000000000000000000000000000000000000000000000000000000000000100049736787320RAIMUNDO VIEIRA DA SILVA                RUA BOLIVIA - 81 AP.ZELADORIA - JARDIM G            11701850                                                            000002
2SR. CAIXA, APOS O VENCIMENTO COBRAR 10% DE MULTA                                NAO RECEBER APOS 30 DIAS DO VENCIMENTO.                                                                                                                                                                                                         06121700000000000000612170000000000000       0090770900016748497367121720000003
100000000000000000000009077090001674800000000000000000000000010002100068806212171200000000002            2  01688062121724121700000003897980000000001N061217000000000000000000000000000000000000000000000000000000000000000100068806272853FATIMA MOREIRA SALOMAO                  RUA TORQUATO DE CAMILLO - 84 - CARANDA B            79032031                                                            000005
2SR. CAIXA, APOS O VENCIMENTO COBRAR 10% DE MULTA                                NAO RECEBER APOS 30 DIAS DO VENCIMENTO.                                                                                                                                                                                                         06121700000000000000612170000000000000       0090770900016748688062121712000006
100000000000000000000009077090001674800000000000000000000000010002100068806212172000000000002            2  01688062121724121700000001153160000000001N061217000000000000000000000000000000000000000000000000000000000000000100068806272853FATIMA MOREIRA SALOMAO                  RUA TORQUATO DE CAMILLO - 84 - CARANDA B            79032031                                                            000008
2SR. CAIXA, APOS O VENCIMENTO COBRAR 10% DE MULTA                                NAO RECEBER APOS 30 DIAS DO VENCIMENTO.                                                                                                                                                                                                         06121700000000000000612170000000000000       0090770900016748688062121720000009
100000000000000000000009077090001674800000000000000000000000010002100004201612171900000000002            2  01042016121724121700000001674800000000001N061217000000000000000000000000000000000000000000000000000000000000000100004201640817SANDRA APARECIDA TOJAL                  AVENIDA MASCOTE - 81 AP.132 BL.A - VILA             04363000                                                            000011
2SR. CAIXA, APOS O VENCIMENTO COBRAR 10% DE MULTA                                NAO RECEBER APOS 30 DIAS DO VENCIMENTO.                                                                                                                                                                                                         06121700000000000000612170000000000000       0090770900016748042016121719000012
100000000000000000000009077090001674800000000000000000000000010002100025278912171200000000002            2  01252789121724121700000001793520000000001N061217000000000000000000000000000000000000000000000000000000000000000100025278913819FERNANDO LOPES DA SILVA                 RUA RUBEN DE SOUZA - 387 AP.24A - VILA I            04653170                                                            000014
2SR. CAIXA, APOS O VENCIMENTO COBRAR 10% DE MULTA                                NAO RECEBER APOS 30 DIAS DO VENCIMENTO.                                                                                                                                                                                                         06121700000000000000612170000000000000       0090770900016748252789121712000015
100000000000000000000009077090001674800000000000000000000000010002100000024612171300000000002            2  01000246121724121700000001993840000000001N061217000000000000000000000000000000000000000000000000000000000000000100000024633852JAYME MASRI                             RUA MONTE CASTELO - 296 AP.24 - BAIRRO A            11702720                                                            000017
2SR. CAIXA, APOS O VENCIMENTO COBRAR 10% DE MULTA                                NAO RECEBER APOS 30 DIAS DO VENCIMENTO.                                                                                                                                                                                                         06121700000000000000612170000000000000       0090770900016748000246121713000018
100000000000000000000009077090001674800000000000000000000000010002100013184412171700000000002            2  01131844121724121700000002070310000000001N061217000000000000000000000000000000000000000000000000000000000000000100013184404838CLAUDIO GOMES BAHIA                     RUA MARIA CONCEICAO - 89 - VILA SAO PEDR            07032070                                                            000020
2SR. CAIXA, APOS O VENCIMENTO COBRAR 10% DE MULTA                                NAO RECEBER APOS 30 DIAS DO VENCIMENTO.                                                                                                                                                                                                         06121700000000000000612170000000000000       0090770900016748131844121717000021
100000000000000000000009077090001674800000000000000000000000010002100006055512171200000000002            2  01060555121724121700000003135150000000001N061217000000000000000000000000000000000000000000000000000000000000000100006055565803EDSON ALVES                             RUA EDGAR CODAZZI - 49 CASA 02 - CIDADE             08225280                                                            000023
2SR. CAIXA, APOS O VENCIMENTO COBRAR 10% DE MULTA                                NAO RECEBER APOS 30 DIAS DO VENCIMENTO.                                                                                                                                                                                                         06121700000000000000612170000000000000       0090770900016748060555121712000024
100000000000000000000009077090001674800000000000000000000000010002100021899212171600000000002            2  01218992121724121700000002284290000000001N061217000000000000000000000000000000000000000000000000000000000000000100021899277811ALESSANDRE ALVES ANDRADE                RUA MONTE CASTELO - 262 AP.132 - AVIACAO            11702720                                                            000026
2SR. CAIXA, APOS O VENCIMENTO COBRAR 10% DE MULTA                                NAO RECEBER APOS 30 DIAS DO VENCIMENTO.                                                                                                                                                                                                         06121700000000000000612170000000000000       0090770900016748218992121716000027
100000000000000000000009077090001674800000000000000000000000010002100015739612171800000000002            2  01157396121724121700000001980510000000001N061217000000000000000000000000000000000000000000000000000000000000000100015739602840EZEQUIEL DOS SANTOS LIMA                RUA MONGUBA - 464 - VILA CARRAO - SAO PA            03438000                                                            000029
2SR. CAIXA, APOS O VENCIMENTO COBRAR 10% DE MULTA                                NAO RECEBER APOS 30 DIAS DO VENCIMENTO.                                                                                                                                                                                                         06121700000000000000612170000000000000       0090770900016748157396121718000030
100000000000000000000009077090001674800000000000000000000000010002100003441212171000000000002            2  01034412121724121700000001991760000000001N061217000000000000000000000000000000000000000000000000000000000000000100003441232860LUIZ CARLOS CAMARGO BIANCHI             RUA GENERAL LEITE DE CASTRO - 200 - JARD            04182020                                                            000032
2SR. CAIXA, APOS O VENCIMENTO COBRAR 10% DE MULTA                                NAO RECEBER APOS 30 DIAS DO VENCIMENTO.                                                                                                                                                                                                         06121700000000000000612170000000000000       0090770900016748034412121710000033
100000000000000000000009077090001674800000000000000000000000010002100014681412171P00000000002            2  01146814121724121700000002066280000000001N061217000000000000000000000000000000000000000000000000000000000000000100014681490830HUMBERTO MOZART CALIXTO                 RUA MONTE CASTELO - 296 AP.41 - AVIACAO             11702720                                                            000035
2SR. CAIXA, APOS O VENCIMENTO COBRAR 10% DE MULTA                                NAO RECEBER APOS 30 DIAS DO VENCIMENTO.                                                                                                                                                                                                         06121700000000000000612170000000000000       009077090001674814681412171P000036
100000000000000000000009077090001674800000000000000000000000010002100023007712171200000000002            2  01230077121724121700000001689540000000001N061217000000000000000000000000000000000000000000000000000000000000000100023007705800BRUNA ANTUN AZEVEDO                     RUA MONTE CASTELO - 296 AP.62 - AVIACAO             11702720                                                            000038
2SR. CAIXA, APOS O VENCIMENTO COBRAR 10% DE MULTA                                NAO RECEBER APOS 30 DIAS DO VENCIMENTO.                                                                                                                                                                                                         06121700000000000000612170000000000000       0090770900016748230077121712000039
100000000000000000000009077090001674800000000000000000000000010002100006550712171000000000002            2  01065507121724121700000001744410000000001N061217000000000000000000000000000000000000000000000000000000000000000100006550730864IVONE APARECIDA VIEIRA GADI TEIXEIRA    RUA SAO FLORENCIO  - 1500 AP.44 BLOCO 01            03733020                                                            000041
2SR. CAIXA, APOS O VENCIMENTO COBRAR 10% DE MULTA                                NAO RECEBER APOS 30 DIAS DO VENCIMENTO.                                                                                                                                                                                                         06121700000000000000612170000000000000       0090770900016748065507121710000042
100000000000000000000009077090001674800000000000000000000000010002100000930612171500000000002            2  01009306121724121700000003148810000000001N061217000000000000000000000000000000000000000000000000000000000000000100000930668642VALERIA RODRIGUES DANTAS                RUA MONTE CASTELO - 262 AP.21 - AVIACAO             11702720                                                            000044
2SR. CAIXA, APOS O VENCIMENTO COBRAR 10% DE MULTA                                NAO RECEBER APOS 30 DIAS DO VENCIMENTO.                                                                                                                                                                                                         06121700000000000000612170000000000000       0090770900016748009306121715000045
100000000000000000000009077090001674800000000000000000000000010002100084057912171900000000002            2  01840579121727121700000002000000000000001N061217000000000000000000000000000000000000000000000000000000000000000100084057904891ANTONIO GONZAGA DOS SANTOS              RUA BRIGADEIRO JOSE FERREIRA - 319 - CAN            11700470                                                            000047
2SR. CAIXA, APOS O VENCIMENTO COBRAR 10% DE MULTA                                NAO RECEBER APOS 30 DIAS DO VENCIMENTO.                                                                                                                                                                                                         06121700000000000000612170000000000000       0090770900016748840579121719000048
100000000000000000000009077090001674800000000000000000000000010002100075574012171900000000002            2  01755740121724121700000002700250000000001N061217000000000000000000000000000000000000000000000000000000000000000100075574063891CASSIO TADEU DA SILVEIRA                RUA CONSELHEIRO MOREIRA DE BARROS - 1.55            02430000                                                            000050
2SR. CAIXA, APOS O VENCIMENTO COBRAR 10% DE MULTA                                NAO RECEBER APOS 30 DIAS DO VENCIMENTO.                                                                                                                                                                                                         06121700000000000000612170000000000000       0090770900016748755740121719000051
100000000000000000000009077090001674800000000000000000000000010002100000764612171700000000002            2  01007646121724121700000001996970000000001N061217000000000000000000000000000000000000000000000000000000000000000100000764632817LUIZ CARLOS ANTUNES JUNIOR              RUA MONTE CASTELO - 262 AP.35 - AVIACAO             11702720                                                            000053
2SR. CAIXA, APOS O VENCIMENTO COBRAR 10% DE MULTA                                NAO RECEBER APOS 30 DIAS DO VENCIMENTO.                                                                                                                                                                                                         06121700000000000000612170000000000000       0090770900016748007646121717000054
100000000000000000000009077090001674800000000000000000000000010002100027317612171700000000002            2  01273176121724121700000001957410000000001N061217000000000000000000000000000000000000000000000000000000000000000100027317668591ERONILTON SOUSA MOTA                    AVENIDA PRESIDENTE KENNEDY - 3203 - AVIA            11701330                                                            000056
2SR. CAIXA, APOS O VENCIMENTO COBRAR 10% DE MULTA                                NAO RECEBER APOS 30 DIAS DO VENCIMENTO.                                                                                                                                                                                                         06121700000000000000612170000000000000       0090770900016748273176121717000057
100000000000000000000009077090001674800000000000000000000000010002100066104112171700000000002            2  01661041121724121700000002018810000000001N061217000000000000000000000000000000000000000000000000000000000000000100066104106820ANADIR FERREIRA                         RUA MONTE CASTELO - 296 AP.61 - AVIACAO             11702720                                                            000059
2SR. CAIXA, APOS O VENCIMENTO COBRAR 10% DE MULTA                                NAO RECEBER APOS 30 DIAS DO VENCIMENTO.                                                                                                                                                                                                         06121700000000000000612170000000000000       0090770900016748661041121717000060
100000000000000000000009077090001674800000000000000000000000010002100000741212171300000000002            2  01007412121724121700000001015060000000001N061217000000000000000000000000000000000000000000000000000000000000000100000741264820JOSE JORGE SILVEIRA                     RUA JOSE CALIXTO DO CARMO - 174 AP.82 -             11702690                                                            000062
2SR. CAIXA, APOS O VENCIMENTO COBRAR 10% DE MULTA                                NAO RECEBER APOS 30 DIAS DO VENCIMENTO.                                                                                                                                                                                                         06121700000000000000612170000000000000       0090770900016748007412121713000063
100000000000000000000009077090001674800000000000000000000000010002100057014512171300000000002            2  01570145121724121700000002266620000000001N061217000000000000000000000000000000000000000000000000000000000000000100057014582887SONIA MARIA DA SILVA PEGORARO           RUA FRANCO PAULISTA  - 80 - AGUA FRIA -             02332030                                                            000065
2SR. CAIXA, APOS O VENCIMENTO COBRAR 10% DE MULTA                                NAO RECEBER APOS 30 DIAS DO VENCIMENTO.                                                                                                                                                                                                         06121700000000000000612170000000000000       0090770900016748570145121713000066
100000000000000000000009077090001674800000000000000000000000010002100006505312171000000000002            2  01065053121724121700000002463590000000001N061217000000000000000000000000000000000000000000000000000000000000000100006505382852LUIS ANTONIO DINIS HENRIQUES            RUA ESTEVAO  BAIAO - 520 AP.93A - CAMPO             04624002                                                            000068
2SR. CAIXA, APOS O VENCIMENTO COBRAR 10% DE MULTA                                NAO RECEBER APOS 30 DIAS DO VENCIMENTO.                                                                                                                                                                                                         06121700000000000000612170000000000000       0090770900016748065053121710000069
100000000000000000000009077090001674800000000000000000000000010002100011544712171300000000002            2  01115447121724121700000004475470000000001N061217000000000000000000000000000000000000000000000000000000000000000100011544777620GRACIELY RODRIGUES FERNANDES            RUA MONTE CASTELO - 262 AP.111 - AVIACAO            11702720                                                            000071
2SR. CAIXA, APOS O VENCIMENTO COBRAR 10% DE MULTA                                NAO RECEBER APOS 30 DIAS DO VENCIMENTO.                                                                                                                                                                                                         06121700000000000000612170000000000000       0090770900016748115447121713000072
100000000000000000000009077090001674800000000000000000000000010002100005629012171800000000002            2  01056290121724121700000003255000000000001N061217000000000000000000000000000000000000000000000000000000000000000100005629087819ROMILDO MARTINS PIZA                    RUA MAESTRO ARTURO DE ANGELIS - 190 AP.3            05139010                                                            000074
2SR. CAIXA, APOS O VENCIMENTO COBRAR 10% DE MULTA                                NAO RECEBER APOS 30 DIAS DO VENCIMENTO.                                                                                                                                                                                                         06121700000000000000612170000000000000       0090770900016748056290121718000075
9                                                                                                                                                                                                                                                                                                                                                                                                         000076