01REMESSA01COBRANCA       00000000000004991454AIRES CONSTRUTORA E INCORPORAD237BRADESCO       010218        MX0000100                                                                                                                                                                                                                                                                                     000001
100000000000000000000009077090001674800000000000000000000000010002100049736702182300000000002            2  01497367021824021800000001318890000000001N010218000000000000000000000000000000000000000000000000000000000000000100049736787320RAIMUNDO VIEIRA DA SILVA                RUA BOLIVIA - 81 AP.ZELADORIA - JARDIM G            11701850                                                            000002
2SR. CAIXA, APOS O VENCIMENTO COBRAR 10% DE MULTA                                NAO RECEBER APOS 30 DIAS DO VENCIMENTO.                                                                                                                                                                                                         01021800000000000000102180000000000000       0090770900016748497367021823000003
100000000000000000000009077090001674800000000000000000000000010002100068806202181500000000002            2  01688062021824021800000001170520000000001N010218000000000000000000000000000000000000000000000000000000000000000100068806272853FATIMA MOREIRA SALOMAO                  RUA TORQUATO DE CAMILLO - 84 - CARANDA B            79032031                                                            000005
2SR. CAIXA, APOS O VENCIMENTO COBRAR 10% DE MULTA                                NAO RECEBER APOS 30 DIAS DO VENCIMENTO.                                                                                                                                                                                                         01021800000000000000102180000000000000       0090770900016748688062021815000006
100000000000000000000009077090001674800000000000000000000000010002100004201602181100000000002            2  01042016021824021800000001700020000000001N010218000000000000000000000000000000000000000000000000000000000000000100004201640817SANDRA APARECIDA TOJAL                  AVENIDA MASCOTE - 81 AP.132 BL.A - VILA             04363000                                                            000008
2SR. CAIXA, APOS O VENCIMENTO COBRAR 10% DE MULTA                                NAO RECEBER APOS 30 DIAS DO VENCIMENTO.                                                                                                                                                                                                         01021800000000000000102180000000000000       0090770900016748042016021811000009
100000000000000000000009077090001674800000000000000000000000010002100025278902181500000000002            2  01252789021824021800000001820520000000001N010218000000000000000000000000000000000000000000000000000000000000000100025278913819FERNANDO LOPES DA SILVA                 RUA RUBEN DE SOUZA - 387 AP.24A - VILA I            04653170                                                            000011
2SR. CAIXA, APOS O VENCIMENTO COBRAR 10% DE MULTA                                NAO RECEBER APOS 30 DIAS DO VENCIMENTO.                                                                                                                                                                                                         01021800000000000000102180000000000000       0090770900016748252789021815000012
100000000000000000000009077090001674800000000000000000000000010002100000024602181600000000002            2  01000246021824021800000002023860000000001N010218000000000000000000000000000000000000000000000000000000000000000100000024633852JAYME MASRI                             RUA MONTE CASTELO - 296 AP.24 - BAIRRO A            11702720                                                            000014
2SR. CAIXA, APOS O VENCIMENTO COBRAR 10% DE MULTA                                NAO RECEBER APOS 30 DIAS DO VENCIMENTO.                                                                                                                                                                                                         01021800000000000000102180000000000000       0090770900016748000246021816000015
100000000000000000000009077090001674800000000000000000000000010002100013184402181P00000000002            2  01131844021824021800000002101480000000001N010218000000000000000000000000000000000000000000000000000000000000000100013184404838CLAUDIO GOMES BAHIA                     RUA MARIA CONCEICAO - 89 - VILA SAO PEDR            07032070                                                            000017
2SR. CAIXA, APOS O VENCIMENTO COBRAR 10% DE MULTA                                NAO RECEBER APOS 30 DIAS DO VENCIMENTO.                                                                                                                                                                                                         01021800000000000000102180000000000000       009077090001674813184402181P000018
100000000000000000000009077090001674800000000000000000000000010002100006055502181500000000002            2  01060555021824021800000003182350000000001N010218000000000000000000000000000000000000000000000000000000000000000100006055565803EDSON ALVES                             RUA EDGAR CODAZZI - 49 CASA 02 - CIDADE             08225280                                                            000020
2SR. CAIXA, APOS O VENCIMENTO COBRAR 10% DE MULTA                                NAO RECEBER APOS 30 DIAS DO VENCIMENTO.                                                                                                                                                                                                         01021800000000000000102180000000000000       0090770900016748060555021815000021
100000000000000000000009077090001674800000000000000000000000010002100021899202181900000000002            2  01218992021824021800000002318680000000001N010218000000000000000000000000000000000000000000000000000000000000000100021899277811ALESSANDRE ALVES ANDRADE                RUA MONTE CASTELO - 262 AP.132 - AVIACAO            11702720                                                            000023
2SR. CAIXA, APOS O VENCIMENTO COBRAR 10% DE MULTA                                NAO RECEBER APOS 30 DIAS DO VENCIMENTO.                                                                                                                                                                                                         01021800000000000000102180000000000000       0090770900016748218992021819000024
100000000000000000000009077090001674800000000000000000000000010002100015739602181000000000002            2  01157396021824021800000002010330000000001N010218000000000000000000000000000000000000000000000000000000000000000100015739602840EZEQUIEL DOS SANTOS LIMA                RUA MONGUBA - 464 - VILA CARRAO - SAO PA            03438000                                                            000026
2SR. CAIXA, APOS O VENCIMENTO COBRAR 10% DE MULTA                                NAO RECEBER APOS 30 DIAS DO VENCIMENTO.                                                                                                                                                                                                         01021800000000000000102180000000000000       0090770900016748157396021810000027
100000000000000000000009077090001674800000000000000000000000010002100003441202181300000000002            2  01034412021824021800000002021750000000001N010218000000000000000000000000000000000000000000000000000000000000000100003441232860LUIZ CARLOS CAMARGO BIANCHI             RUA GENERAL LEITE DE CASTRO - 200 - JARD            04182020                                                            000029
2SR. CAIXA, APOS O VENCIMENTO COBRAR 10% DE MULTA                                NAO RECEBER APOS 30 DIAS DO VENCIMENTO.                                                                                                                                                                                                         01021800000000000000102180000000000000       0090770900016748034412021813000030
100000000000000000000009077090001674800000000000000000000000010002100014681402181200000000002            2  01146814021824021800000002097390000000001N010218000000000000000000000000000000000000000000000000000000000000000100014681490830HUMBERTO MOZART CALIXTO                 RUA MONTE CASTELO - 296 AP.41 - AVIACAO             11702720                                                            000032
2SR. CAIXA, APOS O VENCIMENTO COBRAR 10% DE MULTA                                NAO RECEBER APOS 30 DIAS DO VENCIMENTO.                                                                                                                                                                                                         01021800000000000000102180000000000000       0090770900016748146814021812000033
100000000000000000000009077090001674800000000000000000000000010002100023007702181500000000002            2  01230077021824021800000001714980000000001N010218000000000000000000000000000000000000000000000000000000000000000100023007705800BRUNA ANTUN AZEVEDO                     RUA MONTE CASTELO - 296 AP.62 - AVIACAO             11702720                                                            000035
2SR. CAIXA, APOS O VENCIMENTO COBRAR 10% DE MULTA                                NAO RECEBER APOS 30 DIAS DO VENCIMENTO.                                                                                                                                                                                                         01021800000000000000102180000000000000       0090770900016748230077021815000036
100000000000000000000009077090001674800000000000000000000000010002100006550702181300000000002            2  01065507021824021800000001770670000000001N010218000000000000000000000000000000000000000000000000000000000000000100006550730864IVONE APARECIDA VIEIRA GADI TEIXEIRA    RUA SAO FLORENCIO  - 1500 AP.44 BLOCO 01            03733020                                                            000038
2SR. CAIXA, APOS O VENCIMENTO COBRAR 10% DE MULTA                                NAO RECEBER APOS 30 DIAS DO VENCIMENTO.                                                                                                                                                                                                         01021800000000000000102180000000000000       0090770900016748065507021813000039
100000000000000000000009077090001674800000000000000000000000010002100000930602181800000000002            2  01009306021824021800000003196220000000001N010218000000000000000000000000000000000000000000000000000000000000000100000930668642VALERIA RODRIGUES DANTAS                RUA MONTE CASTELO - 262 AP.21 - AVIACAO             11702720                                                            000041
2SR. CAIXA, APOS O VENCIMENTO COBRAR 10% DE MULTA                                NAO RECEBER APOS 30 DIAS DO VENCIMENTO.                                                                                                                                                                                                         01021800000000000000102180000000000000       0090770900016748009306021818000042
100000000000000000000009077090001674800000000000000000000000010002100084057902181100000000002            2  01840579021827021800000002000000000000001N010218000000000000000000000000000000000000000000000000000000000000000100084057904891ANTONIO GONZAGA DOS SANTOS              RUA BRIGADEIRO JOSE FERREIRA - 319 - CAN            11700470                                                            000044
2SR. CAIXA, APOS O VENCIMENTO COBRAR 10% DE MULTA                                NAO RECEBER APOS 30 DIAS DO VENCIMENTO.                                                                                                                                                                                                         01021800000000000000102180000000000000       0090770900016748840579021811000045
100000000000000000000009077090001674800000000000000000000000010002100075574002181100000000002            2  01755740021824021800000002740900000000001N010218000000000000000000000000000000000000000000000000000000000000000100075574063891CASSIO TADEU DA SILVEIRA                RUA CONSELHEIRO MOREIRA DE BARROS - 1.55            02430000                                                            000047
2SR. CAIXA, APOS O VENCIMENTO COBRAR 10% DE MULTA                                NAO RECEBER APOS 30 DIAS DO VENCIMENTO.                                                                                                                                                                                                         01021800000000000000102180000000000000       0090770900016748755740021811000048
100000000000000000000009077090001674800000000000000000000000010002100000764602181P00000000002            2  01007646021824021800000002027040000000001N010218000000000000000000000000000000000000000000000000000000000000000100000764632817LUIZ CARLOS ANTUNES JUNIOR              RUA MONTE CASTELO - 262 AP.35 - AVIACAO             11702720                                                            000050
2SR. CAIXA, APOS O VENCIMENTO COBRAR 10% DE MULTA                                NAO RECEBER APOS 30 DIAS DO VENCIMENTO.                                                                                                                                                                                                         01021800000000000000102180000000000000       009077090001674800764602181P000051
100000000000000000000009077090001674800000000000000000000000010002100027317602181P00000000002            2  01273176021824021800000001986880000000001N010218000000000000000000000000000000000000000000000000000000000000000100027317668591ERONILTON SOUSA MOTA                    AVENIDA PRESIDENTE KENNEDY - 3203 - AVIA            11701330                                                            000053
2SR. CAIXA, APOS O VENCIMENTO COBRAR 10% DE MULTA                                NAO RECEBER APOS 30 DIAS DO VENCIMENTO.                                                                                                                                                                                                         01021800000000000000102180000000000000       009077090001674827317602181P000054
100000000000000000000009077090001674800000000000000000000000010002100066104102181P00000000002            2  01661041021824021800000002049200000000001N010218000000000000000000000000000000000000000000000000000000000000000100066104106820ANADIR FERREIRA                         RUA MONTE CASTELO - 296 AP.61 - AVIACAO             11702720                                                            000056
2SR. CAIXA, APOS O VENCIMENTO COBRAR 10% DE MULTA                                NAO RECEBER APOS 30 DIAS DO VENCIMENTO.                                                                                                                                                                                                         01021800000000000000102180000000000000       009077090001674866104102181P000057
100000000000000000000009077090001674800000000000000000000000010002100000741202181600000000002            2  01007412021824021800000001030340000000001N010218000000000000000000000000000000000000000000000000000000000000000100000741264820JOSE JORGE SILVEIRA                     RUA JOSE CALIXTO DO CARMO - 174 AP.82 -             11702690                                                            000059
2SR. CAIXA, APOS O VENCIMENTO COBRAR 10% DE MULTA                                NAO RECEBER APOS 30 DIAS DO VENCIMENTO.                                                                                                                                                                                                         01021800000000000000102180000000000000       0090770900016748007412021816000060
100000000000000000000009077090001674800000000000000000000000010002100057014502181600000000002            2  01570145021824021800000002300750000000001N010218000000000000000000000000000000000000000000000000000000000000000100057014582887SONIA MARIA DA SILVA PEGORARO           RUA FRANCO PAULISTA  - 80 - AGUA FRIA -             02332030                                                            000062
2SR. CAIXA, APOS O VENCIMENTO COBRAR 10% DE MULTA                                NAO RECEBER APOS 30 DIAS DO VENCIMENTO.                                                                                                                                                                                                         01021800000000000000102180000000000000       0090770900016748570145021816000063
100000000000000000000009077090001674800000000000000000000000010002100006505302181300000000002            2  01065053021824021800000002500690000000001N010218000000000000000000000000000000000000000000000000000000000000000100006505382852LUIS ANTONIO DINIS HENRIQUES            RUA ESTEVAO  BAIAO - 520 AP.93A - CAMPO             04624002                                                            000065
2SR. CAIXA, APOS O VENCIMENTO COBRAR 10% DE MULTA                                NAO RECEBER APOS 30 DIAS DO VENCIMENTO.                                                                                                                                                                                                         01021800000000000000102180000000000000       0090770900016748065053021813000066
100000000000000000000009077090001674800000000000000000000000010002100011544702181600000000002            2  01115447021824021800000004542860000000001N010218000000000000000000000000000000000000000000000000000000000000000100011544777620GRACIELY RODRIGUES FERNANDES            RUA MONTE CASTELO - 262 AP.111 - AVIACAO            11702720                                                            000068
2SR. CAIXA, APOS O VENCIMENTO COBRAR 10% DE MULTA                                NAO RECEBER APOS 30 DIAS DO VENCIMENTO.                                                                                                                                                                                                         01021800000000000000102180000000000000       0090770900016748115447021816000069
100000000000000000000009077090001674800000000000000000000000010002100005629002181000000000002            2  01056290021824021800000003304010000000001N010218000000000000000000000000000000000000000000000000000000000000000100005629087819ROMILDO MARTINS PIZA                    RUA MAESTRO ARTURO DE ANGELIS - 190 AP.3            05139010                                                            000071
2SR. CAIXA, APOS O VENCIMENTO COBRAR 10% DE MULTA                                NAO RECEBER APOS 30 DIAS DO VENCIMENTO.                                                                                                                                                                                                         01021800000000000000102180000000000000       0090770900016748056290021810000072
9                                                                                                                                                                                                                                                                                                                                                                                                         000073