01REMESSA01COBRANCA       00000000000004991788AIRES DESENVOLVIMENTO IMOBILIA237BRADESCO       101218        MX0000143                                                                                                                                                                                                                                                                                     000001
100000000000000000000009077090011897400000000000000000000000010002100014497912181900000000002            2  01144979121824121800000002036790000000001N061218000000000000000000000000000000000000000000000000000000000000000100014497915816FERNANDO JOSE ARRUDA                    RUA JOSE CALIXTO DO CARMO - 265 AP.113 -            11702690                                                            000002
2SR. CAIXA, APOS O VENCIMENTO COBRAR 10% DE MULTA                                NAO RECEBER APOS 30 DIAS DO VENCIMENTO.                                                                                                                                                                                                         10121800000000000001012180000000000000       0090770900118974144979121819000003
100000000000000000000009077090011897400000000000000000000000010002100027324012181500000000002            2  01273240121824121800000001536090000000001N061218000000000000000000000000000000000000000000000000000000000000000100027324099874LEONARDO BORGES DUARTE SILVA            RUA JOSE CALIXTO DO CARMO - 265 AP.94 -             11702690                                                            000005
2SR. CAIXA, APOS O VENCIMENTO COBRAR 10% DE MULTA                                NAO RECEBER APOS 30 DIAS DO VENCIMENTO.                                                                                                                                                                                                         10121800000000000001012180000000000000       0090770900118974273240121815000006
100000000000000000000009077090011897400000000000000000000000010002100084057912181600000000002            2  01840579121827121800000002000000000000001N061218000000000000000000000000000000000000000000000000000000000000000100084057904891ANTONIO GONZAGA DOS SANTOS              RUA BRIGADEIRO JOSE FERREIRA - 319 - CAN            11700470                                                            000008
2SR. CAIXA, APOS O VENCIMENTO COBRAR 10% DE MULTA                                NAO RECEBER APOS 30 DIAS DO VENCIMENTO.                                                                                                                                                                                                         10121800000000000001012180000000000000       0090770900118974840579121816000009
100000000000000000000009077090011897400000000000000000000000010002100036782012181700000000002            2  01367820121824121800000001478730000000001N061218000000000000000000000000000000000000000000000000000000000000000100036782058871ANA PAULA BUENO DA COSTA                RUA MARIQUITA ARTACHO - 218 CASA 3 - JAR            03716000                                                            000011
2SR. CAIXA, APOS O VENCIMENTO COBRAR 10% DE MULTA                                NAO RECEBER APOS 30 DIAS DO VENCIMENTO.                                                                                                                                                                                                         10121800000000000001012180000000000000       0090770900118974367820121817000012
100000000000000000000009077090011897400000000000000000000000010002100018272712181500000000002            2  01182727121827121800000001800000000000001N061218000000000000000000000000000000000000000000000000000000000000000100018272729881HENRY CESAR UEDA                        RUA MONTE CASTELO - 295 AP.94 - AVIACAO             11702720                                                            000014
2SR. CAIXA, APOS O VENCIMENTO COBRAR 10% DE MULTA                                NAO RECEBER APOS 30 DIAS DO VENCIMENTO.                                                                                                                                                                                                         10121800000000000001012180000000000000       0090770900118974182727121815000015
9                                                                                                                                                                                                                                                                                                                                                                                                         000016