01REMESSA01COBRANCA       00000000000004991454AIRES CONSTRUTORA E INCORPORAD237BRADESCO       050719        MX0000136                                                                                                                                                                                                                                                                                     000001
100000000000000000000009077090001674800000000000000000000000010002100026984107192300000000002            2  01269841071924071900000001497530000000001N040719000000000000000000000000000000000000000000000000000000000000000100026984181844GISELE APARECIDA MAGALHAES              RUA GRACILIANO RAMOS - 181 - BAIRRO SAO             09581410                                                            000002
2SR. CAIXA, APOS O VENCIMENTO COBRAR 10% DE MULTA                                NAO RECEBER APOS 30 DIAS DO VENCIMENTO.                                                                                                                                                                                                         05071900000000000000507190000000000000       0090770900016748269841071923000003
100000000000000000000009077090001674800000000000000000000000010002100068806207191P00000000002            2  01688062071924071900000001329050000000001N040719000000000000000000000000000000000000000000000000000000000000000100068806272853FATIMA MOREIRA SALOMAO                  RUA TORQUATO DE CAMILLO - 84 - CARANDA B            79032031                                                            000005
2SR. CAIXA, APOS O VENCIMENTO COBRAR 10% DE MULTA                                NAO RECEBER APOS 30 DIAS DO VENCIMENTO.                                                                                                                                                                                                         05071900000000000000507190000000000000       009077090001674868806207191P000006
100000000000000000000009077090001674800000000000000000000000010002100004201607191600000000002            2  01042016071924071900000001930290000000001N040719000000000000000000000000000000000000000000000000000000000000000100004201640817SANDRA APARECIDA TOJAL                  AVENIDA MASCOTE - 81 AP.132 BL.A - VILA             04363000                                                            000008
2SR. CAIXA, APOS O VENCIMENTO COBRAR 10% DE MULTA                                NAO RECEBER APOS 30 DIAS DO VENCIMENTO.                                                                                                                                                                                                         05071900000000000000507190000000000000       0090770900016748042016071916000009
100000000000000000000009077090001674800000000000000000000000010002100000024607191000000000002            2  01000246071924071900000002297970000000001N040719000000000000000000000000000000000000000000000000000000000000000100000024633852JAYME MASRI                             RUA MONTE CASTELO - 296 AP.24 - BAIRRO A            11702720                                                            000011
2SR. CAIXA, APOS O VENCIMENTO COBRAR 10% DE MULTA                                NAO RECEBER APOS 30 DIAS DO VENCIMENTO.                                                                                                                                                                                                         05071900000000000000507190000000000000       0090770900016748000246071910000012
100000000000000000000009077090001674800000000000000000000000010002100013184407191400000000002            2  01131844071924071900000002386110000000001N040719000000000000000000000000000000000000000000000000000000000000000100013184404838CLAUDIO GOMES BAHIA                     RUA MARIA CONCEICAO - 89 - VILA SAO PEDR            07032070                                                            000014
2SR. CAIXA, APOS O VENCIMENTO COBRAR 10% DE MULTA                                NAO RECEBER APOS 30 DIAS DO VENCIMENTO.                                                                                                                                                                                                         05071900000000000000507190000000000000       0090770900016748131844071914000015
100000000000000000000009077090001674800000000000000000000000010002100006055507191P00000000002            2  01060555071924071900000003613400000000001N040719000000000000000000000000000000000000000000000000000000000000000100006055565803EDSON ALVES                             RUA EDGAR CODAZZI - 49 CASA 02 - CIDADE             08225280                                                            000017
2SR. CAIXA, APOS O VENCIMENTO COBRAR 10% DE MULTA                                NAO RECEBER APOS 30 DIAS DO VENCIMENTO.                                                                                                                                                                                                         05071900000000000000507190000000000000       009077090001674806055507191P000018
100000000000000000000009077090001674800000000000000000000000010002100021899207191300000000002            2  01218992071924071900000002632720000000001N040719000000000000000000000000000000000000000000000000000000000000000100021899277811ALESSANDRE ALVES ANDRADE                RUA MONTE CASTELO - 262 AP.132 - AVIACAO            11702720                                                            000020
2SR. CAIXA, APOS O VENCIMENTO COBRAR 10% DE MULTA                                NAO RECEBER APOS 30 DIAS DO VENCIMENTO.                                                                                                                                                                                                         05071900000000000000507190000000000000       0090770900016748218992071913000021
100000000000000000000009077090001674800000000000000000000000010002100003441207191800000000002            2  01034412071924071900000002295600000000001N040719000000000000000000000000000000000000000000000000000000000000000100003441232860LUIZ CARLOS CAMARGO BIANCHI             RUA GENERAL LEITE DE CASTRO - 200 - JARD            04182020                                                            000023
2SR. CAIXA, APOS O VENCIMENTO COBRAR 10% DE MULTA                                NAO RECEBER APOS 30 DIAS DO VENCIMENTO.                                                                                                                                                                                                         05071900000000000000507190000000000000       0090770900016748034412071918000024
100000000000000000000009077090001674800000000000000000000000010002100014681407191700000000002            2  01146814071924071900000002381500000000001N040719000000000000000000000000000000000000000000000000000000000000000100014681490830HUMBERTO MOZART CALIXTO                 RUA MONTE CASTELO - 296 AP.41 - AVIACAO             11702720                                                            000026
2SR. CAIXA, APOS O VENCIMENTO COBRAR 10% DE MULTA                                NAO RECEBER APOS 30 DIAS DO VENCIMENTO.                                                                                                                                                                                                         05071900000000000000507190000000000000       0090770900016748146814071917000027
100000000000000000000009077090001674800000000000000000000000010002100023007707191P00000000002            2  01230077071924071900000001947250000000001N040719000000000000000000000000000000000000000000000000000000000000000100023007705800BRUNA ANTUN AZEVEDO                     RUA MONTE CASTELO - 296 AP.62 - AVIACAO             11702720                                                            000029
2SR. CAIXA, APOS O VENCIMENTO COBRAR 10% DE MULTA                                NAO RECEBER APOS 30 DIAS DO VENCIMENTO.                                                                                                                                                                                                         05071900000000000000507190000000000000       009077090001674823007707191P000030
100000000000000000000009077090001674800000000000000000000000010002100006550707191800000000002            2  01065507071924071900000002010500000000001N040719000000000000000000000000000000000000000000000000000000000000000100006550730864IVONE APARECIDA VIEIRA GADI TEIXEIRA    RUA SAO FLORENCIO  - 1500 AP.44 BLOCO 01            03733020                                                            000032
2SR. CAIXA, APOS O VENCIMENTO COBRAR 10% DE MULTA                                NAO RECEBER APOS 30 DIAS DO VENCIMENTO.                                                                                                                                                                                                         05071900000000000000507190000000000000       0090770900016748065507071918000033
100000000000000000000009077090001674800000000000000000000000010002100000930607191200000000002            2  01009306071924071900000003602120000000001N040719000000000000000000000000000000000000000000000000000000000000000100000930668642VALERIA RODRIGUES DANTAS                RUA MONTE CASTELO - 262 AP.21 - AVIACAO             11702720                                                            000035
2SR. CAIXA, APOS O VENCIMENTO COBRAR 10% DE MULTA                                NAO RECEBER APOS 30 DIAS DO VENCIMENTO.                                                                                                                                                                                                         05071900000000000000507190000000000000       0090770900016748009306071912000036
100000000000000000000009077090001674800000000000000000000000010002100075574007191600000000002            2  01755740071924071900000003112140000000001N040719000000000000000000000000000000000000000000000000000000000000000100075574063891CASSIO TADEU DA SILVEIRA                RUA CONSELHEIRO MOREIRA DE BARROS - 1.55            02430000                                                            000038
2SR. CAIXA, APOS O VENCIMENTO COBRAR 10% DE MULTA                                NAO RECEBER APOS 30 DIAS DO VENCIMENTO.                                                                                                                                                                                                         05071900000000000000507190000000000000       0090770900016748755740071916000039
100000000000000000000009077090001674800000000000000000000000010002100000764607191400000000002            2  01007646071924071900000002301590000000001N040719000000000000000000000000000000000000000000000000000000000000000100000764632817LUIZ CARLOS ANTUNES JUNIOR              RUA MONTE CASTELO - 262 AP.35 - AVIACAO             11702720                                                            000041
2SR. CAIXA, APOS O VENCIMENTO COBRAR 10% DE MULTA                                NAO RECEBER APOS 30 DIAS DO VENCIMENTO.                                                                                                                                                                                                         05071900000000000000507190000000000000       0090770900016748007646071914000042
100000000000000000000009077090001674800000000000000000000000010002100066104107191400000000002            2  01661041071924071900000002326750000000001N040719000000000000000000000000000000000000000000000000000000000000000100066104106820ANADIR FERREIRA                         RUA MONTE CASTELO - 296 AP.61 - AVIACAO             11702720                                                            000044
2SR. CAIXA, APOS O VENCIMENTO COBRAR 10% DE MULTA                                NAO RECEBER APOS 30 DIAS DO VENCIMENTO.                                                                                                                                                                                                         05071900000000000000507190000000000000       0090770900016748661041071914000045
100000000000000000000009077090001674800000000000000000000000010002100057014507191000000000002            2  01570145071924071900000002612390000000001N040719000000000000000000000000000000000000000000000000000000000000000100057014582887SONIA MARIA DA SILVA PEGORARO           RUA FRANCO PAULISTA  - 80 - AGUA FRIA -             02332030                                                            000047
2SR. CAIXA, APOS O VENCIMENTO COBRAR 10% DE MULTA                                NAO RECEBER APOS 30 DIAS DO VENCIMENTO.                                                                                                                                                                                                         05071900000000000000507190000000000000       0090770900016748570145071910000048
100000000000000000000009077090001674800000000000000000000000010002100006505307191800000000002            2  01065053071924071900000002839400000000001N040719000000000000000000000000000000000000000000000000000000000000000100006505382852LUIS ANTONIO DINIS HENRIQUES            RUA ESTEVAO  BAIAO - 520 AP.93A - CAMPO             04624002                                                            000050
2SR. CAIXA, APOS O VENCIMENTO COBRAR 10% DE MULTA                                NAO RECEBER APOS 30 DIAS DO VENCIMENTO.                                                                                                                                                                                                         05071900000000000000507190000000000000       0090770900016748065053071918000051
100000000000000000000009077090001674800000000000000000000000010002100011544707191000000000002            2  01115447071924071900000005158160000000001N040719000000000000000000000000000000000000000000000000000000000000000100011544777620GRACIELY RODRIGUES FERNANDES            RUA MONTE CASTELO - 262 AP.111 - AVIACAO            11702720                                                            000053
2SR. CAIXA, APOS O VENCIMENTO COBRAR 10% DE MULTA                                NAO RECEBER APOS 30 DIAS DO VENCIMENTO.                                                                                                                                                                                                         05071900000000000000507190000000000000       0090770900016748115447071910000054
100000000000000000000009077090001674800000000000000000000000010002100005629007191500000000002            2  01056290071924071900000003751510000000001N040719000000000000000000000000000000000000000000000000000000000000000100005629087819ROMILDO MARTINS PIZA                    RUA MAESTRO ARTURO DE ANGELIS - 190 AP.3            05139010                                                            000056
2SR. CAIXA, APOS O VENCIMENTO COBRAR 10% DE MULTA                                NAO RECEBER APOS 30 DIAS DO VENCIMENTO.                                                                                                                                                                                                         05071900000000000000507190000000000000       0090770900016748056290071915000057
100000000000000000000009077090001674800000000000000000000000010002100004290907191400000000002            2  01042909071924071900000001999700000000001N040719000000000000000000000000000000000000000000000000000000000000000100004290973876WLADIMIR PAIOLA BORREGO                 RUA GOMES - 429 - VILA IVONE - SAO PAULO            03275010                                                            000059
2SR. CAIXA, APOS O VENCIMENTO COBRAR 10% DE MULTA                                NAO RECEBER APOS 30 DIAS DO VENCIMENTO.                                                                                                                                                                                                         05071900000000000000507190000000000000       0090770900016748042909071914000060
100000000000000000000009077090001674800000000000000000000000010002100034325507191P00000000002            2  01343255071924071900000001893160000000001N040719000000000000000000000000000000000000000000000000000000000000000100034325567801LUIZ FERNANDO ALAMINO                   RUA GALDINO NASCIMENTO - 45 - PARQUE GUA            08431650                                                            000062
2SR. CAIXA, APOS O VENCIMENTO COBRAR 10% DE MULTA                                NAO RECEBER APOS 30 DIAS DO VENCIMENTO.                                                                                                                                                                                                         05071900000000000000507190000000000000       009077090001674834325507191P000063
100000000000000000000009077090001674800000000000000000000000010002100021335407191200000000002            2  01213354071924071900000005510050000000001N040719000000000000000000000000000000000000000000000000000000000000000100021335464808RAQUEL FERREIRA RAMOS                   RUA ANTONIO SEVERIANO DE ANDRADE E SILVA            11702400                                                            000065
2SR. CAIXA, APOS O VENCIMENTO COBRAR 10% DE MULTA                                NAO RECEBER APOS 30 DIAS DO VENCIMENTO.                                                                                                                                                                                                         05071900000000000000507190000000000000       0090770900016748213354071912000066
100000000000000000000009077090001674800000000000000000000000010002100021335407192000000000002            2  01213354071924071900000001432620000000001N040719000000000000000000000000000000000000000000000000000000000000000100021335464808RAQUEL FERREIRA RAMOS                   RUA ANTONIO SEVERIANO DE ANDRADE E SILVA            11702400                                                            000068
2SR. CAIXA, APOS O VENCIMENTO COBRAR 10% DE MULTA                                NAO RECEBER APOS 30 DIAS DO VENCIMENTO.                                                                                                                                                                                                         05071900000000000000507190000000000000       0090770900016748213354071920000069
100000000000000000000009077090001674800000000000000000000000010002100005627907191100000000002            2  01056279071924071900000001679890000000001N040719000000000000000000000000000000000000000000000000000000000000000100005627947861FERNANDO CESAR MARCELINO                TRAVESSA CHARLES LEBRUN - 83 - VILA NOVA            02312060                                                            000071
2SR. CAIXA, APOS O VENCIMENTO COBRAR 10% DE MULTA                                NAO RECEBER APOS 30 DIAS DO VENCIMENTO.                                                                                                                                                                                                         05071900000000000000507190000000000000       0090770900016748056279071911000072
100000000000000000000009077090001674800000000000000000000000010002100026187907191800000000002            2  01261879071924071900000001753000000000001N040719000000000000000000000000000000000000000000000000000000000000000100026187960807CARINA CANTACESSO DE SOUZA              RUA MONTE CASTELO - 296 AP.91 - AVIACAO             11702720                                                            000074
2SR. CAIXA, APOS O VENCIMENTO COBRAR 10% DE MULTA                                NAO RECEBER APOS 30 DIAS DO VENCIMENTO.                                                                                                                                                                                                         05071900000000000000507190000000000000       0090770900016748261879071918000075
100000000000000000000009077090001674800000000000000000000000010002100004864907191300000000002            2  01048649071924071900000002342970000000001N040719000000000000000000000000000000000000000000000000000000000000000100004864924600RENATO SANTACHIARA SALVADORI            RUA PENSYLVANIA - 116 - PAYSAGE BRISE -             06730000                                                            000077
2SR. CAIXA, APOS O VENCIMENTO COBRAR 10% DE MULTA                                NAO RECEBER APOS 30 DIAS DO VENCIMENTO.                                                                                                                                                                                                         05071900000000000000507190000000000000       0090770900016748048649071913000078
100000000000000000000009077090001674800000000000000000000000010002100026647607191P00000000002            2  01266476071924071900000002595170000000001N040719000000000000000000000000000000000000000000000000000000000000000100026647690816CLAUDIA FUKUDA OGATA BURATTO            RUA DINAMARCA - 449 - BAIRRO TABOAO - SA            09668080                                                            000080
2SR. CAIXA, APOS O VENCIMENTO COBRAR 10% DE MULTA                                NAO RECEBER APOS 30 DIAS DO VENCIMENTO.                                                                                                                                                                                                         05071900000000000000507190000000000000       009077090001674826647607191P000081
9                                                                                                                                                                                                                                                                                                                                                                                                         000082