01REMESSA01COBRANCA       00000000000004991454AIRES CONSTRUTORA E INCORPORAD237BRADESCO       010119        MX0000123                                                                                                                                                                                                                                                                                     000001
100000000000000000000009077090001674800000000000000000000000010002100099740401191700000000002            2  01997404011909011900000002875260000000001N010119000000000000000000000000000000000000000000000000000000000000000100099740451853ARNALDO DA SILVA SALES                  RUA ALEGRE - 210 - VILA SAO RAFAEL - GUA            07053100                                                            000002
2SR. CAIXA, APOS O VENCIMENTO COBRAR 10% DE MULTA                                NAO RECEBER APOS 30 DIAS DO VENCIMENTO.                                                                                                                                                                                                         01011900000000000000101190000000000000       0090770900016748997404011917000003
100000000000000000000009077090001674800000000000000000000000010002100049736701191700000000002            2  01497367011909011900000001744710000000001N010119000000000000000000000000000000000000000000000000000000000000000100049736787320RAIMUNDO VIEIRA DA SILVA                RUA BOLIVIA - 81 AP.ZELADORIA - JARDIM G            11701850                                                            000005
2SR. CAIXA, APOS O VENCIMENTO COBRAR 10% DE MULTA                                NAO RECEBER APOS 30 DIAS DO VENCIMENTO.                                                                                                                                                                                                         01011900000000000000101190000000000000       0090770900016748497367011917000006
100000000000000000000009077090001674800000000000000000000000010002100044380701191100000000002            2  01443807011909011900000004638090000000001N010119000000000000000000000000000000000000000000000000000000000000000100044380725812FERNANDO FIRMINO DOS SANTOS             RUA BARAO GERALDO DE RESENDE - 401 - BAI            05205220                                                            000008
2SR. CAIXA, APOS O VENCIMENTO COBRAR 10% DE MULTA                                NAO RECEBER APOS 30 DIAS DO VENCIMENTO.                                                                                                                                                                                                         01011900000000000000101190000000000000       0090770900016748443807011911000009
100000000000000000000009077090001674800000000000000000000000010002100025469401191200000000002            2  01254694011909011900000001443750000000001N010119000000000000000000000000000000000000000000000000000000000000000100025469470873JULIA MARIA RODRIGUES MARTINS           AVENIDA JOAO FIRMINO - 1229 AP.21 - BAIR            09810260                                                            000011
2SR. CAIXA, APOS O VENCIMENTO COBRAR 10% DE MULTA                                NAO RECEBER APOS 30 DIAS DO VENCIMENTO.                                                                                                                                                                                                         01011900000000000000101190000000000000       0090770900016748254694011912000012
100000000000000000000009077090001674800000000000000000000000010002100004759501191300000000002            2  01047595011909011900000003495450000000001N010119000000000000000000000000000000000000000000000000000000000000000100004759534873AGNALDO PORFIRIO DOS SANTOS             RUA JUVENCIO GASPAR DA SILVA - 35 - SAO             04303060                                                            000014
2SR. CAIXA, APOS O VENCIMENTO COBRAR 10% DE MULTA                                NAO RECEBER APOS 30 DIAS DO VENCIMENTO.                                                                                                                                                                                                         01011900000000000000101190000000000000       0090770900016748047595011913000015
100000000000000000000009077090001674800000000000000000000000010002100014924001191P00000000002            2  01149240011909011900000010168580000000001N010119000000000000000000000000000000000000000000000000000000000000000100014924049859KATIA REGINA DE OLIVEIRA SILVA          RUA ANTONIO SIMIONATO - 73 AP.14 - SANTA            09780180                                                            000017
2SR. CAIXA, APOS O VENCIMENTO COBRAR 10% DE MULTA                                NAO RECEBER APOS 30 DIAS DO VENCIMENTO.                                                                                                                                                                                                         01011900000000000000101190000000000000       009077090001674814924001191P000018
100000000000000000000009077090001674800000000000000000000000010002100014924001192800000000002            2  01149240011909011900000001883730000000001N010119000000000000000000000000000000000000000000000000000000000000000100014924049859KATIA REGINA DE OLIVEIRA SILVA          RUA ANTONIO SIMIONATO - 73 AP.14 - SANTA            09780180                                                            000020
2SR. CAIXA, APOS O VENCIMENTO COBRAR 10% DE MULTA                                NAO RECEBER APOS 30 DIAS DO VENCIMENTO.                                                                                                                                                                                                         01011900000000000000101190000000000000       0090770900016748149240011928000021
100000000000000000000009077090001674800000000000000000000000010002100090830401191700000000002            2  01908304011909011900000001101970000000001N010119000000000000000000000000000000000000000000000000000000000000000100090830490868IVONETE FERNANDES                       AVENIDA FREDERICO OZANAN - 5504 - VILA R            13215276                                                            000023
2SR. CAIXA, APOS O VENCIMENTO COBRAR 10% DE MULTA                                NAO RECEBER APOS 30 DIAS DO VENCIMENTO.                                                                                                                                                                                                         01011900000000000000101190000000000000       0090770900016748908304011917000024
100000000000000000000009077090001674800000000000000000000000010002100027093901191900000000002            2  01270939011909011900000002731820000000001N010119000000000000000000000000000000000000000000000000000000000000000100027093944809DAVID ALEXANDRE XAVIER ROCHA            RUA MONTE CASTELO - 296 AP.54 - AVIACAO             11702720                                                            000026
2SR. CAIXA, APOS O VENCIMENTO COBRAR 10% DE MULTA                                NAO RECEBER APOS 30 DIAS DO VENCIMENTO.                                                                                                                                                                                                         01011900000000000000101190000000000000       0090770900016748270939011919000027
100000000000000000000009077090001674800000000000000000000000010002100068273201191500000000002            2  01682732011909011900000001988570000000001N010119000000000000000000000000000000000000000000000000000000000000000100068273290891DERNEVAL JOSE MUNIZ                     RUA MARTINOPOLIS - 98 - JARDIM OTAWA - G            07230230                                                            000029
2SR. CAIXA, APOS O VENCIMENTO COBRAR 10% DE MULTA                                NAO RECEBER APOS 30 DIAS DO VENCIMENTO.                                                                                                                                                                                                         01011900000000000000101190000000000000       0090770900016748682732011915000030
100000000000000000000009077090001674800000000000000000000000010002100001817501191800000000002            2  01018175011909011900000001699480000000001N010119000000000000000000000000000000000000000000000000000000000000000100001817534807SANTINA SALVINA SOARES                  RUA CAIAPOS - 1066 AP.43 - VILA TUPI - P            11703320                                                            000032
2SR. CAIXA, APOS O VENCIMENTO COBRAR 10% DE MULTA                                NAO RECEBER APOS 30 DIAS DO VENCIMENTO.                                                                                                                                                                                                         01011900000000000000101190000000000000       0090770900016748018175011918000033
100000000000000000000009077090001674800000000000000000000000010002100086755701191500000000002            2  01867557011909011900000001836010000000001N010119000000000000000000000000000000000000000000000000000000000000000100086755790800GERALDO JAIR BROGLIATTO                 DR.ARMANDO COSTA MAGALHAES - 176 - VILA             13270490                                                            000035
2SR. CAIXA, APOS O VENCIMENTO COBRAR 10% DE MULTA                                NAO RECEBER APOS 30 DIAS DO VENCIMENTO.                                                                                                                                                                                                         01011900000000000000101190000000000000       0090770900016748867557011915000036
100000000000000000000009077090001674800000000000000000000000010002100007996001191900000000002            2  01079960011909011900000001823880000000001N010119000000000000000000000000000000000000000000000000000000000000000100007996062862HENRIQUE SALVADOR                       RUA DARDANELOS - 689 - PARQUE NOVO ORATO            09260060                                                            000038
2SR. CAIXA, APOS O VENCIMENTO COBRAR 10% DE MULTA                                NAO RECEBER APOS 30 DIAS DO VENCIMENTO.                                                                                                                                                                                                         01011900000000000000101190000000000000       0090770900016748079960011919000039
100000000000000000000009077090001674800000000000000000000000010002100010066001191600000000002            2  01100660011909011900000002443370000000001N010119000000000000000000000000000000000000000000000000000000000000000100010066071534MOISES ROQUE DO ROSARIO                 RUA DAS PAPOULAS - 53 - VILA BELA - SAO             03202010                                                            000041
2SR. CAIXA, APOS O VENCIMENTO COBRAR 10% DE MULTA                                NAO RECEBER APOS 30 DIAS DO VENCIMENTO.                                                                                                                                                                                                         01011900000000000000101190000000000000       0090770900016748100660011916000042
100000000000000000000009077090001674800000000000000000000000010002100085910001191700000000002            2  01859100011909011900000002787970000000001N010119000000000000000000000000000000000000000000000000000000000000000100085910031872SERGIO NOGUEIRA                         RUA MONTE CASTELO - 262 AP.55 - AVIACAO             11702720                                                            000044
2SR. CAIXA, APOS O VENCIMENTO COBRAR 10% DE MULTA                                NAO RECEBER APOS 30 DIAS DO VENCIMENTO.                                                                                                                                                                                                         01011900000000000000101190000000000000       0090770900016748859100011917000045
100000000000000000000009077090001674800000000000000000000000010002100000746801191000000000002            2  01007468011909011900000005634970000000001N010119000000000000000000000000000000000000000000000000000000000000000100000746845820ANTONIO CARLOS DE MELLO                 RUA CONGO - 118 - PARQUE MONTE ALEGRE -             06756270                                                            000047
2SR. CAIXA, APOS O VENCIMENTO COBRAR 10% DE MULTA                                NAO RECEBER APOS 30 DIAS DO VENCIMENTO.                                                                                                                                                                                                         01011900000000000000101190000000000000       0090770900016748007468011910000048
100000000000000000000009077090001674800000000000000000000000010002100000746801192900000000002            2  01007468011909011900000002253980000000001N010119000000000000000000000000000000000000000000000000000000000000000100000746845820ANTONIO CARLOS DE MELLO                 RUA CONGO - 118 - PARQUE MONTE ALEGRE -             06756270                                                            000050
2SR. CAIXA, APOS O VENCIMENTO COBRAR 10% DE MULTA                                NAO RECEBER APOS 30 DIAS DO VENCIMENTO.                                                                                                                                                                                                         01011900000000000000101190000000000000       0090770900016748007468011929000051
100000000000000000000009077090001674800000000000000000000000010002100028196101191600000000002            2  01281961011909011900000001623060000000001N010119000000000000000000000000000000000000000000000000000000000000000100028196184808VANESSA NOGUEIRA CAMBUI DA SILVA        CRISTOVAO COLOMBO - 217 - VILA AMERICA -            09110160                                                            000053
2SR. CAIXA, APOS O VENCIMENTO COBRAR 10% DE MULTA                                NAO RECEBER APOS 30 DIAS DO VENCIMENTO.                                                                                                                                                                                                         01011900000000000000101190000000000000       0090770900016748281961011916000054
100000000000000000000009077090001674800000000000000000000000010002100049730801191100000000002            2  01497308011909011900000001332320000000001N010119000000000000000000000000000000000000000000000000000000000000000100049730835420PEDRO LUIZ DO BOM FIM FILHO             RUA NASCER DO SOL - 91 - BAIRRO PIRAPORI            09951475                                                            000056
2SR. CAIXA, APOS O VENCIMENTO COBRAR 10% DE MULTA                                NAO RECEBER APOS 30 DIAS DO VENCIMENTO.                                                                                                                                                                                                         01011900000000000000101190000000000000       0090770900016748497308011911000057
100000000000000000000009077090001674800000000000000000000000010002100027067001191700000000002            2  01270670011909011900000001653010000000001N010119000000000000000000000000000000000000000000000000000000000000000100027067002893MARCIA NASCIMENTO DE MORAES             RUA MONTE CASTELO - 296 AP.11 - AVIACAO             11702720                                                            000059
2SR. CAIXA, APOS O VENCIMENTO COBRAR 10% DE MULTA                                NAO RECEBER APOS 30 DIAS DO VENCIMENTO.                                                                                                                                                                                                         01011900000000000000101190000000000000       0090770900016748270670011917000060
100000000000000000000009077090001674800000000000000000000000010002100064435701191100000000002            2  01644357011909011900000001653010000000001N010119000000000000000000000000000000000000000000000000000000000000000100064435741849JURACY DA SILVA                         RUA JACARATINGA - 192 - JARDIM PIRAJUCAR            05786120                                                            000062
2SR. CAIXA, APOS O VENCIMENTO COBRAR 10% DE MULTA                                NAO RECEBER APOS 30 DIAS DO VENCIMENTO.                                                                                                                                                                                                         01011900000000000000101190000000000000       0090770900016748644357011911000063
100000000000000000000009077090001674800000000000000000000000010002100094921801191000000000002            2  01949218011909011900000001640700000000001N010119000000000000000000000000000000000000000000000000000000000000000100094921890897JOAO JORGE DA ROSA FILHO                RUA OLAVO EGIDIO DE SOUZA ARANHA - 368 A            03822000                                                            000065
2SR. CAIXA, APOS O VENCIMENTO COBRAR 10% DE MULTA                                NAO RECEBER APOS 30 DIAS DO VENCIMENTO.                                                                                                                                                                                                         01011900000000000000101190000000000000       0090770900016748949218011910000066
100000000000000000000009077090001674800000000000000000000000010002100008364801191700000000002            2  01083648011909011900000001990390000000001N010119000000000000000000000000000000000000000000000000000000000000000100008364834800JOSEFINA CORREA RAMA DOS SANTOS         AVENIDA PRESIDENTE CASTELO BRANCO - 3.78            11702700                                                            000068
2SR. CAIXA, APOS O VENCIMENTO COBRAR 10% DE MULTA                                NAO RECEBER APOS 30 DIAS DO VENCIMENTO.                                                                                                                                                                                                         01011900000000000000101190000000000000       0090770900016748083648011917000069
100000000000000000000009077090001674800000000000000000000000010002100037713301191800000000002            2  01377133011909011900000001628490000000001N010119000000000000000000000000000000000000000000000000000000000000000100037713356800JAMILLE PAULA BUENO LOPES               RUA CURIO (COND.NEW VILLE) - 172 - SURU             06509031                                                            000071
2SR. CAIXA, APOS O VENCIMENTO COBRAR 10% DE MULTA                                NAO RECEBER APOS 30 DIAS DO VENCIMENTO.                                                                                                                                                                                                         01011900000000000000101190000000000000       0090770900016748377133011918000072
100000000000000000000009077090001674800000000000000000000000010002100076207901191600000000002            2  01762079011909011900000002046080000000001N010119000000000000000000000000000000000000000000000000000000000000000100076207943872JOSE MACEDO RICARTE FILHO               RUA ARTUR LOBO - 181 - JARDIM JABAQUARA             04384060                                                            000074
2SR. CAIXA, APOS O VENCIMENTO COBRAR 10% DE MULTA                                NAO RECEBER APOS 30 DIAS DO VENCIMENTO.                                                                                                                                                                                                         01011900000000000000101190000000000000       0090770900016748762079011916000075
100000000000000000000009077090001674800000000000000000000000010002100094672601191900000000002            2  01946726011909011900000002583980000000001N010119000000000000000000000000000000000000000000000000000000000000000100094672660834JOSE HENRIQUE SOARES PEREIRA INACIO     RUA MONTE CASTELO - 296 AP.34 - AVIACAO             11702720                                                            000077
2SR. CAIXA, APOS O VENCIMENTO COBRAR 10% DE MULTA                                NAO RECEBER APOS 30 DIAS DO VENCIMENTO.                                                                                                                                                                                                         01011900000000000000101190000000000000       0090770900016748946726011919000078
100000000000000000000009077090001674800000000000000000000000010002100025265201191P00000000002            2  01252652011909011900000001404920000000001N010119000000000000000000000000000000000000000000000000000000000000000100025265260862SONIA MARIA CECILIO DA SILVA            RUA PRESIDENTE TANCREDO NEVES - 1093 AP.            06329350                                                            000080
2SR. CAIXA, APOS O VENCIMENTO COBRAR 10% DE MULTA                                NAO RECEBER APOS 30 DIAS DO VENCIMENTO.                                                                                                                                                                                                         01011900000000000000101190000000000000       009077090001674825265201191P000081
100000000000000000000009077090001674800000000000000000000000010002100011381901191700000000002            2  01113819011909011900000002677760000000001N010119000000000000000000000000000000000000000000000000000000000000000100011381987818MARIO DONIZETE MIGUEL DA SILVA          RUA JASPE - 215 - HIGIANOPOLIS - JANDIRA            06642270                                                            000083
2SR. CAIXA, APOS O VENCIMENTO COBRAR 10% DE MULTA                                NAO RECEBER APOS 30 DIAS DO VENCIMENTO.                                                                                                                                                                                                         01011900000000000000101190000000000000       0090770900016748113819011917000084
9                                                                                                                                                                                                                                                                                                                                                                                                         000085