01REMESSA01COBRANCA       00000000000004991788AIRES DESENVOLVIMENTO IMOBILIA237BRADESCO       090118        MX0000121                                                                                                                                                                                                                                                                                     000001
100000000000000000000009077090011897400000000000000000000000010002100011088001181500000000002            2  01110880011825011800000001849450000000001N090118000000000000000000000000000000000000000000000000000000000000000100011088018890LUIZ CARLOS VITORINO MADEIRA            RUA JOSE CALIXTO DO CARMO - 265 AP. 32 -            11702690                                                            000002
2SR. CAIXA, APOS O VENCIMENTO COBRAR 10% DE MULTA                                NAO RECEBER APOS 30 DIAS DO VENCIMENTO.                                                                                                                                                                                                         09011800000000000000901180000000000000       0090770900118974110880011815000003
100000000000000000000009077090011897400000000000000000000000010002100004007801181P00000000002            2  01040078011825011800000002691180000000001N090118000000000000000000000000000000000000000000000000000000000000000100004007807809CLAUDIO CANESCHI                        RUA AGRESTE  DE ITABAINA - 663 - VILA UN            03683000                                                            000005
2SR. CAIXA, APOS O VENCIMENTO COBRAR 10% DE MULTA                                NAO RECEBER APOS 30 DIAS DO VENCIMENTO.                                                                                                                                                                                                         09011800000000000000901180000000000000       009077090011897404007801181P000006
100000000000000000000009077090011897400000000000000000000000010002100000796501181900000000002            2  01007965011825011800000003001630000000001N090118000000000000000000000000000000000000000000000000000000000000000100000796517800WLADIMIR RODRIGUES                      R:JOSE DA SILVA RIBEIRO - 576 AP.233 - B            05726130                                                            000008
2SR. CAIXA, APOS O VENCIMENTO COBRAR 10% DE MULTA                                NAO RECEBER APOS 30 DIAS DO VENCIMENTO.                                                                                                                                                                                                         09011800000000000000901180000000000000       0090770900118974007965011819000009
100000000000000000000009077090011897400000000000000000000000010002100015110701181200000000002            2  01151107011825011800000002920010000000001N090118000000000000000000000000000000000000000000000000000000000000000100015110751803LILIAN CARRARA DA SILVA CANDIDO         ALAMEDA VICENTE DE CARVALHO - 65 - JARDI            07600000                                                            000011
2SR. CAIXA, APOS O VENCIMENTO COBRAR 10% DE MULTA                                NAO RECEBER APOS 30 DIAS DO VENCIMENTO.                                                                                                                                                                                                         09011800000000000000901180000000000000       0090770900118974151107011812000012
100000000000000000000009077090011897400000000000000000000000010002100005204601181600000000002            2  01052046011825011800000002824560000000001N090118000000000000000000000000000000000000000000000000000000000000000100005204692835RINALDO DA MOTTA                        JOSE CALIXTO DO CARMO - 265 AP.93 - AVIA            11702690                                                            000014
2SR. CAIXA, APOS O VENCIMENTO COBRAR 10% DE MULTA                                NAO RECEBER APOS 30 DIAS DO VENCIMENTO.                                                                                                                                                                                                         09011800000000000000901180000000000000       0090770900118974052046011816000015
100000000000000000000009077090011897400000000000000000000000010002100022090401181100000000002            2  01220904011825011800000002237500000000001N090118000000000000000000000000000000000000000000000000000000000000000100022090439807FELIPE LUCIO LOPES                      RUA JOSE CALIXTO DO CARMO - 265 AP.103 -            11702690                                                            000017
2SR. CAIXA, APOS O VENCIMENTO COBRAR 10% DE MULTA                                NAO RECEBER APOS 30 DIAS DO VENCIMENTO.                                                                                                                                                                                                         09011800000000000000901180000000000000       0090770900118974220904011811000018
100000000000000000000009077090011897400000000000000000000000010002100005677401181P00000000002            2  01056774011825011800000002939170000000001N090118000000000000000000000000000000000000000000000000000000000000000100005677409863ROSA MARIA OLIVIERI MEMOLI              CONSELHEIRO NEBIAS - 1409 - CAMPOS ELISE            01203002                                                            000020
2SR. CAIXA, APOS O VENCIMENTO COBRAR 10% DE MULTA                                NAO RECEBER APOS 30 DIAS DO VENCIMENTO.                                                                                                                                                                                                         09011800000000000000901180000000000000       009077090011897405677401181P000021
100000000000000000000009077090011897400000000000000000000000010002100034771601181200000000002            2  01347716011825011800000002808650000000001N090118000000000000000000000000000000000000000000000000000000000000000100034771609837MARCELO ALEXANDRE CARVALHO              RUA ECAUNA - 222 - JARDIM UMARIZAL - SAO            05754040                                                            000023
2SR. CAIXA, APOS O VENCIMENTO COBRAR 10% DE MULTA                                NAO RECEBER APOS 30 DIAS DO VENCIMENTO.                                                                                                                                                                                                         09011800000000000000901180000000000000       0090770900118974347716011812000024
100000000000000000000009077090011897400000000000000000000000010002100014497901181900000000002            2  01144979011824011800000001876060000000001N090118000000000000000000000000000000000000000000000000000000000000000100014497915816FERNANDO JOSE ARRUDA                    RUA JOSE CALIXTO DO CARMO - 265 AP.113 -            11702690                                                            000026
2SR. CAIXA, APOS O VENCIMENTO COBRAR 10% DE MULTA                                NAO RECEBER APOS 30 DIAS DO VENCIMENTO.                                                                                                                                                                                                         09011800000000000000901180000000000000       0090770900118974144979011819000027
100000000000000000000009077090011897400000000000000000000000010002100027324001181500000000002            2  01273240011824011800000001414890000000001N090118000000000000000000000000000000000000000000000000000000000000000100027324099874LEONARDO BORGES DUARTE SILVA            RUA JOSE CALIXTO DO CARMO - 265 AP.94 -             11702690                                                            000029
2SR. CAIXA, APOS O VENCIMENTO COBRAR 10% DE MULTA                                NAO RECEBER APOS 30 DIAS DO VENCIMENTO.                                                                                                                                                                                                         09011800000000000000901180000000000000       0090770900118974273240011815000030
100000000000000000000009077090011897400000000000000000000000010002100036782001181700000000002            2  01367820011824011800000001362050000000001N090118000000000000000000000000000000000000000000000000000000000000000100036782058871ANA PAULA BUENO DA COSTA                RUA MARIQUITA ARTACHO - 218 CASA 3 - JAR            03716000                                                            000032
2SR. CAIXA, APOS O VENCIMENTO COBRAR 10% DE MULTA                                NAO RECEBER APOS 30 DIAS DO VENCIMENTO.                                                                                                                                                                                                         09011800000000000000901180000000000000       0090770900118974367820011817000033
9                                                                                                                                                                                                                                                                                                                                                                                                         000034