01REMESSA01COBRANCA       00000000000004991454AIRES CONSTRUTORA E INCORPORAD237BRADESCO       010620        MX0000157                                                                                                                                                                                                                                                                                     000001
100000000000000000000009077090001674800000000000000000000000010002100099740406201500000000002            2  01997404062009062000000003264680000000001N010620000000000000000000000000000000000000000000000000000000000000000100099740451853ARNALDO DA SILVA SALES                  RUA ALEGRE - 210 - VILA SAO RAFAEL - GUA            07053100                                                            000002
2SR. CAIXA, APOS O VENCIMENTO COBRAR 10% DE MULTA                                NAO RECEBER APOS 30 DIAS DO VENCIMENTO.                                                                                                                                                                                                         01062000000000000000106200000000000000       0090770900016748997404062015000003
100000000000000000000009077090001674800000000000000000000000010002100044380706201P00000000002            2  01443807062009062000000005266290000000001N010620000000000000000000000000000000000000000000000000000000000000000100044380725812FERNANDO FIRMINO DOS SANTOS             RUA BARAO GERALDO DE RESENDE - 401 - BAI            05205220                                                            000005
2SR. CAIXA, APOS O VENCIMENTO COBRAR 10% DE MULTA                                NAO RECEBER APOS 30 DIAS DO VENCIMENTO.                                                                                                                                                                                                         01062000000000000000106200000000000000       009077090001674844380706201P000006
100000000000000000000009077090001674800000000000000000000000010002100025469406201000000000002            2  01254694062009062000000001639290000000001N010620000000000000000000000000000000000000000000000000000000000000000100025469470873JULIA MARIA RODRIGUES MARTINS           AVENIDA JOAO FIRMINO - 1229 AP.21 - BAIR            09810260                                                            000008
2SR. CAIXA, APOS O VENCIMENTO COBRAR 10% DE MULTA                                NAO RECEBER APOS 30 DIAS DO VENCIMENTO.                                                                                                                                                                                                         01062000000000000000106200000000000000       0090770900016748254694062010000009
100000000000000000000009077090001674800000000000000000000000010002100004759506201100000000002            2  01047595062009062000000003968900000000001N010620000000000000000000000000000000000000000000000000000000000000000100004759534873AGNALDO PORFIRIO DOS SANTOS             RUA JUVENCIO GASPAR DA SILVA - 35 - SAO             04303060                                                            000011
2SR. CAIXA, APOS O VENCIMENTO COBRAR 10% DE MULTA                                NAO RECEBER APOS 30 DIAS DO VENCIMENTO.                                                                                                                                                                                                         01062000000000000000106200000000000000       0090770900016748047595062011000012
100000000000000000000009077090001674800000000000000000000000010002100090830406201500000000002            2  01908304062009062000000001251230000000001N010620000000000000000000000000000000000000000000000000000000000000000100090830490868IVONETE FERNANDES                       AVENIDA FREDERICO OZANAN - 5504 - VILA R            13215276                                                            000014
2SR. CAIXA, APOS O VENCIMENTO COBRAR 10% DE MULTA                                NAO RECEBER APOS 30 DIAS DO VENCIMENTO.                                                                                                                                                                                                         01062000000000000000106200000000000000       0090770900016748908304062015000015
100000000000000000000009077090001674800000000000000000000000010002100027093906201700000000002            2  01270939062009062000000003101830000000001N010620000000000000000000000000000000000000000000000000000000000000000100027093944809DAVID ALEXANDRE XAVIER ROCHA            RUA MONTE CASTELO - 296 AP.54 - AVIACAO             11702720                                                            000017
2SR. CAIXA, APOS O VENCIMENTO COBRAR 10% DE MULTA                                NAO RECEBER APOS 30 DIAS DO VENCIMENTO.                                                                                                                                                                                                         01062000000000000000106200000000000000       0090770900016748270939062017000018
100000000000000000000009077090001674800000000000000000000000010002100068273206201300000000002            2  01682732062009062000000002257910000000001N010620000000000000000000000000000000000000000000000000000000000000000100068273290891DERNEVAL JOSE MUNIZ                     RUA MARTINOPOLIS - 98 - JARDIM OTAWA - G            07230230                                                            000020
2SR. CAIXA, APOS O VENCIMENTO COBRAR 10% DE MULTA                                NAO RECEBER APOS 30 DIAS DO VENCIMENTO.                                                                                                                                                                                                         01062000000000000000106200000000000000       0090770900016748682732062013000021
100000000000000000000009077090001674800000000000000000000000010002100001817506201600000000002            2  01018175062009062000000001929660000000001N010620000000000000000000000000000000000000000000000000000000000000000100001817534807SANTINA SALVINA SOARES                  RUA CAIAPOS - 1066 AP.43 - VILA TUPI - P            11703320                                                            000023
2SR. CAIXA, APOS O VENCIMENTO COBRAR 10% DE MULTA                                NAO RECEBER APOS 30 DIAS DO VENCIMENTO.                                                                                                                                                                                                         01062000000000000000106200000000000000       0090770900016748018175062016000024
100000000000000000000009077090001674800000000000000000000000010002100086755706201300000000002            2  01867557062009062000000002084680000000001N010620000000000000000000000000000000000000000000000000000000000000000100086755790800GERALDO JAIR BROGLIATTO                 DR.ARMANDO COSTA MAGALHAES - 176 - VILA             13270490                                                            000026
2SR. CAIXA, APOS O VENCIMENTO COBRAR 10% DE MULTA                                NAO RECEBER APOS 30 DIAS DO VENCIMENTO.                                                                                                                                                                                                         01062000000000000000106200000000000000       0090770900016748867557062013000027
100000000000000000000009077090001674800000000000000000000000010002100007996006201700000000002            2  01079960062009062000000002070910000000001N010620000000000000000000000000000000000000000000000000000000000000000100007996062862HENRIQUE SALVADOR                       RUA DARDANELOS - 689 - PARQUE NOVO ORATO            09260060                                                            000029
2SR. CAIXA, APOS O VENCIMENTO COBRAR 10% DE MULTA                                NAO RECEBER APOS 30 DIAS DO VENCIMENTO.                                                                                                                                                                                                         01062000000000000000106200000000000000       0090770900016748079960062017000030
100000000000000000000009077090001674800000000000000000000000010002100010066006201400000000002            2  01100660062009062000000002774310000000001N010620000000000000000000000000000000000000000000000000000000000000000100010066071534MOISES ROQUE DO ROSARIO                 RUA DAS PAPOULAS - 53 - VILA BELA - SAO             03202010                                                            000032
2SR. CAIXA, APOS O VENCIMENTO COBRAR 10% DE MULTA                                NAO RECEBER APOS 30 DIAS DO VENCIMENTO.                                                                                                                                                                                                         01062000000000000000106200000000000000       0090770900016748100660062014000033
100000000000000000000009077090001674800000000000000000000000010002100085910006201500000000002            2  01859100062009062000000003165580000000001N010620000000000000000000000000000000000000000000000000000000000000000100085910031872SERGIO NOGUEIRA                         RUA MONTE CASTELO - 262 AP.55 - AVIACAO             11702720                                                            000035
2SR. CAIXA, APOS O VENCIMENTO COBRAR 10% DE MULTA                                NAO RECEBER APOS 30 DIAS DO VENCIMENTO.                                                                                                                                                                                                         01062000000000000000106200000000000000       0090770900016748859100062015000036
100000000000000000000009077090001674800000000000000000000000010002100000746806201900000000002            2  01007468062009062000000002559270000000001N010620000000000000000000000000000000000000000000000000000000000000000100000746845820ANTONIO CARLOS DE MELLO                 RUA CONGO - 118 - PARQUE MONTE ALEGRE -             06756270                                                            000038
2SR. CAIXA, APOS O VENCIMENTO COBRAR 10% DE MULTA                                NAO RECEBER APOS 30 DIAS DO VENCIMENTO.                                                                                                                                                                                                         01062000000000000000106200000000000000       0090770900016748007468062019000039
100000000000000000000009077090001674800000000000000000000000010002100028196106201400000000002            2  01281961062009062000000001842900000000001N010620000000000000000000000000000000000000000000000000000000000000000100028196184808VANESSA NOGUEIRA CAMBUI DA SILVA        CRISTOVAO COLOMBO - 217 - VILA AMERICA -            09110160                                                            000041
2SR. CAIXA, APOS O VENCIMENTO COBRAR 10% DE MULTA                                NAO RECEBER APOS 30 DIAS DO VENCIMENTO.                                                                                                                                                                                                         01062000000000000000106200000000000000       0090770900016748281961062014000042
100000000000000000000009077090001674800000000000000000000000010002100049730806201P00000000002            2  01497308062009062000000001512780000000001N010620000000000000000000000000000000000000000000000000000000000000000100049730835420PEDRO LUIZ DO BOM FIM FILHO             RUA NASCER DO SOL - 91 - BAIRRO PIRAPORI            09951475                                                            000044
2SR. CAIXA, APOS O VENCIMENTO COBRAR 10% DE MULTA                                NAO RECEBER APOS 30 DIAS DO VENCIMENTO.                                                                                                                                                                                                         01062000000000000000106200000000000000       009077090001674849730806201P000045
100000000000000000000009077090001674800000000000000000000000010002100027067006201500000000002            2  01270670062009062000000001876890000000001N010620000000000000000000000000000000000000000000000000000000000000000100027067002893MARCIA NASCIMENTO DE MORAES             RUA MONTE CASTELO - 296 AP.11 - AVIACAO             11702720                                                            000047
2SR. CAIXA, APOS O VENCIMENTO COBRAR 10% DE MULTA                                NAO RECEBER APOS 30 DIAS DO VENCIMENTO.                                                                                                                                                                                                         01062000000000000000106200000000000000       0090770900016748270670062015000048
100000000000000000000009077090001674800000000000000000000000010002100094921806201900000000002            2  01949218062009062000000001862920000000001N010620000000000000000000000000000000000000000000000000000000000000000100094921890897JOAO JORGE DA ROSA FILHO                RUA OLAVO EGIDIO DE SOUZA ARANHA - 368 A            03822000                                                            000050
2SR. CAIXA, APOS O VENCIMENTO COBRAR 10% DE MULTA                                NAO RECEBER APOS 30 DIAS DO VENCIMENTO.                                                                                                                                                                                                         01062000000000000000106200000000000000       0090770900016748949218062019000051
100000000000000000000009077090001674800000000000000000000000010002100008364806201500000000002            2  01083648062009062000000002259990000000001N010620000000000000000000000000000000000000000000000000000000000000000100008364834800JOSEFINA CORREA RAMA DOS SANTOS         AVENIDA PRESIDENTE CASTELO BRANCO - 3.78            11702700                                                            000053
2SR. CAIXA, APOS O VENCIMENTO COBRAR 10% DE MULTA                                NAO RECEBER APOS 30 DIAS DO VENCIMENTO.                                                                                                                                                                                                         01062000000000000000106200000000000000       0090770900016748083648062015000054
100000000000000000000009077090001674800000000000000000000000010002100037713306201600000000002            2  01377133062009062000000001849050000000001N010620000000000000000000000000000000000000000000000000000000000000000100037713356800JAMILLE PAULA BUENO LOPES               RUA CURIO (COND.NEW VILLE) - 172 - SURU             06509031                                                            000056
2SR. CAIXA, APOS O VENCIMENTO COBRAR 10% DE MULTA                                NAO RECEBER APOS 30 DIAS DO VENCIMENTO.                                                                                                                                                                                                         01062000000000000000106200000000000000       0090770900016748377133062016000057
100000000000000000000009077090001674800000000000000000000000010002100027100906201300000000002            2  01271009062009062000000002154180000000001N010620000000000000000000000000000000000000000000000000000000000000000100027100951810MARCIA RAMALHO RODRIGUES                RUA MONTE CASTELO - 296 AP.82 - AVIACAO             11702720                                                            000059
2SR. CAIXA, APOS O VENCIMENTO COBRAR 10% DE MULTA                                NAO RECEBER APOS 30 DIAS DO VENCIMENTO.                                                                                                                                                                                                         01062000000000000000106200000000000000       0090770900016748271009062013000060
100000000000000000000009077090001674800000000000000000000000010002100076207906201400000000002            2  01762079062009062000000002323220000000001N010620000000000000000000000000000000000000000000000000000000000000000100076207943872JOSE MACEDO RICARTE FILHO               RUA ARTUR LOBO - 181 - JARDIM JABAQUARA             04384060                                                            000062
2SR. CAIXA, APOS O VENCIMENTO COBRAR 10% DE MULTA                                NAO RECEBER APOS 30 DIAS DO VENCIMENTO.                                                                                                                                                                                                         01062000000000000000106200000000000000       0090770900016748762079062014000063
100000000000000000000009077090001674800000000000000000000000010002100094672606201700000000002            2  01946726062009062000000002933980000000001N010620000000000000000000000000000000000000000000000000000000000000000100094672660834JOSE HENRIQUE SOARES PEREIRA INACIO     RUA MONTE CASTELO - 296 AP.34 - AVIACAO             11702720                                                            000065
2SR. CAIXA, APOS O VENCIMENTO COBRAR 10% DE MULTA                                NAO RECEBER APOS 30 DIAS DO VENCIMENTO.                                                                                                                                                                                                         01062000000000000000106200000000000000       0090770900016748946726062017000066
100000000000000000000009077090001674800000000000000000000000010002100025265206201800000000002            2  01252652062009062000000001595240000000001N010620000000000000000000000000000000000000000000000000000000000000000100025265260862SONIA MARIA CECILIO DA SILVA            RUA PRESIDENTE TANCREDO NEVES - 1093 AP.            06329350                                                            000068
2SR. CAIXA, APOS O VENCIMENTO COBRAR 10% DE MULTA                                NAO RECEBER APOS 30 DIAS DO VENCIMENTO.                                                                                                                                                                                                         01062000000000000000106200000000000000       0090770900016748252652062018000069
100000000000000000000009077090001674800000000000000000000000010002100011381906201500000000002            2  01113819062009062000000003040440000000001N010620000000000000000000000000000000000000000000000000000000000000000100011381987818MARIO DONIZETE MIGUEL DA SILVA          RUA JASPE - 215 - HIGIANOPOLIS - JANDIRA            06642270                                                            000071
2SR. CAIXA, APOS O VENCIMENTO COBRAR 10% DE MULTA                                NAO RECEBER APOS 30 DIAS DO VENCIMENTO.                                                                                                                                                                                                         01062000000000000000106200000000000000       0090770900016748113819062015000072
100000000000000000000009077090001674800000000000000000000000010002100020105506201100000000002            2  01201055062009062000000002464530000000001N010620000000000000000000000000000000000000000000000000000000000000000100020105503827VALTER DE SOUSA LIBARINO FILHO          RUA DAS PAINEIRAS - 140 - BAIRRO LARANJE            07741205                                                            000074
2SR. CAIXA, APOS O VENCIMENTO COBRAR 10% DE MULTA                                NAO RECEBER APOS 30 DIAS DO VENCIMENTO.                                                                                                                                                                                                         01062000000000000000106200000000000000       0090770900016748201055062011000075
100000000000000000000009077090001674800000000000000000000000010002100003010506201900000000002            2  01030105062009062000000002662930000000001N010620000000000000000000000000000000000000000000000000000000000000000100003010502877GIZELA VIEIRA BARROS                    RUA GIACOMO DALCIN - 157 - NOVA GERTY -             09580350                                                            000077
2SR. CAIXA, APOS O VENCIMENTO COBRAR 10% DE MULTA                                NAO RECEBER APOS 30 DIAS DO VENCIMENTO.                                                                                                                                                                                                         01062000000000000000106200000000000000       0090770900016748030105062019000078
100000000000000000000009077090001674800000000000000000000000010002100036712506201P00000000002            2  01367125062009062000000001983660000000001N010620000000000000000000000000000000000000000000000000000000000000000100036712580803WALTER BARRETO DE ALMEIDA               RUA MONTE CASTELO - 296 AP.44 - AVIACAO             11702720                                                            000080
2SR. CAIXA, APOS O VENCIMENTO COBRAR 10% DE MULTA                                NAO RECEBER APOS 30 DIAS DO VENCIMENTO.                                                                                                                                                                                                         01062000000000000000106200000000000000       009077090001674836712506201P000081
9                                                                                                                                                                                                                                                                                                                                                                                                         000082