01REMESSA01COBRANCA       00000000000004991788AIRES DESENVOLVIMENTO IMOBILIA237BRADESCO       091117        MX0000116                                                                                                                                                                                                                                                                                     000001
100000000000000000000009077090011897400000000000000000000000010002100011088011171200000000002            2  01110880111725111700000001831090000000001N091117000000000000000000000000000000000000000000000000000000000000000100011088018890LUIZ CARLOS VITORINO MADEIRA            RUA JOSE CALIXTO DO CARMO - 265 AP. 32 -            11702690                                                            000002
2SR. CAIXA, APOS O VENCIMENTO COBRAR 10% DE MULTA                                NAO RECEBER APOS 30 DIAS DO VENCIMENTO.                                                                                                                                                                                                         09111700000000000000911170000000000000       0090770900118974110880111712000003
100000000000000000000009077090011897400000000000000000000000010002100004007811171700000000002            2  01040078111725111700000002664470000000001N091117000000000000000000000000000000000000000000000000000000000000000100004007807809CLAUDIO CANESCHI                        RUA AGRESTE  DE ITABAINA - 663 - VILA UN            03683000                                                            000005
2SR. CAIXA, APOS O VENCIMENTO COBRAR 10% DE MULTA                                NAO RECEBER APOS 30 DIAS DO VENCIMENTO.                                                                                                                                                                                                         09111700000000000000911170000000000000       0090770900118974040078111717000006
100000000000000000000009077090011897400000000000000000000000010002100025998411171800000000002            2  01259984111725111700000002449750000000001N091117000000000000000000000000000000000000000000000000000000000000000100025998413806CELESTE ERMELINDA NEVES DA SILVA        RUA CIRO CARNEIRO - 920 - JARDIM GUILHER            11702220                                                            000008
2SR. CAIXA, APOS O VENCIMENTO COBRAR 10% DE MULTA                                NAO RECEBER APOS 30 DIAS DO VENCIMENTO.                                                                                                                                                                                                         09111700000000000000911170000000000000       0090770900118974259984111718000009
100000000000000000000009077090011897400000000000000000000000010002100000796511171600000000002            2  01007965111725111700000002971840000000001N091117000000000000000000000000000000000000000000000000000000000000000100000796517800WLADIMIR RODRIGUES                      R:JOSE DA SILVA RIBEIRO - 576 AP.233 - B            05726130                                                            000011
2SR. CAIXA, APOS O VENCIMENTO COBRAR 10% DE MULTA                                NAO RECEBER APOS 30 DIAS DO VENCIMENTO.                                                                                                                                                                                                         09111700000000000000911170000000000000       0090770900118974007965111716000012
100000000000000000000009077090011897400000000000000000000000010002100015110711171P00000000002            2  01151107111725111700000002891020000000001N091117000000000000000000000000000000000000000000000000000000000000000100015110751803LILIAN CARRARA DA SILVA CANDIDO         ALAMEDA VICENTE DE CARVALHO - 65 - JARDI            07600000                                                            000014
2SR. CAIXA, APOS O VENCIMENTO COBRAR 10% DE MULTA                                NAO RECEBER APOS 30 DIAS DO VENCIMENTO.                                                                                                                                                                                                         09111700000000000000911170000000000000       009077090011897415110711171P000015
100000000000000000000009077090011897400000000000000000000000010002100005204611171300000000002            2  01052046111725111700000002796530000000001N091117000000000000000000000000000000000000000000000000000000000000000100005204692835RINALDO DA MOTTA                        JOSE CALIXTO DO CARMO - 265 AP.93 - AVIA            11702690                                                            000017
2SR. CAIXA, APOS O VENCIMENTO COBRAR 10% DE MULTA                                NAO RECEBER APOS 30 DIAS DO VENCIMENTO.                                                                                                                                                                                                         09111700000000000000911170000000000000       0090770900118974052046111713000018
100000000000000000000009077090011897400000000000000000000000010002100022090411171900000000002            2  01220904111725111700000002215290000000001N091117000000000000000000000000000000000000000000000000000000000000000100022090439807FELIPE LUCIO LOPES                      RUA JOSE CALIXTO DO CARMO - 265 AP.103 -            11702690                                                            000020
2SR. CAIXA, APOS O VENCIMENTO COBRAR 10% DE MULTA                                NAO RECEBER APOS 30 DIAS DO VENCIMENTO.                                                                                                                                                                                                         09111700000000000000911170000000000000       0090770900118974220904111719000021
100000000000000000000009077090011897400000000000000000000000010002100070237811171100000000002            2  01702378111725111700000002855050000000001N091117000000000000000000000000000000000000000000000000000000000000000100070237824434ANTONIO FERREIRA NETO                   RUA HENRIQUE MINDLIM - 161 - JD. ORIENTA            04349250                                                            000023
2SR. CAIXA, APOS O VENCIMENTO COBRAR 10% DE MULTA                                NAO RECEBER APOS 30 DIAS DO VENCIMENTO.                                                                                                                                                                                                         09111700000000000000911170000000000000       0090770900118974702378111711000024
100000000000000000000009077090011897400000000000000000000000010002100005677411171700000000002            2  01056774111725111700000002910000000000001N091117000000000000000000000000000000000000000000000000000000000000000100005677409863ROSA MARIA OLIVIERI MEMOLI              CONSELHEIRO NEBIAS - 1409 - CAMPOS ELISE            01203002                                                            000026
2SR. CAIXA, APOS O VENCIMENTO COBRAR 10% DE MULTA                                NAO RECEBER APOS 30 DIAS DO VENCIMENTO.                                                                                                                                                                                                         09111700000000000000911170000000000000       0090770900118974056774111717000027
100000000000000000000009077090011897400000000000000000000000010002100034771611171P00000000002            2  01347716111725111700000002780780000000001N091117000000000000000000000000000000000000000000000000000000000000000100034771609837MARCELO ALEXANDRE CARVALHO              RUA ECAUNA - 222 - JARDIM UMARIZAL - SAO            05754040                                                            000029
2SR. CAIXA, APOS O VENCIMENTO COBRAR 10% DE MULTA                                NAO RECEBER APOS 30 DIAS DO VENCIMENTO.                                                                                                                                                                                                         09111700000000000000911170000000000000       009077090011897434771611171P000030
100000000000000000000009077090011897400000000000000000000000010002100014497911171600000000002            2  01144979111724111700000001848230000000001N091117000000000000000000000000000000000000000000000000000000000000000100014497915816FERNANDO JOSE ARRUDA                    RUA JOSE CALIXTO DO CARMO - 265 AP.113 -            11702690                                                            000032
2SR. CAIXA, APOS O VENCIMENTO COBRAR 10% DE MULTA                                NAO RECEBER APOS 30 DIAS DO VENCIMENTO.                                                                                                                                                                                                         09111700000000000000911170000000000000       0090770900118974144979111716000033
100000000000000000000009077090011897400000000000000000000000010002100027324011171200000000002            2  01273240111724111700000001393910000000001N091117000000000000000000000000000000000000000000000000000000000000000100027324099874LEONARDO BORGES DUARTE SILVA            RUA JOSE CALIXTO DO CARMO - 265 AP.94 -             11702690                                                            000035
2SR. CAIXA, APOS O VENCIMENTO COBRAR 10% DE MULTA                                NAO RECEBER APOS 30 DIAS DO VENCIMENTO.                                                                                                                                                                                                         09111700000000000000911170000000000000       0090770900118974273240111712000036
100000000000000000000009077090011897400000000000000000000000010002100036782011171400000000002            2  01367820111724111700000001341850000000001N091117000000000000000000000000000000000000000000000000000000000000000100036782058871ANA PAULA BUENO DA COSTA                RUA MARIQUITA ARTACHO - 218 CASA 3 - JAR            03716000                                                            000038
2SR. CAIXA, APOS O VENCIMENTO COBRAR 10% DE MULTA                                NAO RECEBER APOS 30 DIAS DO VENCIMENTO.                                                                                                                                                                                                         09111700000000000000911170000000000000       0090770900118974367820111714000039
9                                                                                                                                                                                                                                                                                                                                                                                                         000040