01REMESSA01COBRANCA       00000000000004991788AIRES DESENVOLVIMENTO IMOBILIA237BRADESCO       010419        MX0000150                                                                                                                                                                                                                                                                                     000001
100000000000000000000009077090011897400000000000000000000000010002100012708304191100000000002            2  01127083041910041900000001709130000000001N010419000000000000000000000000000000000000000000000000000000000000000100012708342827ADRIANA RATIER CRUZ                     RUA JOSE CALIXTO DO CARMO - 295 APTO 31             11702690                                                            000002
2SR. CAIXA, APOS O VENCIMENTO COBRAR 10% DE MULTA                                NAO RECEBER APOS 30 DIAS DO VENCIMENTO.                                                                                                                                                                                                         01041900000000000000104190000000000000       0090770900118974127083041911000003
100000000000000000000009077090011897400000000000000000000000010002100000452404191800000000002            2  01004524041910041900000001337670000000001N010419000000000000000000000000000000000000000000000000000000000000000100000452415896MARILUCE SANTOS DE ALMEIDA              RUA JOSE CALIXTO DO CARMO - 295 AP.74 -             11702690                                                            000005
2SR. CAIXA, APOS O VENCIMENTO COBRAR 10% DE MULTA                                NAO RECEBER APOS 30 DIAS DO VENCIMENTO.                                                                                                                                                                                                         01041900000000000000104190000000000000       0090770900118974004524041918000006
100000000000000000000009077090011897400000000000000000000000010002100003406904191900000000002            2  01034069041909041900000001504040000000001N010419000000000000000000000000000000000000000000000000000000000000000100003406972888RONALDO CANDIDO PANSONATO               AV. DOM JAIME DE BARROS CAMERA - 565 AP.            09895400                                                            000008
2SR. CAIXA, APOS O VENCIMENTO COBRAR 10% DE MULTA                                NAO RECEBER APOS 30 DIAS DO VENCIMENTO.                                                                                                                                                                                                         01041900000000000000104190000000000000       0090770900118974034069041919000009
100000000000000000000009077090011897400000000000000000000000010002100013191204191300000000002            2  01131912041911041900000001800000000000001N010419000000000000000000000000000000000000000000000000000000000000000100013191291881MARCELO RICARDO MASCAROS SOUTO          RUA MONTE CASTELO - 295 AP.102 - AVIACAO            11702720                                                            000011
2SR. CAIXA, APOS O VENCIMENTO COBRAR 10% DE MULTA                                NAO RECEBER APOS 30 DIAS DO VENCIMENTO.                                                                                                                                                                                                         01041900000000000000104190000000000000       0090770900118974131912041913000012
100000000000000000000009077090011897400000000000000000000000010002100028379804191000000000002            2  01283798041901041900000003434490000000001N010419000000000000000000000000000000000000000000000000000000000000000100028379879805EDMILSON DANIEL GARCIA WATANUKI         AV.PRESIDENTE CASTELO BRANCO - 4718 LOJA            11702700                                                            000014
2SR. CAIXA, APOS O VENCIMENTO COBRAR 10% DE MULTA                                NAO RECEBER APOS 30 DIAS DO VENCIMENTO.                                                                                                                                                                                                         01041900000000000000104190000000000000       0090770900118974283798041910000015
100000000000000000000009077090011897400000000000000000000000010002100039262504191900000000002            2  01392625041911041900000001600000000000001N010419000000000000000000000000000000000000000000000000000000000000000100039262563892DAVID AUGUSTO DOS SANTOS                RUA CONSELHEIRO ELIAS DE CARVALHO - 50 A            04373000                                                            000017
2SR. CAIXA, APOS O VENCIMENTO COBRAR 10% DE MULTA                                NAO RECEBER APOS 30 DIAS DO VENCIMENTO.                                                                                                                                                                                                         01041900000000000000104190000000000000       0090770900118974392625041919000018
100000000000000000000009077090011897400000000000000000000000010002100037288704191900000000002            2  01372887041911041900000001550000000000001N010419000000000000000000000000000000000000000000000000000000000000000100037288754812EVERTON CARDOSO DOS SANTOS              RUA CONSELHEIRO ELIAS DE CARVALHO - 50 A            04373000                                                            000020
2SR. CAIXA, APOS O VENCIMENTO COBRAR 10% DE MULTA                                NAO RECEBER APOS 30 DIAS DO VENCIMENTO.                                                                                                                                                                                                         01041900000000000000104190000000000000       0090770900118974372887041919000021
100000000000000000000009077090011897400000000000000000000000010002100027102804191400000000002            2  01271028041901041900000001200000000000001N010419000000000000000000000000000000000000000000000000000000000000000100027102897847MICHEL RODRIGO LOPES TORRES             RUA FRANCISCO PEREIRA COUTINHO - 295 - V            11702680                                                            000023
2SR. CAIXA, APOS O VENCIMENTO COBRAR 10% DE MULTA                                NAO RECEBER APOS 30 DIAS DO VENCIMENTO.                                                                                                                                                                                                         01041900000000000000104190000000000000       0090770900118974271028041914000024
9                                                                                                                                                                                                                                                                                                                                                                                                         000025