01REMESSA01COBRANCA       00000000000004991454AIRES CONSTRUTORA E INCORPORAD237BRADESCO       010218        MX0000099                                                                                                                                                                                                                                                                                     000001
100000000000000000000009077090001674800000000000000000000000010002100099740402181500000000002            2  01997404021809021800000002648400000000001N010218000000000000000000000000000000000000000000000000000000000000000100099740451853ARNALDO DA SILVA SALES                  RUA ALEGRE - 210 - VILA SAO RAFAEL - GUA            07053100                                                            000002
2SR. CAIXA, APOS O VENCIMENTO COBRAR 10% DE MULTA                                NAO RECEBER APOS 30 DIAS DO VENCIMENTO.                                                                                                                                                                                                         01021800000000000000102180000000000000       0090770900016748997404021815000003
100000000000000000000009077090001674800000000000000000000000010002100049736702181500000000002            2  01497367021809021800000001607040000000001N010218000000000000000000000000000000000000000000000000000000000000000100049736787320RAIMUNDO VIEIRA DA SILVA                RUA BOLIVIA - 81 AP.ZELADORIA - JARDIM G            11701850                                                            000005
2SR. CAIXA, APOS O VENCIMENTO COBRAR 10% DE MULTA                                NAO RECEBER APOS 30 DIAS DO VENCIMENTO.                                                                                                                                                                                                         01021800000000000000102180000000000000       0090770900016748497367021815000006
100000000000000000000009077090001674800000000000000000000000010002100044380702181P00000000002            2  01443807021809021800000004272130000000001N010218000000000000000000000000000000000000000000000000000000000000000100044380725812FERNANDO FIRMINO DOS SANTOS             RUA BARAO GERALDO DE RESENDE - 401 - BAI            05205220                                                            000008
2SR. CAIXA, APOS O VENCIMENTO COBRAR 10% DE MULTA                                NAO RECEBER APOS 30 DIAS DO VENCIMENTO.                                                                                                                                                                                                         01021800000000000000102180000000000000       009077090001674844380702181P000009
100000000000000000000009077090001674800000000000000000000000010002100025469402181000000000002            2  01254694021809021800000001329830000000001N010218000000000000000000000000000000000000000000000000000000000000000100025469470873JULIA MARIA RODRIGUES MARTINS           AVENIDA JOAO FIRMINO - 1229 AP.21 - BAIR            09810260                                                            000011
2SR. CAIXA, APOS O VENCIMENTO COBRAR 10% DE MULTA                                NAO RECEBER APOS 30 DIAS DO VENCIMENTO.                                                                                                                                                                                                         01021800000000000000102180000000000000       0090770900016748254694021810000012
100000000000000000000009077090001674800000000000000000000000010002100027396102181100000000002            2  01273961021809021800000002021440000000001N010218000000000000000000000000000000000000000000000000000000000000000100027396176824WALDINEA BORGES DIAS                    RUA CAP. JOAQUIM F.PEREIRA - 95 - JARDIM            13710000                                                            000014
2SR. CAIXA, APOS O VENCIMENTO COBRAR 10% DE MULTA                                NAO RECEBER APOS 30 DIAS DO VENCIMENTO.                                                                                                                                                                                                         01021800000000000000102180000000000000       0090770900016748273961021811000015
100000000000000000000009077090001674800000000000000000000000010002100004759502181100000000002            2  01047595021809021800000003219650000000001N010218000000000000000000000000000000000000000000000000000000000000000100004759534873AGNALDO PORFIRIO DOS SANTOS             RUA JUVENCIO GASPAR DA SILVA - 35 - SAO             04303060                                                            000017
2SR. CAIXA, APOS O VENCIMENTO COBRAR 10% DE MULTA                                NAO RECEBER APOS 30 DIAS DO VENCIMENTO.                                                                                                                                                                                                         01021800000000000000102180000000000000       0090770900016748047595021811000018
100000000000000000000009077090001674800000000000000000000000010002100014924002181800000000002            2  01149240021809021800000001735100000000001N010218000000000000000000000000000000000000000000000000000000000000000100014924049859KATIA REGINA DE OLIVEIRA SILVA          RUA ANTONIO SIMIONATO - 73 AP.14 - SANTA            09780180                                                            000020
2SR. CAIXA, APOS O VENCIMENTO COBRAR 10% DE MULTA                                NAO RECEBER APOS 30 DIAS DO VENCIMENTO.                                                                                                                                                                                                         01021800000000000000102180000000000000       0090770900016748149240021818000021
100000000000000000000009077090001674800000000000000000000000010002100090830402181500000000002            2  01908304021809021800000001015030000000001N010218000000000000000000000000000000000000000000000000000000000000000100090830490868IVONETE FERNANDES                       AVENIDA FREDERICO OZANAN - 5504 - VILA R            13215276                                                            000023
2SR. CAIXA, APOS O VENCIMENTO COBRAR 10% DE MULTA                                NAO RECEBER APOS 30 DIAS DO VENCIMENTO.                                                                                                                                                                                                         01021800000000000000102180000000000000       0090770900016748908304021815000024
100000000000000000000009077090001674800000000000000000000000010002100003406902181000000000002            2  01034069021809021800000001354630000000001N010218000000000000000000000000000000000000000000000000000000000000000100003406972888RONALDO CANDIDO PANSONATO               AV. DOM JAIME DE BARROS CAMERA - 565 AP.            09895400                                                            000026
2SR. CAIXA, APOS O VENCIMENTO COBRAR 10% DE MULTA                                NAO RECEBER APOS 30 DIAS DO VENCIMENTO.                                                                                                                                                                                                         01021800000000000000102180000000000000       0090770900016748034069021810000027
100000000000000000000009077090001674800000000000000000000000010002100027093902181700000000002            2  01270939021809021800000002516270000000001N010218000000000000000000000000000000000000000000000000000000000000000100027093944809DAVID ALEXANDRE XAVIER ROCHA            RUA MONTE CASTELO - 296 AP.54 - AVIACAO             11702720                                                            000029
2SR. CAIXA, APOS O VENCIMENTO COBRAR 10% DE MULTA                                NAO RECEBER APOS 30 DIAS DO VENCIMENTO.                                                                                                                                                                                                         01021800000000000000102180000000000000       0090770900016748270939021817000030
100000000000000000000009077090001674800000000000000000000000010002100068273202181300000000002            2  01682732021809021800000001831670000000001N010218000000000000000000000000000000000000000000000000000000000000000100068273290891DERNEVAL JOSE MUNIZ                     RUA MARTINOPOLIS - 98 - JARDIM OTAWA - G            07230230                                                            000032
2SR. CAIXA, APOS O VENCIMENTO COBRAR 10% DE MULTA                                NAO RECEBER APOS 30 DIAS DO VENCIMENTO.                                                                                                                                                                                                         01021800000000000000102180000000000000       0090770900016748682732021813000033
100000000000000000000009077090001674800000000000000000000000010002100001817502181600000000002            2  01018175021809021800000001565370000000001N010218000000000000000000000000000000000000000000000000000000000000000100001817534807SANTINA SALVINA SOARES                  RUA CAIAPOS - 1066 AP.43 - VILA TUPI - P            11703320                                                            000035
2SR. CAIXA, APOS O VENCIMENTO COBRAR 10% DE MULTA                                NAO RECEBER APOS 30 DIAS DO VENCIMENTO.                                                                                                                                                                                                         01021800000000000000102180000000000000       0090770900016748018175021816000036
100000000000000000000009077090001674800000000000000000000000010002100086755702181300000000002            2  01867557021809021800000001691140000000001N010218000000000000000000000000000000000000000000000000000000000000000100086755790800GERALDO JAIR BROGLIATTO                 DR.ARMANDO COSTA MAGALHAES - 176 - VILA             13270490                                                            000038
2SR. CAIXA, APOS O VENCIMENTO COBRAR 10% DE MULTA                                NAO RECEBER APOS 30 DIAS DO VENCIMENTO.                                                                                                                                                                                                         01021800000000000000102180000000000000       0090770900016748867557021813000039
100000000000000000000009077090001674800000000000000000000000010002100013191202181500000000002            2  01131912021811021800000001800000000000001N010218000000000000000000000000000000000000000000000000000000000000000100013191291881MARCELO RICARDO MASCAROS SOUTO          RUA MONTE CASTELO - 295 AP.102 - AVIACAO            11702720                                                            000041
2SR. CAIXA, APOS O VENCIMENTO COBRAR 10% DE MULTA                                NAO RECEBER APOS 30 DIAS DO VENCIMENTO.                                                                                                                                                                                                         01021800000000000000102180000000000000       0090770900016748131912021815000042
100000000000000000000009077090001674800000000000000000000000010002100007996002181700000000002            2  01079960021809021800000001679950000000001N010218000000000000000000000000000000000000000000000000000000000000000100007996062862HENRIQUE SALVADOR                       RUA DARDANELOS - 689 - PARQUE NOVO ORATO            09260060                                                            000044
2SR. CAIXA, APOS O VENCIMENTO COBRAR 10% DE MULTA                                NAO RECEBER APOS 30 DIAS DO VENCIMENTO.                                                                                                                                                                                                         01021800000000000000102180000000000000       0090770900016748079960021817000045
100000000000000000000009077090001674800000000000000000000000010002100010066002181400000000002            2  01100660021809021800000002250580000000001N010218000000000000000000000000000000000000000000000000000000000000000100010066071534MOISES ROQUE DO ROSARIO                 RUA DAS PAPOULAS - 53 - VILA BELA - SAO             03202010                                                            000047
2SR. CAIXA, APOS O VENCIMENTO COBRAR 10% DE MULTA                                NAO RECEBER APOS 30 DIAS DO VENCIMENTO.                                                                                                                                                                                                         01021800000000000000102180000000000000       0090770900016748100660021814000048
100000000000000000000009077090001674800000000000000000000000010002100085910002181500000000002            2  01859100021809021800000002568000000000001N010218000000000000000000000000000000000000000000000000000000000000000100085910031872SERGIO NOGUEIRA                         RUA MONTE CASTELO - 262 AP.55 - AVIACAO             11702720                                                            000050
2SR. CAIXA, APOS O VENCIMENTO COBRAR 10% DE MULTA                                NAO RECEBER APOS 30 DIAS DO VENCIMENTO.                                                                                                                                                                                                         01021800000000000000102180000000000000       0090770900016748859100021815000051
100000000000000000000009077090001674800000000000000000000000010002100000746802181900000000002            2  01007468021809021800000002076140000000001N010218000000000000000000000000000000000000000000000000000000000000000100000746845820ANTONIO CARLOS DE MELLO                 RUA CONGO - 118 - PARQUE MONTE ALEGRE -             06756270                                                            000053
2SR. CAIXA, APOS O VENCIMENTO COBRAR 10% DE MULTA                                NAO RECEBER APOS 30 DIAS DO VENCIMENTO.                                                                                                                                                                                                         01021800000000000000102180000000000000       0090770900016748007468021819000054
100000000000000000000009077090001674800000000000000000000000010002100028196102181400000000002            2  01281961021809021800000001495000000000001N010218000000000000000000000000000000000000000000000000000000000000000100028196184808VANESSA NOGUEIRA CAMBUI DA SILVA        CRISTOVAO COLOMBO - 217 - VILA AMERICA -            09110160                                                            000056
2SR. CAIXA, APOS O VENCIMENTO COBRAR 10% DE MULTA                                NAO RECEBER APOS 30 DIAS DO VENCIMENTO.                                                                                                                                                                                                         01021800000000000000102180000000000000       0090770900016748281961021814000057
100000000000000000000009077090001674800000000000000000000000010002100049730802181P00000000002            2  01497308021809021800000001227210000000001N010218000000000000000000000000000000000000000000000000000000000000000100049730835420PEDRO LUIZ DO BOM FIM FILHO             RUA NASCER DO SOL - 91 - BAIRRO PIRAPORI            09951475                                                            000059
2SR. CAIXA, APOS O VENCIMENTO COBRAR 10% DE MULTA                                NAO RECEBER APOS 30 DIAS DO VENCIMENTO.                                                                                                                                                                                                         01021800000000000000102180000000000000       009077090001674849730802181P000060
100000000000000000000009077090001674800000000000000000000000010002100027067002181500000000002            2  01270670021809021800000001522580000000001N010218000000000000000000000000000000000000000000000000000000000000000100027067002893MARCIA NASCIMENTO DE MORAES             RUA MONTE CASTELO - 296 AP.11 - AVIACAO             11702720                                                            000062
2SR. CAIXA, APOS O VENCIMENTO COBRAR 10% DE MULTA                                NAO RECEBER APOS 30 DIAS DO VENCIMENTO.                                                                                                                                                                                                         01021800000000000000102180000000000000       0090770900016748270670021815000063
100000000000000000000009077090001674800000000000000000000000010002100029238202181200000000002            2  01292382021809021800000001522580000000001N010218000000000000000000000000000000000000000000000000000000000000000100029238280894JURACY DA SILVA                         RUA JACARATINGA - 192 - JARDIM PIRAJUCAR            05786120                                                            000065
2SR. CAIXA, APOS O VENCIMENTO COBRAR 10% DE MULTA                                NAO RECEBER APOS 30 DIAS DO VENCIMENTO.                                                                                                                                                                                                         01021800000000000000102180000000000000       0090770900016748292382021812000066
100000000000000000000009077090001674800000000000000000000000010002100094921802181900000000002            2  01949218021809021800000001511250000000001N010218000000000000000000000000000000000000000000000000000000000000000100094921890897JOAO JORGE DA ROSA FILHO                RUA OLAVO EGIDIO DE SOUZA ARANHA - 368 A            03822000                                                            000068
2SR. CAIXA, APOS O VENCIMENTO COBRAR 10% DE MULTA                                NAO RECEBER APOS 30 DIAS DO VENCIMENTO.                                                                                                                                                                                                         01021800000000000000102180000000000000       0090770900016748949218021819000069
9                                                                                                                                                                                                                                                                                                                                                                                                         000070