01REMESSA01COBRANCA       00000000000004991454AIRES CONSTRUTORA E INCORPORAD237BRADESCO       010719        MX0000135                                                                                                                                                                                                                                                                                     000001
100000000000000000000009077090001674800000000000000000000000010002100099740407191P00000000002            2  01997404071909071900000003007100000000001N010719000000000000000000000000000000000000000000000000000000000000000100099740451853ARNALDO DA SILVA SALES                  RUA ALEGRE - 210 - VILA SAO RAFAEL - GUA            07053100                                                            000002
2SR. CAIXA, APOS O VENCIMENTO COBRAR 10% DE MULTA                                NAO RECEBER APOS 30 DIAS DO VENCIMENTO.                                                                                                                                                                                                         01071900000000000000107190000000000000       009077090001674899740407191P000003
100000000000000000000009077090001674800000000000000000000000010002100026984107191500000000002            2  01269841071909071900000001824700000000001N010719000000000000000000000000000000000000000000000000000000000000000100026984181844GISELE APARECIDA MAGALHAES              RUA GRACILIANO RAMOS - 181 - BAIRRO SAO             09581410                                                            000005
2SR. CAIXA, APOS O VENCIMENTO COBRAR 10% DE MULTA                                NAO RECEBER APOS 30 DIAS DO VENCIMENTO.                                                                                                                                                                                                         01071900000000000000107190000000000000       0090770900016748269841071915000006
100000000000000000000009077090001674800000000000000000000000010002100044380707191400000000002            2  01443807071909071900000004850760000000001N010719000000000000000000000000000000000000000000000000000000000000000100044380725812FERNANDO FIRMINO DOS SANTOS             RUA BARAO GERALDO DE RESENDE - 401 - BAI            05205220                                                            000008
2SR. CAIXA, APOS O VENCIMENTO COBRAR 10% DE MULTA                                NAO RECEBER APOS 30 DIAS DO VENCIMENTO.                                                                                                                                                                                                         01071900000000000000107190000000000000       0090770900016748443807071914000009
100000000000000000000009077090001674800000000000000000000000010002100025469407191500000000002            2  01254694071909071900000001509950000000001N010719000000000000000000000000000000000000000000000000000000000000000100025469470873JULIA MARIA RODRIGUES MARTINS           AVENIDA JOAO FIRMINO - 1229 AP.21 - BAIR            09810260                                                            000011
2SR. CAIXA, APOS O VENCIMENTO COBRAR 10% DE MULTA                                NAO RECEBER APOS 30 DIAS DO VENCIMENTO.                                                                                                                                                                                                         01071900000000000000107190000000000000       0090770900016748254694071915000012
100000000000000000000009077090001674800000000000000000000000010002100004759507191600000000002            2  01047595071909071900000003655720000000001N010719000000000000000000000000000000000000000000000000000000000000000100004759534873AGNALDO PORFIRIO DOS SANTOS             RUA JUVENCIO GASPAR DA SILVA - 35 - SAO             04303060                                                            000014
2SR. CAIXA, APOS O VENCIMENTO COBRAR 10% DE MULTA                                NAO RECEBER APOS 30 DIAS DO VENCIMENTO.                                                                                                                                                                                                         01071900000000000000107190000000000000       0090770900016748047595071916000015
100000000000000000000009077090001674800000000000000000000000010002100090830407191P00000000002            2  01908304071909071900000001152500000000001N010719000000000000000000000000000000000000000000000000000000000000000100090830490868IVONETE FERNANDES                       AVENIDA FREDERICO OZANAN - 5504 - VILA R            13215276                                                            000017
2SR. CAIXA, APOS O VENCIMENTO COBRAR 10% DE MULTA                                NAO RECEBER APOS 30 DIAS DO VENCIMENTO.                                                                                                                                                                                                         01071900000000000000107190000000000000       009077090001674890830407191P000018
100000000000000000000009077090001674800000000000000000000000010002100027093907191100000000002            2  01270939071909071900000002857080000000001N010719000000000000000000000000000000000000000000000000000000000000000100027093944809DAVID ALEXANDRE XAVIER ROCHA            RUA MONTE CASTELO - 296 AP.54 - AVIACAO             11702720                                                            000020
2SR. CAIXA, APOS O VENCIMENTO COBRAR 10% DE MULTA                                NAO RECEBER APOS 30 DIAS DO VENCIMENTO.                                                                                                                                                                                                         01071900000000000000107190000000000000       0090770900016748270939071911000021
100000000000000000000009077090001674800000000000000000000000010002100068273207191800000000002            2  01682732071909071900000002079750000000001N010719000000000000000000000000000000000000000000000000000000000000000100068273290891DERNEVAL JOSE MUNIZ                     RUA MARTINOPOLIS - 98 - JARDIM OTAWA - G            07230230                                                            000023
2SR. CAIXA, APOS O VENCIMENTO COBRAR 10% DE MULTA                                NAO RECEBER APOS 30 DIAS DO VENCIMENTO.                                                                                                                                                                                                         01071900000000000000107190000000000000       0090770900016748682732071918000024
100000000000000000000009077090001674800000000000000000000000010002100001817507191000000000002            2  01018175071909071900000001777410000000001N010719000000000000000000000000000000000000000000000000000000000000000100001817534807SANTINA SALVINA SOARES                  RUA CAIAPOS - 1066 AP.43 - VILA TUPI - P            11703320                                                            000026
2SR. CAIXA, APOS O VENCIMENTO COBRAR 10% DE MULTA                                NAO RECEBER APOS 30 DIAS DO VENCIMENTO.                                                                                                                                                                                                         01071900000000000000107190000000000000       0090770900016748018175071910000027
100000000000000000000009077090001674800000000000000000000000010002100086755707191800000000002            2  01867557071909071900000001920190000000001N010719000000000000000000000000000000000000000000000000000000000000000100086755790800GERALDO JAIR BROGLIATTO                 DR.ARMANDO COSTA MAGALHAES - 176 - VILA             13270490                                                            000029
2SR. CAIXA, APOS O VENCIMENTO COBRAR 10% DE MULTA                                NAO RECEBER APOS 30 DIAS DO VENCIMENTO.                                                                                                                                                                                                         01071900000000000000107190000000000000       0090770900016748867557071918000030
100000000000000000000009077090001674800000000000000000000000010002100007996007191100000000002            2  01079960071909071900000001907510000000001N010719000000000000000000000000000000000000000000000000000000000000000100007996062862HENRIQUE SALVADOR                       RUA DARDANELOS - 689 - PARQUE NOVO ORATO            09260060                                                            000032
2SR. CAIXA, APOS O VENCIMENTO COBRAR 10% DE MULTA                                NAO RECEBER APOS 30 DIAS DO VENCIMENTO.                                                                                                                                                                                                         01071900000000000000107190000000000000       0090770900016748079960071911000033
100000000000000000000009077090001674800000000000000000000000010002100010066007191900000000002            2  01100660071909071900000002555400000000001N010719000000000000000000000000000000000000000000000000000000000000000100010066071534MOISES ROQUE DO ROSARIO                 RUA DAS PAPOULAS - 53 - VILA BELA - SAO             03202010                                                            000035
2SR. CAIXA, APOS O VENCIMENTO COBRAR 10% DE MULTA                                NAO RECEBER APOS 30 DIAS DO VENCIMENTO.                                                                                                                                                                                                         01071900000000000000107190000000000000       0090770900016748100660071919000036
100000000000000000000009077090001674800000000000000000000000010002100085910007191P00000000002            2  01859100071909071900000002915800000000001N010719000000000000000000000000000000000000000000000000000000000000000100085910031872SERGIO NOGUEIRA                         RUA MONTE CASTELO - 262 AP.55 - AVIACAO             11702720                                                            000038
2SR. CAIXA, APOS O VENCIMENTO COBRAR 10% DE MULTA                                NAO RECEBER APOS 30 DIAS DO VENCIMENTO.                                                                                                                                                                                                         01071900000000000000107190000000000000       009077090001674885910007191P000039
100000000000000000000009077090001674800000000000000000000000010002100000746807191300000000002            2  01007468071909071900000002357330000000001N010719000000000000000000000000000000000000000000000000000000000000000100000746845820ANTONIO CARLOS DE MELLO                 RUA CONGO - 118 - PARQUE MONTE ALEGRE -             06756270                                                            000041
2SR. CAIXA, APOS O VENCIMENTO COBRAR 10% DE MULTA                                NAO RECEBER APOS 30 DIAS DO VENCIMENTO.                                                                                                                                                                                                         01071900000000000000107190000000000000       0090770900016748007468071913000042
100000000000000000000009077090001674800000000000000000000000010002100028196107191900000000002            2  01281961071909071900000001697480000000001N010719000000000000000000000000000000000000000000000000000000000000000100028196184808VANESSA NOGUEIRA CAMBUI DA SILVA        CRISTOVAO COLOMBO - 217 - VILA AMERICA -            09110160                                                            000044
2SR. CAIXA, APOS O VENCIMENTO COBRAR 10% DE MULTA                                NAO RECEBER APOS 30 DIAS DO VENCIMENTO.                                                                                                                                                                                                         01071900000000000000107190000000000000       0090770900016748281961071919000045
100000000000000000000009077090001674800000000000000000000000010002100049730807191400000000002            2  01497308071909071900000001393410000000001N010719000000000000000000000000000000000000000000000000000000000000000100049730835420PEDRO LUIZ DO BOM FIM FILHO             RUA NASCER DO SOL - 91 - BAIRRO PIRAPORI            09951475                                                            000047
2SR. CAIXA, APOS O VENCIMENTO COBRAR 10% DE MULTA                                NAO RECEBER APOS 30 DIAS DO VENCIMENTO.                                                                                                                                                                                                         01071900000000000000107190000000000000       0090770900016748497308071914000048
100000000000000000000009077090001674800000000000000000000000010002100027067007191P00000000002            2  01270670071909071900000001728800000000001N010719000000000000000000000000000000000000000000000000000000000000000100027067002893MARCIA NASCIMENTO DE MORAES             RUA MONTE CASTELO - 296 AP.11 - AVIACAO             11702720                                                            000050
2SR. CAIXA, APOS O VENCIMENTO COBRAR 10% DE MULTA                                NAO RECEBER APOS 30 DIAS DO VENCIMENTO.                                                                                                                                                                                                         01071900000000000000107190000000000000       009077090001674827067007191P000051
100000000000000000000009077090001674800000000000000000000000010002100064435707191400000000002            2  01644357071909071900000001728800000000001N010719000000000000000000000000000000000000000000000000000000000000000100064435741849JURACY DA SILVA                         RUA JACARATINGA - 192 - JARDIM PIRAJUCAR            05786120                                                            000053
2SR. CAIXA, APOS O VENCIMENTO COBRAR 10% DE MULTA                                NAO RECEBER APOS 30 DIAS DO VENCIMENTO.                                                                                                                                                                                                         01071900000000000000107190000000000000       0090770900016748644357071914000054
100000000000000000000009077090001674800000000000000000000000010002100094921807191300000000002            2  01949218071909071900000001715930000000001N010719000000000000000000000000000000000000000000000000000000000000000100094921890897JOAO JORGE DA ROSA FILHO                RUA OLAVO EGIDIO DE SOUZA ARANHA - 368 A            03822000                                                            000056
2SR. CAIXA, APOS O VENCIMENTO COBRAR 10% DE MULTA                                NAO RECEBER APOS 30 DIAS DO VENCIMENTO.                                                                                                                                                                                                         01071900000000000000107190000000000000       0090770900016748949218071913000057
100000000000000000000009077090001674800000000000000000000000010002100008364807191P00000000002            2  01083648071909071900000002081660000000001N010719000000000000000000000000000000000000000000000000000000000000000100008364834800JOSEFINA CORREA RAMA DOS SANTOS         AVENIDA PRESIDENTE CASTELO BRANCO - 3.78            11702700                                                            000059
2SR. CAIXA, APOS O VENCIMENTO COBRAR 10% DE MULTA                                NAO RECEBER APOS 30 DIAS DO VENCIMENTO.                                                                                                                                                                                                         01071900000000000000107190000000000000       009077090001674808364807191P000060
100000000000000000000009077090001674800000000000000000000000010002100037713307191000000000002            2  01377133071909071900000001703160000000001N010719000000000000000000000000000000000000000000000000000000000000000100037713356800JAMILLE PAULA BUENO LOPES               RUA CURIO (COND.NEW VILLE) - 172 - SURU             06509031                                                            000062
2SR. CAIXA, APOS O VENCIMENTO COBRAR 10% DE MULTA                                NAO RECEBER APOS 30 DIAS DO VENCIMENTO.                                                                                                                                                                                                         01071900000000000000107190000000000000       0090770900016748377133071910000063
100000000000000000000009077090001674800000000000000000000000010002100027100907191800000000002            2  01271009071909071900000001984200000000001N010719000000000000000000000000000000000000000000000000000000000000000100027100951810MARCIA RAMALHO RODRIGUES                RUA MONTE CASTELO - 296 AP.82 - AVIACAO             11702720                                                            000065
2SR. CAIXA, APOS O VENCIMENTO COBRAR 10% DE MULTA                                NAO RECEBER APOS 30 DIAS DO VENCIMENTO.                                                                                                                                                                                                         01071900000000000000107190000000000000       0090770900016748271009071918000066
100000000000000000000009077090001674800000000000000000000000010002100076207907191900000000002            2  01762079071909071900000002139900000000001N010719000000000000000000000000000000000000000000000000000000000000000100076207943872JOSE MACEDO RICARTE FILHO               RUA ARTUR LOBO - 181 - JARDIM JABAQUARA             04384060                                                            000068
2SR. CAIXA, APOS O VENCIMENTO COBRAR 10% DE MULTA                                NAO RECEBER APOS 30 DIAS DO VENCIMENTO.                                                                                                                                                                                                         01071900000000000000107190000000000000       0090770900016748762079071919000069
100000000000000000000009077090001674800000000000000000000000010002100094672607191100000000002            2  01946726071909071900000002702470000000001N010719000000000000000000000000000000000000000000000000000000000000000100094672660834JOSE HENRIQUE SOARES PEREIRA INACIO     RUA MONTE CASTELO - 296 AP.34 - AVIACAO             11702720                                                            000071
2SR. CAIXA, APOS O VENCIMENTO COBRAR 10% DE MULTA                                NAO RECEBER APOS 30 DIAS DO VENCIMENTO.                                                                                                                                                                                                         01071900000000000000107190000000000000       0090770900016748946726071911000072
100000000000000000000009077090001674800000000000000000000000010002100025265207191200000000002            2  01252652071909071900000001469360000000001N010719000000000000000000000000000000000000000000000000000000000000000100025265260862SONIA MARIA CECILIO DA SILVA            RUA PRESIDENTE TANCREDO NEVES - 1093 AP.            06329350                                                            000074
2SR. CAIXA, APOS O VENCIMENTO COBRAR 10% DE MULTA                                NAO RECEBER APOS 30 DIAS DO VENCIMENTO.                                                                                                                                                                                                         01071900000000000000107190000000000000       0090770900016748252652071912000075
100000000000000000000009077090001674800000000000000000000000010002100011381907191P00000000002            2  01113819071909071900000002800540000000001N010719000000000000000000000000000000000000000000000000000000000000000100011381987818MARIO DONIZETE MIGUEL DA SILVA          RUA JASPE - 215 - HIGIANOPOLIS - JANDIRA            06642270                                                            000077
2SR. CAIXA, APOS O VENCIMENTO COBRAR 10% DE MULTA                                NAO RECEBER APOS 30 DIAS DO VENCIMENTO.                                                                                                                                                                                                         01071900000000000000107190000000000000       009077090001674811381907191P000078
100000000000000000000009077090001674800000000000000000000000010002100020105507191600000000002            2  01201055071909071900000002270070000000001N010719000000000000000000000000000000000000000000000000000000000000000100020105503827VALTER DE SOUSA LIBARINO FILHO          RUA DAS PAINEIRAS - 140 - BAIRRO LARANJE            07741205                                                            000080
2SR. CAIXA, APOS O VENCIMENTO COBRAR 10% DE MULTA                                NAO RECEBER APOS 30 DIAS DO VENCIMENTO.                                                                                                                                                                                                         01071900000000000000107190000000000000       0090770900016748201055071916000081
100000000000000000000009077090001674800000000000000000000000010002100003010507191300000000002            2  01030105071909071900000002452820000000001N010719000000000000000000000000000000000000000000000000000000000000000100003010502877GIZELA VIEIRA BARROS                    RUA GIACOMO DALCIN - 157 - NOVA GERTY -             09580350                                                            000083
2SR. CAIXA, APOS O VENCIMENTO COBRAR 10% DE MULTA                                NAO RECEBER APOS 30 DIAS DO VENCIMENTO.                                                                                                                                                                                                         01071900000000000000107190000000000000       0090770900016748030105071913000084
100000000000000000000009077090001674800000000000000000000000010002100036712507191400000000002            2  01367125071909071900000001827130000000001N010719000000000000000000000000000000000000000000000000000000000000000100036712580803WALTER BARRETO DE ALMEIDA               RUA MONTE CASTELO - 296 AP.44 - AVIACAO             11702720                                                            000086
2SR. CAIXA, APOS O VENCIMENTO COBRAR 10% DE MULTA                                NAO RECEBER APOS 30 DIAS DO VENCIMENTO.                                                                                                                                                                                                         01071900000000000000107190000000000000       0090770900016748367125071914000087
9                                                                                                                                                                                                                                                                                                                                                                                                         000088