01REMESSA01COBRANCA       00000000000004991454AIRES CONSTRUTORA E INCORPORAD237BRADESCO       140918        MX0000116                                                                                                                                                                                                                                                                                     000001
100000000000000000000009077090001674800000000000000000000000010002100049736709182100000000002            2  01497367091824091800000001389720000000001N130918000000000000000000000000000000000000000000000000000000000000000100049736787320RAIMUNDO VIEIRA DA SILVA                RUA BOLIVIA - 81 AP.ZELADORIA - JARDIM G            11701850                                                            000002
2SR. CAIXA, APOS O VENCIMENTO COBRAR 10% DE MULTA                                NAO RECEBER APOS 30 DIAS DO VENCIMENTO.                                                                                                                                                                                                         14091800000000000001409180000000000000       0090770900016748497367091821000003
100000000000000000000009077090001674800000000000000000000000010002100068806209181300000000002            2  01688062091824091800000001233370000000001N130918000000000000000000000000000000000000000000000000000000000000000100068806272853FATIMA MOREIRA SALOMAO                  RUA TORQUATO DE CAMILLO - 84 - CARANDA B            79032031                                                            000005
2SR. CAIXA, APOS O VENCIMENTO COBRAR 10% DE MULTA                                NAO RECEBER APOS 30 DIAS DO VENCIMENTO.                                                                                                                                                                                                         14091800000000000001409180000000000000       0090770900016748688062091813000006
100000000000000000000009077090001674800000000000000000000000010002100004201609181P00000000002            2  01042016091824091800000001791310000000001N130918000000000000000000000000000000000000000000000000000000000000000100004201640817SANDRA APARECIDA TOJAL                  AVENIDA MASCOTE - 81 AP.132 BL.A - VILA             04363000                                                            000008
2SR. CAIXA, APOS O VENCIMENTO COBRAR 10% DE MULTA                                NAO RECEBER APOS 30 DIAS DO VENCIMENTO.                                                                                                                                                                                                         14091800000000000001409180000000000000       009077090001674804201609181P000009
100000000000000000000009077090001674800000000000000000000000010002100025278909181300000000002            2  01252789091824091800000001918270000000001N130918000000000000000000000000000000000000000000000000000000000000000100025278913819FERNANDO LOPES DA SILVA                 RUA RUBEN DE SOUZA - 387 AP.24A - VILA I            04653170                                                            000011
2SR. CAIXA, APOS O VENCIMENTO COBRAR 10% DE MULTA                                NAO RECEBER APOS 30 DIAS DO VENCIMENTO.                                                                                                                                                                                                         14091800000000000001409180000000000000       0090770900016748252789091813000012
100000000000000000000009077090001674800000000000000000000000010002100000024609181400000000002            2  01000246091824091800000002132530000000001N130918000000000000000000000000000000000000000000000000000000000000000100000024633852JAYME MASRI                             RUA MONTE CASTELO - 296 AP.24 - BAIRRO A            11702720                                                            000014
2SR. CAIXA, APOS O VENCIMENTO COBRAR 10% DE MULTA                                NAO RECEBER APOS 30 DIAS DO VENCIMENTO.                                                                                                                                                                                                         14091800000000000001409180000000000000       0090770900016748000246091814000015
100000000000000000000009077090001674800000000000000000000000010002100013184409181800000000002            2  01131844091824091800000002214320000000001N130918000000000000000000000000000000000000000000000000000000000000000100013184404838CLAUDIO GOMES BAHIA                     RUA MARIA CONCEICAO - 89 - VILA SAO PEDR            07032070                                                            000017
2SR. CAIXA, APOS O VENCIMENTO COBRAR 10% DE MULTA                                NAO RECEBER APOS 30 DIAS DO VENCIMENTO.                                                                                                                                                                                                         14091800000000000001409180000000000000       0090770900016748131844091818000018
100000000000000000000009077090001674800000000000000000000000010002100006055509181300000000002            2  01060555091824091800000003353240000000001N130918000000000000000000000000000000000000000000000000000000000000000100006055565803EDSON ALVES                             RUA EDGAR CODAZZI - 49 CASA 02 - CIDADE             08225280                                                            000020
2SR. CAIXA, APOS O VENCIMENTO COBRAR 10% DE MULTA                                NAO RECEBER APOS 30 DIAS DO VENCIMENTO.                                                                                                                                                                                                         14091800000000000001409180000000000000       0090770900016748060555091813000021
100000000000000000000009077090001674800000000000000000000000010002100003441209181100000000002            2  01034412091824091800000002130310000000001N130918000000000000000000000000000000000000000000000000000000000000000100003441232860LUIZ CARLOS CAMARGO BIANCHI             RUA GENERAL LEITE DE CASTRO - 200 - JARD            04182020                                                            000023
2SR. CAIXA, APOS O VENCIMENTO COBRAR 10% DE MULTA                                NAO RECEBER APOS 30 DIAS DO VENCIMENTO.                                                                                                                                                                                                         14091800000000000001409180000000000000       0090770900016748034412091811000024
100000000000000000000009077090001674800000000000000000000000010002100014681409181000000000002            2  01146814091824091800000002210020000000001N130918000000000000000000000000000000000000000000000000000000000000000100014681490830HUMBERTO MOZART CALIXTO                 RUA MONTE CASTELO - 296 AP.41 - AVIACAO             11702720                                                            000026
2SR. CAIXA, APOS O VENCIMENTO COBRAR 10% DE MULTA                                NAO RECEBER APOS 30 DIAS DO VENCIMENTO.                                                                                                                                                                                                         14091800000000000001409180000000000000       0090770900016748146814091810000027
100000000000000000000009077090001674800000000000000000000000010002100023007709181300000000002            2  01230077091824091800000001807060000000001N130918000000000000000000000000000000000000000000000000000000000000000100023007705800BRUNA ANTUN AZEVEDO                     RUA MONTE CASTELO - 296 AP.62 - AVIACAO             11702720                                                            000029
2SR. CAIXA, APOS O VENCIMENTO COBRAR 10% DE MULTA                                NAO RECEBER APOS 30 DIAS DO VENCIMENTO.                                                                                                                                                                                                         14091800000000000001409180000000000000       0090770900016748230077091813000030
100000000000000000000009077090001674800000000000000000000000010002100006550709181100000000002            2  01065507091824091800000001865750000000001N130918000000000000000000000000000000000000000000000000000000000000000100006550730864IVONE APARECIDA VIEIRA GADI TEIXEIRA    RUA SAO FLORENCIO  - 1500 AP.44 BLOCO 01            03733020                                                            000032
2SR. CAIXA, APOS O VENCIMENTO COBRAR 10% DE MULTA                                NAO RECEBER APOS 30 DIAS DO VENCIMENTO.                                                                                                                                                                                                         14091800000000000001409180000000000000       0090770900016748065507091811000033
100000000000000000000009077090001674800000000000000000000000010002100000930609181600000000002            2  01009306091824091800000003342770000000001N130918000000000000000000000000000000000000000000000000000000000000000100000930668642VALERIA RODRIGUES DANTAS                RUA MONTE CASTELO - 262 AP.21 - AVIACAO             11702720                                                            000035
2SR. CAIXA, APOS O VENCIMENTO COBRAR 10% DE MULTA                                NAO RECEBER APOS 30 DIAS DO VENCIMENTO.                                                                                                                                                                                                         14091800000000000001409180000000000000       0090770900016748009306091816000036
100000000000000000000009077090001674800000000000000000000000010002100084057909181P00000000002            2  01840579091827091800000002000000000000001N130918000000000000000000000000000000000000000000000000000000000000000100084057904891ANTONIO GONZAGA DOS SANTOS              RUA BRIGADEIRO JOSE FERREIRA - 319 - CAN            11700470                                                            000038
2SR. CAIXA, APOS O VENCIMENTO COBRAR 10% DE MULTA                                NAO RECEBER APOS 30 DIAS DO VENCIMENTO.                                                                                                                                                                                                         14091800000000000001409180000000000000       009077090001674884057909181P000039
100000000000000000000009077090001674800000000000000000000000010002100075574009181P00000000002            2  01755740091824091800000002888080000000001N130918000000000000000000000000000000000000000000000000000000000000000100075574063891CASSIO TADEU DA SILVEIRA                RUA CONSELHEIRO MOREIRA DE BARROS - 1.55            02430000                                                            000041
2SR. CAIXA, APOS O VENCIMENTO COBRAR 10% DE MULTA                                NAO RECEBER APOS 30 DIAS DO VENCIMENTO.                                                                                                                                                                                                         14091800000000000001409180000000000000       009077090001674875574009181P000042
100000000000000000000009077090001674800000000000000000000000010002100000764609181800000000002            2  01007646091824091800000002135880000000001N130918000000000000000000000000000000000000000000000000000000000000000100000764632817LUIZ CARLOS ANTUNES JUNIOR              RUA MONTE CASTELO - 262 AP.35 - AVIACAO             11702720                                                            000044
2SR. CAIXA, APOS O VENCIMENTO COBRAR 10% DE MULTA                                NAO RECEBER APOS 30 DIAS DO VENCIMENTO.                                                                                                                                                                                                         14091800000000000001409180000000000000       0090770900016748007646091818000045
100000000000000000000009077090001674800000000000000000000000010002100027317609181800000000002            2  01273176091824091800000002093560000000001N130918000000000000000000000000000000000000000000000000000000000000000100027317668591ERONILTON SOUSA MOTA                    AVENIDA PRESIDENTE KENNEDY - 3203 - AVIA            11701330                                                            000047
2SR. CAIXA, APOS O VENCIMENTO COBRAR 10% DE MULTA                                NAO RECEBER APOS 30 DIAS DO VENCIMENTO.                                                                                                                                                                                                         14091800000000000001409180000000000000       0090770900016748273176091818000048
100000000000000000000009077090001674800000000000000000000000010002100066104109181800000000002            2  01661041091824091800000002159230000000001N130918000000000000000000000000000000000000000000000000000000000000000100066104106820ANADIR FERREIRA                         RUA MONTE CASTELO - 296 AP.61 - AVIACAO             11702720                                                            000050
2SR. CAIXA, APOS O VENCIMENTO COBRAR 10% DE MULTA                                NAO RECEBER APOS 30 DIAS DO VENCIMENTO.                                                                                                                                                                                                         14091800000000000001409180000000000000       0090770900016748661041091818000051
100000000000000000000009077090001674800000000000000000000000010002100072078309181500000000002            2  01720783091824091800000001085660000000001N130918000000000000000000000000000000000000000000000000000000000000000100072078332704FATIMA DA CONCEICAO BEZERRA             RUA DO MANIFESTO - 2.822 CASA 5 - IPIRAN            04209003                                                            000053
2SR. CAIXA, APOS O VENCIMENTO COBRAR 10% DE MULTA                                NAO RECEBER APOS 30 DIAS DO VENCIMENTO.                                                                                                                                                                                                         14091800000000000001409180000000000000       0090770900016748720783091815000054
100000000000000000000009077090001674800000000000000000000000010002100057014509181400000000002            2  01570145091824091800000002424310000000001N130918000000000000000000000000000000000000000000000000000000000000000100057014582887SONIA MARIA DA SILVA PEGORARO           RUA FRANCO PAULISTA  - 80 - AGUA FRIA -             02332030                                                            000056
2SR. CAIXA, APOS O VENCIMENTO COBRAR 10% DE MULTA                                NAO RECEBER APOS 30 DIAS DO VENCIMENTO.                                                                                                                                                                                                         14091800000000000001409180000000000000       0090770900016748570145091814000057
100000000000000000000009077090001674800000000000000000000000010002100006505309181100000000002            2  01065053091824091800000002634980000000001N130918000000000000000000000000000000000000000000000000000000000000000100006505382852LUIS ANTONIO DINIS HENRIQUES            RUA ESTEVAO  BAIAO - 520 AP.93A - CAMPO             04624002                                                            000059
2SR. CAIXA, APOS O VENCIMENTO COBRAR 10% DE MULTA                                NAO RECEBER APOS 30 DIAS DO VENCIMENTO.                                                                                                                                                                                                         14091800000000000001409180000000000000       0090770900016748065053091811000060
100000000000000000000009077090001674800000000000000000000000010002100011544709181400000000002            2  01115447091824091800000004786790000000001N130918000000000000000000000000000000000000000000000000000000000000000100011544777620GRACIELY RODRIGUES FERNANDES            RUA MONTE CASTELO - 262 AP.111 - AVIACAO            11702720                                                            000062
2SR. CAIXA, APOS O VENCIMENTO COBRAR 10% DE MULTA                                NAO RECEBER APOS 30 DIAS DO VENCIMENTO.                                                                                                                                                                                                         14091800000000000001409180000000000000       0090770900016748115447091814000063
100000000000000000000009077090001674800000000000000000000000010002100005629009181900000000002            2  01056290091824091800000003481420000000001N130918000000000000000000000000000000000000000000000000000000000000000100005629087819ROMILDO MARTINS PIZA                    RUA MAESTRO ARTURO DE ANGELIS - 190 AP.3            05139010                                                            000065
2SR. CAIXA, APOS O VENCIMENTO COBRAR 10% DE MULTA                                NAO RECEBER APOS 30 DIAS DO VENCIMENTO.                                                                                                                                                                                                         14091800000000000001409180000000000000       0090770900016748056290091819000066
100000000000000000000009077090001674800000000000000000000000010002100004290909181800000000002            2  01042909091824091800000001855710000000001N130918000000000000000000000000000000000000000000000000000000000000000100004290973876WLADIMIR PAIOLA BORREGO                 RUA GOMES - 429 - VILA IVONE - SAO PAULO            03275010                                                            000068
2SR. CAIXA, APOS O VENCIMENTO COBRAR 10% DE MULTA                                NAO RECEBER APOS 30 DIAS DO VENCIMENTO.                                                                                                                                                                                                         14091800000000000001409180000000000000       0090770900016748042909091818000069
100000000000000000000009077090001674800000000000000000000000010002100034325509181300000000002            2  01343255091824091800000001756850000000001N130918000000000000000000000000000000000000000000000000000000000000000100034325567801LUIZ FERNANDO ALAMINO                   RUA MONTE CASTELO - 296 AP.21 - AVIACAO             11702720                                                            000071
2SR. CAIXA, APOS O VENCIMENTO COBRAR 10% DE MULTA                                NAO RECEBER APOS 30 DIAS DO VENCIMENTO.                                                                                                                                                                                                         14091800000000000001409180000000000000       0090770900016748343255091813000072
100000000000000000000009077090001674800000000000000000000000010002100018272709181900000000002            2  01182727091827091800000001800000000000001N130918000000000000000000000000000000000000000000000000000000000000000100018272729881HENRY CESAR UEDA                        RUA MONTE CASTELO - 295 AP.94 - AVIACAO             11702720                                                            000074
2SR. CAIXA, APOS O VENCIMENTO COBRAR 10% DE MULTA                                NAO RECEBER APOS 30 DIAS DO VENCIMENTO.                                                                                                                                                                                                         14091800000000000001409180000000000000       0090770900016748182727091819000075
100000000000000000000009077090001674800000000000000000000000010002100021335409181600000000002            2  01213354091824091800000001329470000000001N130918000000000000000000000000000000000000000000000000000000000000000100021335464808RAQUEL FERREIRA RAMOS                   RUA ANTONIO SEVERIANO DE ANDRADE E SILVA            11702400                                                            000077
2SR. CAIXA, APOS O VENCIMENTO COBRAR 10% DE MULTA                                NAO RECEBER APOS 30 DIAS DO VENCIMENTO.                                                                                                                                                                                                         14091800000000000001409180000000000000       0090770900016748213354091816000078
100000000000000000000009077090001674800000000000000000000000010002100005627909181500000000002            2  01056279091824091800000001558930000000001N130918000000000000000000000000000000000000000000000000000000000000000100005627947861FERNANDO CESAR MARCELINO                TRAVESSA CHARLES LEBRUN - 83 - VILA NOVA            02312060                                                            000080
2SR. CAIXA, APOS O VENCIMENTO COBRAR 10% DE MULTA                                NAO RECEBER APOS 30 DIAS DO VENCIMENTO.                                                                                                                                                                                                         14091800000000000001409180000000000000       0090770900016748056279091815000081
100000000000000000000009077090001674800000000000000000000000010002100026187909181100000000002            2  01261879091824091800000001626790000000001N130918000000000000000000000000000000000000000000000000000000000000000100026187960807CARINA CANTACESSO DE SOUZA              RUA MONTE CASTELO - 296 AP.91 - AVIACAO             11702720                                                            000083
2SR. CAIXA, APOS O VENCIMENTO COBRAR 10% DE MULTA                                NAO RECEBER APOS 30 DIAS DO VENCIMENTO.                                                                                                                                                                                                         14091800000000000001409180000000000000       0090770900016748261879091811000084
9                                                                                                                                                                                                                                                                                                                                                                                                         000085