01REMESSA01COBRANCA       00000000000004991454AIRES CONSTRUTORA E INCORPORAD237BRADESCO       130519        MX0000132                                                                                                                                                                                                                                                                                     000001
100000000000000000000009077090001674800000000000000000000000010002100049736705192700000000002            2  01497367051924051900000001475320000000001N100519000000000000000000000000000000000000000000000000000000000000000100049736787320RAIMUNDO VIEIRA DA SILVA                RUA BOLIVIA - 81 AP.ZELADORIA - JARDIM G            11701850                                                            000002
2SR. CAIXA, APOS O VENCIMENTO COBRAR 10% DE MULTA                                NAO RECEBER APOS 30 DIAS DO VENCIMENTO.                                                                                                                                                                                                         13051900000000000001305190000000000000       0090770900016748497367051927000003
100000000000000000000009077090001674800000000000000000000000010002100068806205191900000000002            2  01688062051924051900000001309340000000001N100519000000000000000000000000000000000000000000000000000000000000000100068806272853FATIMA MOREIRA SALOMAO                  RUA TORQUATO DE CAMILLO - 84 - CARANDA B            79032031                                                            000005
2SR. CAIXA, APOS O VENCIMENTO COBRAR 10% DE MULTA                                NAO RECEBER APOS 30 DIAS DO VENCIMENTO.                                                                                                                                                                                                         13051900000000000001305190000000000000       0090770900016748688062051919000006
100000000000000000000009077090001674800000000000000000000000010002100004201605191500000000002            2  01042016051924051900000001901660000000001N100519000000000000000000000000000000000000000000000000000000000000000100004201640817SANDRA APARECIDA TOJAL                  AVENIDA MASCOTE - 81 AP.132 BL.A - VILA             04363000                                                            000008
2SR. CAIXA, APOS O VENCIMENTO COBRAR 10% DE MULTA                                NAO RECEBER APOS 30 DIAS DO VENCIMENTO.                                                                                                                                                                                                         13051900000000000001305190000000000000       0090770900016748042016051915000009
100000000000000000000009077090001674800000000000000000000000010002100025278905191900000000002            2  01252789051924051900000013393260000000001N100519000000000000000000000000000000000000000000000000000000000000000100025278913819FERNANDO LOPES DA SILVA                 RUA RUBEN DE SOUZA - 387 AP.24A - VILA I            04653170                                                            000011
2SR. CAIXA, APOS O VENCIMENTO COBRAR 10% DE MULTA                                NAO RECEBER APOS 30 DIAS DO VENCIMENTO.                                                                                                                                                                                                         13051900000000000001305190000000000000       0090770900016748252789051919000012
100000000000000000000009077090001674800000000000000000000000010002100000024605191P00000000002            2  01000246051924051900000002263880000000001N100519000000000000000000000000000000000000000000000000000000000000000100000024633852JAYME MASRI                             RUA MONTE CASTELO - 296 AP.24 - BAIRRO A            11702720                                                            000014
2SR. CAIXA, APOS O VENCIMENTO COBRAR 10% DE MULTA                                NAO RECEBER APOS 30 DIAS DO VENCIMENTO.                                                                                                                                                                                                         13051900000000000001305190000000000000       009077090001674800024605191P000015
100000000000000000000009077090001674800000000000000000000000010002100013184405191300000000002            2  01131844051924051900000002350720000000001N100519000000000000000000000000000000000000000000000000000000000000000100013184404838CLAUDIO GOMES BAHIA                     RUA MARIA CONCEICAO - 89 - VILA SAO PEDR            07032070                                                            000017
2SR. CAIXA, APOS O VENCIMENTO COBRAR 10% DE MULTA                                NAO RECEBER APOS 30 DIAS DO VENCIMENTO.                                                                                                                                                                                                         13051900000000000001305190000000000000       0090770900016748131844051913000018
100000000000000000000009077090001674800000000000000000000000010002100006055505191900000000002            2  01060555051924051900000003559800000000001N100519000000000000000000000000000000000000000000000000000000000000000100006055565803EDSON ALVES                             RUA EDGAR CODAZZI - 49 CASA 02 - CIDADE             08225280                                                            000020
2SR. CAIXA, APOS O VENCIMENTO COBRAR 10% DE MULTA                                NAO RECEBER APOS 30 DIAS DO VENCIMENTO.                                                                                                                                                                                                         13051900000000000001305190000000000000       0090770900016748060555051919000021
100000000000000000000009077090001674800000000000000000000000010002100021899205191200000000002            2  01218992051924051900000002593670000000001N100519000000000000000000000000000000000000000000000000000000000000000100021899277811ALESSANDRE ALVES ANDRADE                RUA MONTE CASTELO - 262 AP.132 - AVIACAO            11702720                                                            000023
2SR. CAIXA, APOS O VENCIMENTO COBRAR 10% DE MULTA                                NAO RECEBER APOS 30 DIAS DO VENCIMENTO.                                                                                                                                                                                                         13051900000000000001305190000000000000       0090770900016748218992051912000024
100000000000000000000009077090001674800000000000000000000000010002100003441205191700000000002            2  01034412051924051900000002261550000000001N100519000000000000000000000000000000000000000000000000000000000000000100003441232860LUIZ CARLOS CAMARGO BIANCHI             RUA GENERAL LEITE DE CASTRO - 200 - JARD            04182020                                                            000026
2SR. CAIXA, APOS O VENCIMENTO COBRAR 10% DE MULTA                                NAO RECEBER APOS 30 DIAS DO VENCIMENTO.                                                                                                                                                                                                         13051900000000000001305190000000000000       0090770900016748034412051917000027
100000000000000000000009077090001674800000000000000000000000010002100014681405191600000000002            2  01146814051924051900000002346170000000001N100519000000000000000000000000000000000000000000000000000000000000000100014681490830HUMBERTO MOZART CALIXTO                 RUA MONTE CASTELO - 296 AP.41 - AVIACAO             11702720                                                            000029
2SR. CAIXA, APOS O VENCIMENTO COBRAR 10% DE MULTA                                NAO RECEBER APOS 30 DIAS DO VENCIMENTO.                                                                                                                                                                                                         13051900000000000001305190000000000000       0090770900016748146814051916000030
100000000000000000000009077090001674800000000000000000000000010002100023007705191900000000002            2  01230077051924051900000001918360000000001N100519000000000000000000000000000000000000000000000000000000000000000100023007705800BRUNA ANTUN AZEVEDO                     RUA MONTE CASTELO - 296 AP.62 - AVIACAO             11702720                                                            000032
2SR. CAIXA, APOS O VENCIMENTO COBRAR 10% DE MULTA                                NAO RECEBER APOS 30 DIAS DO VENCIMENTO.                                                                                                                                                                                                         13051900000000000001305190000000000000       0090770900016748230077051919000033
100000000000000000000009077090001674800000000000000000000000010002100006550705191700000000002            2  01065507051924051900000001980670000000001N100519000000000000000000000000000000000000000000000000000000000000000100006550730864IVONE APARECIDA VIEIRA GADI TEIXEIRA    RUA SAO FLORENCIO  - 1500 AP.44 BLOCO 01            03733020                                                            000035
2SR. CAIXA, APOS O VENCIMENTO COBRAR 10% DE MULTA                                NAO RECEBER APOS 30 DIAS DO VENCIMENTO.                                                                                                                                                                                                         13051900000000000001305190000000000000       0090770900016748065507051917000036
100000000000000000000009077090001674800000000000000000000000010002100006550705192500000000002            2  01065507051924051900000001980550000000001N100519000000000000000000000000000000000000000000000000000000000000000100006550730864IVONE APARECIDA VIEIRA GADI TEIXEIRA    RUA SAO FLORENCIO  - 1500 AP.44 BLOCO 01            03733020                                                            000038
2SR. CAIXA, APOS O VENCIMENTO COBRAR 10% DE MULTA                                NAO RECEBER APOS 30 DIAS DO VENCIMENTO.                                                                                                                                                                                                         13051900000000000001305190000000000000       0090770900016748065507051925000039
100000000000000000000009077090001674800000000000000000000000010002100000930605191100000000002            2  01009306051924051900000003548690000000001N100519000000000000000000000000000000000000000000000000000000000000000100000930668642VALERIA RODRIGUES DANTAS                RUA MONTE CASTELO - 262 AP.21 - AVIACAO             11702720                                                            000041
2SR. CAIXA, APOS O VENCIMENTO COBRAR 10% DE MULTA                                NAO RECEBER APOS 30 DIAS DO VENCIMENTO.                                                                                                                                                                                                         13051900000000000001305190000000000000       0090770900016748009306051911000042
100000000000000000000009077090001674800000000000000000000000010002100075574005191500000000002            2  01755740051924051900000003065980000000001N100519000000000000000000000000000000000000000000000000000000000000000100075574063891CASSIO TADEU DA SILVEIRA                RUA CONSELHEIRO MOREIRA DE BARROS - 1.55            02430000                                                            000044
2SR. CAIXA, APOS O VENCIMENTO COBRAR 10% DE MULTA                                NAO RECEBER APOS 30 DIAS DO VENCIMENTO.                                                                                                                                                                                                         13051900000000000001305190000000000000       0090770900016748755740051915000045
100000000000000000000009077090001674800000000000000000000000010002100000764605191300000000002            2  01007646051924051900000002267450000000001N100519000000000000000000000000000000000000000000000000000000000000000100000764632817LUIZ CARLOS ANTUNES JUNIOR              RUA MONTE CASTELO - 262 AP.35 - AVIACAO             11702720                                                            000047
2SR. CAIXA, APOS O VENCIMENTO COBRAR 10% DE MULTA                                NAO RECEBER APOS 30 DIAS DO VENCIMENTO.                                                                                                                                                                                                         13051900000000000001305190000000000000       0090770900016748007646051913000048
100000000000000000000009077090001674800000000000000000000000010002100066104105191300000000002            2  01661041051924051900000002292240000000001N100519000000000000000000000000000000000000000000000000000000000000000100066104106820ANADIR FERREIRA                         RUA MONTE CASTELO - 296 AP.61 - AVIACAO             11702720                                                            000050
2SR. CAIXA, APOS O VENCIMENTO COBRAR 10% DE MULTA                                NAO RECEBER APOS 30 DIAS DO VENCIMENTO.                                                                                                                                                                                                         13051900000000000001305190000000000000       0090770900016748661041051913000051
100000000000000000000009077090001674800000000000000000000000010002100057014505191P00000000002            2  01570145051924051900000002573640000000001N100519000000000000000000000000000000000000000000000000000000000000000100057014582887SONIA MARIA DA SILVA PEGORARO           RUA FRANCO PAULISTA  - 80 - AGUA FRIA -             02332030                                                            000053
2SR. CAIXA, APOS O VENCIMENTO COBRAR 10% DE MULTA                                NAO RECEBER APOS 30 DIAS DO VENCIMENTO.                                                                                                                                                                                                         13051900000000000001305190000000000000       009077090001674857014505191P000054
100000000000000000000009077090001674800000000000000000000000010002100006505305191700000000002            2  01065053051924051900000002797280000000001N100519000000000000000000000000000000000000000000000000000000000000000100006505382852LUIS ANTONIO DINIS HENRIQUES            RUA ESTEVAO  BAIAO - 520 AP.93A - CAMPO             04624002                                                            000056
2SR. CAIXA, APOS O VENCIMENTO COBRAR 10% DE MULTA                                NAO RECEBER APOS 30 DIAS DO VENCIMENTO.                                                                                                                                                                                                         13051900000000000001305190000000000000       0090770900016748065053051917000057
100000000000000000000009077090001674800000000000000000000000010002100011544705191P00000000002            2  01115447051924051900000005081650000000001N100519000000000000000000000000000000000000000000000000000000000000000100011544777620GRACIELY RODRIGUES FERNANDES            RUA MONTE CASTELO - 262 AP.111 - AVIACAO            11702720                                                            000059
2SR. CAIXA, APOS O VENCIMENTO COBRAR 10% DE MULTA                                NAO RECEBER APOS 30 DIAS DO VENCIMENTO.                                                                                                                                                                                                         13051900000000000001305190000000000000       009077090001674811544705191P000060
100000000000000000000009077090001674800000000000000000000000010002100005629005191400000000002            2  01056290051924051900000011439620000000001N100519000000000000000000000000000000000000000000000000000000000000000100005629087819ROMILDO MARTINS PIZA                    RUA MAESTRO ARTURO DE ANGELIS - 190 AP.3            05139010                                                            000062
2SR. CAIXA, APOS O VENCIMENTO COBRAR 10% DE MULTA                                NAO RECEBER APOS 30 DIAS DO VENCIMENTO.                                                                                                                                                                                                         13051900000000000001305190000000000000       0090770900016748056290051914000063
100000000000000000000009077090001674800000000000000000000000010002100005629005192200000000002            2  01056290051924051900000003695860000000001N100519000000000000000000000000000000000000000000000000000000000000000100005629087819ROMILDO MARTINS PIZA                    RUA MAESTRO ARTURO DE ANGELIS - 190 AP.3            05139010                                                            000065
2SR. CAIXA, APOS O VENCIMENTO COBRAR 10% DE MULTA                                NAO RECEBER APOS 30 DIAS DO VENCIMENTO.                                                                                                                                                                                                         13051900000000000001305190000000000000       0090770900016748056290051922000066
100000000000000000000009077090001674800000000000000000000000010002100004290905191300000000002            2  01042909051924051900000001970030000000001N100519000000000000000000000000000000000000000000000000000000000000000100004290973876WLADIMIR PAIOLA BORREGO                 RUA GOMES - 429 - VILA IVONE - SAO PAULO            03275010                                                            000068
2SR. CAIXA, APOS O VENCIMENTO COBRAR 10% DE MULTA                                NAO RECEBER APOS 30 DIAS DO VENCIMENTO.                                                                                                                                                                                                         13051900000000000001305190000000000000       0090770900016748042909051913000069
100000000000000000000009077090001674800000000000000000000000010002100034325505191900000000002            2  01343255051924051900000001865080000000001N100519000000000000000000000000000000000000000000000000000000000000000100034325567801LUIZ FERNANDO ALAMINO                   RUA FELICIO PEREIRA - 320 AP.25 - JD.PIQ            03463050                                                            000071
2SR. CAIXA, APOS O VENCIMENTO COBRAR 10% DE MULTA                                NAO RECEBER APOS 30 DIAS DO VENCIMENTO.                                                                                                                                                                                                         13051900000000000001305190000000000000       0090770900016748343255051919000072
100000000000000000000009077090001674800000000000000000000000010002100021335405191100000000002            2  01213354051924051900000001411370000000001N100519000000000000000000000000000000000000000000000000000000000000000100021335464808RAQUEL FERREIRA RAMOS                   RUA ANTONIO SEVERIANO DE ANDRADE E SILVA            11702400                                                            000074
2SR. CAIXA, APOS O VENCIMENTO COBRAR 10% DE MULTA                                NAO RECEBER APOS 30 DIAS DO VENCIMENTO.                                                                                                                                                                                                         13051900000000000001305190000000000000       0090770900016748213354051911000075
100000000000000000000009077090001674800000000000000000000000010002100005627905191000000000002            2  01056279051924051900000001654970000000001N100519000000000000000000000000000000000000000000000000000000000000000100005627947861FERNANDO CESAR MARCELINO                TRAVESSA CHARLES LEBRUN - 83 - VILA NOVA            02312060                                                            000077
2SR. CAIXA, APOS O VENCIMENTO COBRAR 10% DE MULTA                                NAO RECEBER APOS 30 DIAS DO VENCIMENTO.                                                                                                                                                                                                         13051900000000000001305190000000000000       0090770900016748056279051910000078
100000000000000000000009077090001674800000000000000000000000010002100026187905191700000000002            2  01261879051924051900000001727000000000001N100519000000000000000000000000000000000000000000000000000000000000000100026187960807CARINA CANTACESSO DE SOUZA              RUA MONTE CASTELO - 296 AP.91 - AVIACAO             11702720                                                            000080
2SR. CAIXA, APOS O VENCIMENTO COBRAR 10% DE MULTA                                NAO RECEBER APOS 30 DIAS DO VENCIMENTO.                                                                                                                                                                                                         13051900000000000001305190000000000000       0090770900016748261879051917000081
100000000000000000000009077090001674800000000000000000000000010002100004864905191200000000002            2  01048649051924051900000002308220000000001N100519000000000000000000000000000000000000000000000000000000000000000100004864924600RENATO SANTACHIARA SALVADORI            RUA PENSYLVANIA - 116 - PAYSAGE BRISE -             06730000                                                            000083
2SR. CAIXA, APOS O VENCIMENTO COBRAR 10% DE MULTA                                NAO RECEBER APOS 30 DIAS DO VENCIMENTO.                                                                                                                                                                                                         13051900000000000001305190000000000000       0090770900016748048649051912000084
100000000000000000000009077090001674800000000000000000000000010002100026647605191900000000002            2  01266476051924051900000025566730000000001N100519000000000000000000000000000000000000000000000000000000000000000100026647690816CLAUDIA FUKUDA OGATA BURATTO            RUA DINAMARCA - 449 - BAIRRO TABOAO - SA            09668080                                                            000086
2SR. CAIXA, APOS O VENCIMENTO COBRAR 10% DE MULTA                                NAO RECEBER APOS 30 DIAS DO VENCIMENTO.                                                                                                                                                                                                         13051900000000000001305190000000000000       0090770900016748266476051919000087
100000000000000000000009077090001674800000000000000000000000010002100026647605192700000000002            2  01266476051924051900000002556670000000001N100519000000000000000000000000000000000000000000000000000000000000000100026647690816CLAUDIA FUKUDA OGATA BURATTO            RUA DINAMARCA - 449 - BAIRRO TABOAO - SA            09668080                                                            000089
2SR. CAIXA, APOS O VENCIMENTO COBRAR 10% DE MULTA                                NAO RECEBER APOS 30 DIAS DO VENCIMENTO.                                                                                                                                                                                                         13051900000000000001305190000000000000       0090770900016748266476051927000090
9                                                                                                                                                                                                                                                                                                                                                                                                         000091