01REMESSA01COBRANCA       00000000000004991454AIRES CONSTRUTORA E INCORPORAD237BRADESCO       090317        MX0000076                                                                                                                                                                                                                                                                                     000001
100000000000000000000009077090001674800000000000000000000000010002100010952144150400000000002            2  01109521441524031700000001211470000000099N090317000000000000000000000000000000000000000000000000000000000000000100049736787320RAIMUNDO VIEIRA DA SILVA                RUA BOLIVIA - 81 AP.ZELADORIA - JARDIM G            11701850                                                            000002
2SR. CAIXA, APOS O VENCIMENTO COBRAR 10% DE MULTA                                NAO RECEBER APOS 30 DIAS DO VENCIMENTO.                                                                                                                                                                                                         09031700000000000000903170000000000000       0090770900016748109521441504000003
100000000000000000000009077090001674800000000000000000000000010002100011026145151700000000002            2  01110261451524031700000001075200000000099N090317000000000000000000000000000000000000000000000000000000000000000100068806272853FATIMA MOREIRA SALOMAO                  RUA TORQUATO DE CAMILLO - 84 - CARANDA B            79032031                                                            000005
2SR. CAIXA, APOS O VENCIMENTO COBRAR 10% DE MULTA                                NAO RECEBER APOS 30 DIAS DO VENCIMENTO.                                                                                                                                                                                                         09031700000000000000903170000000000000       0090770900016748110261451517000006
100000000000000000000009077090001674800000000000000000000000010002100011396144159700000000002            2  01113961441524031700000001487230000000099N090317000000000000000000000000000000000000000000000000000000000000000100049736787320RAIMUNDO VIEIRA DA SILVA                RUA BOLIVIA - 81 AP.ZELADORIA - JARDIM G            11701850                                                            000008
2SR. CAIXA, APOS O VENCIMENTO COBRAR 10% DE MULTA                                NAO RECEBER APOS 30 DIAS DO VENCIMENTO.                                                                                                                                                                                                         09031700000000000000903170000000000000       0090770900016748113961441597000009
100000000000000000000009077090001674800000000000000000000000010002100011593149161400000000002            2  01115931491624031700000001561570000000099N090317000000000000000000000000000000000000000000000000000000000000000100004201640817SANDRA APARECIDA TOJAL                  AVENIDA MASCOTE - 81 AP.132 BL.A - VILA             04363000                                                            000011
2SR. CAIXA, APOS O VENCIMENTO COBRAR 10% DE MULTA                                NAO RECEBER APOS 30 DIAS DO VENCIMENTO.                                                                                                                                                                                                         09031700000000000000903170000000000000       0090770900016748115931491614000012
100000000000000000000009077090001674800000000000000000000000010002100011701150162900000000002            2  01117011501624031700000001672250000000099N090317000000000000000000000000000000000000000000000000000000000000000100025278913819FERNANDO LOPES DA SILVA                 RUA RUBEN DE SOUZA - 387 AP.24A - VILA I            04653170                                                            000014
2SR. CAIXA, APOS O VENCIMENTO COBRAR 10% DE MULTA                                NAO RECEBER APOS 30 DIAS DO VENCIMENTO.                                                                                                                                                                                                         09031700000000000000903170000000000000       0090770900016748117011501629000015
100000000000000000000009077090001674800000000000000000000000010002100011803151163500000000002            2  01118031511624031700000001859040000000099N090317000000000000000000000000000000000000000000000000000000000000000100000024633852JAYME MASRI                             RUA MONTE CASTELO - 296 AP.24 - BAIRRO A            11702720                                                            000017
2SR. CAIXA, APOS O VENCIMENTO COBRAR 10% DE MULTA                                NAO RECEBER APOS 30 DIAS DO VENCIMENTO.                                                                                                                                                                                                         09031700000000000000903170000000000000       0090770900016748118031511635000018
100000000000000000000009077090001674800000000000000000000000010002100012312153168P00000000002            2  01123121531624031700000001930340000000099N090317000000000000000000000000000000000000000000000000000000000000000100013184404838CLAUDIO GOMES BAHIA                     RUA MARIA CONCEICAO - 89 - VILA SAO PEDR            07032070                                                            000020
2SR. CAIXA, APOS O VENCIMENTO COBRAR 10% DE MULTA                                NAO RECEBER APOS 30 DIAS DO VENCIMENTO.                                                                                                                                                                                                         09031700000000000000903170000000000000       009077090001674812312153168P000021
100000000000000000000009077090001674800000000000000000000000010002100012425154169100000000002            2  01124251541624031700000002923180000000099N090317000000000000000000000000000000000000000000000000000000000000000100006055565803EDSON ALVES                             RUA EDGAR CODAZZI - 49 CASA 02 - CIDADE             08225280                                                            000023
2SR. CAIXA, APOS O VENCIMENTO COBRAR 10% DE MULTA                                NAO RECEBER APOS 30 DIAS DO VENCIMENTO.                                                                                                                                                                                                         09031700000000000000903170000000000000       0090770900016748124251541691000024
100000000000000000000009077090001674800000000000000000000000010002100013349161180700000000002            2  01133491611824031700000002129850000000099N090317000000000000000000000000000000000000000000000000000000000000000100021899277811ALESSANDRE ALVES ANDRADE                RUA MONTE CASTELO - 262 AP.132 - AVIACAO            11702720                                                            000026
2SR. CAIXA, APOS O VENCIMENTO COBRAR 10% DE MULTA                                NAO RECEBER APOS 30 DIAS DO VENCIMENTO.                                                                                                                                                                                                         09031700000000000000903170000000000000       0090770900016748133491611807000027
100000000000000000000009077090001674800000000000000000000000010002100013434162183500000000002            2  01134341621824031700000001846620000000099N090317000000000000000000000000000000000000000000000000000000000000000100015739602840EZEQUIEL DOS SANTOS LIMA                RUA MONGUBA - 464 - VILA CARRAO - SAO PA            03438000                                                            000029
2SR. CAIXA, APOS O VENCIMENTO COBRAR 10% DE MULTA                                NAO RECEBER APOS 30 DIAS DO VENCIMENTO.                                                                                                                                                                                                         09031700000000000000903170000000000000       0090770900016748134341621835000030
100000000000000000000009077090001674800000000000000000000000010002100013882165188800000000002            2  01138821651824031700000001857080000000099N090317000000000000000000000000000000000000000000000000000000000000000100003441232860LUIZ CARLOS CAMARGO BIANCHI             RUA GENERAL LEITE DE CASTRO - 200 - JARD            04182020                                                            000032
2SR. CAIXA, APOS O VENCIMENTO COBRAR 10% DE MULTA                                NAO RECEBER APOS 30 DIAS DO VENCIMENTO.                                                                                                                                                                                                         09031700000000000000903170000000000000       0090770900016748138821651888000033
100000000000000000000009077090001674800000000000000000000000010002100014302168194400000000002            2  01143021681924031700000001926580000000099N090317000000000000000000000000000000000000000000000000000000000000000100014681490830HUMBERTO MOZART CALIXTO                 RUA MONTE CASTELO - 296 AP.41 - AVIACAO             11702720                                                            000035
2SR. CAIXA, APOS O VENCIMENTO COBRAR 10% DE MULTA                                NAO RECEBER APOS 30 DIAS DO VENCIMENTO.                                                                                                                                                                                                         09031700000000000000903170000000000000       0090770900016748143021681944000036
9                                                                                                                                                                                                                                                                                                                                                                                                         000037