01REMESSA01COBRANCA       00000000000004991454AIRES CONSTRUTORA E INCORPORAD237BRADESCO       010919        MX0000139                                                                                                                                                                                                                                                                                     000001
100000000000000000000009077090001674800000000000000000000000010002100099740409191000000000002            2  01997404091909091900000003052370000000001N010919000000000000000000000000000000000000000000000000000000000000000100099740451853ARNALDO DA SILVA SALES                  RUA ALEGRE - 210 - VILA SAO RAFAEL - GUA            07053100                                                            000002
2SR. CAIXA, APOS O VENCIMENTO COBRAR 10% DE MULTA                                NAO RECEBER APOS 30 DIAS DO VENCIMENTO.                                                                                                                                                                                                         01091900000000000000109190000000000000       0090770900016748997404091910000003
100000000000000000000009077090001674800000000000000000000000010002100044380709191500000000002            2  01443807091909091900000004923790000000001N010919000000000000000000000000000000000000000000000000000000000000000100044380725812FERNANDO FIRMINO DOS SANTOS             RUA BARAO GERALDO DE RESENDE - 401 - BAI            05205220                                                            000005
2SR. CAIXA, APOS O VENCIMENTO COBRAR 10% DE MULTA                                NAO RECEBER APOS 30 DIAS DO VENCIMENTO.                                                                                                                                                                                                         01091900000000000000109190000000000000       0090770900016748443807091915000006
100000000000000000000009077090001674800000000000000000000000010002100025469409191600000000002            2  01254694091909091900000001532680000000001N010919000000000000000000000000000000000000000000000000000000000000000100025469470873JULIA MARIA RODRIGUES MARTINS           AVENIDA JOAO FIRMINO - 1229 AP.21 - BAIR            09810260                                                            000008
2SR. CAIXA, APOS O VENCIMENTO COBRAR 10% DE MULTA                                NAO RECEBER APOS 30 DIAS DO VENCIMENTO.                                                                                                                                                                                                         01091900000000000000109190000000000000       0090770900016748254694091916000009
100000000000000000000009077090001674800000000000000000000000010002100004759509191700000000002            2  01047595091909091900000003710760000000001N010919000000000000000000000000000000000000000000000000000000000000000100004759534873AGNALDO PORFIRIO DOS SANTOS             RUA JUVENCIO GASPAR DA SILVA - 35 - SAO             04303060                                                            000011
2SR. CAIXA, APOS O VENCIMENTO COBRAR 10% DE MULTA                                NAO RECEBER APOS 30 DIAS DO VENCIMENTO.                                                                                                                                                                                                         01091900000000000000109190000000000000       0090770900016748047595091917000012
100000000000000000000009077090001674800000000000000000000000010002100090830409191000000000002            2  01908304091909091900000001169850000000001N010919000000000000000000000000000000000000000000000000000000000000000100090830490868IVONETE FERNANDES                       AVENIDA FREDERICO OZANAN - 5504 - VILA R            13215276                                                            000014
2SR. CAIXA, APOS O VENCIMENTO COBRAR 10% DE MULTA                                NAO RECEBER APOS 30 DIAS DO VENCIMENTO.                                                                                                                                                                                                         01091900000000000000109190000000000000       0090770900016748908304091910000015
100000000000000000000009077090001674800000000000000000000000010002100027093909191200000000002            2  01270939091909091900000002900100000000001N010919000000000000000000000000000000000000000000000000000000000000000100027093944809DAVID ALEXANDRE XAVIER ROCHA            RUA MONTE CASTELO - 296 AP.54 - AVIACAO             11702720                                                            000017
2SR. CAIXA, APOS O VENCIMENTO COBRAR 10% DE MULTA                                NAO RECEBER APOS 30 DIAS DO VENCIMENTO.                                                                                                                                                                                                         01091900000000000000109190000000000000       0090770900016748270939091912000018
100000000000000000000009077090001674800000000000000000000000010002100068273209191900000000002            2  01682732091909091900000002111070000000001N010919000000000000000000000000000000000000000000000000000000000000000100068273290891DERNEVAL JOSE MUNIZ                     RUA MARTINOPOLIS - 98 - JARDIM OTAWA - G            07230230                                                            000020
2SR. CAIXA, APOS O VENCIMENTO COBRAR 10% DE MULTA                                NAO RECEBER APOS 30 DIAS DO VENCIMENTO.                                                                                                                                                                                                         01091900000000000000109190000000000000       0090770900016748682732091919000021
100000000000000000000009077090001674800000000000000000000000010002100001817509191100000000002            2  01018175091909091900000001804170000000001N010919000000000000000000000000000000000000000000000000000000000000000100001817534807SANTINA SALVINA SOARES                  RUA CAIAPOS - 1066 AP.43 - VILA TUPI - P            11703320                                                            000023
2SR. CAIXA, APOS O VENCIMENTO COBRAR 10% DE MULTA                                NAO RECEBER APOS 30 DIAS DO VENCIMENTO.                                                                                                                                                                                                         01091900000000000000109190000000000000       0090770900016748018175091911000024
100000000000000000000009077090001674800000000000000000000000010002100086755709191900000000002            2  01867557091909091900000001949100000000001N010919000000000000000000000000000000000000000000000000000000000000000100086755790800GERALDO JAIR BROGLIATTO                 DR.ARMANDO COSTA MAGALHAES - 176 - VILA             13270490                                                            000026
2SR. CAIXA, APOS O VENCIMENTO COBRAR 10% DE MULTA                                NAO RECEBER APOS 30 DIAS DO VENCIMENTO.                                                                                                                                                                                                         01091900000000000000109190000000000000       0090770900016748867557091919000027
100000000000000000000009077090001674800000000000000000000000010002100007996009191200000000002            2  01079960091909091900000001936230000000001N010919000000000000000000000000000000000000000000000000000000000000000100007996062862HENRIQUE SALVADOR                       RUA DARDANELOS - 689 - PARQUE NOVO ORATO            09260060                                                            000029
2SR. CAIXA, APOS O VENCIMENTO COBRAR 10% DE MULTA                                NAO RECEBER APOS 30 DIAS DO VENCIMENTO.                                                                                                                                                                                                         01091900000000000000109190000000000000       0090770900016748079960091912000030
100000000000000000000009077090001674800000000000000000000000010002100010066009191P00000000002            2  01100660091909091900000002593880000000001N010919000000000000000000000000000000000000000000000000000000000000000100010066071534MOISES ROQUE DO ROSARIO                 RUA DAS PAPOULAS - 53 - VILA BELA - SAO             03202010                                                            000032
2SR. CAIXA, APOS O VENCIMENTO COBRAR 10% DE MULTA                                NAO RECEBER APOS 30 DIAS DO VENCIMENTO.                                                                                                                                                                                                         01091900000000000000109190000000000000       009077090001674810066009191P000033
100000000000000000000009077090001674800000000000000000000000010002100085910009191000000000002            2  01859100091909091900000002959700000000001N010919000000000000000000000000000000000000000000000000000000000000000100085910031872SERGIO NOGUEIRA                         RUA MONTE CASTELO - 262 AP.55 - AVIACAO             11702720                                                            000035
2SR. CAIXA, APOS O VENCIMENTO COBRAR 10% DE MULTA                                NAO RECEBER APOS 30 DIAS DO VENCIMENTO.                                                                                                                                                                                                         01091900000000000000109190000000000000       0090770900016748859100091910000036
100000000000000000000009077090001674800000000000000000000000010002100000746809191400000000002            2  01007468091909091900000002392820000000001N010919000000000000000000000000000000000000000000000000000000000000000100000746845820ANTONIO CARLOS DE MELLO                 RUA CONGO - 118 - PARQUE MONTE ALEGRE -             06756270                                                            000038
2SR. CAIXA, APOS O VENCIMENTO COBRAR 10% DE MULTA                                NAO RECEBER APOS 30 DIAS DO VENCIMENTO.                                                                                                                                                                                                         01091900000000000000109190000000000000       0090770900016748007468091914000039
100000000000000000000009077090001674800000000000000000000000010002100028196109191P00000000002            2  01281961091909091900000001723040000000001N010919000000000000000000000000000000000000000000000000000000000000000100028196184808VANESSA NOGUEIRA CAMBUI DA SILVA        CRISTOVAO COLOMBO - 217 - VILA AMERICA -            09110160                                                            000041
2SR. CAIXA, APOS O VENCIMENTO COBRAR 10% DE MULTA                                NAO RECEBER APOS 30 DIAS DO VENCIMENTO.                                                                                                                                                                                                         01091900000000000000109190000000000000       009077090001674828196109191P000042
100000000000000000000009077090001674800000000000000000000000010002100049730809191500000000002            2  01497308091909091900000001414390000000001N010919000000000000000000000000000000000000000000000000000000000000000100049730835420PEDRO LUIZ DO BOM FIM FILHO             RUA NASCER DO SOL - 91 - BAIRRO PIRAPORI            09951475                                                            000044
2SR. CAIXA, APOS O VENCIMENTO COBRAR 10% DE MULTA                                NAO RECEBER APOS 30 DIAS DO VENCIMENTO.                                                                                                                                                                                                         01091900000000000000109190000000000000       0090770900016748497308091915000045
100000000000000000000009077090001674800000000000000000000000010002100027067009191000000000002            2  01270670091909091900000001754830000000001N010919000000000000000000000000000000000000000000000000000000000000000100027067002893MARCIA NASCIMENTO DE MORAES             RUA MONTE CASTELO - 296 AP.11 - AVIACAO             11702720                                                            000047
2SR. CAIXA, APOS O VENCIMENTO COBRAR 10% DE MULTA                                NAO RECEBER APOS 30 DIAS DO VENCIMENTO.                                                                                                                                                                                                         01091900000000000000109190000000000000       0090770900016748270670091910000048
100000000000000000000009077090001674800000000000000000000000010002100064435709191500000000002            2  01644357091909091900000001754830000000001N010919000000000000000000000000000000000000000000000000000000000000000100064435741849JURACY DA SILVA                         RUA JACARATINGA - 192 - JARDIM PIRAJUCAR            05786120                                                            000050
2SR. CAIXA, APOS O VENCIMENTO COBRAR 10% DE MULTA                                NAO RECEBER APOS 30 DIAS DO VENCIMENTO.                                                                                                                                                                                                         01091900000000000000109190000000000000       0090770900016748644357091915000051
100000000000000000000009077090001674800000000000000000000000010002100094921809191400000000002            2  01949218091909091900000001741770000000001N010919000000000000000000000000000000000000000000000000000000000000000100094921890897JOAO JORGE DA ROSA FILHO                RUA OLAVO EGIDIO DE SOUZA ARANHA - 368 A            03822000                                                            000053
2SR. CAIXA, APOS O VENCIMENTO COBRAR 10% DE MULTA                                NAO RECEBER APOS 30 DIAS DO VENCIMENTO.                                                                                                                                                                                                         01091900000000000000109190000000000000       0090770900016748949218091914000054
100000000000000000000009077090001674800000000000000000000000010002100008364809191000000000002            2  01083648091909091900000002113000000000001N010919000000000000000000000000000000000000000000000000000000000000000100008364834800JOSEFINA CORREA RAMA DOS SANTOS         AVENIDA PRESIDENTE CASTELO BRANCO - 3.78            11702700                                                            000056
2SR. CAIXA, APOS O VENCIMENTO COBRAR 10% DE MULTA                                NAO RECEBER APOS 30 DIAS DO VENCIMENTO.                                                                                                                                                                                                         01091900000000000000109190000000000000       0090770900016748083648091910000057
100000000000000000000009077090001674800000000000000000000000010002100037713309191100000000002            2  01377133091909091900000001728800000000001N010919000000000000000000000000000000000000000000000000000000000000000100037713356800JAMILLE PAULA BUENO LOPES               RUA CURIO (COND.NEW VILLE) - 172 - SURU             06509031                                                            000059
2SR. CAIXA, APOS O VENCIMENTO COBRAR 10% DE MULTA                                NAO RECEBER APOS 30 DIAS DO VENCIMENTO.                                                                                                                                                                                                         01091900000000000000109190000000000000       0090770900016748377133091911000060
100000000000000000000009077090001674800000000000000000000000010002100027100909191900000000002            2  01271009091909091900000002014070000000001N010919000000000000000000000000000000000000000000000000000000000000000100027100951810MARCIA RAMALHO RODRIGUES                RUA MONTE CASTELO - 296 AP.82 - AVIACAO             11702720                                                            000062
2SR. CAIXA, APOS O VENCIMENTO COBRAR 10% DE MULTA                                NAO RECEBER APOS 30 DIAS DO VENCIMENTO.                                                                                                                                                                                                         01091900000000000000109190000000000000       0090770900016748271009091919000063
100000000000000000000009077090001674800000000000000000000000010002100076207909191P00000000002            2  01762079091909091900000002172120000000001N010919000000000000000000000000000000000000000000000000000000000000000100076207943872JOSE MACEDO RICARTE FILHO               RUA ARTUR LOBO - 181 - JARDIM JABAQUARA             04384060                                                            000065
2SR. CAIXA, APOS O VENCIMENTO COBRAR 10% DE MULTA                                NAO RECEBER APOS 30 DIAS DO VENCIMENTO.                                                                                                                                                                                                         01091900000000000000109190000000000000       009077090001674876207909191P000066
100000000000000000000009077090001674800000000000000000000000010002100094672609191200000000002            2  01946726091909091900000002743160000000001N010919000000000000000000000000000000000000000000000000000000000000000100094672660834JOSE HENRIQUE SOARES PEREIRA INACIO     RUA MONTE CASTELO - 296 AP.34 - AVIACAO             11702720                                                            000068
2SR. CAIXA, APOS O VENCIMENTO COBRAR 10% DE MULTA                                NAO RECEBER APOS 30 DIAS DO VENCIMENTO.                                                                                                                                                                                                         01091900000000000000109190000000000000       0090770900016748946726091912000069
100000000000000000000009077090001674800000000000000000000000010002100025265209191300000000002            2  01252652091909091900000001491480000000001N010919000000000000000000000000000000000000000000000000000000000000000100025265260862SONIA MARIA CECILIO DA SILVA            RUA PRESIDENTE TANCREDO NEVES - 1093 AP.            06329350                                                            000071
2SR. CAIXA, APOS O VENCIMENTO COBRAR 10% DE MULTA                                NAO RECEBER APOS 30 DIAS DO VENCIMENTO.                                                                                                                                                                                                         01091900000000000000109190000000000000       0090770900016748252652091913000072
100000000000000000000009077090001674800000000000000000000000010002100011381909191000000000002            2  01113819091909091900000002842700000000001N010919000000000000000000000000000000000000000000000000000000000000000100011381987818MARIO DONIZETE MIGUEL DA SILVA          RUA JASPE - 215 - HIGIANOPOLIS - JANDIRA            06642270                                                            000074
2SR. CAIXA, APOS O VENCIMENTO COBRAR 10% DE MULTA                                NAO RECEBER APOS 30 DIAS DO VENCIMENTO.                                                                                                                                                                                                         01091900000000000000109190000000000000       0090770900016748113819091910000075
100000000000000000000009077090001674800000000000000000000000010002100020105509191700000000002            2  01201055091909091900000002304250000000001N010919000000000000000000000000000000000000000000000000000000000000000100020105503827VALTER DE SOUSA LIBARINO FILHO          RUA DAS PAINEIRAS - 140 - BAIRRO LARANJE            07741205                                                            000077
2SR. CAIXA, APOS O VENCIMENTO COBRAR 10% DE MULTA                                NAO RECEBER APOS 30 DIAS DO VENCIMENTO.                                                                                                                                                                                                         01091900000000000000109190000000000000       0090770900016748201055091917000078
100000000000000000000009077090001674800000000000000000000000010002100003010509191400000000002            2  01030105091909091900000002489750000000001N010919000000000000000000000000000000000000000000000000000000000000000100003010502877GIZELA VIEIRA BARROS                    RUA GIACOMO DALCIN - 157 - NOVA GERTY -             09580350                                                            000080
2SR. CAIXA, APOS O VENCIMENTO COBRAR 10% DE MULTA                                NAO RECEBER APOS 30 DIAS DO VENCIMENTO.                                                                                                                                                                                                         01091900000000000000109190000000000000       0090770900016748030105091914000081
100000000000000000000009077090001674800000000000000000000000010002100036712509191500000000002            2  01367125091909091900000001854640000000001N010919000000000000000000000000000000000000000000000000000000000000000100036712580803WALTER BARRETO DE ALMEIDA               RUA MONTE CASTELO - 296 AP.44 - AVIACAO             11702720                                                            000083
2SR. CAIXA, APOS O VENCIMENTO COBRAR 10% DE MULTA                                NAO RECEBER APOS 30 DIAS DO VENCIMENTO.                                                                                                                                                                                                         01091900000000000000109190000000000000       0090770900016748367125091915000084
9                                                                                                                                                                                                                                                                                                                                                                                                         000085