01REMESSA01COBRANCA       00000000000004991788AIRES DESENVOLVIMENTO IMOBILIA237BRADESCO       061217        MX0000118                                                                                                                                                                                                                                                                                     000001
100000000000000000000009077090011897400000000000000000000000010002100011088012171800000000002            2  01110880121725121700000001840250000000001N061217000000000000000000000000000000000000000000000000000000000000000100011088018890LUIZ CARLOS VITORINO MADEIRA            RUA JOSE CALIXTO DO CARMO - 265 AP. 32 -            11702690                                                            000002
2SR. CAIXA, APOS O VENCIMENTO COBRAR 10% DE MULTA                                NAO RECEBER APOS 30 DIAS DO VENCIMENTO.                                                                                                                                                                                                         06121700000000000000612170000000000000       0090770900118974110880121718000003
100000000000000000000009077090011897400000000000000000000000010002100004007812171200000000002            2  01040078121725121700000002677790000000001N061217000000000000000000000000000000000000000000000000000000000000000100004007807809CLAUDIO CANESCHI                        RUA AGRESTE  DE ITABAINA - 663 - VILA UN            03683000                                                            000005
2SR. CAIXA, APOS O VENCIMENTO COBRAR 10% DE MULTA                                NAO RECEBER APOS 30 DIAS DO VENCIMENTO.                                                                                                                                                                                                         06121700000000000000612170000000000000       0090770900118974040078121712000006
100000000000000000000009077090011897400000000000000000000000010002100000796512171100000000002            2  01007965121725121700000002986700000000001N061217000000000000000000000000000000000000000000000000000000000000000100000796517800WLADIMIR RODRIGUES                      R:JOSE DA SILVA RIBEIRO - 576 AP.233 - B            05726130                                                            000008
2SR. CAIXA, APOS O VENCIMENTO COBRAR 10% DE MULTA                                NAO RECEBER APOS 30 DIAS DO VENCIMENTO.                                                                                                                                                                                                         06121700000000000000612170000000000000       0090770900118974007965121711000009
100000000000000000000009077090011897400000000000000000000000010002100015110712171500000000002            2  01151107121725121700000002905480000000001N061217000000000000000000000000000000000000000000000000000000000000000100015110751803LILIAN CARRARA DA SILVA CANDIDO         ALAMEDA VICENTE DE CARVALHO - 65 - JARDI            07600000                                                            000011
2SR. CAIXA, APOS O VENCIMENTO COBRAR 10% DE MULTA                                NAO RECEBER APOS 30 DIAS DO VENCIMENTO.                                                                                                                                                                                                         06121700000000000000612170000000000000       0090770900118974151107121715000012
100000000000000000000009077090011897400000000000000000000000010002100005204612171900000000002            2  01052046121725121700000002810510000000001N061217000000000000000000000000000000000000000000000000000000000000000100005204692835RINALDO DA MOTTA                        JOSE CALIXTO DO CARMO - 265 AP.93 - AVIA            11702690                                                            000014
2SR. CAIXA, APOS O VENCIMENTO COBRAR 10% DE MULTA                                NAO RECEBER APOS 30 DIAS DO VENCIMENTO.                                                                                                                                                                                                         06121700000000000000612170000000000000       0090770900118974052046121719000015
100000000000000000000009077090011897400000000000000000000000010002100022090412171400000000002            2  01220904121725121700000002226370000000001N061217000000000000000000000000000000000000000000000000000000000000000100022090439807FELIPE LUCIO LOPES                      RUA JOSE CALIXTO DO CARMO - 265 AP.103 -            11702690                                                            000017
2SR. CAIXA, APOS O VENCIMENTO COBRAR 10% DE MULTA                                NAO RECEBER APOS 30 DIAS DO VENCIMENTO.                                                                                                                                                                                                         06121700000000000000612170000000000000       0090770900118974220904121714000018
100000000000000000000009077090011897400000000000000000000000010002100070237812171700000000002            2  01702378121725121700000002883680000000001N061217000000000000000000000000000000000000000000000000000000000000000100070237824434ANTONIO FERREIRA NETO                   RUA HENRIQUE MINDLIM - 161 - JD. ORIENTA            04349250                                                            000020
2SR. CAIXA, APOS O VENCIMENTO COBRAR 10% DE MULTA                                NAO RECEBER APOS 30 DIAS DO VENCIMENTO.                                                                                                                                                                                                         06121700000000000000612170000000000000       0090770900118974702378121717000021
100000000000000000000009077090011897400000000000000000000000010002100005677412171200000000002            2  01056774121725121700000002924550000000001N061217000000000000000000000000000000000000000000000000000000000000000100005677409863ROSA MARIA OLIVIERI MEMOLI              CONSELHEIRO NEBIAS - 1409 - CAMPOS ELISE            01203002                                                            000023
2SR. CAIXA, APOS O VENCIMENTO COBRAR 10% DE MULTA                                NAO RECEBER APOS 30 DIAS DO VENCIMENTO.                                                                                                                                                                                                         06121700000000000000612170000000000000       0090770900118974056774121712000024
100000000000000000000009077090011897400000000000000000000000010002100034771612171500000000002            2  01347716121725121700000002794680000000001N061217000000000000000000000000000000000000000000000000000000000000000100034771609837MARCELO ALEXANDRE CARVALHO              RUA ECAUNA - 222 - JARDIM UMARIZAL - SAO            05754040                                                            000026
2SR. CAIXA, APOS O VENCIMENTO COBRAR 10% DE MULTA                                NAO RECEBER APOS 30 DIAS DO VENCIMENTO.                                                                                                                                                                                                         06121700000000000000612170000000000000       0090770900118974347716121715000027
9                                                                                                                                                                                                                                                                                                                                                                                                         000028