01REMESSA01COBRANCA       00000000000004991454AIRES CONSTRUTORA E INCORPORAD237BRADESCO       010519        MX0000131                                                                                                                                                                                                                                                                                     000001
100000000000000000000009077090001674800000000000000000000000010002100099740405191900000000002            2  01997404051909051900000002962490000000001N010519000000000000000000000000000000000000000000000000000000000000000100099740451853ARNALDO DA SILVA SALES                  RUA ALEGRE - 210 - VILA SAO RAFAEL - GUA            07053100                                                            000002
2SR. CAIXA, APOS O VENCIMENTO COBRAR 10% DE MULTA                                NAO RECEBER APOS 30 DIAS DO VENCIMENTO.                                                                                                                                                                                                         01051900000000000000105190000000000000       0090770900016748997404051919000003
100000000000000000000009077090001674800000000000000000000000010002100049736705191900000000002            2  01497367051909051900000001797640000000001N010519000000000000000000000000000000000000000000000000000000000000000100049736787320RAIMUNDO VIEIRA DA SILVA                RUA BOLIVIA - 81 AP.ZELADORIA - JARDIM G            11701850                                                            000005
2SR. CAIXA, APOS O VENCIMENTO COBRAR 10% DE MULTA                                NAO RECEBER APOS 30 DIAS DO VENCIMENTO.                                                                                                                                                                                                         01051900000000000000105190000000000000       0090770900016748497367051919000006
100000000000000000000009077090001674800000000000000000000000010002100044380705191300000000002            2  01443807051909051900000004778810000000001N010519000000000000000000000000000000000000000000000000000000000000000100044380725812FERNANDO FIRMINO DOS SANTOS             RUA BARAO GERALDO DE RESENDE - 401 - BAI            05205220                                                            000008
2SR. CAIXA, APOS O VENCIMENTO COBRAR 10% DE MULTA                                NAO RECEBER APOS 30 DIAS DO VENCIMENTO.                                                                                                                                                                                                         01051900000000000000105190000000000000       0090770900016748443807051913000009
100000000000000000000009077090001674800000000000000000000000010002100025469405191400000000002            2  01254694051909051900000001487550000000001N010519000000000000000000000000000000000000000000000000000000000000000100025469470873JULIA MARIA RODRIGUES MARTINS           AVENIDA JOAO FIRMINO - 1229 AP.21 - BAIR            09810260                                                            000011
2SR. CAIXA, APOS O VENCIMENTO COBRAR 10% DE MULTA                                NAO RECEBER APOS 30 DIAS DO VENCIMENTO.                                                                                                                                                                                                         01051900000000000000105190000000000000       0090770900016748254694051914000012
100000000000000000000009077090001674800000000000000000000000010002100004759505191500000000002            2  01047595051909051900000003601500000000001N010519000000000000000000000000000000000000000000000000000000000000000100004759534873AGNALDO PORFIRIO DOS SANTOS             RUA JUVENCIO GASPAR DA SILVA - 35 - SAO             04303060                                                            000014
2SR. CAIXA, APOS O VENCIMENTO COBRAR 10% DE MULTA                                NAO RECEBER APOS 30 DIAS DO VENCIMENTO.                                                                                                                                                                                                         01051900000000000000105190000000000000       0090770900016748047595051915000015
100000000000000000000009077090001674800000000000000000000000010002100090830405191900000000002            2  01908304051909051900000001135400000000001N010519000000000000000000000000000000000000000000000000000000000000000100090830490868IVONETE FERNANDES                       AVENIDA FREDERICO OZANAN - 5504 - VILA R            13215276                                                            000017
2SR. CAIXA, APOS O VENCIMENTO COBRAR 10% DE MULTA                                NAO RECEBER APOS 30 DIAS DO VENCIMENTO.                                                                                                                                                                                                         01051900000000000000105190000000000000       0090770900016748908304051919000018
100000000000000000000009077090001674800000000000000000000000010002100027093905191000000000002            2  01270939051909051900000002814700000000001N010519000000000000000000000000000000000000000000000000000000000000000100027093944809DAVID ALEXANDRE XAVIER ROCHA            RUA MONTE CASTELO - 296 AP.54 - AVIACAO             11702720                                                            000020
2SR. CAIXA, APOS O VENCIMENTO COBRAR 10% DE MULTA                                NAO RECEBER APOS 30 DIAS DO VENCIMENTO.                                                                                                                                                                                                         01051900000000000000105190000000000000       0090770900016748270939051910000021
100000000000000000000009077090001674800000000000000000000000010002100068273205191700000000002            2  01682732051909051900000002048900000000001N010519000000000000000000000000000000000000000000000000000000000000000100068273290891DERNEVAL JOSE MUNIZ                     RUA MARTINOPOLIS - 98 - JARDIM OTAWA - G            07230230                                                            000023
2SR. CAIXA, APOS O VENCIMENTO COBRAR 10% DE MULTA                                NAO RECEBER APOS 30 DIAS DO VENCIMENTO.                                                                                                                                                                                                         01051900000000000000105190000000000000       0090770900016748682732051917000024
100000000000000000000009077090001674800000000000000000000000010002100001817505191P00000000002            2  01018175051909051900000001751050000000001N010519000000000000000000000000000000000000000000000000000000000000000100001817534807SANTINA SALVINA SOARES                  RUA CAIAPOS - 1066 AP.43 - VILA TUPI - P            11703320                                                            000026
2SR. CAIXA, APOS O VENCIMENTO COBRAR 10% DE MULTA                                NAO RECEBER APOS 30 DIAS DO VENCIMENTO.                                                                                                                                                                                                         01051900000000000000105190000000000000       009077090001674801817505191P000027
100000000000000000000009077090001674800000000000000000000000010002100086755705191700000000002            2  01867557051909051900000001891710000000001N010519000000000000000000000000000000000000000000000000000000000000000100086755790800GERALDO JAIR BROGLIATTO                 DR.ARMANDO COSTA MAGALHAES - 176 - VILA             13270490                                                            000029
2SR. CAIXA, APOS O VENCIMENTO COBRAR 10% DE MULTA                                NAO RECEBER APOS 30 DIAS DO VENCIMENTO.                                                                                                                                                                                                         01051900000000000000105190000000000000       0090770900016748867557051917000030
100000000000000000000009077090001674800000000000000000000000010002100007996005191000000000002            2  01079960051909051900000001879220000000001N010519000000000000000000000000000000000000000000000000000000000000000100007996062862HENRIQUE SALVADOR                       RUA DARDANELOS - 689 - PARQUE NOVO ORATO            09260060                                                            000032
2SR. CAIXA, APOS O VENCIMENTO COBRAR 10% DE MULTA                                NAO RECEBER APOS 30 DIAS DO VENCIMENTO.                                                                                                                                                                                                         01051900000000000000105190000000000000       0090770900016748079960051910000033
100000000000000000000009077090001674800000000000000000000000010002100010066005191800000000002            2  01100660051909051900000002517500000000001N010519000000000000000000000000000000000000000000000000000000000000000100010066071534MOISES ROQUE DO ROSARIO                 RUA DAS PAPOULAS - 53 - VILA BELA - SAO             03202010                                                            000035
2SR. CAIXA, APOS O VENCIMENTO COBRAR 10% DE MULTA                                NAO RECEBER APOS 30 DIAS DO VENCIMENTO.                                                                                                                                                                                                         01051900000000000000105190000000000000       0090770900016748100660051918000036
100000000000000000000009077090001674800000000000000000000000010002100085910005191900000000002            2  01859100051909051900000002872550000000001N010519000000000000000000000000000000000000000000000000000000000000000100085910031872SERGIO NOGUEIRA                         RUA MONTE CASTELO - 262 AP.55 - AVIACAO             11702720                                                            000038
2SR. CAIXA, APOS O VENCIMENTO COBRAR 10% DE MULTA                                NAO RECEBER APOS 30 DIAS DO VENCIMENTO.                                                                                                                                                                                                         01051900000000000000105190000000000000       0090770900016748859100051919000039
100000000000000000000009077090001674800000000000000000000000010002100000746805191200000000002            2  01007468051909051900000002322360000000001N010519000000000000000000000000000000000000000000000000000000000000000100000746845820ANTONIO CARLOS DE MELLO                 RUA CONGO - 118 - PARQUE MONTE ALEGRE -             06756270                                                            000041
2SR. CAIXA, APOS O VENCIMENTO COBRAR 10% DE MULTA                                NAO RECEBER APOS 30 DIAS DO VENCIMENTO.                                                                                                                                                                                                         01051900000000000000105190000000000000       0090770900016748007468051912000042
100000000000000000000009077090001674800000000000000000000000010002100028196105191800000000002            2  01281961051909051900000001672300000000001N010519000000000000000000000000000000000000000000000000000000000000000100028196184808VANESSA NOGUEIRA CAMBUI DA SILVA        CRISTOVAO COLOMBO - 217 - VILA AMERICA -            09110160                                                            000044
2SR. CAIXA, APOS O VENCIMENTO COBRAR 10% DE MULTA                                NAO RECEBER APOS 30 DIAS DO VENCIMENTO.                                                                                                                                                                                                         01051900000000000000105190000000000000       0090770900016748281961051918000045
100000000000000000000009077090001674800000000000000000000000010002100049730805191300000000002            2  01497308051909051900000001372740000000001N010519000000000000000000000000000000000000000000000000000000000000000100049730835420PEDRO LUIZ DO BOM FIM FILHO             RUA NASCER DO SOL - 91 - BAIRRO PIRAPORI            09951475                                                            000047
2SR. CAIXA, APOS O VENCIMENTO COBRAR 10% DE MULTA                                NAO RECEBER APOS 30 DIAS DO VENCIMENTO.                                                                                                                                                                                                         01051900000000000000105190000000000000       0090770900016748497308051913000048
100000000000000000000009077090001674800000000000000000000000010002100027067005191900000000002            2  01270670051909051900000001703160000000001N010519000000000000000000000000000000000000000000000000000000000000000100027067002893MARCIA NASCIMENTO DE MORAES             RUA MONTE CASTELO - 296 AP.11 - AVIACAO             11702720                                                            000050
2SR. CAIXA, APOS O VENCIMENTO COBRAR 10% DE MULTA                                NAO RECEBER APOS 30 DIAS DO VENCIMENTO.                                                                                                                                                                                                         01051900000000000000105190000000000000       0090770900016748270670051919000051
100000000000000000000009077090001674800000000000000000000000010002100064435705191300000000002            2  01644357051909051900000001703160000000001N010519000000000000000000000000000000000000000000000000000000000000000100064435741849JURACY DA SILVA                         RUA JACARATINGA - 192 - JARDIM PIRAJUCAR            05786120                                                            000053
2SR. CAIXA, APOS O VENCIMENTO COBRAR 10% DE MULTA                                NAO RECEBER APOS 30 DIAS DO VENCIMENTO.                                                                                                                                                                                                         01051900000000000000105190000000000000       0090770900016748644357051913000054
100000000000000000000009077090001674800000000000000000000000010002100094921805191200000000002            2  01949218051909051900000001690480000000001N010519000000000000000000000000000000000000000000000000000000000000000100094921890897JOAO JORGE DA ROSA FILHO                RUA OLAVO EGIDIO DE SOUZA ARANHA - 368 A            03822000                                                            000056
2SR. CAIXA, APOS O VENCIMENTO COBRAR 10% DE MULTA                                NAO RECEBER APOS 30 DIAS DO VENCIMENTO.                                                                                                                                                                                                         01051900000000000000105190000000000000       0090770900016748949218051912000057
100000000000000000000009077090001674800000000000000000000000010002100008364805191900000000002            2  01083648051909051900000002050780000000001N010519000000000000000000000000000000000000000000000000000000000000000100008364834800JOSEFINA CORREA RAMA DOS SANTOS         AVENIDA PRESIDENTE CASTELO BRANCO - 3.78            11702700                                                            000059
2SR. CAIXA, APOS O VENCIMENTO COBRAR 10% DE MULTA                                NAO RECEBER APOS 30 DIAS DO VENCIMENTO.                                                                                                                                                                                                         01051900000000000000105190000000000000       0090770900016748083648051919000060
100000000000000000000009077090001674800000000000000000000000010002100037713305191P00000000002            2  01377133051909051900000001677900000000001N010519000000000000000000000000000000000000000000000000000000000000000100037713356800JAMILLE PAULA BUENO LOPES               RUA CURIO (COND.NEW VILLE) - 172 - SURU             06509031                                                            000062
2SR. CAIXA, APOS O VENCIMENTO COBRAR 10% DE MULTA                                NAO RECEBER APOS 30 DIAS DO VENCIMENTO.                                                                                                                                                                                                         01051900000000000000105190000000000000       009077090001674837713305191P000063
100000000000000000000009077090001674800000000000000000000000010002100027100905191700000000002            2  01271009051909051900000001954770000000001N010519000000000000000000000000000000000000000000000000000000000000000100027100951810MARCIA RAMALHO RODRIGUES                RUA MONTE CASTELO - 296 AP.82 - AVIACAO             11702720                                                            000065
2SR. CAIXA, APOS O VENCIMENTO COBRAR 10% DE MULTA                                NAO RECEBER APOS 30 DIAS DO VENCIMENTO.                                                                                                                                                                                                         01051900000000000000105190000000000000       0090770900016748271009051917000066
100000000000000000000009077090001674800000000000000000000000010002100076207905191800000000002            2  01762079051909051900000002108160000000001N010519000000000000000000000000000000000000000000000000000000000000000100076207943872JOSE MACEDO RICARTE FILHO               RUA ARTUR LOBO - 181 - JARDIM JABAQUARA             04384060                                                            000068
2SR. CAIXA, APOS O VENCIMENTO COBRAR 10% DE MULTA                                NAO RECEBER APOS 30 DIAS DO VENCIMENTO.                                                                                                                                                                                                         01051900000000000000105190000000000000       0090770900016748762079051918000069
100000000000000000000009077090001674800000000000000000000000010002100094672605191000000000002            2  01946726051909051900000002662380000000001N010519000000000000000000000000000000000000000000000000000000000000000100094672660834JOSE HENRIQUE SOARES PEREIRA INACIO     RUA MONTE CASTELO - 296 AP.34 - AVIACAO             11702720                                                            000071
2SR. CAIXA, APOS O VENCIMENTO COBRAR 10% DE MULTA                                NAO RECEBER APOS 30 DIAS DO VENCIMENTO.                                                                                                                                                                                                         01051900000000000000105190000000000000       0090770900016748946726051910000072
100000000000000000000009077090001674800000000000000000000000010002100025265205191100000000002            2  01252652051909051900000001447560000000001N010519000000000000000000000000000000000000000000000000000000000000000100025265260862SONIA MARIA CECILIO DA SILVA            RUA PRESIDENTE TANCREDO NEVES - 1093 AP.            06329350                                                            000074
2SR. CAIXA, APOS O VENCIMENTO COBRAR 10% DE MULTA                                NAO RECEBER APOS 30 DIAS DO VENCIMENTO.                                                                                                                                                                                                         01051900000000000000105190000000000000       0090770900016748252652051911000075
100000000000000000000009077090001674800000000000000000000000010002100011381905191900000000002            2  01113819051909051900000002759000000000001N010519000000000000000000000000000000000000000000000000000000000000000100011381987818MARIO DONIZETE MIGUEL DA SILVA          RUA JASPE - 215 - HIGIANOPOLIS - JANDIRA            06642270                                                            000077
2SR. CAIXA, APOS O VENCIMENTO COBRAR 10% DE MULTA                                NAO RECEBER APOS 30 DIAS DO VENCIMENTO.                                                                                                                                                                                                         01051900000000000000105190000000000000       0090770900016748113819051919000078
100000000000000000000009077090001674800000000000000000000000010002100020105505191500000000002            2  01201055051909051900000002236400000000001N010519000000000000000000000000000000000000000000000000000000000000000100020105503827VALTER DE SOUSA LIBARINO FILHO          RUA DAS PAINEIRAS - 140 - BAIRRO LARANJE            07741205                                                            000080
2SR. CAIXA, APOS O VENCIMENTO COBRAR 10% DE MULTA                                NAO RECEBER APOS 30 DIAS DO VENCIMENTO.                                                                                                                                                                                                         01051900000000000000105190000000000000       0090770900016748201055051915000081
100000000000000000000009077090001674800000000000000000000000010002100003010505191200000000002            2  01030105051909051900000002416440000000001N010519000000000000000000000000000000000000000000000000000000000000000100003010502877GIZELA VIEIRA BARROS                    RUA GIACOMO DALCIN - 157 - NOVA GERTY -             09580350                                                            000083
2SR. CAIXA, APOS O VENCIMENTO COBRAR 10% DE MULTA                                NAO RECEBER APOS 30 DIAS DO VENCIMENTO.                                                                                                                                                                                                         01051900000000000000105190000000000000       0090770900016748030105051912000084
100000000000000000000009077090001674800000000000000000000000010002100036712505191300000000002            2  01367125051909051900000001800030000000001N010519000000000000000000000000000000000000000000000000000000000000000100036712580803WALTER BARRETO DE ALMEIDA               RUA MONTE CASTELO - 296 AP.44 - AVIACAO             11702720                                                            000086
2SR. CAIXA, APOS O VENCIMENTO COBRAR 10% DE MULTA                                NAO RECEBER APOS 30 DIAS DO VENCIMENTO.                                                                                                                                                                                                         01051900000000000000105190000000000000       0090770900016748367125051913000087
9                                                                                                                                                                                                                                                                                                                                                                                                         000088