01REMESSA01COBRANCA       00000000000004991788AIRES DESENVOLVIMENTO IMOBILIA237BRADESCO       011217        MX0000117                                                                                                                                                                                                                                                                                     000001
100000000000000000000009077090011897400000000000000000000000010002100021570812171000000000002            2  01215708121710121700000002398690000000001N011217000000000000000000000000000000000000000000000000000000000000000100021570843805RODRIGO LESSANDRO FREGATE               RUA JOSE PEDRO DORO - 451 BLOCO RIO GRAN            02880010                                                            000002
2SR. CAIXA, APOS O VENCIMENTO COBRAR 10% DE MULTA                                NAO RECEBER APOS 30 DIAS DO VENCIMENTO.                                                                                                                                                                                                         01121700000000000000112170000000000000       0090770900118974215708121710000003
100000000000000000000009077090011897400000000000000000000000010002100007456812171200000000002            2  01074568121710121700000002339380000000001N011217000000000000000000000000000000000000000000000000000000000000000100007456836817REGINA CELIA RONDELLI                   RUA CANANEIA - 168 APTO 134 BL.C2 - SANT            09060480                                                            000005
2SR. CAIXA, APOS O VENCIMENTO COBRAR 10% DE MULTA                                NAO RECEBER APOS 30 DIAS DO VENCIMENTO.                                                                                                                                                                                                         01121700000000000000112170000000000000       0090770900118974074568121712000006
100000000000000000000009077090011897400000000000000000000000010002100007508712171500000000002            2  01075087121710121700000002754150000000001N011217000000000000000000000000000000000000000000000000000000000000000100007508759842LAERCIO DA CRUZ FERREIRA                RUA JOSE BENEDITO SALINAS - 110 APTO 161            04674200                                                            000008
2SR. CAIXA, APOS O VENCIMENTO COBRAR 10% DE MULTA                                NAO RECEBER APOS 30 DIAS DO VENCIMENTO.                                                                                                                                                                                                         01121700000000000000112170000000000000       0090770900118974075087121715000009
100000000000000000000009077090011897400000000000000000000000010002100010653212171500000000002            2  01106532121710121700000002488080000000001N011217000000000000000000000000000000000000000000000000000000000000000100010653257899MARCIO DE SOUZA AZEVEDO                 RUA CASABLANCA - 105 - PARQUE MONTE ALEG            06756400                                                            000011
2SR. CAIXA, APOS O VENCIMENTO COBRAR 10% DE MULTA                                NAO RECEBER APOS 30 DIAS DO VENCIMENTO.                                                                                                                                                                                                         01121700000000000000112170000000000000       0090770900118974106532121715000012
100000000000000000000009077090011897400000000000000000000000010002100068006212171100000000002            2  01680062121710121700000002477010000000001N011217000000000000000000000000000000000000000000000000000000000000000100068006292868FRANCISCO VIEIRA SOUSA                  RUA SERRA DA CANTAREIRA - 104 - JARDIM E            06413090                                                            000014
2SR. CAIXA, APOS O VENCIMENTO COBRAR 10% DE MULTA                                NAO RECEBER APOS 30 DIAS DO VENCIMENTO.                                                                                                                                                                                                         01121700000000000000112170000000000000       0090770900118974680062121711000015
100000000000000000000009077090011897400000000000000000000000010002100022288712171600000000002            2  01222887121710121700000002948740000000001N011217000000000000000000000000000000000000000000000000000000000000000100022288772808FERNANDA TAVARES MASANO                 RUA JOSE CALIXTO DO CARMO - 265 AP. 124             11702690                                                            000017
2SR. CAIXA, APOS O VENCIMENTO COBRAR 10% DE MULTA                                NAO RECEBER APOS 30 DIAS DO VENCIMENTO.                                                                                                                                                                                                         01121700000000000000112170000000000000       0090770900118974222887121716000018
100000000000000000000009077090011897400000000000000000000000010002100032223812171P00000000002            2  01322238121710121700000002753600000000001N011217000000000000000000000000000000000000000000000000000000000000000100032223890806ELISANGELA CAMARGO BRAGA                RUA JOSE CALIXTO DO CARMO - 265 AP.24 -             11702690                                                            000020
2SR. CAIXA, APOS O VENCIMENTO COBRAR 10% DE MULTA                                NAO RECEBER APOS 30 DIAS DO VENCIMENTO.                                                                                                                                                                                                         01121700000000000000112170000000000000       009077090011897432223812171P000021
100000000000000000000009077090011897400000000000000000000000010002100010177112171700000000002            2  01101771121710121700000002638350000000001N011217000000000000000000000000000000000000000000000000000000000000000100010177135883VERONICA DE LIMA SANTOS                 RUA ARAGAO - 1099 - TUCURUVI - SAO PAULO            02308001                                                            000023
2SR. CAIXA, APOS O VENCIMENTO COBRAR 10% DE MULTA                                NAO RECEBER APOS 30 DIAS DO VENCIMENTO.                                                                                                                                                                                                         01121700000000000000112170000000000000       0090770900118974101771121717000024
100000000000000000000009077090011897400000000000000000000000010002100031000712171900000000002            2  01310007121710121700000002619840000000001N011217000000000000000000000000000000000000000000000000000000000000000100031000769828ANDREIA CARLA SOUSA                     RUA JOSE CALIXTO DO CARMO - 265 AP.73 -             11702690                                                            000026
2SR. CAIXA, APOS O VENCIMENTO COBRAR 10% DE MULTA                                NAO RECEBER APOS 30 DIAS DO VENCIMENTO.                                                                                                                                                                                                         01121700000000000000112170000000000000       0090770900118974310007121719000027
100000000000000000000009077090011897400000000000000000000000010002100027324612171P00000000002            2  01273246121710121700000003337130000000001N011217000000000000000000000000000000000000000000000000000000000000000100027324650899LUCIANO MARTINEZ                        RUA MORGADO DE MATEUS - 473 - VILA MARIA            04015051                                                            000029
2SR. CAIXA, APOS O VENCIMENTO COBRAR 10% DE MULTA                                NAO RECEBER APOS 30 DIAS DO VENCIMENTO.                                                                                                                                                                                                         01121700000000000000112170000000000000       009077090011897427324612171P000030
100000000000000000000009077090011897400000000000000000000000010002100005253112171900000000002            2  01052531121710121700000002329190000000001N011217000000000000000000000000000000000000000000000000000000000000000100005253129863ADILSON JOSE BORGES                     RUA CIRIACO JIMENEZ - 83 - PARQUE NACOES            02996070                                                            000032
2SR. CAIXA, APOS O VENCIMENTO COBRAR 10% DE MULTA                                NAO RECEBER APOS 30 DIAS DO VENCIMENTO.                                                                                                                                                                                                         01121700000000000000112170000000000000       0090770900118974052531121719000033
100000000000000000000009077090011897400000000000000000000000010002100003996812171100000000002            2  01039968121710121700000002461100000000001N011217000000000000000000000000000000000000000000000000000000000000000100003996827830RONALDO PINTO BORGES                    MAGNOLIA DELFIM DA SILVA - 44 - JARDIM O            05363040                                                            000035
2SR. CAIXA, APOS O VENCIMENTO COBRAR 10% DE MULTA                                NAO RECEBER APOS 30 DIAS DO VENCIMENTO.                                                                                                                                                                                                         01121700000000000000112170000000000000       0090770900118974039968121711000036
100000000000000000000009077090011897400000000000000000000000010002100012708312171000000000002            2  01127083121710121700000001464300000000001N011217000000000000000000000000000000000000000000000000000000000000000100012708342827ADRIANA RATIER CRUZ                     RUA JOSE CALIXTO DO CARMO - 295 APTO 31             11702690                                                            000038
2SR. CAIXA, APOS O VENCIMENTO COBRAR 10% DE MULTA                                NAO RECEBER APOS 30 DIAS DO VENCIMENTO.                                                                                                                                                                                                         01121700000000000000112170000000000000       0090770900118974127083121710000039
100000000000000000000009077090011897400000000000000000000000010002100000452412171700000000002            2  01004524121710121700000001235060000000001N011217000000000000000000000000000000000000000000000000000000000000000100000452415896MARILUCE SANTOS DE ALMEIDA              RUA JOSE CALIXTO DO CARMO - 295 AP.74 -             11702690                                                            000041
2SR. CAIXA, APOS O VENCIMENTO COBRAR 10% DE MULTA                                NAO RECEBER APOS 30 DIAS DO VENCIMENTO.                                                                                                                                                                                                         01121700000000000000112170000000000000       0090770900118974004524121717000042
100000000000000000000009077090011897400000000000000000000000010002100003406912171800000000002            2  01034069121709121700000001334540000000001N011217000000000000000000000000000000000000000000000000000000000000000100003406972888RONALDO CANDIDO PANSONATO               AV. DOM JAIME DE BARROS CAMERA - 565 AP.            09895400                                                            000044
2SR. CAIXA, APOS O VENCIMENTO COBRAR 10% DE MULTA                                NAO RECEBER APOS 30 DIAS DO VENCIMENTO.                                                                                                                                                                                                         01121700000000000000112170000000000000       0090770900118974034069121718000045
100000000000000000000009077090011897400000000000000000000000010002100028379812171P00000000002            2  01283798121701121700000003425810000000001N011217000000000000000000000000000000000000000000000000000000000000000100028379879805EDMILSON DANIEL GARCIA WATANUKI         AVENIDA PRESIDENTE CASTELO BRANCO - 4718            11702700                                                            000047
2SR. CAIXA, APOS O VENCIMENTO COBRAR 10% DE MULTA                                NAO RECEBER APOS 30 DIAS DO VENCIMENTO.                                                                                                                                                                                                         01121700000000000000112170000000000000       009077090011897428379812171P000048
100000000000000000000009077090011897400000000000000000000000010002100037491312171600000000002            2  01374913121711121700000001563110000000001N011217000000000000000000000000000000000000000000000000000000000000000100037491305822NATASHA SILVEIRA DA SILVA               RUA CONSELHEIRO ELIAS DE CARVALHO - 50 A            04373000                                                            000050
2SR. CAIXA, APOS O VENCIMENTO COBRAR 10% DE MULTA                                NAO RECEBER APOS 30 DIAS DO VENCIMENTO.                                                                                                                                                                                                         01121700000000000000112170000000000000       0090770900118974374913121716000051
100000000000000000000009077090011897400000000000000000000000010002100019851212171000000000002            2  01198512121705121700000001526270000000001N011217000000000000000000000000000000000000000000000000000000000000000100019851254800DOUGLAS TADEU DE ALMEIDA JECKS          RUA CONSELHEIRO ELIAS DE CARVALHO - 50 A            04373000                                                            000053
2SR. CAIXA, APOS O VENCIMENTO COBRAR 10% DE MULTA                                NAO RECEBER APOS 30 DIAS DO VENCIMENTO.                                                                                                                                                                                                         01121700000000000000112170000000000000       0090770900118974198512121710000054
9                                                                                                                                                                                                                                                                                                                                                                                                         000055