01REMESSA01COBRANCA       00000000000004991454AIRES CONSTRUTORA E INCORPORAD237BRADESCO       011118        MX0000120                                                                                                                                                                                                                                                                                     000001
100000000000000000000009077090001674800000000000000000000000010002100049736711182200000000002            2  01497367111824111800000001410640000000001N011118000000000000000000000000000000000000000000000000000000000000000100049736787320RAIMUNDO VIEIRA DA SILVA                RUA BOLIVIA - 81 AP.ZELADORIA - JARDIM G            11701850                                                            000002
2SR. CAIXA, APOS O VENCIMENTO COBRAR 10% DE MULTA                                NAO RECEBER APOS 30 DIAS DO VENCIMENTO.                                                                                                                                                                                                         01111800000000000000111180000000000000       0090770900016748497367111822000003
100000000000000000000009077090001674800000000000000000000000010002100068806211181400000000002            2  01688062111824111800000001251940000000001N011118000000000000000000000000000000000000000000000000000000000000000100068806272853FATIMA MOREIRA SALOMAO                  RUA TORQUATO DE CAMILLO - 84 - CARANDA B            79032031                                                            000005
2SR. CAIXA, APOS O VENCIMENTO COBRAR 10% DE MULTA                                NAO RECEBER APOS 30 DIAS DO VENCIMENTO.                                                                                                                                                                                                         01111800000000000000111180000000000000       0090770900016748688062111814000006
100000000000000000000009077090001674800000000000000000000000010002100004201611181000000000002            2  01042016111824111800000001818280000000001N011118000000000000000000000000000000000000000000000000000000000000000100004201640817SANDRA APARECIDA TOJAL                  AVENIDA MASCOTE - 81 AP.132 BL.A - VILA             04363000                                                            000008
2SR. CAIXA, APOS O VENCIMENTO COBRAR 10% DE MULTA                                NAO RECEBER APOS 30 DIAS DO VENCIMENTO.                                                                                                                                                                                                         01111800000000000000111180000000000000       0090770900016748042016111810000009
100000000000000000000009077090001674800000000000000000000000010002100025278911181400000000002            2  01252789111824111800000001947150000000001N011118000000000000000000000000000000000000000000000000000000000000000100025278913819FERNANDO LOPES DA SILVA                 RUA RUBEN DE SOUZA - 387 AP.24A - VILA I            04653170                                                            000011
2SR. CAIXA, APOS O VENCIMENTO COBRAR 10% DE MULTA                                NAO RECEBER APOS 30 DIAS DO VENCIMENTO.                                                                                                                                                                                                         01111800000000000000111180000000000000       0090770900016748252789111814000012
100000000000000000000009077090001674800000000000000000000000010002100000024611181500000000002            2  01000246111824111800000002164630000000001N011118000000000000000000000000000000000000000000000000000000000000000100000024633852JAYME MASRI                             RUA MONTE CASTELO - 296 AP.24 - BAIRRO A            11702720                                                            000014
2SR. CAIXA, APOS O VENCIMENTO COBRAR 10% DE MULTA                                NAO RECEBER APOS 30 DIAS DO VENCIMENTO.                                                                                                                                                                                                         01111800000000000000111180000000000000       0090770900016748000246111815000015
100000000000000000000009077090001674800000000000000000000000010002100013184411181900000000002            2  01131844111824111800000002247660000000001N011118000000000000000000000000000000000000000000000000000000000000000100013184404838CLAUDIO GOMES BAHIA                     RUA MARIA CONCEICAO - 89 - VILA SAO PEDR            07032070                                                            000017
2SR. CAIXA, APOS O VENCIMENTO COBRAR 10% DE MULTA                                NAO RECEBER APOS 30 DIAS DO VENCIMENTO.                                                                                                                                                                                                         01111800000000000000111180000000000000       0090770900016748131844111819000018
100000000000000000000009077090001674800000000000000000000000010002100006055511181400000000002            2  01060555111824111800000003403730000000001N011118000000000000000000000000000000000000000000000000000000000000000100006055565803EDSON ALVES                             RUA EDGAR CODAZZI - 49 CASA 02 - CIDADE             08225280                                                            000020
2SR. CAIXA, APOS O VENCIMENTO COBRAR 10% DE MULTA                                NAO RECEBER APOS 30 DIAS DO VENCIMENTO.                                                                                                                                                                                                         01111800000000000000111180000000000000       0090770900016748060555111814000021
100000000000000000000009077090001674800000000000000000000000010002100003441211181200000000002            2  01034412111824111800000002162390000000001N011118000000000000000000000000000000000000000000000000000000000000000100003441232860LUIZ CARLOS CAMARGO BIANCHI             RUA GENERAL LEITE DE CASTRO - 200 - JARD            04182020                                                            000023
2SR. CAIXA, APOS O VENCIMENTO COBRAR 10% DE MULTA                                NAO RECEBER APOS 30 DIAS DO VENCIMENTO.                                                                                                                                                                                                         01111800000000000000111180000000000000       0090770900016748034412111812000024
100000000000000000000009077090001674800000000000000000000000010002100014681411181100000000002            2  01146814111824111800000002243300000000001N011118000000000000000000000000000000000000000000000000000000000000000100014681490830HUMBERTO MOZART CALIXTO                 RUA MONTE CASTELO - 296 AP.41 - AVIACAO             11702720                                                            000026
2SR. CAIXA, APOS O VENCIMENTO COBRAR 10% DE MULTA                                NAO RECEBER APOS 30 DIAS DO VENCIMENTO.                                                                                                                                                                                                         01111800000000000000111180000000000000       0090770900016748146814111811000027
100000000000000000000009077090001674800000000000000000000000010002100023007711181400000000002            2  01230077111824111800000001834260000000001N011118000000000000000000000000000000000000000000000000000000000000000100023007705800BRUNA ANTUN AZEVEDO                     RUA MONTE CASTELO - 296 AP.62 - AVIACAO             11702720                                                            000029
2SR. CAIXA, APOS O VENCIMENTO COBRAR 10% DE MULTA                                NAO RECEBER APOS 30 DIAS DO VENCIMENTO.                                                                                                                                                                                                         01111800000000000000111180000000000000       0090770900016748230077111814000030
100000000000000000000009077090001674800000000000000000000000010002100006550711181200000000002            2  01065507111824111800000001893840000000001N011118000000000000000000000000000000000000000000000000000000000000000100006550730864IVONE APARECIDA VIEIRA GADI TEIXEIRA    RUA SAO FLORENCIO  - 1500 AP.44 BLOCO 01            03733020                                                            000032
2SR. CAIXA, APOS O VENCIMENTO COBRAR 10% DE MULTA                                NAO RECEBER APOS 30 DIAS DO VENCIMENTO.                                                                                                                                                                                                         01111800000000000000111180000000000000       0090770900016748065507111812000033
100000000000000000000009077090001674800000000000000000000000010002100000930611181700000000002            2  01009306111824111800000003393100000000001N011118000000000000000000000000000000000000000000000000000000000000000100000930668642VALERIA RODRIGUES DANTAS                RUA MONTE CASTELO - 262 AP.21 - AVIACAO             11702720                                                            000035
2SR. CAIXA, APOS O VENCIMENTO COBRAR 10% DE MULTA                                NAO RECEBER APOS 30 DIAS DO VENCIMENTO.                                                                                                                                                                                                         01111800000000000000111180000000000000       0090770900016748009306111817000036
100000000000000000000009077090001674800000000000000000000000010002100075574011181000000000002            2  01755740111824111800000002931560000000001N011118000000000000000000000000000000000000000000000000000000000000000100075574063891CASSIO TADEU DA SILVEIRA                RUA CONSELHEIRO MOREIRA DE BARROS - 1.55            02430000                                                            000038
2SR. CAIXA, APOS O VENCIMENTO COBRAR 10% DE MULTA                                NAO RECEBER APOS 30 DIAS DO VENCIMENTO.                                                                                                                                                                                                         01111800000000000000111180000000000000       0090770900016748755740111810000039
100000000000000000000009077090001674800000000000000000000000010002100000764611181900000000002            2  01007646111824111800000002168040000000001N011118000000000000000000000000000000000000000000000000000000000000000100000764632817LUIZ CARLOS ANTUNES JUNIOR              RUA MONTE CASTELO - 262 AP.35 - AVIACAO             11702720                                                            000041
2SR. CAIXA, APOS O VENCIMENTO COBRAR 10% DE MULTA                                NAO RECEBER APOS 30 DIAS DO VENCIMENTO.                                                                                                                                                                                                         01111800000000000000111180000000000000       0090770900016748007646111819000042
100000000000000000000009077090001674800000000000000000000000010002100027317611181900000000002            2  01273176111824111800000002125080000000001N011118000000000000000000000000000000000000000000000000000000000000000100027317668591ERONILTON SOUSA MOTA                    AVENIDA PRESIDENTE KENNEDY - 3203 - AVIA            11701330                                                            000044
2SR. CAIXA, APOS O VENCIMENTO COBRAR 10% DE MULTA                                NAO RECEBER APOS 30 DIAS DO VENCIMENTO.                                                                                                                                                                                                         01111800000000000000111180000000000000       0090770900016748273176111819000045
100000000000000000000009077090001674800000000000000000000000010002100066104111181900000000002            2  01661041111824111800000002191740000000001N011118000000000000000000000000000000000000000000000000000000000000000100066104106820ANADIR FERREIRA                         RUA MONTE CASTELO - 296 AP.61 - AVIACAO             11702720                                                            000047
2SR. CAIXA, APOS O VENCIMENTO COBRAR 10% DE MULTA                                NAO RECEBER APOS 30 DIAS DO VENCIMENTO.                                                                                                                                                                                                         01111800000000000000111180000000000000       0090770900016748661041111819000048
100000000000000000000009077090001674800000000000000000000000010002100072078311181600000000002            2  01720783111824111800000001102000000000001N011118000000000000000000000000000000000000000000000000000000000000000100072078332704FATIMA DA CONCEICAO BEZERRA             RUA DO MANIFESTO - 2.822 CASA 5 - IPIRAN            04209003                                                            000050
2SR. CAIXA, APOS O VENCIMENTO COBRAR 10% DE MULTA                                NAO RECEBER APOS 30 DIAS DO VENCIMENTO.                                                                                                                                                                                                         01111800000000000000111180000000000000       0090770900016748720783111816000051
100000000000000000000009077090001674800000000000000000000000010002100057014511181500000000002            2  01570145111824111800000002460810000000001N011118000000000000000000000000000000000000000000000000000000000000000100057014582887SONIA MARIA DA SILVA PEGORARO           RUA FRANCO PAULISTA  - 80 - AGUA FRIA -             02332030                                                            000053
2SR. CAIXA, APOS O VENCIMENTO COBRAR 10% DE MULTA                                NAO RECEBER APOS 30 DIAS DO VENCIMENTO.                                                                                                                                                                                                         01111800000000000000111180000000000000       0090770900016748570145111815000054
100000000000000000000009077090001674800000000000000000000000010002100006505311181200000000002            2  01065053111824111800000002674650000000001N011118000000000000000000000000000000000000000000000000000000000000000100006505382852LUIS ANTONIO DINIS HENRIQUES            RUA ESTEVAO  BAIAO - 520 AP.93A - CAMPO             04624002                                                            000056
2SR. CAIXA, APOS O VENCIMENTO COBRAR 10% DE MULTA                                NAO RECEBER APOS 30 DIAS DO VENCIMENTO.                                                                                                                                                                                                         01111800000000000000111180000000000000       0090770900016748065053111812000057
100000000000000000000009077090001674800000000000000000000000010002100011544711181500000000002            2  01115447111824111800000004858860000000001N011118000000000000000000000000000000000000000000000000000000000000000100011544777620GRACIELY RODRIGUES FERNANDES            RUA MONTE CASTELO - 262 AP.111 - AVIACAO            11702720                                                            000059
2SR. CAIXA, APOS O VENCIMENTO COBRAR 10% DE MULTA                                NAO RECEBER APOS 30 DIAS DO VENCIMENTO.                                                                                                                                                                                                         01111800000000000000111180000000000000       0090770900016748115447111815000060
100000000000000000000009077090001674800000000000000000000000010002100005629011181P00000000002            2  01056290111824111800000010938080000000001N011118000000000000000000000000000000000000000000000000000000000000000100005629087819ROMILDO MARTINS PIZA                    RUA MAESTRO ARTURO DE ANGELIS - 190 AP.3            05139010                                                            000062
2SR. CAIXA, APOS O VENCIMENTO COBRAR 10% DE MULTA                                NAO RECEBER APOS 30 DIAS DO VENCIMENTO.                                                                                                                                                                                                         01111800000000000000111180000000000000       009077090001674805629011181P000063
100000000000000000000009077090001674800000000000000000000000010002100005629011182800000000002            2  01056290111824111800000003533840000000001N011118000000000000000000000000000000000000000000000000000000000000000100005629087819ROMILDO MARTINS PIZA                    RUA MAESTRO ARTURO DE ANGELIS - 190 AP.3            05139010                                                            000065
2SR. CAIXA, APOS O VENCIMENTO COBRAR 10% DE MULTA                                NAO RECEBER APOS 30 DIAS DO VENCIMENTO.                                                                                                                                                                                                         01111800000000000000111180000000000000       0090770900016748056290111828000066
100000000000000000000009077090001674800000000000000000000000010002100004290911181900000000002            2  01042909111824111800000001883650000000001N011118000000000000000000000000000000000000000000000000000000000000000100004290973876WLADIMIR PAIOLA BORREGO                 RUA GOMES - 429 - VILA IVONE - SAO PAULO            03275010                                                            000068
2SR. CAIXA, APOS O VENCIMENTO COBRAR 10% DE MULTA                                NAO RECEBER APOS 30 DIAS DO VENCIMENTO.                                                                                                                                                                                                         01111800000000000000111180000000000000       0090770900016748042909111819000069
100000000000000000000009077090001674800000000000000000000000010002100034325511181400000000002            2  01343255111824111800000001783310000000001N011118000000000000000000000000000000000000000000000000000000000000000100034325567801LUIZ FERNANDO ALAMINO                   RUA MONTE CASTELO - 296 AP.21 - AVIACAO             11702720                                                            000071
2SR. CAIXA, APOS O VENCIMENTO COBRAR 10% DE MULTA                                NAO RECEBER APOS 30 DIAS DO VENCIMENTO.                                                                                                                                                                                                         01111800000000000000111180000000000000       0090770900016748343255111814000072
100000000000000000000009077090001674800000000000000000000000010002100021335411181700000000002            2  01213354111824111800000001349490000000001N011118000000000000000000000000000000000000000000000000000000000000000100021335464808RAQUEL FERREIRA RAMOS                   RUA ANTONIO SEVERIANO DE ANDRADE E SILVA            11702400                                                            000074
2SR. CAIXA, APOS O VENCIMENTO COBRAR 10% DE MULTA                                NAO RECEBER APOS 30 DIAS DO VENCIMENTO.                                                                                                                                                                                                         01111800000000000000111180000000000000       0090770900016748213354111817000075
100000000000000000000009077090001674800000000000000000000000010002100005627911181600000000002            2  01056279111824111800000001582400000000001N011118000000000000000000000000000000000000000000000000000000000000000100005627947861FERNANDO CESAR MARCELINO                TRAVESSA CHARLES LEBRUN - 83 - VILA NOVA            02312060                                                            000077
2SR. CAIXA, APOS O VENCIMENTO COBRAR 10% DE MULTA                                NAO RECEBER APOS 30 DIAS DO VENCIMENTO.                                                                                                                                                                                                         01111800000000000000111180000000000000       0090770900016748056279111816000078
100000000000000000000009077090001674800000000000000000000000010002100026187911181200000000002            2  01261879111824111800000001651280000000001N011118000000000000000000000000000000000000000000000000000000000000000100026187960807CARINA CANTACESSO DE SOUZA              RUA MONTE CASTELO - 296 AP.91 - AVIACAO             11702720                                                            000080
2SR. CAIXA, APOS O VENCIMENTO COBRAR 10% DE MULTA                                NAO RECEBER APOS 30 DIAS DO VENCIMENTO.                                                                                                                                                                                                         01111800000000000000111180000000000000       0090770900016748261879111812000081
100000000000000000000009077090001674800000000000000000000000010002100004864911181800000000002            2  01048649111824111800000002207030000000001N011118000000000000000000000000000000000000000000000000000000000000000100004864924600RENATO SANTACHIARA SALVADORI            RUA PENSYLVANIA - 116 - PAYSAGE BRISE -             06730000                                                            000083
2SR. CAIXA, APOS O VENCIMENTO COBRAR 10% DE MULTA                                NAO RECEBER APOS 30 DIAS DO VENCIMENTO.                                                                                                                                                                                                         01111800000000000000111180000000000000       0090770900016748048649111818000084
9                                                                                                                                                                                                                                                                                                                                                                                                         000085