01REMESSA01COBRANCA       00000000000004991454AIRES CONSTRUTORA E INCORPORAD237BRADESCO       011217        MX0000095                                                                                                                                                                                                                                                                                     000001
100000000000000000000009077090001674800000000000000000000000010002100099740412171200000000002            2  01997404121709121700000002609110000000001N011217000000000000000000000000000000000000000000000000000000000000000100099740451853ARNALDO DA SILVA SALES                  RUA ALEGRE - 210 - VILA SAO RAFAEL - GUA            07053100                                                            000002
2SR. CAIXA, APOS O VENCIMENTO COBRAR 10% DE MULTA                                NAO RECEBER APOS 30 DIAS DO VENCIMENTO.                                                                                                                                                                                                         01121700000000000000112170000000000000       0090770900016748997404121712000003
100000000000000000000009077090001674800000000000000000000000010002100049736712171200000000002            2  01497367121709121700000001583210000000001N011217000000000000000000000000000000000000000000000000000000000000000100049736787320RAIMUNDO VIEIRA DA SILVA                RUA BOLIVIA - 81 AP.ZELADORIA - JARDIM G            11701850                                                            000005
2SR. CAIXA, APOS O VENCIMENTO COBRAR 10% DE MULTA                                NAO RECEBER APOS 30 DIAS DO VENCIMENTO.                                                                                                                                                                                                         01121700000000000000112170000000000000       0090770900016748497367121712000006
100000000000000000000009077090001674800000000000000000000000010002100044380712171700000000002            2  01443807121709121700000004208760000000001N011217000000000000000000000000000000000000000000000000000000000000000100044380725812FERNANDO FIRMINO DOS SANTOS             RUA BARAO GERALDO DE RESENDE - 401 - BAI            05205220                                                            000008
2SR. CAIXA, APOS O VENCIMENTO COBRAR 10% DE MULTA                                NAO RECEBER APOS 30 DIAS DO VENCIMENTO.                                                                                                                                                                                                         01121700000000000000112170000000000000       0090770900016748443807121717000009
100000000000000000000009077090001674800000000000000000000000010002100025469412171800000000002            2  01254694121709121700000001310100000000001N011217000000000000000000000000000000000000000000000000000000000000000100025469470873JULIA MARIA RODRIGUES MARTINS           AVENIDA JOAO FIRMINO - 1229 AP.21 - BAIR            09810260                                                            000011
2SR. CAIXA, APOS O VENCIMENTO COBRAR 10% DE MULTA                                NAO RECEBER APOS 30 DIAS DO VENCIMENTO.                                                                                                                                                                                                         01121700000000000000112170000000000000       0090770900016748254694121718000012
100000000000000000000009077090001674800000000000000000000000010002100027396112171900000000002            2  01273961121709121700000001991450000000001N011217000000000000000000000000000000000000000000000000000000000000000100027396176824WALDINEA BORGES DIAS                    RUA CAP. JOAQUIM F.PEREIRA - 95 - JARDIM            13710000                                                            000014
2SR. CAIXA, APOS O VENCIMENTO COBRAR 10% DE MULTA                                NAO RECEBER APOS 30 DIAS DO VENCIMENTO.                                                                                                                                                                                                         01121700000000000000112170000000000000       0090770900016748273961121719000015
100000000000000000000009077090001674800000000000000000000000010002100004759512171900000000002            2  01047595121709121700000003171890000000001N011217000000000000000000000000000000000000000000000000000000000000000100004759534873AGNALDO PORFIRIO DOS SANTOS             RUA JUVENCIO GASPAR DA SILVA - 35 - SAO             04303060                                                            000017
2SR. CAIXA, APOS O VENCIMENTO COBRAR 10% DE MULTA                                NAO RECEBER APOS 30 DIAS DO VENCIMENTO.                                                                                                                                                                                                         01121700000000000000112170000000000000       0090770900016748047595121719000018
100000000000000000000009077090001674800000000000000000000000010002100014924012171500000000002            2  01149240121709121700000001709360000000001N011217000000000000000000000000000000000000000000000000000000000000000100014924049859KATIA REGINA DE OLIVEIRA SILVA          RUA ANTONIO SIMIONATO - 73 AP.14 - SANTA            09780180                                                            000020
2SR. CAIXA, APOS O VENCIMENTO COBRAR 10% DE MULTA                                NAO RECEBER APOS 30 DIAS DO VENCIMENTO.                                                                                                                                                                                                         01121700000000000000112170000000000000       0090770900016748149240121715000021
100000000000000000000009077090001674800000000000000000000000010002100090830412171200000000002            2  01908304121709121700000000999970000000001N011217000000000000000000000000000000000000000000000000000000000000000100090830490868IVONETE FERNANDES                       AVENIDA FREDERICO OZANAN - 5504 - VILA R            13215276                                                            000023
2SR. CAIXA, APOS O VENCIMENTO COBRAR 10% DE MULTA                                NAO RECEBER APOS 30 DIAS DO VENCIMENTO.                                                                                                                                                                                                         01121700000000000000112170000000000000       0090770900016748908304121712000024
100000000000000000000009077090001674800000000000000000000000010002100027093912171400000000002            2  01270939121709121700000002478950000000001N011217000000000000000000000000000000000000000000000000000000000000000100027093944809DAVID ALEXANDRE XAVIER ROCHA            RUA MONTE CASTELO - 296 AP.54 - AVIACAO             11702720                                                            000026
2SR. CAIXA, APOS O VENCIMENTO COBRAR 10% DE MULTA                                NAO RECEBER APOS 30 DIAS DO VENCIMENTO.                                                                                                                                                                                                         01121700000000000000112170000000000000       0090770900016748270939121714000027
100000000000000000000009077090001674800000000000000000000000010002100068273212171000000000002            2  01682732121709121700000001804500000000001N011217000000000000000000000000000000000000000000000000000000000000000100068273290891DERNEVAL JOSE MUNIZ                     RUA MARTINOPOLIS - 98 - JARDIM OTAWA - G            07230230                                                            000029
2SR. CAIXA, APOS O VENCIMENTO COBRAR 10% DE MULTA                                NAO RECEBER APOS 30 DIAS DO VENCIMENTO.                                                                                                                                                                                                         01121700000000000000112170000000000000       0090770900016748682732121710000030
100000000000000000000009077090001674800000000000000000000000010002100001817512171300000000002            2  01018175121709121700000001542150000000001N011217000000000000000000000000000000000000000000000000000000000000000100001817534807SANTINA SALVINA SOARES                  RUA CAIAPOS - 1066 AP.43 - VILA TUPI - P            11703320                                                            000032
2SR. CAIXA, APOS O VENCIMENTO COBRAR 10% DE MULTA                                NAO RECEBER APOS 30 DIAS DO VENCIMENTO.                                                                                                                                                                                                         01121700000000000000112170000000000000       0090770900016748018175121713000033
100000000000000000000009077090001674800000000000000000000000010002100086755712171000000000002            2  01867557121709121700000001666050000000001N011217000000000000000000000000000000000000000000000000000000000000000100086755790800GERALDO JAIR BROGLIATTO                 DR.ARMANDO COSTA MAGALHAES - 176 - VILA             13270490                                                            000035
2SR. CAIXA, APOS O VENCIMENTO COBRAR 10% DE MULTA                                NAO RECEBER APOS 30 DIAS DO VENCIMENTO.                                                                                                                                                                                                         01121700000000000000112170000000000000       0090770900016748867557121710000036
100000000000000000000009077090001674800000000000000000000000010002100013191212171200000000002            2  01131912121711121700000001800000000000001N011217000000000000000000000000000000000000000000000000000000000000000100013191291881MARCELO RICARDO MASCAROS SOUTO          RUA MONTE CASTELO - 295 AP.102 - AVIACAO            11702720                                                            000038
2SR. CAIXA, APOS O VENCIMENTO COBRAR 10% DE MULTA                                NAO RECEBER APOS 30 DIAS DO VENCIMENTO.                                                                                                                                                                                                         01121700000000000000112170000000000000       0090770900016748131912121712000039
100000000000000000000009077090001674800000000000000000000000010002100007996012171400000000002            2  01079960121709121700000001655030000000001N011217000000000000000000000000000000000000000000000000000000000000000100007996062862HENRIQUE SALVADOR                       RUA DARDANELOS - 689 - PARQUE NOVO ORATO            09260060                                                            000041
2SR. CAIXA, APOS O VENCIMENTO COBRAR 10% DE MULTA                                NAO RECEBER APOS 30 DIAS DO VENCIMENTO.                                                                                                                                                                                                         01121700000000000000112170000000000000       0090770900016748079960121714000042
100000000000000000000009077090001674800000000000000000000000010002100004899712171100000000002            2  01048997121709121700000001266960000000001N011217000000000000000000000000000000000000000000000000000000000000000100004899735820INES CONCEICAO VIEIRA GADI ERMIDA       AVENIDA ANTONIO RICARDO DA SILVA - 77 -             08270560                                                            000044
2SR. CAIXA, APOS O VENCIMENTO COBRAR 10% DE MULTA                                NAO RECEBER APOS 30 DIAS DO VENCIMENTO.                                                                                                                                                                                                         01121700000000000000112170000000000000       0090770900016748048997121711000045
100000000000000000000009077090001674800000000000000000000000010002100010066012171100000000002            2  01100660121709121700000002217200000000001N011217000000000000000000000000000000000000000000000000000000000000000100010066071534MOISES ROQUE DO ROSARIO                 RUA DAS PAPOULAS - 53 - VILA BELA - SAO             03202010                                                            000047
2SR. CAIXA, APOS O VENCIMENTO COBRAR 10% DE MULTA                                NAO RECEBER APOS 30 DIAS DO VENCIMENTO.                                                                                                                                                                                                         01121700000000000000112170000000000000       0090770900016748100660121711000048
100000000000000000000009077090001674800000000000000000000000010002100085910012171200000000002            2  01859100121709121700000002529910000000001N011217000000000000000000000000000000000000000000000000000000000000000100085910031872SERGIO NOGUEIRA                         RUA MONTE CASTELO - 262 AP.55 - AVIACAO             11702720                                                            000050
2SR. CAIXA, APOS O VENCIMENTO COBRAR 10% DE MULTA                                NAO RECEBER APOS 30 DIAS DO VENCIMENTO.                                                                                                                                                                                                         01121700000000000000112170000000000000       0090770900016748859100121712000051
100000000000000000000009077090001674800000000000000000000000010002100000746812171600000000002            2  01007468121709121700000002045340000000001N011217000000000000000000000000000000000000000000000000000000000000000100000746845820ANTONIO CARLOS DE MELLO                 RUA CONGO - 118 - PARQUE MONTE ALEGRE -             06756270                                                            000053
2SR. CAIXA, APOS O VENCIMENTO COBRAR 10% DE MULTA                                NAO RECEBER APOS 30 DIAS DO VENCIMENTO.                                                                                                                                                                                                         01121700000000000000112170000000000000       0090770900016748007468121716000054
100000000000000000000009077090001674800000000000000000000000010002100028196112171100000000002            2  01281961121709121700000001472820000000001N011217000000000000000000000000000000000000000000000000000000000000000100028196184808VANESSA NOGUEIRA CAMBUI DA SILVA        CRISTOVAO COLOMBO - 217 - VILA AMERICA -            09110160                                                            000056
2SR. CAIXA, APOS O VENCIMENTO COBRAR 10% DE MULTA                                NAO RECEBER APOS 30 DIAS DO VENCIMENTO.                                                                                                                                                                                                         01121700000000000000112170000000000000       0090770900016748281961121711000057
100000000000000000000009077090001674800000000000000000000000010002100049730812171700000000002            2  01497308121709121700000001209000000000001N011217000000000000000000000000000000000000000000000000000000000000000100049730835420PEDRO LUIZ DO BOM FIM FILHO             RUA NASCER DO SOL - 91 - BAIRRO PIRAPORI            09951475                                                            000059
2SR. CAIXA, APOS O VENCIMENTO COBRAR 10% DE MULTA                                NAO RECEBER APOS 30 DIAS DO VENCIMENTO.                                                                                                                                                                                                         01121700000000000000112170000000000000       0090770900016748497308121717000060
9                                                                                                                                                                                                                                                                                                                                                                                                         000061