01REMESSA01COBRANCA       00000000000004991454AIRES CONSTRUTORA E INCORPORAD237BRADESCO       010818        MX0000113                                                                                                                                                                                                                                                                                     000001
100000000000000000000009077090001674800000000000000000000000010002100099740408181800000000002            2  01997404081809081800000002769830000000001N010818000000000000000000000000000000000000000000000000000000000000000100099740451853ARNALDO DA SILVA SALES                  RUA ALEGRE - 210 - VILA SAO RAFAEL - GUA            07053100                                                            000002
2SR. CAIXA, APOS O VENCIMENTO COBRAR 10% DE MULTA                                NAO RECEBER APOS 30 DIAS DO VENCIMENTO.                                                                                                                                                                                                         01081800000000000000108180000000000000       0090770900016748997404081818000003
100000000000000000000009077090001674800000000000000000000000010002100049736708181800000000002            2  01497367081809081800000001680720000000001N010818000000000000000000000000000000000000000000000000000000000000000100049736787320RAIMUNDO VIEIRA DA SILVA                RUA BOLIVIA - 81 AP.ZELADORIA - JARDIM G            11701850                                                            000005
2SR. CAIXA, APOS O VENCIMENTO COBRAR 10% DE MULTA                                NAO RECEBER APOS 30 DIAS DO VENCIMENTO.                                                                                                                                                                                                         01081800000000000000108180000000000000       0090770900016748497367081818000006
100000000000000000000009077090001674800000000000000000000000010002100044380708181200000000002            2  01443807081809081800000004468010000000001N010818000000000000000000000000000000000000000000000000000000000000000100044380725812FERNANDO FIRMINO DOS SANTOS             RUA BARAO GERALDO DE RESENDE - 401 - BAI            05205220                                                            000008
2SR. CAIXA, APOS O VENCIMENTO COBRAR 10% DE MULTA                                NAO RECEBER APOS 30 DIAS DO VENCIMENTO.                                                                                                                                                                                                         01081800000000000000108180000000000000       0090770900016748443807081812000009
100000000000000000000009077090001674800000000000000000000000010002100025469408181300000000002            2  01254694081809081800000001390800000000001N010818000000000000000000000000000000000000000000000000000000000000000100025469470873JULIA MARIA RODRIGUES MARTINS           AVENIDA JOAO FIRMINO - 1229 AP.21 - BAIR            09810260                                                            000011
2SR. CAIXA, APOS O VENCIMENTO COBRAR 10% DE MULTA                                NAO RECEBER APOS 30 DIAS DO VENCIMENTO.                                                                                                                                                                                                         01081800000000000000108180000000000000       0090770900016748254694081813000012
100000000000000000000009077090001674800000000000000000000000010002100004759508181400000000002            2  01047595081809081800000003367280000000001N010818000000000000000000000000000000000000000000000000000000000000000100004759534873AGNALDO PORFIRIO DOS SANTOS             RUA JUVENCIO GASPAR DA SILVA - 35 - SAO             04303060                                                            000014
2SR. CAIXA, APOS O VENCIMENTO COBRAR 10% DE MULTA                                NAO RECEBER APOS 30 DIAS DO VENCIMENTO.                                                                                                                                                                                                         01081800000000000000108180000000000000       0090770900016748047595081814000015
100000000000000000000009077090001674800000000000000000000000010002100014924008181000000000002            2  01149240081809081800000001814660000000001N010818000000000000000000000000000000000000000000000000000000000000000100014924049859KATIA REGINA DE OLIVEIRA SILVA          RUA ANTONIO SIMIONATO - 73 AP.14 - SANTA            09780180                                                            000017
2SR. CAIXA, APOS O VENCIMENTO COBRAR 10% DE MULTA                                NAO RECEBER APOS 30 DIAS DO VENCIMENTO.                                                                                                                                                                                                         01081800000000000000108180000000000000       0090770900016748149240081810000018
100000000000000000000009077090001674800000000000000000000000010002100090830408181800000000002            2  01908304081809081800000001061570000000001N010818000000000000000000000000000000000000000000000000000000000000000100090830490868IVONETE FERNANDES                       AVENIDA FREDERICO OZANAN - 5504 - VILA R            13215276                                                            000020
2SR. CAIXA, APOS O VENCIMENTO COBRAR 10% DE MULTA                                NAO RECEBER APOS 30 DIAS DO VENCIMENTO.                                                                                                                                                                                                         01081800000000000000108180000000000000       0090770900016748908304081818000021
100000000000000000000009077090001674800000000000000000000000010002100027093908181P00000000002            2  01270939081809081800000002631640000000001N010818000000000000000000000000000000000000000000000000000000000000000100027093944809DAVID ALEXANDRE XAVIER ROCHA            RUA MONTE CASTELO - 296 AP.54 - AVIACAO             11702720                                                            000023
2SR. CAIXA, APOS O VENCIMENTO COBRAR 10% DE MULTA                                NAO RECEBER APOS 30 DIAS DO VENCIMENTO.                                                                                                                                                                                                         01081800000000000000108180000000000000       009077090001674827093908181P000024
100000000000000000000009077090001674800000000000000000000000010002100068273208181600000000002            2  01682732081809081800000001915650000000001N010818000000000000000000000000000000000000000000000000000000000000000100068273290891DERNEVAL JOSE MUNIZ                     RUA MARTINOPOLIS - 98 - JARDIM OTAWA - G            07230230                                                            000026
2SR. CAIXA, APOS O VENCIMENTO COBRAR 10% DE MULTA                                NAO RECEBER APOS 30 DIAS DO VENCIMENTO.                                                                                                                                                                                                         01081800000000000000108180000000000000       0090770900016748682732081816000027
100000000000000000000009077090001674800000000000000000000000010002100001817508181900000000002            2  01018175081809081800000001637160000000001N010818000000000000000000000000000000000000000000000000000000000000000100001817534807SANTINA SALVINA SOARES                  RUA CAIAPOS - 1066 AP.43 - VILA TUPI - P            11703320                                                            000029
2SR. CAIXA, APOS O VENCIMENTO COBRAR 10% DE MULTA                                NAO RECEBER APOS 30 DIAS DO VENCIMENTO.                                                                                                                                                                                                         01081800000000000000108180000000000000       0090770900016748018175081819000030
100000000000000000000009077090001674800000000000000000000000010002100086755708181600000000002            2  01867557081809081800000001768680000000001N010818000000000000000000000000000000000000000000000000000000000000000100086755790800GERALDO JAIR BROGLIATTO                 DR.ARMANDO COSTA MAGALHAES - 176 - VILA             13270490                                                            000032
2SR. CAIXA, APOS O VENCIMENTO COBRAR 10% DE MULTA                                NAO RECEBER APOS 30 DIAS DO VENCIMENTO.                                                                                                                                                                                                         01081800000000000000108180000000000000       0090770900016748867557081816000033
100000000000000000000009077090001674800000000000000000000000010002100013191208181800000000002            2  01131912081811081800000001800000000000001N010818000000000000000000000000000000000000000000000000000000000000000100013191291881MARCELO RICARDO MASCAROS SOUTO          RUA MONTE CASTELO - 295 AP.102 - AVIACAO            11702720                                                            000035
2SR. CAIXA, APOS O VENCIMENTO COBRAR 10% DE MULTA                                NAO RECEBER APOS 30 DIAS DO VENCIMENTO.                                                                                                                                                                                                         01081800000000000000108180000000000000       0090770900016748131912081818000036
100000000000000000000009077090001674800000000000000000000000010002100007996008181P00000000002            2  01079960081809081800000001756980000000001N010818000000000000000000000000000000000000000000000000000000000000000100007996062862HENRIQUE SALVADOR                       RUA DARDANELOS - 689 - PARQUE NOVO ORATO            09260060                                                            000038
2SR. CAIXA, APOS O VENCIMENTO COBRAR 10% DE MULTA                                NAO RECEBER APOS 30 DIAS DO VENCIMENTO.                                                                                                                                                                                                         01081800000000000000108180000000000000       009077090001674807996008181P000039
100000000000000000000009077090001674800000000000000000000000010002100010066008181700000000002            2  01100660081809081800000002353770000000001N010818000000000000000000000000000000000000000000000000000000000000000100010066071534MOISES ROQUE DO ROSARIO                 RUA DAS PAPOULAS - 53 - VILA BELA - SAO             03202010                                                            000041
2SR. CAIXA, APOS O VENCIMENTO COBRAR 10% DE MULTA                                NAO RECEBER APOS 30 DIAS DO VENCIMENTO.                                                                                                                                                                                                         01081800000000000000108180000000000000       0090770900016748100660081817000042
100000000000000000000009077090001674800000000000000000000000010002100085910008181800000000002            2  01859100081809081800000002685740000000001N010818000000000000000000000000000000000000000000000000000000000000000100085910031872SERGIO NOGUEIRA                         RUA MONTE CASTELO - 262 AP.55 - AVIACAO             11702720                                                            000044
2SR. CAIXA, APOS O VENCIMENTO COBRAR 10% DE MULTA                                NAO RECEBER APOS 30 DIAS DO VENCIMENTO.                                                                                                                                                                                                         01081800000000000000108180000000000000       0090770900016748859100081818000045
100000000000000000000009077090001674800000000000000000000000010002100000746808181100000000002            2  01007468081809081800000002171330000000001N010818000000000000000000000000000000000000000000000000000000000000000100000746845820ANTONIO CARLOS DE MELLO                 RUA CONGO - 118 - PARQUE MONTE ALEGRE -             06756270                                                            000047
2SR. CAIXA, APOS O VENCIMENTO COBRAR 10% DE MULTA                                NAO RECEBER APOS 30 DIAS DO VENCIMENTO.                                                                                                                                                                                                         01081800000000000000108180000000000000       0090770900016748007468081811000048
100000000000000000000009077090001674800000000000000000000000010002100028196108181700000000002            2  01281961081809081800000001563550000000001N010818000000000000000000000000000000000000000000000000000000000000000100028196184808VANESSA NOGUEIRA CAMBUI DA SILVA        CRISTOVAO COLOMBO - 217 - VILA AMERICA -            09110160                                                            000050
2SR. CAIXA, APOS O VENCIMENTO COBRAR 10% DE MULTA                                NAO RECEBER APOS 30 DIAS DO VENCIMENTO.                                                                                                                                                                                                         01081800000000000000108180000000000000       0090770900016748281961081817000051
100000000000000000000009077090001674800000000000000000000000010002100049730808181200000000002            2  01497308081809081800000001283460000000001N010818000000000000000000000000000000000000000000000000000000000000000100049730835420PEDRO LUIZ DO BOM FIM FILHO             RUA NASCER DO SOL - 91 - BAIRRO PIRAPORI            09951475                                                            000053
2SR. CAIXA, APOS O VENCIMENTO COBRAR 10% DE MULTA                                NAO RECEBER APOS 30 DIAS DO VENCIMENTO.                                                                                                                                                                                                         01081800000000000000108180000000000000       0090770900016748497308081812000054
100000000000000000000009077090001674800000000000000000000000010002100027067008181800000000002            2  01270670081809081800000001592400000000001N010818000000000000000000000000000000000000000000000000000000000000000100027067002893MARCIA NASCIMENTO DE MORAES             RUA MONTE CASTELO - 296 AP.11 - AVIACAO             11702720                                                            000056
2SR. CAIXA, APOS O VENCIMENTO COBRAR 10% DE MULTA                                NAO RECEBER APOS 30 DIAS DO VENCIMENTO.                                                                                                                                                                                                         01081800000000000000108180000000000000       0090770900016748270670081818000057
100000000000000000000009077090001674800000000000000000000000010002100064435708181200000000002            2  01644357081809081800000001592400000000001N010818000000000000000000000000000000000000000000000000000000000000000100064435741849JURACY DA SILVA                         RUA JACARATINGA - 192 - JARDIM PIRAJUCAR            05786120                                                            000059
2SR. CAIXA, APOS O VENCIMENTO COBRAR 10% DE MULTA                                NAO RECEBER APOS 30 DIAS DO VENCIMENTO.                                                                                                                                                                                                         01081800000000000000108180000000000000       0090770900016748644357081812000060
100000000000000000000009077090001674800000000000000000000000010002100094921808181100000000002            2  01949218081809081800000001580550000000001N010818000000000000000000000000000000000000000000000000000000000000000100094921890897JOAO JORGE DA ROSA FILHO                RUA OLAVO EGIDIO DE SOUZA ARANHA - 368 A            03822000                                                            000062
2SR. CAIXA, APOS O VENCIMENTO COBRAR 10% DE MULTA                                NAO RECEBER APOS 30 DIAS DO VENCIMENTO.                                                                                                                                                                                                         01081800000000000000108180000000000000       0090770900016748949218081811000063
100000000000000000000009077090001674800000000000000000000000010002100008364808181800000000002            2  01083648081809081800000001917390000000001N010818000000000000000000000000000000000000000000000000000000000000000100008364834800JOSEFINA CORREA RAMA DOS SANTOS         AVENIDA PRESIDENTE CASTELO BRANCO - 3.78            11702700                                                            000065
2SR. CAIXA, APOS O VENCIMENTO COBRAR 10% DE MULTA                                NAO RECEBER APOS 30 DIAS DO VENCIMENTO.                                                                                                                                                                                                         01081800000000000000108180000000000000       0090770900016748083648081818000066
100000000000000000000009077090001674800000000000000000000000010002100037713308181900000000002            2  01377133081809081800000001568780000000001N010818000000000000000000000000000000000000000000000000000000000000000100037713356800JAMILLE PAULA BUENO LOPES               RUA CURIO (COND.NEW VILLE) - 172 - SURU             06509031                                                            000068
2SR. CAIXA, APOS O VENCIMENTO COBRAR 10% DE MULTA                                NAO RECEBER APOS 30 DIAS DO VENCIMENTO.                                                                                                                                                                                                         01081800000000000000108180000000000000       0090770900016748377133081819000069
100000000000000000000009077090001674800000000000000000000000010002100027100908181600000000002            2  01271009081809081800000001827640000000001N010818000000000000000000000000000000000000000000000000000000000000000100027100951810MARCIA RAMALHO RODRIGUES                RUA MONTE CASTELO - 296 AP.82 - AVIACAO             11702720                                                            000071
2SR. CAIXA, APOS O VENCIMENTO COBRAR 10% DE MULTA                                NAO RECEBER APOS 30 DIAS DO VENCIMENTO.                                                                                                                                                                                                         01081800000000000000108180000000000000       0090770900016748271009081816000072
100000000000000000000009077090001674800000000000000000000000010002100076207908181700000000002            2  01762079081809081800000001971050000000001N010818000000000000000000000000000000000000000000000000000000000000000100076207943872JOSE MACEDO RICARTE FILHO               RUA ARTUR LOBO - 181 - JARDIM JABAQUARA             04384060                                                            000074
2SR. CAIXA, APOS O VENCIMENTO COBRAR 10% DE MULTA                                NAO RECEBER APOS 30 DIAS DO VENCIMENTO.                                                                                                                                                                                                         01081800000000000000108180000000000000       0090770900016748762079081817000075
100000000000000000000009077090001674800000000000000000000000010002100094672608181P00000000002            2  01946726081809081800000002489220000000001N010818000000000000000000000000000000000000000000000000000000000000000100094672660834JOSE HENRIQUE SOARES PEREIRA INACIO     RUA MONTE CASTELO - 296 AP.34 - AVIACAO             11702720                                                            000077
2SR. CAIXA, APOS O VENCIMENTO COBRAR 10% DE MULTA                                NAO RECEBER APOS 30 DIAS DO VENCIMENTO.                                                                                                                                                                                                         01081800000000000000108180000000000000       009077090001674894672608181P000078
100000000000000000000009077090001674800000000000000000000000010002100025265208181000000000002            2  01252652081809081800000001353400000000001N010818000000000000000000000000000000000000000000000000000000000000000100025265260862SONIA MARIA CECILIO DA SILVA            RUA PRESIDENTE TANCREDO NEVES - 1093 AP.            06329350                                                            000080
2SR. CAIXA, APOS O VENCIMENTO COBRAR 10% DE MULTA                                NAO RECEBER APOS 30 DIAS DO VENCIMENTO.                                                                                                                                                                                                         01081800000000000000108180000000000000       0090770900016748252652081810000081
9                                                                                                                                                                                                                                                                                                                                                                                                         000082