01REMESSA01COBRANCA       00000000000004991788AIRES DESENVOLVIMENTO IMOBILIA237BRADESCO       110717        MX0000100                                                                                                                                                                                                                                                                                     000001
100000000000000000000009077090011897400000000000000000000000010002100000051598070100000000002            2  01005159807025071700000001793660000000001N110717000000000000000000000000000000000000000000000000000000000000000100011088018890LUIZ CARLOS VITORINO MADEIRA            RUA JOSE CALIXTO DO CARMO - 265 AP. 32 -            11702690                                                            000002
2SR. CAIXA, APOS O VENCIMENTO COBRAR 10% DE MULTA                                NAO RECEBER APOS 30 DIAS DO VENCIMENTO.                                                                                                                                                                                                         11071700000000000001107170000000000000       0090770900118974000515980701000003
100000000000000000000009077090011897400000000000000000000000010002100000066909388000000000002            2  01006690938825071700000002610000000000001N110717000000000000000000000000000000000000000000000000000000000000000100004007807809CLAUDIO CANESCHI                        RUA AGRESTE  DE ITABAINA - 663 - VILA UN            03683000                                                            000005
2SR. CAIXA, APOS O VENCIMENTO COBRAR 10% DE MULTA                                NAO RECEBER APOS 30 DIAS DO VENCIMENTO.                                                                                                                                                                                                         11071700000000000001107170000000000000       0090770900118974000669093880000006
100000000000000000000009077090011897400000000000000000000000010002100000071499893800000000002            2  01007149989325071700000002399660000000001N110717000000000000000000000000000000000000000000000000000000000000000100025998413806CELESTE ERMELINDA NEVES DA SILVA        RUA CIRO CARNEIRO - 920 - JARDIM GUILHER            11702220                                                            000008
2SR. CAIXA, APOS O VENCIMENTO COBRAR 10% DE MULTA                                NAO RECEBER APOS 30 DIAS DO VENCIMENTO.                                                                                                                                                                                                         11071700000000000001107170000000000000       0090770900118974000714998938000009
100000000000000000000009077090011897400000000000000000000000010002100007958106103800000000002            2  01795810610325071700000003183360000000001N110717000000000000000000000000000000000000000000000000000000000000000100000677443897JOSE CARLOS CORDEIRO CALADO             RUA HERMOGENES DA SILVA - 190 - VILA OLI            03379150                                                            000011
2SR. CAIXA, APOS O VENCIMENTO COBRAR 10% DE MULTA                                NAO RECEBER APOS 30 DIAS DO VENCIMENTO.                                                                                                                                                                                                         11071700000000000001107170000000000000       0090770900118974079581061038000012
100000000000000000000009077090011897400000000000000000000000010002100008487112108900000000002            2  01848711210825071700000002911080000000001N110717000000000000000000000000000000000000000000000000000000000000000100000796517800WLADIMIR RODRIGUES                      R:JOSE DA SILVA RIBEIRO - 576 AP.233 - B            05726130                                                            000014
2SR. CAIXA, APOS O VENCIMENTO COBRAR 10% DE MULTA                                NAO RECEBER APOS 30 DIAS DO VENCIMENTO.                                                                                                                                                                                                         11071700000000000001107170000000000000       0090770900118974084871121089000015
100000000000000000000009077090011897400000000000000000000000010002100008834116112300000000002            2  01883411611225071700000002813430000000001N110717000000000000000000000000000000000000000000000000000000000000000100077595971853CARLOS EDUARDO RODRIGUES TEIXEIRA       RUA JOSE APARECIDO PAVAN - 423 - PARQUE             13086080                                                            000017
2SR. CAIXA, APOS O VENCIMENTO COBRAR 10% DE MULTA                                NAO RECEBER APOS 30 DIAS DO VENCIMENTO.                                                                                                                                                                                                         11071700000000000001107170000000000000       0090770900118974088341161123000018
100000000000000000000009077090011897400000000000000000000000010002100009092119115600000000002            2  01909211911525071700000002739360000000001N110717000000000000000000000000000000000000000000000000000000000000000100005204692835RINALDO DA MOTTA                        JOSE CALIXTO DO CARMO - 265 AP.93 - AVIA            11702690                                                            000020
2SR. CAIXA, APOS O VENCIMENTO COBRAR 10% DE MULTA                                NAO RECEBER APOS 30 DIAS DO VENCIMENTO.                                                                                                                                                                                                         11071700000000000001107170000000000000       0090770900118974090921191156000021
100000000000000000000009077090011897400000000000000000000000010002100009353122118500000000002            2  01935312211825071700000002170000000000001N110717000000000000000000000000000000000000000000000000000000000000000100022090439807FELIPE LUCIO LOPES                      RUA JOSE CALIXTO DO CARMO - 265 AP.103 -            11702690                                                            000023
2SR. CAIXA, APOS O VENCIMENTO COBRAR 10% DE MULTA                                NAO RECEBER APOS 30 DIAS DO VENCIMENTO.                                                                                                                                                                                                         11071700000000000001107170000000000000       0090770900118974093531221185000024
100000000000000000000009077090011897400000000000000000000000010002100000962345123200000000002            2  01096234512325071700000002727820000000001N110717000000000000000000000000000000000000000000000000000000000000000100070237824434ANTONIO FERREIRA NETO                   RUA HENRIQUE MINDLIM - 161 - JD. ORIENTA            04349250                                                            000026
2SR. CAIXA, APOS O VENCIMENTO COBRAR 10% DE MULTA                                NAO RECEBER APOS 30 DIAS DO VENCIMENTO.                                                                                                                                                                                                         11071700000000000001107170000000000000       0090770900118974009623451232000027
100000000000000000000009077090011897400000000000000000000000010002100010094131129300000000002            2  01100941311225071700000002850510000000001N110717000000000000000000000000000000000000000000000000000000000000000100005677409863ROSA MARIA OLIVIERI MEMOLI              CONSELHEIRO NEBIAS - 1409 - CAMPOS ELISE            01203002                                                            000029
2SR. CAIXA, APOS O VENCIMENTO COBRAR 10% DE MULTA                                NAO RECEBER APOS 30 DIAS DO VENCIMENTO.                                                                                                                                                                                                         11071700000000000001107170000000000000       0090770900118974100941311293000030
100000000000000000000009077090011897400000000000000000000000010002100010540138137500000000002            2  01105401381325071700000002723930000000001N110717000000000000000000000000000000000000000000000000000000000000000100034771609837MARCELO ALEXANDRE CARVALHO              RUA ECAUNA - 222 - JARDIM UMARIZAL - SAO            05754040                                                            000032
2SR. CAIXA, APOS O VENCIMENTO COBRAR 10% DE MULTA                                NAO RECEBER APOS 30 DIAS DO VENCIMENTO.                                                                                                                                                                                                         11071700000000000001107170000000000000       0090770900118974105401381375000033
100000000000000000000009077090011897400000000000000000000000010002100010653139139500000000002            2  01106531391325071700000006566580000000001N110717000000000000000000000000000000000000000000000000000000000000000100084057904891ANTONIO GONZAGA DOS SANTOS              RUA BRIGADEIRO JOSE FERREIRA - 319 - CAN            11700470                                                            000035
2SR. CAIXA, APOS O VENCIMENTO COBRAR 10% DE MULTA                                NAO RECEBER APOS 30 DIAS DO VENCIMENTO.                                                                                                                                                                                                         11071700000000000001107170000000000000       0090770900118974106531391395000036
100000000000000000000009077090011897400000000000000000000000010002100014196108192600000000002            2  01141961081924071700000001792960000000001N110717000000000000000000000000000000000000000000000000000000000000000100014497915816FERNANDO JOSE ARRUDA                    RUA JOSE CALIXTO DO CARMO - 265 AP.113 -            11702690                                                            000038
2SR. CAIXA, APOS O VENCIMENTO COBRAR 10% DE MULTA                                NAO RECEBER APOS 30 DIAS DO VENCIMENTO.                                                                                                                                                                                                         11071700000000000001107170000000000000       0090770900118974141961081926000039
100000000000000000000009077090011897400000000000000000000000010002100001422587193400000000002            2  01142258719324071700000001352230000000001N110717000000000000000000000000000000000000000000000000000000000000000100027324099874LEONARDO BORGES DUARTE SILVA            RUA JOSE CALIXTO DO CARMO - 265 AP.94 -             11702690                                                            000041
2SR. CAIXA, APOS O VENCIMENTO COBRAR 10% DE MULTA                                NAO RECEBER APOS 30 DIAS DO VENCIMENTO.                                                                                                                                                                                                         11071700000000000001107170000000000000       0090770900118974014225871934000042
100000000000000000000009077090011897400000000000000000000000010002100015295176205600000000002            2  01152951762024071700000001312780000000001N110717000000000000000000000000000000000000000000000000000000000000000100036782058871ANA PAULA BUENO DA COSTA                RUA MARIQUITA ARTACHO - 218 CASA 3 - JAR            03716000                                                            000044
2SR. CAIXA, APOS O VENCIMENTO COBRAR 10% DE MULTA                                NAO RECEBER APOS 30 DIAS DO VENCIMENTO.                                                                                                                                                                                                         11071700000000000001107170000000000000       0090770900118974152951762056000045
9                                                                                                                                                                                                                                                                                                                                                                                                         000046