01REMESSA01COBRANCA       00000000000004991788AIRES DESENVOLVIMENTO IMOBILIA237BRADESCO       190417        MX0000096                                                                                                                                                                                                                                                                                     000001
100000000000000000000009077090011897400000000000000000000000010002100014523125122800000000002            2  01145231251220041700000000077010000000001N190417000000000000000000000000000000000000000000000000000000000000000100002252149892AIRES MOTA DOS SANTOS                   AV. BRASIL - 600 SALA 1009 - BOQUEIRAO -            11701090                                                            000002
2SR. CAIXA, APOS O VENCIMENTO COBRAR 10% DE MULTA                                NAO RECEBER APOS 30 DIAS DO VENCIMENTO.                                                                                                                                                                                                         19041700000000000001904170000000000000       0090770900118974145231251228000003
9                                                                                                                                                                                                                                                                                                                                                                                                         000004