01REMESSA01COBRANCA       00000000000004991788AIRES DESENVOLVIMENTO IMOBILIA237BRADESCO       010420        MX0000174                                                                                                                                                                                                                                                                                     000001
100000000000000000000009077090011897400000000000000000000000010002100012708304201200000000002            2  01127083042010042000000001926470000000001N010420000000000000000000000000000000000000000000000000000000000000000100012708342827ADRIANA RATIER CRUZ                     RUA JOSE CALIXTO DO CARMO - 295 APTO 31             11702690                                                            000002
2SR. CAIXA, APOS O VENCIMENTO COBRAR 10% DE MULTA                                NAO RECEBER APOS 30 DIAS DO VENCIMENTO.                                                                                                                                                                                                         01042000000000000000104200000000000000       0090770900118974127083042012000003
100000000000000000000009077090011897400000000000000000000000010002100000452404201900000000002            2  01004524042010042000000001420190000000001N010420000000000000000000000000000000000000000000000000000000000000000100000452415896MARILUCE SANTOS DE ALMEIDA              RUA JOSE CALIXTO DO CARMO - 295 AP.74 -             11702690                                                            000005
2SR. CAIXA, APOS O VENCIMENTO COBRAR 10% DE MULTA                                NAO RECEBER APOS 30 DIAS DO VENCIMENTO.                                                                                                                                                                                                         01042000000000000000104200000000000000       0090770900118974004524042019000006
100000000000000000000009077090011897400000000000000000000000010002100001461004201900000000002            2  01014610042009042000000001470670000000001N010420000000000000000000000000000000000000000000000000000000000000000100001461096863ARGEVAL LOURENCO MAZOLA                 RUA ZELY DIAS DE FIGUEIREDO - 81 - VILA             02617060                                                            000008
2SR. CAIXA, APOS O VENCIMENTO COBRAR 10% DE MULTA                                NAO RECEBER APOS 30 DIAS DO VENCIMENTO.                                                                                                                                                                                                         01042000000000000000104200000000000000       0090770900118974014610042019000009
100000000000000000000009077090011897400000000000000000000000010002100013191204201400000000002            2  01131912042011042000000001800000000000001N010420000000000000000000000000000000000000000000000000000000000000000100013191291881MARCELO RICARDO MASCAROS SOUTO          RUA MONTE CASTELO - 295 AP.102 - AVIACAO            11702720                                                            000011
2SR. CAIXA, APOS O VENCIMENTO COBRAR 10% DE MULTA                                NAO RECEBER APOS 30 DIAS DO VENCIMENTO.                                                                                                                                                                                                         01042000000000000000104200000000000000       0090770900118974131912042014000012
9                                                                                                                                                                                                                                                                                                                                                                                                         000013