01REMESSA01COBRANCA       00000000000004991454AIRES CONSTRUTORA E INCORPORAD237BRADESCO       011117        MX0000093                                                                                                                                                                                                                                                                                     000001
100000000000000000000009077090001674800000000000000000000000010002100099740411171700000000002            2  01997404111709111700000002589690000000001N011117000000000000000000000000000000000000000000000000000000000000000100099740451853ARNALDO DA SILVA SALES                  RUA ALEGRE - 210 - VILA SAO RAFAEL - GUA            07053100                                                            000002
2SR. CAIXA, APOS O VENCIMENTO COBRAR 10% DE MULTA                                NAO RECEBER APOS 30 DIAS DO VENCIMENTO.                                                                                                                                                                                                         01111700000000000000111170000000000000       0090770900016748997404111717000003
100000000000000000000009077090001674800000000000000000000000010002100044380711171100000000002            2  01443807111709111700000004177430000000001N011117000000000000000000000000000000000000000000000000000000000000000100044380725812FERNANDO FIRMINO DOS SANTOS             RUA BARAO GERALDO DE RESENDE - 401 - BAI            05205220                                                            000005
2SR. CAIXA, APOS O VENCIMENTO COBRAR 10% DE MULTA                                NAO RECEBER APOS 30 DIAS DO VENCIMENTO.                                                                                                                                                                                                         01111700000000000000111170000000000000       0090770900016748443807111711000006
100000000000000000000009077090001674800000000000000000000000010002100025469411171200000000002            2  01254694111709111700000001300350000000001N011117000000000000000000000000000000000000000000000000000000000000000100025469470873JULIA MARIA RODRIGUES MARTINS           AVENIDA JOAO FIRMINO - 1229 AP.21 - BAIR            09810260                                                            000008
2SR. CAIXA, APOS O VENCIMENTO COBRAR 10% DE MULTA                                NAO RECEBER APOS 30 DIAS DO VENCIMENTO.                                                                                                                                                                                                         01111700000000000000111170000000000000       0090770900016748254694111712000009
100000000000000000000009077090001674800000000000000000000000010002100027396111171300000000002            2  01273961111709111700000001976630000000001N011117000000000000000000000000000000000000000000000000000000000000000100027396176824WALDINEA BORGES DIAS                    RUA CAP. JOAQUIM F.PEREIRA - 95 - JARDIM            13710000                                                            000011
2SR. CAIXA, APOS O VENCIMENTO COBRAR 10% DE MULTA                                NAO RECEBER APOS 30 DIAS DO VENCIMENTO.                                                                                                                                                                                                         01111700000000000000111170000000000000       0090770900016748273961111713000012
100000000000000000000009077090001674800000000000000000000000010002100004759511171300000000002            2  01047595111709111700000003148280000000001N011117000000000000000000000000000000000000000000000000000000000000000100004759534873AGNALDO PORFIRIO DOS SANTOS             RUA JUVENCIO GASPAR DA SILVA - 35 - SAO             04303060                                                            000014
2SR. CAIXA, APOS O VENCIMENTO COBRAR 10% DE MULTA                                NAO RECEBER APOS 30 DIAS DO VENCIMENTO.                                                                                                                                                                                                         01111700000000000000111170000000000000       0090770900016748047595111713000015
100000000000000000000009077090001674800000000000000000000000010002100014924011171P00000000002            2  01149240111709111700000001696640000000001N011117000000000000000000000000000000000000000000000000000000000000000100014924049859KATIA REGINA DE OLIVEIRA SILVA          RUA ANTONIO SIMIONATO - 73 AP.14 - SANTA            09780180                                                            000017
2SR. CAIXA, APOS O VENCIMENTO COBRAR 10% DE MULTA                                NAO RECEBER APOS 30 DIAS DO VENCIMENTO.                                                                                                                                                                                                         01111700000000000000111170000000000000       009077090001674814924011171P000018
100000000000000000000009077090001674800000000000000000000000010002100090830411171700000000002            2  01908304111709111700000000992530000000001N011117000000000000000000000000000000000000000000000000000000000000000100090830490868IVONETE FERNANDES                       AVENIDA FREDERICO OZANAN - 5504 - VILA R            13215276                                                            000020
2SR. CAIXA, APOS O VENCIMENTO COBRAR 10% DE MULTA                                NAO RECEBER APOS 30 DIAS DO VENCIMENTO.                                                                                                                                                                                                         01111700000000000000111170000000000000       0090770900016748908304111717000021
100000000000000000000009077090001674800000000000000000000000010002100027093911171900000000002            2  01270939111709111700000002460500000000001N011117000000000000000000000000000000000000000000000000000000000000000100027093944809DAVID ALEXANDRE XAVIER ROCHA            RUA MONTE CASTELO - 296 AP.54 - AVIACAO             11702720                                                            000023
2SR. CAIXA, APOS O VENCIMENTO COBRAR 10% DE MULTA                                NAO RECEBER APOS 30 DIAS DO VENCIMENTO.                                                                                                                                                                                                         01111700000000000000111170000000000000       0090770900016748270939111719000024
100000000000000000000009077090001674800000000000000000000000010002100068273211171500000000002            2  01682732111709111700000001791070000000001N011117000000000000000000000000000000000000000000000000000000000000000100068273290891DERNEVAL JOSE MUNIZ                     RUA MARTINOPOLIS - 98 - JARDIM OTAWA - G            07230230                                                            000026
2SR. CAIXA, APOS O VENCIMENTO COBRAR 10% DE MULTA                                NAO RECEBER APOS 30 DIAS DO VENCIMENTO.                                                                                                                                                                                                         01111700000000000000111170000000000000       0090770900016748682732111715000027
100000000000000000000009077090001674800000000000000000000000010002100001817511171800000000002            2  01018175111709111700000001530670000000001N011117000000000000000000000000000000000000000000000000000000000000000100001817534807SANTINA SALVINA SOARES                  RUA CAIAPOS - 1066 AP.43 - VILA TUPI - P            11703320                                                            000029
2SR. CAIXA, APOS O VENCIMENTO COBRAR 10% DE MULTA                                NAO RECEBER APOS 30 DIAS DO VENCIMENTO.                                                                                                                                                                                                         01111700000000000000111170000000000000       0090770900016748018175111718000030
100000000000000000000009077090001674800000000000000000000000010002100086755711171500000000002            2  01867557111709111700000001653650000000001N011117000000000000000000000000000000000000000000000000000000000000000100086755790800GERALDO JAIR BROGLIATTO                 DR.ARMANDO COSTA MAGALHAES - 176 - VILA             13270490                                                            000032
2SR. CAIXA, APOS O VENCIMENTO COBRAR 10% DE MULTA                                NAO RECEBER APOS 30 DIAS DO VENCIMENTO.                                                                                                                                                                                                         01111700000000000000111170000000000000       0090770900016748867557111715000033
100000000000000000000009077090001674800000000000000000000000010002100013191211171700000000002            2  01131912111711111700000001800000000000001N011117000000000000000000000000000000000000000000000000000000000000000100013191291881MARCELO RICARDO MASCAROS SOUTO          RUA MONTE CASTELO - 295 AP.102 - AVIACAO            11702720                                                            000035
2SR. CAIXA, APOS O VENCIMENTO COBRAR 10% DE MULTA                                NAO RECEBER APOS 30 DIAS DO VENCIMENTO.                                                                                                                                                                                                         01111700000000000000111170000000000000       0090770900016748131912111717000036
100000000000000000000009077090001674800000000000000000000000010002100007996011171900000000002            2  01079960111709111700000001642710000000001N011117000000000000000000000000000000000000000000000000000000000000000100007996062862HENRIQUE SALVADOR                       RUA DARDANELOS - 689 - PARQUE NOVO ORATO            09260060                                                            000038
2SR. CAIXA, APOS O VENCIMENTO COBRAR 10% DE MULTA                                NAO RECEBER APOS 30 DIAS DO VENCIMENTO.                                                                                                                                                                                                         01111700000000000000111170000000000000       0090770900016748079960111719000039
100000000000000000000009077090001674800000000000000000000000010002100004899711171600000000002            2  01048997111709111700000001257530000000001N011117000000000000000000000000000000000000000000000000000000000000000100004899735820INES CONCEICAO VIEIRA GADI ERMIDA       AVENIDA ANTONIO RICARDO DA SILVA - 77 -             08270560                                                            000041
2SR. CAIXA, APOS O VENCIMENTO COBRAR 10% DE MULTA                                NAO RECEBER APOS 30 DIAS DO VENCIMENTO.                                                                                                                                                                                                         01111700000000000000111170000000000000       0090770900016748048997111716000042
100000000000000000000009077090001674800000000000000000000000010002100010066011171600000000002            2  01100660111709111700000002200690000000001N011117000000000000000000000000000000000000000000000000000000000000000100010066071534MOISES ROQUE DO ROSARIO                 RUA DAS PAPOULAS - 53 - VILA BELA - SAO             03202010                                                            000044
2SR. CAIXA, APOS O VENCIMENTO COBRAR 10% DE MULTA                                NAO RECEBER APOS 30 DIAS DO VENCIMENTO.                                                                                                                                                                                                         01111700000000000000111170000000000000       0090770900016748100660111716000045
100000000000000000000009077090001674800000000000000000000000010002100085910011171700000000002            2  01859100111709111700000002511080000000001N011117000000000000000000000000000000000000000000000000000000000000000100085910031872SERGIO NOGUEIRA                         RUA MONTE CASTELO - 262 AP.55 - AVIACAO             11702720                                                            000047
2SR. CAIXA, APOS O VENCIMENTO COBRAR 10% DE MULTA                                NAO RECEBER APOS 30 DIAS DO VENCIMENTO.                                                                                                                                                                                                         01111700000000000000111170000000000000       0090770900016748859100111717000048
100000000000000000000009077090001674800000000000000000000000010002100000746811171000000000002            2  01007468111709111700000002030110000000001N011117000000000000000000000000000000000000000000000000000000000000000100000746845820ANTONIO CARLOS DE MELLO                 RUA CONGO - 118 - PARQUE MONTE ALEGRE -             06756270                                                            000050
2SR. CAIXA, APOS O VENCIMENTO COBRAR 10% DE MULTA                                NAO RECEBER APOS 30 DIAS DO VENCIMENTO.                                                                                                                                                                                                         01111700000000000000111170000000000000       0090770900016748007468111710000051
100000000000000000000009077090001674800000000000000000000000010002100028196111171600000000002            2  01281961111709111700000001461860000000001N011117000000000000000000000000000000000000000000000000000000000000000100028196184808VANESSA NOGUEIRA CAMBUI DA SILVA        CRISTOVAO COLOMBO - 217 - VILA AMERICA -            09110160                                                            000053
2SR. CAIXA, APOS O VENCIMENTO COBRAR 10% DE MULTA                                NAO RECEBER APOS 30 DIAS DO VENCIMENTO.                                                                                                                                                                                                         01111700000000000000111170000000000000       0090770900016748281961111716000054
9                                                                                                                                                                                                                                                                                                                                                                                                         000055