01REMESSA01COBRANCA       00000000000004991788AIRES DESENVOLVIMENTO IMOBILIA237BRADESCO       290817        MX0000110                                                                                                                                                                                                                                                                                     000001
100000000000000000000009077090011897400000000000000000000000010002100016144125122600000000002            2  01161441251230081700000000005970000000001N290817000000000000000000000000000000000000000000000000000000000000000100002252149892AIRES MOTA DOS SANTOS                   AV. BRASIL - 600 SALA 1009 - BOQUEIRAO -            11701090                                                            000002
2SR. CAIXA, APOS O VENCIMENTO COBRAR 10% DE MULTA                                NAO RECEBER APOS 30 DIAS DO VENCIMENTO.                                                                                                                                                                                                         29081700000000000002908170000000000000       0090770900118974161441251226000003
9                                                                                                                                                                                                                                                                                                                                                                                                         000004