01REMESSA01COBRANCA       00000000000004991454AIRES CONSTRUTORA E INCORPORAD237BRADESCO       010418        MX0000103                                                                                                                                                                                                                                                                                     000001
100000000000000000000009077090001674800000000000000000000000010002100099740404181600000000002            2  01997404041809041800000002688270000000001N010418000000000000000000000000000000000000000000000000000000000000000100099740451853ARNALDO DA SILVA SALES                  RUA ALEGRE - 210 - VILA SAO RAFAEL - GUA            07053100                                                            000002
2SR. CAIXA, APOS O VENCIMENTO COBRAR 10% DE MULTA                                NAO RECEBER APOS 30 DIAS DO VENCIMENTO.                                                                                                                                                                                                         01041800000000000000104180000000000000       0090770900016748997404041816000003
100000000000000000000009077090001674800000000000000000000000010002100049736704181600000000002            2  01497367041809041800000001631230000000001N010418000000000000000000000000000000000000000000000000000000000000000100049736787320RAIMUNDO VIEIRA DA SILVA                RUA BOLIVIA - 81 AP.ZELADORIA - JARDIM G            11701850                                                            000005
2SR. CAIXA, APOS O VENCIMENTO COBRAR 10% DE MULTA                                NAO RECEBER APOS 30 DIAS DO VENCIMENTO.                                                                                                                                                                                                         01041800000000000000104180000000000000       0090770900016748497367041816000006
100000000000000000000009077090001674800000000000000000000000010002100044380704181000000000002            2  01443807041809041800000004336450000000001N010418000000000000000000000000000000000000000000000000000000000000000100044380725812FERNANDO FIRMINO DOS SANTOS             RUA BARAO GERALDO DE RESENDE - 401 - BAI            05205220                                                            000008
2SR. CAIXA, APOS O VENCIMENTO COBRAR 10% DE MULTA                                NAO RECEBER APOS 30 DIAS DO VENCIMENTO.                                                                                                                                                                                                         01041800000000000000104180000000000000       0090770900016748443807041810000009
100000000000000000000009077090001674800000000000000000000000010002100025469404181100000000002            2  01254694041809041800000001349850000000001N010418000000000000000000000000000000000000000000000000000000000000000100025469470873JULIA MARIA RODRIGUES MARTINS           AVENIDA JOAO FIRMINO - 1229 AP.21 - BAIR            09810260                                                            000011
2SR. CAIXA, APOS O VENCIMENTO COBRAR 10% DE MULTA                                NAO RECEBER APOS 30 DIAS DO VENCIMENTO.                                                                                                                                                                                                         01041800000000000000104180000000000000       0090770900016748254694041811000012
100000000000000000000009077090001674800000000000000000000000010002100027396104181200000000002            2  01273961041809041800000002051870000000001N010418000000000000000000000000000000000000000000000000000000000000000100027396176824WALDINEA BORGES DIAS                    RUA CAP. JOAQUIM F.PEREIRA - 95 - JARDIM            13710000                                                            000014
2SR. CAIXA, APOS O VENCIMENTO COBRAR 10% DE MULTA                                NAO RECEBER APOS 30 DIAS DO VENCIMENTO.                                                                                                                                                                                                         01041800000000000000104180000000000000       0090770900016748273961041812000015
100000000000000000000009077090001674800000000000000000000000010002100004759504181200000000002            2  01047595041809041800000003268130000000001N010418000000000000000000000000000000000000000000000000000000000000000100004759534873AGNALDO PORFIRIO DOS SANTOS             RUA JUVENCIO GASPAR DA SILVA - 35 - SAO             04303060                                                            000017
2SR. CAIXA, APOS O VENCIMENTO COBRAR 10% DE MULTA                                NAO RECEBER APOS 30 DIAS DO VENCIMENTO.                                                                                                                                                                                                         01041800000000000000104180000000000000       0090770900016748047595041812000018
100000000000000000000009077090001674800000000000000000000000010002100014924004181900000000002            2  01149240041809041800000001761220000000001N010418000000000000000000000000000000000000000000000000000000000000000100014924049859KATIA REGINA DE OLIVEIRA SILVA          RUA ANTONIO SIMIONATO - 73 AP.14 - SANTA            09780180                                                            000020
2SR. CAIXA, APOS O VENCIMENTO COBRAR 10% DE MULTA                                NAO RECEBER APOS 30 DIAS DO VENCIMENTO.                                                                                                                                                                                                         01041800000000000000104180000000000000       0090770900016748149240041819000021
100000000000000000000009077090001674800000000000000000000000010002100090830404181600000000002            2  01908304041809041800000001030310000000001N010418000000000000000000000000000000000000000000000000000000000000000100090830490868IVONETE FERNANDES                       AVENIDA FREDERICO OZANAN - 5504 - VILA R            13215276                                                            000023
2SR. CAIXA, APOS O VENCIMENTO COBRAR 10% DE MULTA                                NAO RECEBER APOS 30 DIAS DO VENCIMENTO.                                                                                                                                                                                                         01041800000000000000104180000000000000       0090770900016748908304041816000024
100000000000000000000009077090001674800000000000000000000000010002100027093904181800000000002            2  01270939041809041800000002554150000000001N010418000000000000000000000000000000000000000000000000000000000000000100027093944809DAVID ALEXANDRE XAVIER ROCHA            RUA MONTE CASTELO - 296 AP.54 - AVIACAO             11702720                                                            000026
2SR. CAIXA, APOS O VENCIMENTO COBRAR 10% DE MULTA                                NAO RECEBER APOS 30 DIAS DO VENCIMENTO.                                                                                                                                                                                                         01041800000000000000104180000000000000       0090770900016748270939041818000027
100000000000000000000009077090001674800000000000000000000000010002100068273204181400000000002            2  01682732041809041800000001859250000000001N010418000000000000000000000000000000000000000000000000000000000000000100068273290891DERNEVAL JOSE MUNIZ                     RUA MARTINOPOLIS - 98 - JARDIM OTAWA - G            07230230                                                            000029
2SR. CAIXA, APOS O VENCIMENTO COBRAR 10% DE MULTA                                NAO RECEBER APOS 30 DIAS DO VENCIMENTO.                                                                                                                                                                                                         01041800000000000000104180000000000000       0090770900016748682732041814000030
100000000000000000000009077090001674800000000000000000000000010002100001817504181700000000002            2  01018175041809041800000001588940000000001N010418000000000000000000000000000000000000000000000000000000000000000100001817534807SANTINA SALVINA SOARES                  RUA CAIAPOS - 1066 AP.43 - VILA TUPI - P            11703320                                                            000032
2SR. CAIXA, APOS O VENCIMENTO COBRAR 10% DE MULTA                                NAO RECEBER APOS 30 DIAS DO VENCIMENTO.                                                                                                                                                                                                         01041800000000000000104180000000000000       0090770900016748018175041817000033
100000000000000000000009077090001674800000000000000000000000010002100086755704181400000000002            2  01867557041809041800000001716600000000001N010418000000000000000000000000000000000000000000000000000000000000000100086755790800GERALDO JAIR BROGLIATTO                 DR.ARMANDO COSTA MAGALHAES - 176 - VILA             13270490                                                            000035
2SR. CAIXA, APOS O VENCIMENTO COBRAR 10% DE MULTA                                NAO RECEBER APOS 30 DIAS DO VENCIMENTO.                                                                                                                                                                                                         01041800000000000000104180000000000000       0090770900016748867557041814000036
100000000000000000000009077090001674800000000000000000000000010002100013191204181600000000002            2  01131912041811041800000003600000000000001N010418000000000000000000000000000000000000000000000000000000000000000100013191291881MARCELO RICARDO MASCAROS SOUTO          RUA MONTE CASTELO - 295 AP.102 - AVIACAO            11702720                                                            000038
2SR. CAIXA, APOS O VENCIMENTO COBRAR 10% DE MULTA                                NAO RECEBER APOS 30 DIAS DO VENCIMENTO.                                                                                                                                                                                                         01041800000000000000104180000000000000       0090770900016748131912041816000039
100000000000000000000009077090001674800000000000000000000000010002100007996004181800000000002            2  01079960041809041800000001705240000000001N010418000000000000000000000000000000000000000000000000000000000000000100007996062862HENRIQUE SALVADOR                       RUA DARDANELOS - 689 - PARQUE NOVO ORATO            09260060                                                            000041
2SR. CAIXA, APOS O VENCIMENTO COBRAR 10% DE MULTA                                NAO RECEBER APOS 30 DIAS DO VENCIMENTO.                                                                                                                                                                                                         01041800000000000000104180000000000000       0090770900016748079960041818000042
100000000000000000000009077090001674800000000000000000000000010002100010066004181500000000002            2  01100660041809041800000002284470000000001N010418000000000000000000000000000000000000000000000000000000000000000100010066071534MOISES ROQUE DO ROSARIO                 RUA DAS PAPOULAS - 53 - VILA BELA - SAO             03202010                                                            000044
2SR. CAIXA, APOS O VENCIMENTO COBRAR 10% DE MULTA                                NAO RECEBER APOS 30 DIAS DO VENCIMENTO.                                                                                                                                                                                                         01041800000000000000104180000000000000       0090770900016748100660041815000045
100000000000000000000009077090001674800000000000000000000000010002100085910004181600000000002            2  01859100041809041800000002606660000000001N010418000000000000000000000000000000000000000000000000000000000000000100085910031872SERGIO NOGUEIRA                         RUA MONTE CASTELO - 262 AP.55 - AVIACAO             11702720                                                            000047
2SR. CAIXA, APOS O VENCIMENTO COBRAR 10% DE MULTA                                NAO RECEBER APOS 30 DIAS DO VENCIMENTO.                                                                                                                                                                                                         01041800000000000000104180000000000000       0090770900016748859100041816000048
100000000000000000000009077090001674800000000000000000000000010002100000746804181P00000000002            2  01007468041809041800000002107400000000001N010418000000000000000000000000000000000000000000000000000000000000000100000746845820ANTONIO CARLOS DE MELLO                 RUA CONGO - 118 - PARQUE MONTE ALEGRE -             06756270                                                            000050
2SR. CAIXA, APOS O VENCIMENTO COBRAR 10% DE MULTA                                NAO RECEBER APOS 30 DIAS DO VENCIMENTO.                                                                                                                                                                                                         01041800000000000000104180000000000000       009077090001674800746804181P000051
100000000000000000000009077090001674800000000000000000000000010002100028196104181500000000002            2  01281961041809041800000001517510000000001N010418000000000000000000000000000000000000000000000000000000000000000100028196184808VANESSA NOGUEIRA CAMBUI DA SILVA        CRISTOVAO COLOMBO - 217 - VILA AMERICA -            09110160                                                            000053
2SR. CAIXA, APOS O VENCIMENTO COBRAR 10% DE MULTA                                NAO RECEBER APOS 30 DIAS DO VENCIMENTO.                                                                                                                                                                                                         01041800000000000000104180000000000000       0090770900016748281961041815000054
100000000000000000000009077090001674800000000000000000000000010002100027067004181600000000002            2  01270670041809041800000001545510000000001N010418000000000000000000000000000000000000000000000000000000000000000100027067002893MARCIA NASCIMENTO DE MORAES             RUA MONTE CASTELO - 296 AP.11 - AVIACAO             11702720                                                            000056
2SR. CAIXA, APOS O VENCIMENTO COBRAR 10% DE MULTA                                NAO RECEBER APOS 30 DIAS DO VENCIMENTO.                                                                                                                                                                                                         01041800000000000000104180000000000000       0090770900016748270670041816000057
100000000000000000000009077090001674800000000000000000000000010002100064435704181000000000002            2  01644357041809041800000001545510000000001N010418000000000000000000000000000000000000000000000000000000000000000100064435741849JURACY DA SILVA                         RUA JACARATINGA - 192 - JARDIM PIRAJUCAR            05786120                                                            000059
2SR. CAIXA, APOS O VENCIMENTO COBRAR 10% DE MULTA                                NAO RECEBER APOS 30 DIAS DO VENCIMENTO.                                                                                                                                                                                                         01041800000000000000104180000000000000       0090770900016748644357041810000060
100000000000000000000009077090001674800000000000000000000000010002100094921804181P00000000002            2  01949218041809041800000001534000000000001N010418000000000000000000000000000000000000000000000000000000000000000100094921890897JOAO JORGE DA ROSA FILHO                RUA OLAVO EGIDIO DE SOUZA ARANHA - 368 A            03822000                                                            000062
2SR. CAIXA, APOS O VENCIMENTO COBRAR 10% DE MULTA                                NAO RECEBER APOS 30 DIAS DO VENCIMENTO.                                                                                                                                                                                                         01041800000000000000104180000000000000       009077090001674894921804181P000063
100000000000000000000009077090001674800000000000000000000000010002100008364804181600000000002            2  01083648041809041800000001860930000000001N010418000000000000000000000000000000000000000000000000000000000000000100008364834800JOSEFINA CORREA RAMA DOS SANTOS         AVENIDA PRESIDENTE CASTELO BRANCO - 3.78            11702700                                                            000065
2SR. CAIXA, APOS O VENCIMENTO COBRAR 10% DE MULTA                                NAO RECEBER APOS 30 DIAS DO VENCIMENTO.                                                                                                                                                                                                         01041800000000000000104180000000000000       0090770900016748083648041816000066
100000000000000000000009077090001674800000000000000000000000010002100037713304181700000000002            2  01377133041809041800000012180680000000001N010418000000000000000000000000000000000000000000000000000000000000000100037713356800JAMILLE PAULA BUENO LOPES               RUA CURIO (COND.NEW VILLE) - 172 - SURU             06509031                                                            000068
2SR. CAIXA, APOS O VENCIMENTO COBRAR 10% DE MULTA                                NAO RECEBER APOS 30 DIAS DO VENCIMENTO.                                                                                                                                                                                                         01041800000000000000104180000000000000       0090770900016748377133041817000069
100000000000000000000009077090001674800000000000000000000000010002100027100904181400000000002            2  01271009041809041800000001773830000000001N010418000000000000000000000000000000000000000000000000000000000000000100027100951810MARCIA RAMALHO RODRIGUES                RUA MONTE CASTELO - 296 AP.82 - AVIACAO             11702720                                                            000071
2SR. CAIXA, APOS O VENCIMENTO COBRAR 10% DE MULTA                                NAO RECEBER APOS 30 DIAS DO VENCIMENTO.                                                                                                                                                                                                         01041800000000000000104180000000000000       0090770900016748271009041814000072
100000000000000000000009077090001674800000000000000000000000010002100076207904181500000000002            2  01762079041809041800000001913010000000001N010418000000000000000000000000000000000000000000000000000000000000000100076207943872JOSE MACEDO RICARTE FILHO               RUA ARTUR LOBO - 181 - JARDIM JABAQUARA             04384060                                                            000074
2SR. CAIXA, APOS O VENCIMENTO COBRAR 10% DE MULTA                                NAO RECEBER APOS 30 DIAS DO VENCIMENTO.                                                                                                                                                                                                         01041800000000000000104180000000000000       0090770900016748762079041815000075
9                                                                                                                                                                                                                                                                                                                                                                                                         000076