01REMESSA01COBRANCA       00000000000004991788AIRES DESENVOLVIMENTO IMOBILIA237BRADESCO       010920        MX0000184                                                                                                                                                                                                                                                                                     000001
100000000000000000000009077090011897400000000000000000000000010002100000452409201600000000002            2  01004524092010092000000001456050000000001N010920000000000000000000000000000000000000000000000000000000000000000100000452415896MARILUCE SANTOS DE ALMEIDA              RUA JOSE CALIXTO DO CARMO - 295 AP.74 -             11702690                                                            000002
2SR. CAIXA, APOS O VENCIMENTO COBRAR 10% DE MULTA                                NAO RECEBER APOS 30 DIAS DO VENCIMENTO.                                                                                                                                                                                                         01092000000000000000109200000000000000       0090770900118974004524092016000003
100000000000000000000009077090011897400000000000000000000000010002100001461009201600000000002            2  01014610092009092000000001526650000000001N010920000000000000000000000000000000000000000000000000000000000000000100001461096863ARGEVAL LOURENCO MAZOLA                 RUA ZELY DIAS DE FIGUEIREDO - 81 - VILA             02617060                                                            000005
2SR. CAIXA, APOS O VENCIMENTO COBRAR 10% DE MULTA                                NAO RECEBER APOS 30 DIAS DO VENCIMENTO.                                                                                                                                                                                                         01092000000000000000109200000000000000       0090770900118974014610092016000006
100000000000000000000009077090011897400000000000000000000000010002100013191209201100000000002            2  01131912092011092000000001800000000000001N010920000000000000000000000000000000000000000000000000000000000000000100013191291881MARCELO RICARDO MASCAROS SOUTO          RUA MONTE CASTELO - 295 AP.102 - AVIACAO            11702720                                                            000008
2SR. CAIXA, APOS O VENCIMENTO COBRAR 10% DE MULTA                                NAO RECEBER APOS 30 DIAS DO VENCIMENTO.                                                                                                                                                                                                         01092000000000000000109200000000000000       0090770900118974131912092011000009
9                                                                                                                                                                                                                                                                                                                                                                                                         000010