01REMESSA01COBRANCA       00000000000004991788AIRES DESENVOLVIMENTO IMOBILIA237BRADESCO       050719        MX0000157                                                                                                                                                                                                                                                                                     000001
100000000000000000000009077090011897400000000000000000000000010002100027324007191500000000002            2  01273240071924071900000001618570000000001N040719000000000000000000000000000000000000000000000000000000000000000100027324099874LEONARDO BORGES DUARTE SILVA            RUA JOSE CALIXTO DO CARMO - 265 AP.94 -             11702690                                                            000002
2SR. CAIXA, APOS O VENCIMENTO COBRAR 10% DE MULTA                                NAO RECEBER APOS 30 DIAS DO VENCIMENTO.                                                                                                                                                                                                         05071900000000000000507190000000000000       0090770900118974273240071915000003
100000000000000000000009077090011897400000000000000000000000010002100084057907191600000000002            2  01840579071927071900000002000000000000001N040719000000000000000000000000000000000000000000000000000000000000000100084057904891ANTONIO GONZAGA DOS SANTOS              RUA BRIGADEIRO JOSE FERREIRA - 319 - CAN            11700470                                                            000005
2SR. CAIXA, APOS O VENCIMENTO COBRAR 10% DE MULTA                                NAO RECEBER APOS 30 DIAS DO VENCIMENTO.                                                                                                                                                                                                         05071900000000000000507190000000000000       0090770900118974840579071916000006
100000000000000000000009077090011897400000000000000000000000010002100036782007191700000000002            2  01367820071924071900000001558130000000001N040719000000000000000000000000000000000000000000000000000000000000000100036782058871ANA PAULA BUENO DA COSTA                RUA MARIQUITA ARTACHO - 218 CASA 3 - JAR            03716000                                                            000008
2SR. CAIXA, APOS O VENCIMENTO COBRAR 10% DE MULTA                                NAO RECEBER APOS 30 DIAS DO VENCIMENTO.                                                                                                                                                                                                         05071900000000000000507190000000000000       0090770900118974367820071917000009
100000000000000000000009077090011897400000000000000000000000010002100018272707191500000000002            2  01182727071927071900000001800000000000001N040719000000000000000000000000000000000000000000000000000000000000000100018272729881HENRY CESAR UEDA                        RUA MONTE CASTELO - 295 AP.94 - AVIACAO             11702720                                                            000011
2SR. CAIXA, APOS O VENCIMENTO COBRAR 10% DE MULTA                                NAO RECEBER APOS 30 DIAS DO VENCIMENTO.                                                                                                                                                                                                         05071900000000000000507190000000000000       0090770900118974182727071915000012
100000000000000000000009077090011897400000000000000000000000010002100027300907191000000000002            2  01273009071924071900000001813500000000001N040719000000000000000000000000000000000000000000000000000000000000000100027300953816HOSANA DOS SANTOS MOLEIRO               RUA JOSE CALIXTO DO CARMO - 295 AP.61 -             11702690                                                            000014
2SR. CAIXA, APOS O VENCIMENTO COBRAR 10% DE MULTA                                NAO RECEBER APOS 30 DIAS DO VENCIMENTO.                                                                                                                                                                                                         05071900000000000000507190000000000000       0090770900118974273009071910000015
9                                                                                                                                                                                                                                                                                                                                                                                                         000016