01REMESSA01COBRANCA       00000000000004991454AIRES CONSTRUTORA E INCORPORAD237BRADESCO       010318        MX0000101                                                                                                                                                                                                                                                                                     000001
100000000000000000000009077090001674800000000000000000000000010002100099740403181000000000002            2  01997404031809031800000002668260000000001N010318000000000000000000000000000000000000000000000000000000000000000100099740451853ARNALDO DA SILVA SALES                  RUA ALEGRE - 210 - VILA SAO RAFAEL - GUA            07053100                                                            000002
2SR. CAIXA, APOS O VENCIMENTO COBRAR 10% DE MULTA                                NAO RECEBER APOS 30 DIAS DO VENCIMENTO.                                                                                                                                                                                                         01031800000000000000103180000000000000       0090770900016748997404031810000003
100000000000000000000009077090001674800000000000000000000000010002100049736703181000000000002            2  01497367031809031800000001619090000000001N010318000000000000000000000000000000000000000000000000000000000000000100049736787320RAIMUNDO VIEIRA DA SILVA                RUA BOLIVIA - 81 AP.ZELADORIA - JARDIM G            11701850                                                            000005
2SR. CAIXA, APOS O VENCIMENTO COBRAR 10% DE MULTA                                NAO RECEBER APOS 30 DIAS DO VENCIMENTO.                                                                                                                                                                                                         01031800000000000000103180000000000000       0090770900016748497367031810000006
100000000000000000000009077090001674800000000000000000000000010002100044380703181500000000002            2  01443807031809031800000004304170000000001N010318000000000000000000000000000000000000000000000000000000000000000100044380725812FERNANDO FIRMINO DOS SANTOS             RUA BARAO GERALDO DE RESENDE - 401 - BAI            05205220                                                            000008
2SR. CAIXA, APOS O VENCIMENTO COBRAR 10% DE MULTA                                NAO RECEBER APOS 30 DIAS DO VENCIMENTO.                                                                                                                                                                                                         01031800000000000000103180000000000000       0090770900016748443807031815000009
100000000000000000000009077090001674800000000000000000000000010002100025469403181600000000002            2  01254694031809031800000001339800000000001N010318000000000000000000000000000000000000000000000000000000000000000100025469470873JULIA MARIA RODRIGUES MARTINS           AVENIDA JOAO FIRMINO - 1229 AP.21 - BAIR            09810260                                                            000011
2SR. CAIXA, APOS O VENCIMENTO COBRAR 10% DE MULTA                                NAO RECEBER APOS 30 DIAS DO VENCIMENTO.                                                                                                                                                                                                         01031800000000000000103180000000000000       0090770900016748254694031816000012
100000000000000000000009077090001674800000000000000000000000010002100027396103181700000000002            2  01273961031809031800000002036600000000001N010318000000000000000000000000000000000000000000000000000000000000000100027396176824WALDINEA BORGES DIAS                    RUA CAP. JOAQUIM F.PEREIRA - 95 - JARDIM            13710000                                                            000014
2SR. CAIXA, APOS O VENCIMENTO COBRAR 10% DE MULTA                                NAO RECEBER APOS 30 DIAS DO VENCIMENTO.                                                                                                                                                                                                         01031800000000000000103180000000000000       0090770900016748273961031817000015
100000000000000000000009077090001674800000000000000000000000010002100004759503181700000000002            2  01047595031809031800000003243800000000001N010318000000000000000000000000000000000000000000000000000000000000000100004759534873AGNALDO PORFIRIO DOS SANTOS             RUA JUVENCIO GASPAR DA SILVA - 35 - SAO             04303060                                                            000017
2SR. CAIXA, APOS O VENCIMENTO COBRAR 10% DE MULTA                                NAO RECEBER APOS 30 DIAS DO VENCIMENTO.                                                                                                                                                                                                         01031800000000000000103180000000000000       0090770900016748047595031817000018
100000000000000000000009077090001674800000000000000000000000010002100014924003181300000000002            2  01149240031809031800000001748110000000001N010318000000000000000000000000000000000000000000000000000000000000000100014924049859KATIA REGINA DE OLIVEIRA SILVA          RUA ANTONIO SIMIONATO - 73 AP.14 - SANTA            09780180                                                            000020
2SR. CAIXA, APOS O VENCIMENTO COBRAR 10% DE MULTA                                NAO RECEBER APOS 30 DIAS DO VENCIMENTO.                                                                                                                                                                                                         01031800000000000000103180000000000000       0090770900016748149240031813000021
100000000000000000000009077090001674800000000000000000000000010002100090830403181000000000002            2  01908304031809031800000001022640000000001N010318000000000000000000000000000000000000000000000000000000000000000100090830490868IVONETE FERNANDES                       AVENIDA FREDERICO OZANAN - 5504 - VILA R            13215276                                                            000023
2SR. CAIXA, APOS O VENCIMENTO COBRAR 10% DE MULTA                                NAO RECEBER APOS 30 DIAS DO VENCIMENTO.                                                                                                                                                                                                         01031800000000000000103180000000000000       0090770900016748908304031810000024
100000000000000000000009077090001674800000000000000000000000010002100027093903181200000000002            2  01270939031809031800000002535140000000001N010318000000000000000000000000000000000000000000000000000000000000000100027093944809DAVID ALEXANDRE XAVIER ROCHA            RUA MONTE CASTELO - 296 AP.54 - AVIACAO             11702720                                                            000026
2SR. CAIXA, APOS O VENCIMENTO COBRAR 10% DE MULTA                                NAO RECEBER APOS 30 DIAS DO VENCIMENTO.                                                                                                                                                                                                         01031800000000000000103180000000000000       0090770900016748270939031812000027
100000000000000000000009077090001674800000000000000000000000010002100068273203181900000000002            2  01682732031809031800000001845410000000001N010318000000000000000000000000000000000000000000000000000000000000000100068273290891DERNEVAL JOSE MUNIZ                     RUA MARTINOPOLIS - 98 - JARDIM OTAWA - G            07230230                                                            000029
2SR. CAIXA, APOS O VENCIMENTO COBRAR 10% DE MULTA                                NAO RECEBER APOS 30 DIAS DO VENCIMENTO.                                                                                                                                                                                                         01031800000000000000103180000000000000       0090770900016748682732031819000030
100000000000000000000009077090001674800000000000000000000000010002100001817503181100000000002            2  01018175031809031800000001577110000000001N010318000000000000000000000000000000000000000000000000000000000000000100001817534807SANTINA SALVINA SOARES                  RUA CAIAPOS - 1066 AP.43 - VILA TUPI - P            11703320                                                            000032
2SR. CAIXA, APOS O VENCIMENTO COBRAR 10% DE MULTA                                NAO RECEBER APOS 30 DIAS DO VENCIMENTO.                                                                                                                                                                                                         01031800000000000000103180000000000000       0090770900016748018175031811000033
100000000000000000000009077090001674800000000000000000000000010002100086755703181900000000002            2  01867557031809031800000001703820000000001N010318000000000000000000000000000000000000000000000000000000000000000100086755790800GERALDO JAIR BROGLIATTO                 DR.ARMANDO COSTA MAGALHAES - 176 - VILA             13270490                                                            000035
2SR. CAIXA, APOS O VENCIMENTO COBRAR 10% DE MULTA                                NAO RECEBER APOS 30 DIAS DO VENCIMENTO.                                                                                                                                                                                                         01031800000000000000103180000000000000       0090770900016748867557031819000036
100000000000000000000009077090001674800000000000000000000000010002100013191203181000000000002            2  01131912031811031800000001800000000000001N010318000000000000000000000000000000000000000000000000000000000000000100013191291881MARCELO RICARDO MASCAROS SOUTO          RUA MONTE CASTELO - 295 AP.102 - AVIACAO            11702720                                                            000038
2SR. CAIXA, APOS O VENCIMENTO COBRAR 10% DE MULTA                                NAO RECEBER APOS 30 DIAS DO VENCIMENTO.                                                                                                                                                                                                         01031800000000000000103180000000000000       0090770900016748131912031810000039
100000000000000000000009077090001674800000000000000000000000010002100007996003181200000000002            2  01079960031809031800000001692550000000001N010318000000000000000000000000000000000000000000000000000000000000000100007996062862HENRIQUE SALVADOR                       RUA DARDANELOS - 689 - PARQUE NOVO ORATO            09260060                                                            000041
2SR. CAIXA, APOS O VENCIMENTO COBRAR 10% DE MULTA                                NAO RECEBER APOS 30 DIAS DO VENCIMENTO.                                                                                                                                                                                                         01031800000000000000103180000000000000       0090770900016748079960031812000042
100000000000000000000009077090001674800000000000000000000000010002100010066003181P00000000002            2  01100660031809031800000002267460000000001N010318000000000000000000000000000000000000000000000000000000000000000100010066071534MOISES ROQUE DO ROSARIO                 RUA DAS PAPOULAS - 53 - VILA BELA - SAO             03202010                                                            000044
2SR. CAIXA, APOS O VENCIMENTO COBRAR 10% DE MULTA                                NAO RECEBER APOS 30 DIAS DO VENCIMENTO.                                                                                                                                                                                                         01031800000000000000103180000000000000       009077090001674810066003181P000045
100000000000000000000009077090001674800000000000000000000000010002100085910003181000000000002            2  01859100031809031800000002587260000000001N010318000000000000000000000000000000000000000000000000000000000000000100085910031872SERGIO NOGUEIRA                         RUA MONTE CASTELO - 262 AP.55 - AVIACAO             11702720                                                            000047
2SR. CAIXA, APOS O VENCIMENTO COBRAR 10% DE MULTA                                NAO RECEBER APOS 30 DIAS DO VENCIMENTO.                                                                                                                                                                                                         01031800000000000000103180000000000000       0090770900016748859100031810000048
100000000000000000000009077090001674800000000000000000000000010002100000746803181400000000002            2  01007468031809031800000002091710000000001N010318000000000000000000000000000000000000000000000000000000000000000100000746845820ANTONIO CARLOS DE MELLO                 RUA CONGO - 118 - PARQUE MONTE ALEGRE -             06756270                                                            000050
2SR. CAIXA, APOS O VENCIMENTO COBRAR 10% DE MULTA                                NAO RECEBER APOS 30 DIAS DO VENCIMENTO.                                                                                                                                                                                                         01031800000000000000103180000000000000       0090770900016748007468031814000051
100000000000000000000009077090001674800000000000000000000000010002100028196103181P00000000002            2  01281961031809031800000001506210000000001N010318000000000000000000000000000000000000000000000000000000000000000100028196184808VANESSA NOGUEIRA CAMBUI DA SILVA        CRISTOVAO COLOMBO - 217 - VILA AMERICA -            09110160                                                            000053
2SR. CAIXA, APOS O VENCIMENTO COBRAR 10% DE MULTA                                NAO RECEBER APOS 30 DIAS DO VENCIMENTO.                                                                                                                                                                                                         01031800000000000000103180000000000000       009077090001674828196103181P000054
100000000000000000000009077090001674800000000000000000000000010002100027067003181000000000002            2  01270670031809031800000001534000000000001N010318000000000000000000000000000000000000000000000000000000000000000100027067002893MARCIA NASCIMENTO DE MORAES             RUA MONTE CASTELO - 296 AP.11 - AVIACAO             11702720                                                            000056
2SR. CAIXA, APOS O VENCIMENTO COBRAR 10% DE MULTA                                NAO RECEBER APOS 30 DIAS DO VENCIMENTO.                                                                                                                                                                                                         01031800000000000000103180000000000000       0090770900016748270670031810000057
100000000000000000000009077090001674800000000000000000000000010002100029238203181800000000002            2  01292382031809031800000001534000000000001N010318000000000000000000000000000000000000000000000000000000000000000100029238280894JURACY DA SILVA                         RUA JACARATINGA - 192 - JARDIM PIRAJUCAR            05786120                                                            000059
2SR. CAIXA, APOS O VENCIMENTO COBRAR 10% DE MULTA                                NAO RECEBER APOS 30 DIAS DO VENCIMENTO.                                                                                                                                                                                                         01031800000000000000103180000000000000       0090770900016748292382031818000060
100000000000000000000009077090001674800000000000000000000000010002100094921803181400000000002            2  01949218031809031800000001522580000000001N010318000000000000000000000000000000000000000000000000000000000000000100094921890897JOAO JORGE DA ROSA FILHO                RUA OLAVO EGIDIO DE SOUZA ARANHA - 368 A            03822000                                                            000062
2SR. CAIXA, APOS O VENCIMENTO COBRAR 10% DE MULTA                                NAO RECEBER APOS 30 DIAS DO VENCIMENTO.                                                                                                                                                                                                         01031800000000000000103180000000000000       0090770900016748949218031814000063
100000000000000000000009077090001674800000000000000000000000010002100008364803181000000000002            2  01083648031809031800000001847080000000001N010318000000000000000000000000000000000000000000000000000000000000000100008364834800JOSEFINA CORREA RAMA DOS SANTOS         RUA PEDRO ALVARES CABRAL - 235 AP.23 - A            11702780                                                            000065
2SR. CAIXA, APOS O VENCIMENTO COBRAR 10% DE MULTA                                NAO RECEBER APOS 30 DIAS DO VENCIMENTO.                                                                                                                                                                                                         01031800000000000000103180000000000000       0090770900016748083648031810000066
100000000000000000000009077090001674800000000000000000000000010002100037713303181100000000002            2  01377133031809031800000012090000000000001N010318000000000000000000000000000000000000000000000000000000000000000100037713356800JAMILLE PAULA BUENO LOPES               RUA CURIO (COND.NEW VILLE) - 172 - SURU             06509031                                                            000068
2SR. CAIXA, APOS O VENCIMENTO COBRAR 10% DE MULTA                                NAO RECEBER APOS 30 DIAS DO VENCIMENTO.                                                                                                                                                                                                         01031800000000000000103180000000000000       0090770900016748377133031811000069
9                                                                                                                                                                                                                                                                                                                                                                                                         000070