01REMESSA01COBRANCA       00000000000004991454AIRES CONSTRUTORA E INCORPORAD237BRADESCO       011019        MX0000141                                                                                                                                                                                                                                                                                     000001
100000000000000000000009077090001674800000000000000000000000010002100099740410191600000000002            2  01997404101909101900000007380620000000001N011019000000000000000000000000000000000000000000000000000000000000000100099740451853ARNALDO DA SILVA SALES                  RUA ALEGRE - 210 - VILA SAO RAFAEL - GUA            07053100                                                            000002
2SR. CAIXA, APOS O VENCIMENTO COBRAR 10% DE MULTA                                NAO RECEBER APOS 30 DIAS DO VENCIMENTO.                                                                                                                                                                                                         01101900000000000000110190000000000000       0090770900016748997404101916000003
100000000000000000000009077090001674800000000000000000000000010002100099740410192400000000002            2  01997404101909101900000003075260000000001N011019000000000000000000000000000000000000000000000000000000000000000100099740451853ARNALDO DA SILVA SALES                  RUA ALEGRE - 210 - VILA SAO RAFAEL - GUA            07053100                                                            000005
2SR. CAIXA, APOS O VENCIMENTO COBRAR 10% DE MULTA                                NAO RECEBER APOS 30 DIAS DO VENCIMENTO.                                                                                                                                                                                                         01101900000000000000110190000000000000       0090770900016748997404101924000006
100000000000000000000009077090001674800000000000000000000000010002100044380710191000000000002            2  01443807101909101900000004960720000000001N011019000000000000000000000000000000000000000000000000000000000000000100044380725812FERNANDO FIRMINO DOS SANTOS             RUA BARAO GERALDO DE RESENDE - 401 - BAI            05205220                                                            000008
2SR. CAIXA, APOS O VENCIMENTO COBRAR 10% DE MULTA                                NAO RECEBER APOS 30 DIAS DO VENCIMENTO.                                                                                                                                                                                                         01101900000000000000110190000000000000       0090770900016748443807101910000009
100000000000000000000009077090001674800000000000000000000000010002100025469410191100000000002            2  01254694101909101900000001544180000000001N011019000000000000000000000000000000000000000000000000000000000000000100025469470873JULIA MARIA RODRIGUES MARTINS           AVENIDA JOAO FIRMINO - 1229 AP.21 - BAIR            09810260                                                            000011
2SR. CAIXA, APOS O VENCIMENTO COBRAR 10% DE MULTA                                NAO RECEBER APOS 30 DIAS DO VENCIMENTO.                                                                                                                                                                                                         01101900000000000000110190000000000000       0090770900016748254694101911000012
100000000000000000000009077090001674800000000000000000000000010002100004759510191200000000002            2  01047595101909101900000003738590000000001N011019000000000000000000000000000000000000000000000000000000000000000100004759534873AGNALDO PORFIRIO DOS SANTOS             RUA JUVENCIO GASPAR DA SILVA - 35 - SAO             04303060                                                            000014
2SR. CAIXA, APOS O VENCIMENTO COBRAR 10% DE MULTA                                NAO RECEBER APOS 30 DIAS DO VENCIMENTO.                                                                                                                                                                                                         01101900000000000000110190000000000000       0090770900016748047595101912000015
100000000000000000000009077090001674800000000000000000000000010002100090830410191600000000002            2  01908304101909101900000001178620000000001N011019000000000000000000000000000000000000000000000000000000000000000100090830490868IVONETE FERNANDES                       AVENIDA FREDERICO OZANAN - 5504 - VILA R            13215276                                                            000017
2SR. CAIXA, APOS O VENCIMENTO COBRAR 10% DE MULTA                                NAO RECEBER APOS 30 DIAS DO VENCIMENTO.                                                                                                                                                                                                         01101900000000000000110190000000000000       0090770900016748908304101916000018
100000000000000000000009077090001674800000000000000000000000010002100027093910191800000000002            2  01270939101909101900000013341710000000001N011019000000000000000000000000000000000000000000000000000000000000000100027093944809DAVID ALEXANDRE XAVIER ROCHA            RUA MONTE CASTELO - 296 AP.54 - AVIACAO             11702720                                                            000020
2SR. CAIXA, APOS O VENCIMENTO COBRAR 10% DE MULTA                                NAO RECEBER APOS 30 DIAS DO VENCIMENTO.                                                                                                                                                                                                         01101900000000000000110190000000000000       0090770900016748270939101918000021
100000000000000000000009077090001674800000000000000000000000010002100027093910192600000000002            2  01270939101909101900000002921850000000001N011019000000000000000000000000000000000000000000000000000000000000000100027093944809DAVID ALEXANDRE XAVIER ROCHA            RUA MONTE CASTELO - 296 AP.54 - AVIACAO             11702720                                                            000023
2SR. CAIXA, APOS O VENCIMENTO COBRAR 10% DE MULTA                                NAO RECEBER APOS 30 DIAS DO VENCIMENTO.                                                                                                                                                                                                         01101900000000000000110190000000000000       0090770900016748270939101926000024
100000000000000000000009077090001674800000000000000000000000010002100068273210191400000000002            2  01682732101909101900000002126900000000001N011019000000000000000000000000000000000000000000000000000000000000000100068273290891DERNEVAL JOSE MUNIZ                     RUA MARTINOPOLIS - 98 - JARDIM OTAWA - G            07230230                                                            000026
2SR. CAIXA, APOS O VENCIMENTO COBRAR 10% DE MULTA                                NAO RECEBER APOS 30 DIAS DO VENCIMENTO.                                                                                                                                                                                                         01101900000000000000110190000000000000       0090770900016748682732101914000027
100000000000000000000009077090001674800000000000000000000000010002100001817510191700000000002            2  01018175101909101900000001817700000000001N011019000000000000000000000000000000000000000000000000000000000000000100001817534807SANTINA SALVINA SOARES                  RUA CAIAPOS - 1066 AP.43 - VILA TUPI - P            11703320                                                            000029
2SR. CAIXA, APOS O VENCIMENTO COBRAR 10% DE MULTA                                NAO RECEBER APOS 30 DIAS DO VENCIMENTO.                                                                                                                                                                                                         01101900000000000000110190000000000000       0090770900016748018175101917000030
100000000000000000000009077090001674800000000000000000000000010002100086755710191400000000002            2  01867557101909101900000001963720000000001N011019000000000000000000000000000000000000000000000000000000000000000100086755790800GERALDO JAIR BROGLIATTO                 DR.ARMANDO COSTA MAGALHAES - 176 - VILA             13270490                                                            000032
2SR. CAIXA, APOS O VENCIMENTO COBRAR 10% DE MULTA                                NAO RECEBER APOS 30 DIAS DO VENCIMENTO.                                                                                                                                                                                                         01101900000000000000110190000000000000       0090770900016748867557101914000033
100000000000000000000009077090001674800000000000000000000000010002100010066010191500000000002            2  01100660101909101900000002613330000000001N011019000000000000000000000000000000000000000000000000000000000000000100010066071534MOISES ROQUE DO ROSARIO                 RUA DAS PAPOULAS - 53 - VILA BELA - SAO             03202010                                                            000035
2SR. CAIXA, APOS O VENCIMENTO COBRAR 10% DE MULTA                                NAO RECEBER APOS 30 DIAS DO VENCIMENTO.                                                                                                                                                                                                         01101900000000000000110190000000000000       0090770900016748100660101915000036
100000000000000000000009077090001674800000000000000000000000010002100085910010191600000000002            2  01859100101909101900000002981900000000001N011019000000000000000000000000000000000000000000000000000000000000000100085910031872SERGIO NOGUEIRA                         RUA MONTE CASTELO - 262 AP.55 - AVIACAO             11702720                                                            000038
2SR. CAIXA, APOS O VENCIMENTO COBRAR 10% DE MULTA                                NAO RECEBER APOS 30 DIAS DO VENCIMENTO.                                                                                                                                                                                                         01101900000000000000110190000000000000       0090770900016748859100101916000039
100000000000000000000009077090001674800000000000000000000000010002100000746810191P00000000002            2  01007468101909101900000002410770000000001N011019000000000000000000000000000000000000000000000000000000000000000100000746845820ANTONIO CARLOS DE MELLO                 RUA CONGO - 118 - PARQUE MONTE ALEGRE -             06756270                                                            000041
2SR. CAIXA, APOS O VENCIMENTO COBRAR 10% DE MULTA                                NAO RECEBER APOS 30 DIAS DO VENCIMENTO.                                                                                                                                                                                                         01101900000000000000110190000000000000       009077090001674800746810191P000042
100000000000000000000009077090001674800000000000000000000000010002100028196110191500000000002            2  01281961101909101900000001735960000000001N011019000000000000000000000000000000000000000000000000000000000000000100028196184808VANESSA NOGUEIRA CAMBUI DA SILVA        CRISTOVAO COLOMBO - 217 - VILA AMERICA -            09110160                                                            000044
2SR. CAIXA, APOS O VENCIMENTO COBRAR 10% DE MULTA                                NAO RECEBER APOS 30 DIAS DO VENCIMENTO.                                                                                                                                                                                                         01101900000000000000110190000000000000       0090770900016748281961101915000045
100000000000000000000009077090001674800000000000000000000000010002100049730810191000000000002            2  01497308101909101900000001425000000000001N011019000000000000000000000000000000000000000000000000000000000000000100049730835420PEDRO LUIZ DO BOM FIM FILHO             RUA NASCER DO SOL - 91 - BAIRRO PIRAPORI            09951475                                                            000047
2SR. CAIXA, APOS O VENCIMENTO COBRAR 10% DE MULTA                                NAO RECEBER APOS 30 DIAS DO VENCIMENTO.                                                                                                                                                                                                         01101900000000000000110190000000000000       0090770900016748497308101910000048
100000000000000000000009077090001674800000000000000000000000010002100027067010191600000000002            2  01270670101909101900000001767990000000001N011019000000000000000000000000000000000000000000000000000000000000000100027067002893MARCIA NASCIMENTO DE MORAES             RUA MONTE CASTELO - 296 AP.11 - AVIACAO             11702720                                                            000050
2SR. CAIXA, APOS O VENCIMENTO COBRAR 10% DE MULTA                                NAO RECEBER APOS 30 DIAS DO VENCIMENTO.                                                                                                                                                                                                         01101900000000000000110190000000000000       0090770900016748270670101916000051
100000000000000000000009077090001674800000000000000000000000010002100064435710191000000000002            2  01644357101909101900000001767990000000001N011019000000000000000000000000000000000000000000000000000000000000000100064435741849JURACY DA SILVA                         RUA JACARATINGA - 192 - JARDIM PIRAJUCAR            05786120                                                            000053
2SR. CAIXA, APOS O VENCIMENTO COBRAR 10% DE MULTA                                NAO RECEBER APOS 30 DIAS DO VENCIMENTO.                                                                                                                                                                                                         01101900000000000000110190000000000000       0090770900016748644357101910000054
100000000000000000000009077090001674800000000000000000000000010002100094921810191P00000000002            2  01949218101909101900000001754830000000001N011019000000000000000000000000000000000000000000000000000000000000000100094921890897JOAO JORGE DA ROSA FILHO                RUA OLAVO EGIDIO DE SOUZA ARANHA - 368 A            03822000                                                            000056
2SR. CAIXA, APOS O VENCIMENTO COBRAR 10% DE MULTA                                NAO RECEBER APOS 30 DIAS DO VENCIMENTO.                                                                                                                                                                                                         01101900000000000000110190000000000000       009077090001674894921810191P000057
100000000000000000000009077090001674800000000000000000000000010002100008364810191600000000002            2  01083648101909101900000002128850000000001N011019000000000000000000000000000000000000000000000000000000000000000100008364834800JOSEFINA CORREA RAMA DOS SANTOS         AVENIDA PRESIDENTE CASTELO BRANCO - 3.78            11702700                                                            000059
2SR. CAIXA, APOS O VENCIMENTO COBRAR 10% DE MULTA                                NAO RECEBER APOS 30 DIAS DO VENCIMENTO.                                                                                                                                                                                                         01101900000000000000110190000000000000       0090770900016748083648101916000060
100000000000000000000009077090001674800000000000000000000000010002100037713310191700000000002            2  01377133101909101900000001741770000000001N011019000000000000000000000000000000000000000000000000000000000000000100037713356800JAMILLE PAULA BUENO LOPES               RUA CURIO (COND.NEW VILLE) - 172 - SURU             06509031                                                            000062
2SR. CAIXA, APOS O VENCIMENTO COBRAR 10% DE MULTA                                NAO RECEBER APOS 30 DIAS DO VENCIMENTO.                                                                                                                                                                                                         01101900000000000000110190000000000000       0090770900016748377133101917000063
100000000000000000000009077090001674800000000000000000000000010002100027100910191400000000002            2  01271009101909101900000002029180000000001N011019000000000000000000000000000000000000000000000000000000000000000100027100951810MARCIA RAMALHO RODRIGUES                RUA MONTE CASTELO - 296 AP.82 - AVIACAO             11702720                                                            000065
2SR. CAIXA, APOS O VENCIMENTO COBRAR 10% DE MULTA                                NAO RECEBER APOS 30 DIAS DO VENCIMENTO.                                                                                                                                                                                                         01101900000000000000110190000000000000       0090770900016748271009101914000066
100000000000000000000009077090001674800000000000000000000000010002100076207910191500000000002            2  01762079101909101900000002188410000000001N011019000000000000000000000000000000000000000000000000000000000000000100076207943872JOSE MACEDO RICARTE FILHO               RUA ARTUR LOBO - 181 - JARDIM JABAQUARA             04384060                                                            000068
2SR. CAIXA, APOS O VENCIMENTO COBRAR 10% DE MULTA                                NAO RECEBER APOS 30 DIAS DO VENCIMENTO.                                                                                                                                                                                                         01101900000000000000110190000000000000       0090770900016748762079101915000069
100000000000000000000009077090001674800000000000000000000000010002100094672610191800000000002            2  01946726101909101900000002763730000000001N011019000000000000000000000000000000000000000000000000000000000000000100094672660834JOSE HENRIQUE SOARES PEREIRA INACIO     RUA MONTE CASTELO - 296 AP.34 - AVIACAO             11702720                                                            000071
2SR. CAIXA, APOS O VENCIMENTO COBRAR 10% DE MULTA                                NAO RECEBER APOS 30 DIAS DO VENCIMENTO.                                                                                                                                                                                                         01101900000000000000110190000000000000       0090770900016748946726101918000072
100000000000000000000009077090001674800000000000000000000000010002100025265210191900000000002            2  01252652101909101900000001502670000000001N011019000000000000000000000000000000000000000000000000000000000000000100025265260862SONIA MARIA CECILIO DA SILVA            RUA PRESIDENTE TANCREDO NEVES - 1093 AP.            06329350                                                            000074
2SR. CAIXA, APOS O VENCIMENTO COBRAR 10% DE MULTA                                NAO RECEBER APOS 30 DIAS DO VENCIMENTO.                                                                                                                                                                                                         01101900000000000000110190000000000000       0090770900016748252652101919000075
100000000000000000000009077090001674800000000000000000000000010002100011381910191600000000002            2  01113819101909101900000002864020000000001N011019000000000000000000000000000000000000000000000000000000000000000100011381987818MARIO DONIZETE MIGUEL DA SILVA          RUA JASPE - 215 - HIGIANOPOLIS - JANDIRA            06642270                                                            000077
2SR. CAIXA, APOS O VENCIMENTO COBRAR 10% DE MULTA                                NAO RECEBER APOS 30 DIAS DO VENCIMENTO.                                                                                                                                                                                                         01101900000000000000110190000000000000       0090770900016748113819101916000078
100000000000000000000009077090001674800000000000000000000000010002100020105510191200000000002            2  01201055101909101900000002321530000000001N011019000000000000000000000000000000000000000000000000000000000000000100020105503827VALTER DE SOUSA LIBARINO FILHO          RUA DAS PAINEIRAS - 140 - BAIRRO LARANJE            07741205                                                            000080
2SR. CAIXA, APOS O VENCIMENTO COBRAR 10% DE MULTA                                NAO RECEBER APOS 30 DIAS DO VENCIMENTO.                                                                                                                                                                                                         01101900000000000000110190000000000000       0090770900016748201055101912000081
100000000000000000000009077090001674800000000000000000000000010002100003010510191P00000000002            2  01030105101909101900000002508420000000001N011019000000000000000000000000000000000000000000000000000000000000000100003010502877GIZELA VIEIRA BARROS                    RUA GIACOMO DALCIN - 157 - NOVA GERTY -             09580350                                                            000083
2SR. CAIXA, APOS O VENCIMENTO COBRAR 10% DE MULTA                                NAO RECEBER APOS 30 DIAS DO VENCIMENTO.                                                                                                                                                                                                         01101900000000000000110190000000000000       009077090001674803010510191P000084
100000000000000000000009077090001674800000000000000000000000010002100036712510191000000000002            2  01367125101909101900000001868550000000001N011019000000000000000000000000000000000000000000000000000000000000000100036712580803WALTER BARRETO DE ALMEIDA               RUA MONTE CASTELO - 296 AP.44 - AVIACAO             11702720                                                            000086
2SR. CAIXA, APOS O VENCIMENTO COBRAR 10% DE MULTA                                NAO RECEBER APOS 30 DIAS DO VENCIMENTO.                                                                                                                                                                                                         01101900000000000000110190000000000000       0090770900016748367125101910000087
100000000000000000000009077090001674800000000000000000000000010002100004213010191400000000002            2  01042130101909101900000001825670000000001N011019000000000000000000000000000000000000000000000000000000000000000100004213020894ELIETE DRUGOVICH DE LIMA                RUA OSVALDO CRUZ - 141 AP.144-B - SANTA             09541270                                                            000089
2SR. CAIXA, APOS O VENCIMENTO COBRAR 10% DE MULTA                                NAO RECEBER APOS 30 DIAS DO VENCIMENTO.                                                                                                                                                                                                         01101900000000000000110190000000000000       0090770900016748042130101914000090
9                                                                                                                                                                                                                                                                                                                                                                                                         000091