01REMESSA01COBRANCA       00000000000004991788AIRES DESENVOLVIMENTO IMOBILIA237BRADESCO       010418        MX0000126                                                                                                                                                                                                                                                                                     000001
100000000000000000000009077090011897400000000000000000000000010002100021570804181400000000002            2  01215708041810041800000002447010000000001N010418000000000000000000000000000000000000000000000000000000000000000100021570843805RODRIGO LESSANDRO FREGATE               RUA JOSE PEDRO DORO - 451 BLOCO RIO GRAN            02880010                                                            000002
2SR. CAIXA, APOS O VENCIMENTO COBRAR 10% DE MULTA                                NAO RECEBER APOS 30 DIAS DO VENCIMENTO.                                                                                                                                                                                                         01041800000000000000104180000000000000       0090770900118974215708041814000003
100000000000000000000009077090011897400000000000000000000000010002100007456804181600000000002            2  01074568041810041800000002386520000000001N010418000000000000000000000000000000000000000000000000000000000000000100007456836817REGINA CELIA RONDELLI                   RUA CANANEIA - 168 APTO 134 BL.C2 - SANT            09060480                                                            000005
2SR. CAIXA, APOS O VENCIMENTO COBRAR 10% DE MULTA                                NAO RECEBER APOS 30 DIAS DO VENCIMENTO.                                                                                                                                                                                                         01041800000000000000104180000000000000       0090770900118974074568041816000006
100000000000000000000009077090011897400000000000000000000000010002100007508704181900000000002            2  01075087041810041800000002809650000000001N010418000000000000000000000000000000000000000000000000000000000000000100007508759842LAERCIO DA CRUZ FERREIRA                RUA JOSE BENEDITO SALINAS - 110 APTO 161            04674200                                                            000008
2SR. CAIXA, APOS O VENCIMENTO COBRAR 10% DE MULTA                                NAO RECEBER APOS 30 DIAS DO VENCIMENTO.                                                                                                                                                                                                         01041800000000000000104180000000000000       0090770900118974075087041819000009
100000000000000000000009077090011897400000000000000000000000010002100022288704181P00000000002            2  01222887041810041800000003008160000000001N010418000000000000000000000000000000000000000000000000000000000000000100022288772808FERNANDA TAVARES MASANO                 RUA JOSE CALIXTO DO CARMO - 265 AP. 124             11702690                                                            000011
2SR. CAIXA, APOS O VENCIMENTO COBRAR 10% DE MULTA                                NAO RECEBER APOS 30 DIAS DO VENCIMENTO.                                                                                                                                                                                                         01041800000000000000104180000000000000       009077090011897422288704181P000012
100000000000000000000009077090011897400000000000000000000000010002100032223804181300000000002            2  01322238041810041800000002809100000000001N010418000000000000000000000000000000000000000000000000000000000000000100032223890806ELISANGELA CAMARGO BRAGA                RUA JOSE CALIXTO DO CARMO - 265 AP.24 -             11702690                                                            000014
2SR. CAIXA, APOS O VENCIMENTO COBRAR 10% DE MULTA                                NAO RECEBER APOS 30 DIAS DO VENCIMENTO.                                                                                                                                                                                                         01041800000000000000104180000000000000       0090770900118974322238041813000015
100000000000000000000009077090011897400000000000000000000000010002100031000704181200000000002            2  01310007041810041800000002672630000000001N010418000000000000000000000000000000000000000000000000000000000000000100031000769828ANDREIA CARLA SOUSA                     RUA JOSE CALIXTO DO CARMO - 265 AP.73 -             11702690                                                            000017
2SR. CAIXA, APOS O VENCIMENTO COBRAR 10% DE MULTA                                NAO RECEBER APOS 30 DIAS DO VENCIMENTO.                                                                                                                                                                                                         01041800000000000000104180000000000000       0090770900118974310007041812000018
100000000000000000000009077090011897400000000000000000000000010002100005253104181200000000002            2  01052531041810041800000005012110000000001N010418000000000000000000000000000000000000000000000000000000000000000100005253129863ADILSON JOSE BORGES                     RUA CIRIACO JIMENEZ - 83 - PARQUE NACOES            02996070                                                            000020
2SR. CAIXA, APOS O VENCIMENTO COBRAR 10% DE MULTA                                NAO RECEBER APOS 30 DIAS DO VENCIMENTO.                                                                                                                                                                                                         01041800000000000000104180000000000000       0090770900118974052531041812000021
100000000000000000000009077090011897400000000000000000000000010002100005253104182000000000002            2  01052531041810041800000002376120000000001N010418000000000000000000000000000000000000000000000000000000000000000100005253129863ADILSON JOSE BORGES                     RUA CIRIACO JIMENEZ - 83 - PARQUE NACOES            02996070                                                            000023
2SR. CAIXA, APOS O VENCIMENTO COBRAR 10% DE MULTA                                NAO RECEBER APOS 30 DIAS DO VENCIMENTO.                                                                                                                                                                                                         01041800000000000000104180000000000000       0090770900118974052531041820000024
100000000000000000000009077090011897400000000000000000000000010002100003996804181500000000002            2  01039968041810041800000002510700000000001N010418000000000000000000000000000000000000000000000000000000000000000100003996827830RONALDO PINTO BORGES                    MAGNOLIA DELFIM DA SILVA - 44 - JARDIM O            05363040                                                            000026
2SR. CAIXA, APOS O VENCIMENTO COBRAR 10% DE MULTA                                NAO RECEBER APOS 30 DIAS DO VENCIMENTO.                                                                                                                                                                                                         01041800000000000000104180000000000000       0090770900118974039968041815000027
100000000000000000000009077090011897400000000000000000000000010002100012708304181400000000002            2  01127083041810041800000001523900000000001N010418000000000000000000000000000000000000000000000000000000000000000100012708342827ADRIANA RATIER CRUZ                     RUA JOSE CALIXTO DO CARMO - 295 APTO 31             11702690                                                            000029
2SR. CAIXA, APOS O VENCIMENTO COBRAR 10% DE MULTA                                NAO RECEBER APOS 30 DIAS DO VENCIMENTO.                                                                                                                                                                                                         01041800000000000000104180000000000000       0090770900118974127083041814000030
100000000000000000000009077090011897400000000000000000000000010002100000452404181000000000002            2  01004524041810041800000001259960000000001N010418000000000000000000000000000000000000000000000000000000000000000100000452415896MARILUCE SANTOS DE ALMEIDA              RUA JOSE CALIXTO DO CARMO - 295 AP.74 -             11702690                                                            000032
2SR. CAIXA, APOS O VENCIMENTO COBRAR 10% DE MULTA                                NAO RECEBER APOS 30 DIAS DO VENCIMENTO.                                                                                                                                                                                                         01041800000000000000104180000000000000       0090770900118974004524041810000033
100000000000000000000009077090011897400000000000000000000000010002100003406904181100000000002            2  01034069041809041800000001375030000000001N010418000000000000000000000000000000000000000000000000000000000000000100003406972888RONALDO CANDIDO PANSONATO               AV. DOM JAIME DE BARROS CAMERA - 565 AP.            09895400                                                            000035
2SR. CAIXA, APOS O VENCIMENTO COBRAR 10% DE MULTA                                NAO RECEBER APOS 30 DIAS DO VENCIMENTO.                                                                                                                                                                                                         01041800000000000000104180000000000000       0090770900118974034069041811000036
100000000000000000000009077090011897400000000000000000000000010002100028379804181300000000002            2  01283798041801041800000003428970000000001N010418000000000000000000000000000000000000000000000000000000000000000100028379879805EDMILSON DANIEL GARCIA WATANUKI         AVENIDA PRESIDENTE CASTELO BRANCO - 4718            11702700                                                            000038
2SR. CAIXA, APOS O VENCIMENTO COBRAR 10% DE MULTA                                NAO RECEBER APOS 30 DIAS DO VENCIMENTO.                                                                                                                                                                                                         01041800000000000000104180000000000000       0090770900118974283798041813000039
9                                                                                                                                                                                                                                                                                                                                                                                                         000040