01REMESSA01COBRANCA       00000000000004991454AIRES CONSTRUTORA E INCORPORAD237BRADESCO       160217        MX0000067                                                                                                                                                                                                                                                                                     000001
100000000000000000000009077090001674800000000000000000000000010002100014301168194600000000002            2  01143011681924021700000001911910000000099N160217000000000000000000000000000000000000000000000000000000000000000100014681490830HUMBERTO MOZART CALIXTO                 RUA MONTE CASTELO - 296 AP.41 - AVIACAO             11702720                                                            000002
2SR. CAIXA, APOS O VENCIMENTO COBRAR 10% DE MULTA                                NAO RECEBER APOS 30 DIAS DO VENCIMENTO.                                                                                                                                                                                                         16021700000000000001602170000000000000       0090770900016748143011681946000003
9                                                                                                                                                                                                                                                                                                                                                                                                         000004