01REMESSA01COBRANCA       00000000000004991454AIRES CONSTRUTORA E INCORPORAD237BRADESCO       130619        MX0000134                                                                                                                                                                                                                                                                                     000001
100000000000000000000009077090001674800000000000000000000000010002100026984106192800000000002            2  01269841061924061900000001486380000000001N110619000000000000000000000000000000000000000000000000000000000000000100026984181844GISELE APARECIDA MAGALHAES              RUA GRACILIANO RAMOS - 181 - BAIRRO SAO             09581410                                                            000002
2SR. CAIXA, APOS O VENCIMENTO COBRAR 10% DE MULTA                                NAO RECEBER APOS 30 DIAS DO VENCIMENTO.                                                                                                                                                                                                         13061900000000000001306190000000000000       0090770900016748269841061928000003
100000000000000000000009077090001674800000000000000000000000010002100068806206191400000000002            2  01688062061924061900000001319160000000001N110619000000000000000000000000000000000000000000000000000000000000000100068806272853FATIMA MOREIRA SALOMAO                  RUA TORQUATO DE CAMILLO - 84 - CARANDA B            79032031                                                            000005
2SR. CAIXA, APOS O VENCIMENTO COBRAR 10% DE MULTA                                NAO RECEBER APOS 30 DIAS DO VENCIMENTO.                                                                                                                                                                                                         13061900000000000001306190000000000000       0090770900016748688062061914000006
100000000000000000000009077090001674800000000000000000000000010002100004201606191000000000002            2  01042016061924061900000001915920000000001N110619000000000000000000000000000000000000000000000000000000000000000100004201640817SANDRA APARECIDA TOJAL                  AVENIDA MASCOTE - 81 AP.132 BL.A - VILA             04363000                                                            000008
2SR. CAIXA, APOS O VENCIMENTO COBRAR 10% DE MULTA                                NAO RECEBER APOS 30 DIAS DO VENCIMENTO.                                                                                                                                                                                                         13061900000000000001306190000000000000       0090770900016748042016061910000009
100000000000000000000009077090001674800000000000000000000000010002100000024606191500000000002            2  01000246061924061900000002280860000000001N110619000000000000000000000000000000000000000000000000000000000000000100000024633852JAYME MASRI                             RUA MONTE CASTELO - 296 AP.24 - BAIRRO A            11702720                                                            000011
2SR. CAIXA, APOS O VENCIMENTO COBRAR 10% DE MULTA                                NAO RECEBER APOS 30 DIAS DO VENCIMENTO.                                                                                                                                                                                                         13061900000000000001306190000000000000       0090770900016748000246061915000012
100000000000000000000009077090001674800000000000000000000000010002100013184406191900000000002            2  01131844061924061900000006721340000000001N110619000000000000000000000000000000000000000000000000000000000000000100013184404838CLAUDIO GOMES BAHIA                     RUA MARIA CONCEICAO - 89 - VILA SAO PEDR            07032070                                                            000014
2SR. CAIXA, APOS O VENCIMENTO COBRAR 10% DE MULTA                                NAO RECEBER APOS 30 DIAS DO VENCIMENTO.                                                                                                                                                                                                         13061900000000000001306190000000000000       0090770900016748131844061919000015
100000000000000000000009077090001674800000000000000000000000010002100013184406192700000000002            2  01131844061924061900000002368350000000001N110619000000000000000000000000000000000000000000000000000000000000000100013184404838CLAUDIO GOMES BAHIA                     RUA MARIA CONCEICAO - 89 - VILA SAO PEDR            07032070                                                            000017
2SR. CAIXA, APOS O VENCIMENTO COBRAR 10% DE MULTA                                NAO RECEBER APOS 30 DIAS DO VENCIMENTO.                                                                                                                                                                                                         13061900000000000001306190000000000000       0090770900016748131844061927000018
100000000000000000000009077090001674800000000000000000000000010002100006055506191400000000002            2  01060555061924061900000003586500000000001N110619000000000000000000000000000000000000000000000000000000000000000100006055565803EDSON ALVES                             RUA EDGAR CODAZZI - 49 CASA 02 - CIDADE             08225280                                                            000020
2SR. CAIXA, APOS O VENCIMENTO COBRAR 10% DE MULTA                                NAO RECEBER APOS 30 DIAS DO VENCIMENTO.                                                                                                                                                                                                         13061900000000000001306190000000000000       0090770900016748060555061914000021
100000000000000000000009077090001674800000000000000000000000010002100021899206191800000000002            2  01218992061924061900000002613120000000001N110619000000000000000000000000000000000000000000000000000000000000000100021899277811ALESSANDRE ALVES ANDRADE                RUA MONTE CASTELO - 262 AP.132 - AVIACAO            11702720                                                            000023
2SR. CAIXA, APOS O VENCIMENTO COBRAR 10% DE MULTA                                NAO RECEBER APOS 30 DIAS DO VENCIMENTO.                                                                                                                                                                                                         13061900000000000001306190000000000000       0090770900016748218992061918000024
100000000000000000000009077090001674800000000000000000000000010002100003441206191200000000002            2  01034412061924061900000002278510000000001N110619000000000000000000000000000000000000000000000000000000000000000100003441232860LUIZ CARLOS CAMARGO BIANCHI             RUA GENERAL LEITE DE CASTRO - 200 - JARD            04182020                                                            000026
2SR. CAIXA, APOS O VENCIMENTO COBRAR 10% DE MULTA                                NAO RECEBER APOS 30 DIAS DO VENCIMENTO.                                                                                                                                                                                                         13061900000000000001306190000000000000       0090770900016748034412061912000027
100000000000000000000009077090001674800000000000000000000000010002100014681406191100000000002            2  01146814061924061900000002363770000000001N110619000000000000000000000000000000000000000000000000000000000000000100014681490830HUMBERTO MOZART CALIXTO                 RUA MONTE CASTELO - 296 AP.41 - AVIACAO             11702720                                                            000029
2SR. CAIXA, APOS O VENCIMENTO COBRAR 10% DE MULTA                                NAO RECEBER APOS 30 DIAS DO VENCIMENTO.                                                                                                                                                                                                         13061900000000000001306190000000000000       0090770900016748146814061911000030
100000000000000000000009077090001674800000000000000000000000010002100023007706191400000000002            2  01230077061924061900000001932750000000001N110619000000000000000000000000000000000000000000000000000000000000000100023007705800BRUNA ANTUN AZEVEDO                     RUA MONTE CASTELO - 296 AP.62 - AVIACAO             11702720                                                            000032
2SR. CAIXA, APOS O VENCIMENTO COBRAR 10% DE MULTA                                NAO RECEBER APOS 30 DIAS DO VENCIMENTO.                                                                                                                                                                                                         13061900000000000001306190000000000000       0090770900016748230077061914000033
100000000000000000000009077090001674800000000000000000000000010002100006550706191200000000002            2  01065507061924061900000001995530000000001N110619000000000000000000000000000000000000000000000000000000000000000100006550730864IVONE APARECIDA VIEIRA GADI TEIXEIRA    RUA SAO FLORENCIO  - 1500 AP.44 BLOCO 01            03733020                                                            000035
2SR. CAIXA, APOS O VENCIMENTO COBRAR 10% DE MULTA                                NAO RECEBER APOS 30 DIAS DO VENCIMENTO.                                                                                                                                                                                                         13061900000000000001306190000000000000       0090770900016748065507061912000036
100000000000000000000009077090001674800000000000000000000000010002100000930606191700000000002            2  01009306061924061900000003575310000000001N110619000000000000000000000000000000000000000000000000000000000000000100000930668642VALERIA RODRIGUES DANTAS                RUA MONTE CASTELO - 262 AP.21 - AVIACAO             11702720                                                            000038
2SR. CAIXA, APOS O VENCIMENTO COBRAR 10% DE MULTA                                NAO RECEBER APOS 30 DIAS DO VENCIMENTO.                                                                                                                                                                                                         13061900000000000001306190000000000000       0090770900016748009306061917000039
100000000000000000000009077090001674800000000000000000000000010002100075574006191000000000002            2  01755740061924061900000003088970000000001N110619000000000000000000000000000000000000000000000000000000000000000100075574063891CASSIO TADEU DA SILVEIRA                RUA CONSELHEIRO MOREIRA DE BARROS - 1.55            02430000                                                            000041
2SR. CAIXA, APOS O VENCIMENTO COBRAR 10% DE MULTA                                NAO RECEBER APOS 30 DIAS DO VENCIMENTO.                                                                                                                                                                                                         13061900000000000001306190000000000000       0090770900016748755740061910000042
100000000000000000000009077090001674800000000000000000000000010002100000764606191900000000002            2  01007646061924061900000002284460000000001N110619000000000000000000000000000000000000000000000000000000000000000100000764632817LUIZ CARLOS ANTUNES JUNIOR              RUA MONTE CASTELO - 262 AP.35 - AVIACAO             11702720                                                            000044
2SR. CAIXA, APOS O VENCIMENTO COBRAR 10% DE MULTA                                NAO RECEBER APOS 30 DIAS DO VENCIMENTO.                                                                                                                                                                                                         13061900000000000001306190000000000000       0090770900016748007646061919000045
100000000000000000000009077090001674800000000000000000000000010002100066104106191900000000002            2  01661041061924061900000002309430000000001N110619000000000000000000000000000000000000000000000000000000000000000100066104106820ANADIR FERREIRA                         RUA MONTE CASTELO - 296 AP.61 - AVIACAO             11702720                                                            000047
2SR. CAIXA, APOS O VENCIMENTO COBRAR 10% DE MULTA                                NAO RECEBER APOS 30 DIAS DO VENCIMENTO.                                                                                                                                                                                                         13061900000000000001306190000000000000       0090770900016748661041061919000048
100000000000000000000009077090001674800000000000000000000000010002100057014506191500000000002            2  01570145061924061900000002592940000000001N110619000000000000000000000000000000000000000000000000000000000000000100057014582887SONIA MARIA DA SILVA PEGORARO           RUA FRANCO PAULISTA  - 80 - AGUA FRIA -             02332030                                                            000050
2SR. CAIXA, APOS O VENCIMENTO COBRAR 10% DE MULTA                                NAO RECEBER APOS 30 DIAS DO VENCIMENTO.                                                                                                                                                                                                         13061900000000000001306190000000000000       0090770900016748570145061915000051
100000000000000000000009077090001674800000000000000000000000010002100006505306191200000000002            2  01065053061924061900000002818260000000001N110619000000000000000000000000000000000000000000000000000000000000000100006505382852LUIS ANTONIO DINIS HENRIQUES            RUA ESTEVAO  BAIAO - 520 AP.93A - CAMPO             04624002                                                            000053
2SR. CAIXA, APOS O VENCIMENTO COBRAR 10% DE MULTA                                NAO RECEBER APOS 30 DIAS DO VENCIMENTO.                                                                                                                                                                                                         13061900000000000001306190000000000000       0090770900016748065053061912000054
100000000000000000000009077090001674800000000000000000000000010002100011544706191500000000002            2  01115447061924061900000005119760000000001N110619000000000000000000000000000000000000000000000000000000000000000100011544777620GRACIELY RODRIGUES FERNANDES            RUA MONTE CASTELO - 262 AP.111 - AVIACAO            11702720                                                            000056
2SR. CAIXA, APOS O VENCIMENTO COBRAR 10% DE MULTA                                NAO RECEBER APOS 30 DIAS DO VENCIMENTO.                                                                                                                                                                                                         13061900000000000001306190000000000000       0090770900016748115447061915000057
100000000000000000000009077090001674800000000000000000000000010002100005629006191P00000000002            2  01056290061924061900000003723580000000001N110619000000000000000000000000000000000000000000000000000000000000000100005629087819ROMILDO MARTINS PIZA                    RUA MAESTRO ARTURO DE ANGELIS - 190 AP.3            05139010                                                            000059
2SR. CAIXA, APOS O VENCIMENTO COBRAR 10% DE MULTA                                NAO RECEBER APOS 30 DIAS DO VENCIMENTO.                                                                                                                                                                                                         13061900000000000001306190000000000000       009077090001674805629006191P000060
100000000000000000000009077090001674800000000000000000000000010002100004290906191900000000002            2  01042909061924061900000001984810000000001N110619000000000000000000000000000000000000000000000000000000000000000100004290973876WLADIMIR PAIOLA BORREGO                 RUA GOMES - 429 - VILA IVONE - SAO PAULO            03275010                                                            000062
2SR. CAIXA, APOS O VENCIMENTO COBRAR 10% DE MULTA                                NAO RECEBER APOS 30 DIAS DO VENCIMENTO.                                                                                                                                                                                                         13061900000000000001306190000000000000       0090770900016748042909061919000063
100000000000000000000009077090001674800000000000000000000000010002100034325506191400000000002            2  01343255061924061900000001879070000000001N110619000000000000000000000000000000000000000000000000000000000000000100034325567801LUIZ FERNANDO ALAMINO                   RUA FELICIO PEREIRA - 320 AP.25 - JD.PIQ            03463050                                                            000065
2SR. CAIXA, APOS O VENCIMENTO COBRAR 10% DE MULTA                                NAO RECEBER APOS 30 DIAS DO VENCIMENTO.                                                                                                                                                                                                         13061900000000000001306190000000000000       0090770900016748343255061914000066
100000000000000000000009077090001674800000000000000000000000010002100021335406191700000000002            2  01213354061924061900000001421960000000001N110619000000000000000000000000000000000000000000000000000000000000000100021335464808RAQUEL FERREIRA RAMOS                   RUA ANTONIO SEVERIANO DE ANDRADE E SILVA            11702400                                                            000068
2SR. CAIXA, APOS O VENCIMENTO COBRAR 10% DE MULTA                                NAO RECEBER APOS 30 DIAS DO VENCIMENTO.                                                                                                                                                                                                         13061900000000000001306190000000000000       0090770900016748213354061917000069
100000000000000000000009077090001674800000000000000000000000010002100005627906191600000000002            2  01056279061924061900000001667380000000001N110619000000000000000000000000000000000000000000000000000000000000000100005627947861FERNANDO CESAR MARCELINO                TRAVESSA CHARLES LEBRUN - 83 - VILA NOVA            02312060                                                            000071
2SR. CAIXA, APOS O VENCIMENTO COBRAR 10% DE MULTA                                NAO RECEBER APOS 30 DIAS DO VENCIMENTO.                                                                                                                                                                                                         13061900000000000001306190000000000000       0090770900016748056279061916000072
100000000000000000000009077090001674800000000000000000000000010002100026187906191200000000002            2  01261879061924061900000001739950000000001N110619000000000000000000000000000000000000000000000000000000000000000100026187960807CARINA CANTACESSO DE SOUZA              RUA MONTE CASTELO - 296 AP.91 - AVIACAO             11702720                                                            000074
2SR. CAIXA, APOS O VENCIMENTO COBRAR 10% DE MULTA                                NAO RECEBER APOS 30 DIAS DO VENCIMENTO.                                                                                                                                                                                                         13061900000000000001306190000000000000       0090770900016748261879061912000075
100000000000000000000009077090001674800000000000000000000000010002100004864906191800000000002            2  01048649061924061900000002325530000000001N110619000000000000000000000000000000000000000000000000000000000000000100004864924600RENATO SANTACHIARA SALVADORI            RUA PENSYLVANIA - 116 - PAYSAGE BRISE -             06730000                                                            000077
2SR. CAIXA, APOS O VENCIMENTO COBRAR 10% DE MULTA                                NAO RECEBER APOS 30 DIAS DO VENCIMENTO.                                                                                                                                                                                                         13061900000000000001306190000000000000       0090770900016748048649061918000078
100000000000000000000009077090001674800000000000000000000000010002100026647606191400000000002            2  01266476061924061900000002575850000000001N110619000000000000000000000000000000000000000000000000000000000000000100026647690816CLAUDIA FUKUDA OGATA BURATTO            RUA DINAMARCA - 449 - BAIRRO TABOAO - SA            09668080                                                            000080
2SR. CAIXA, APOS O VENCIMENTO COBRAR 10% DE MULTA                                NAO RECEBER APOS 30 DIAS DO VENCIMENTO.                                                                                                                                                                                                         13061900000000000001306190000000000000       0090770900016748266476061914000081
9                                                                                                                                                                                                                                                                                                                                                                                                         000082