01REMESSA01COBRANCA       00000000000004991788AIRES DESENVOLVIMENTO IMOBILIA237BRADESCO       101219        MX0000167                                                                                                                                                                                                                                                                                     000001
100000000000000000000009077090011897400000000000000000000000010002100027324012191200000000002            2  01273240121924121900000001680180000000001N091219000000000000000000000000000000000000000000000000000000000000000100027324099874LEONARDO BORGES DUARTE SILVA            RUA JOSE CALIXTO DO CARMO - 265 AP.94 -             11702690                                                            000002
2SR. CAIXA, APOS O VENCIMENTO COBRAR 10% DE MULTA                                NAO RECEBER APOS 30 DIAS DO VENCIMENTO.                                                                                                                                                                                                         10121900000000000001012190000000000000       0090770900118974273240121912000003
100000000000000000000009077090011897400000000000000000000000010002100084057912191300000000002            2  01840579121927121900000002000000000000001N091219000000000000000000000000000000000000000000000000000000000000000100084057904891ANTONIO GONZAGA DOS SANTOS              RUA BRIGADEIRO JOSE FERREIRA - 319 - CAN            11700470                                                            000005
2SR. CAIXA, APOS O VENCIMENTO COBRAR 10% DE MULTA                                NAO RECEBER APOS 30 DIAS DO VENCIMENTO.                                                                                                                                                                                                         10121900000000000001012190000000000000       0090770900118974840579121913000006
100000000000000000000009077090011897400000000000000000000000010002100036782012191400000000002            2  01367820121924121900000001617440000000001N091219000000000000000000000000000000000000000000000000000000000000000100036782058871ANA PAULA BUENO DA COSTA                RUA MARIQUITA ARTACHO - 218 CASA 3 - JAR            03716000                                                            000008
2SR. CAIXA, APOS O VENCIMENTO COBRAR 10% DE MULTA                                NAO RECEBER APOS 30 DIAS DO VENCIMENTO.                                                                                                                                                                                                         10121900000000000001012190000000000000       0090770900118974367820121914000009
100000000000000000000009077090011897400000000000000000000000010002100018272712191200000000002            2  01182727121927121900000001800000000000001N091219000000000000000000000000000000000000000000000000000000000000000100018272729881HENRY CESAR UEDA                        RUA MONTE CASTELO - 295 AP.94 - AVIACAO             11702720                                                            000011
2SR. CAIXA, APOS O VENCIMENTO COBRAR 10% DE MULTA                                NAO RECEBER APOS 30 DIAS DO VENCIMENTO.                                                                                                                                                                                                         10121900000000000001012190000000000000       0090770900118974182727121912000012
100000000000000000000009077090011897400000000000000000000000010002100027300912191800000000002            2  01273009121924121900000001882530000000001N091219000000000000000000000000000000000000000000000000000000000000000100027300953816HOSANA DOS SANTOS MOLEIRO               RUA JOSE CALIXTO DO CARMO - 295 AP.61 -             11702690                                                            000014
2SR. CAIXA, APOS O VENCIMENTO COBRAR 10% DE MULTA                                NAO RECEBER APOS 30 DIAS DO VENCIMENTO.                                                                                                                                                                                                         10121900000000000001012190000000000000       0090770900118974273009121918000015
9                                                                                                                                                                                                                                                                                                                                                                                                         000016