01REMESSA01COBRANCA       00000000000004991788AIRES DESENVOLVIMENTO IMOBILIA237BRADESCO       130618        MX0000131                                                                                                                                                                                                                                                                                     000001
100000000000000000000009077090011897400000000000000000000000010002100011088006181200000000002            2  01110880061825061800000001896150000000001N120618000000000000000000000000000000000000000000000000000000000000000100011088018890LUIZ CARLOS VITORINO MADEIRA            RUA JOSE CALIXTO DO CARMO - 265 AP. 32 -            11702690                                                            000002
2SR. CAIXA, APOS O VENCIMENTO COBRAR 10% DE MULTA                                NAO RECEBER APOS 30 DIAS DO VENCIMENTO.                                                                                                                                                                                                         13061800000000000001306180000000000000       0090770900118974110880061812000003
100000000000000000000009077090011897400000000000000000000000010002100015110706181P00000000002            2  01151107061825061800000002993740000000001N120618000000000000000000000000000000000000000000000000000000000000000100015110751803LILIAN CARRARA DA SILVA CANDIDO         ALAMEDA VICENTE DE CARVALHO - 65 - JARDI            07600000                                                            000005
2SR. CAIXA, APOS O VENCIMENTO COBRAR 10% DE MULTA                                NAO RECEBER APOS 30 DIAS DO VENCIMENTO.                                                                                                                                                                                                         13061800000000000001306180000000000000       009077090011897415110706181P000006
100000000000000000000009077090011897400000000000000000000000010002100014497906181600000000002            2  01144979061824061800000001947480000000001N120618000000000000000000000000000000000000000000000000000000000000000100014497915816FERNANDO JOSE ARRUDA                    RUA JOSE CALIXTO DO CARMO - 265 AP.113 -            11702690                                                            000008
2SR. CAIXA, APOS O VENCIMENTO COBRAR 10% DE MULTA                                NAO RECEBER APOS 30 DIAS DO VENCIMENTO.                                                                                                                                                                                                         13061800000000000001306180000000000000       0090770900118974144979061816000009
100000000000000000000009077090011897400000000000000000000000010002100027324006181200000000002            2  01273240061824061800000001468740000000001N120618000000000000000000000000000000000000000000000000000000000000000100027324099874LEONARDO BORGES DUARTE SILVA            RUA JOSE CALIXTO DO CARMO - 265 AP.94 -             11702690                                                            000011
2SR. CAIXA, APOS O VENCIMENTO COBRAR 10% DE MULTA                                NAO RECEBER APOS 30 DIAS DO VENCIMENTO.                                                                                                                                                                                                         13061800000000000001306180000000000000       0090770900118974273240061812000012
100000000000000000000009077090011897400000000000000000000000010002100036782006181400000000002            2  01367820061824061800000001413910000000001N120618000000000000000000000000000000000000000000000000000000000000000100036782058871ANA PAULA BUENO DA COSTA                RUA MARIQUITA ARTACHO - 218 CASA 3 - JAR            03716000                                                            000014
2SR. CAIXA, APOS O VENCIMENTO COBRAR 10% DE MULTA                                NAO RECEBER APOS 30 DIAS DO VENCIMENTO.                                                                                                                                                                                                         13061800000000000001306180000000000000       0090770900118974367820061814000015
9                                                                                                                                                                                                                                                                                                                                                                                                         000016