01REMESSA01COBRANCA       00000000000004991788AIRES DESENVOLVIMENTO IMOBILIA237BRADESCO       150119        MX0000145                                                                                                                                                                                                                                                                                     000001
100000000000000000000009077090011897400000000000000000000000010002100014497901191600000000002            2  01144979011924011900000002052070000000001N100119000000000000000000000000000000000000000000000000000000000000000100014497915816FERNANDO JOSE ARRUDA                    RUA JOSE CALIXTO DO CARMO - 265 AP.113 -            11702690                                                            000002
2SR. CAIXA, APOS O VENCIMENTO COBRAR 10% DE MULTA                                NAO RECEBER APOS 30 DIAS DO VENCIMENTO.                                                                                                                                                                                                         15011900000000000001501190000000000000       0090770900118974144979011916000003
100000000000000000000009077090011897400000000000000000000000010002100027324001191200000000002            2  01273240011924011900000001547610000000001N100119000000000000000000000000000000000000000000000000000000000000000100027324099874LEONARDO BORGES DUARTE SILVA            RUA JOSE CALIXTO DO CARMO - 265 AP.94 -             11702690                                                            000005
2SR. CAIXA, APOS O VENCIMENTO COBRAR 10% DE MULTA                                NAO RECEBER APOS 30 DIAS DO VENCIMENTO.                                                                                                                                                                                                         15011900000000000001501190000000000000       0090770900118974273240011912000006
100000000000000000000009077090011897400000000000000000000000010002100084057901191300000000002            2  01840579011927011900000002000000000000001N100119000000000000000000000000000000000000000000000000000000000000000100084057904891ANTONIO GONZAGA DOS SANTOS              RUA BRIGADEIRO JOSE FERREIRA - 319 - CAN            11700470                                                            000008
2SR. CAIXA, APOS O VENCIMENTO COBRAR 10% DE MULTA                                NAO RECEBER APOS 30 DIAS DO VENCIMENTO.                                                                                                                                                                                                         15011900000000000001501190000000000000       0090770900118974840579011913000009
100000000000000000000009077090011897400000000000000000000000010002100036782001191400000000002            2  01367820011924011900000001489820000000001N100119000000000000000000000000000000000000000000000000000000000000000100036782058871ANA PAULA BUENO DA COSTA                RUA MARIQUITA ARTACHO - 218 CASA 3 - JAR            03716000                                                            000011
2SR. CAIXA, APOS O VENCIMENTO COBRAR 10% DE MULTA                                NAO RECEBER APOS 30 DIAS DO VENCIMENTO.                                                                                                                                                                                                         15011900000000000001501190000000000000       0090770900118974367820011914000012
100000000000000000000009077090011897400000000000000000000000010002100018272701191200000000002            2  01182727011927011900000001800000000000001N100119000000000000000000000000000000000000000000000000000000000000000100018272729881HENRY CESAR UEDA                        RUA MONTE CASTELO - 295 AP.94 - AVIACAO             11702720                                                            000014
2SR. CAIXA, APOS O VENCIMENTO COBRAR 10% DE MULTA                                NAO RECEBER APOS 30 DIAS DO VENCIMENTO.                                                                                                                                                                                                         15011900000000000001501190000000000000       0090770900118974182727011912000015
9                                                                                                                                                                                                                                                                                                                                                                                                         000016