01REMESSA01COBRANCA       00000000000004991788AIRES DESENVOLVIMENTO IMOBILIA237BRADESCO       011017        MX0000113                                                                                                                                                                                                                                                                                     000001
100000000000000000000009077090011897400000000000000000000000010002100001070222141000000000002            2  01107022214110101700000001428230000000001N011017000000000000000000000000000000000000000000000000000000000000000100012708342827ADRIANA RATIER CRUZ                     RUA JOSE CALIXTO DO CARMO - 295 APTO 31             11702690                                                            000002
2SR. CAIXA, APOS O VENCIMENTO COBRAR 10% DE MULTA                                NAO RECEBER APOS 30 DIAS DO VENCIMENTO.                                                                                                                                                                                                         01101700000000000000110170000000000000       0090770900118974010702221410000003
9                                                                                                                                                                                                                                                                                                                                                                                                         000004