01REMESSA01COBRANCA       00000000000004991454AIRES CONSTRUTORA E INCORPORAD237BRADESCO       110418        MX0000104                                                                                                                                                                                                                                                                                     000001
100000000000000000000009077090001674800000000000000000000000010002100049736704182400000000002            2  01497367041824041800000001338750000000001N110418000000000000000000000000000000000000000000000000000000000000000100049736787320RAIMUNDO VIEIRA DA SILVA                RUA BOLIVIA - 81 AP.ZELADORIA - JARDIM G            11701850                                                            000002
2SR. CAIXA, APOS O VENCIMENTO COBRAR 10% DE MULTA                                NAO RECEBER APOS 30 DIAS DO VENCIMENTO.                                                                                                                                                                                                         11041800000000000001104180000000000000       0090770900016748497367041824000003
100000000000000000000009077090001674800000000000000000000000010002100068806204181600000000002            2  01688062041824041800000001188140000000001N110418000000000000000000000000000000000000000000000000000000000000000100068806272853FATIMA MOREIRA SALOMAO                  RUA TORQUATO DE CAMILLO - 84 - CARANDA B            79032031                                                            000005
2SR. CAIXA, APOS O VENCIMENTO COBRAR 10% DE MULTA                                NAO RECEBER APOS 30 DIAS DO VENCIMENTO.                                                                                                                                                                                                         11041800000000000001104180000000000000       0090770900016748688062041816000006
100000000000000000000009077090001674800000000000000000000000010002100004201604181200000000002            2  01042016041824041800000001725620000000001N110418000000000000000000000000000000000000000000000000000000000000000100004201640817SANDRA APARECIDA TOJAL                  AVENIDA MASCOTE - 81 AP.132 BL.A - VILA             04363000                                                            000008
2SR. CAIXA, APOS O VENCIMENTO COBRAR 10% DE MULTA                                NAO RECEBER APOS 30 DIAS DO VENCIMENTO.                                                                                                                                                                                                         11041800000000000001104180000000000000       0090770900016748042016041812000009
100000000000000000000009077090001674800000000000000000000000010002100025278904181600000000002            2  01252789041824041800000001847930000000001N110418000000000000000000000000000000000000000000000000000000000000000100025278913819FERNANDO LOPES DA SILVA                 RUA RUBEN DE SOUZA - 387 AP.24A - VILA I            04653170                                                            000011
2SR. CAIXA, APOS O VENCIMENTO COBRAR 10% DE MULTA                                NAO RECEBER APOS 30 DIAS DO VENCIMENTO.                                                                                                                                                                                                         11041800000000000001104180000000000000       0090770900016748252789041816000012
100000000000000000000009077090001674800000000000000000000000010002100000024604181700000000002            2  01000246041824041800000002054330000000001N110418000000000000000000000000000000000000000000000000000000000000000100000024633852JAYME MASRI                             RUA MONTE CASTELO - 296 AP.24 - BAIRRO A            11702720                                                            000014
2SR. CAIXA, APOS O VENCIMENTO COBRAR 10% DE MULTA                                NAO RECEBER APOS 30 DIAS DO VENCIMENTO.                                                                                                                                                                                                         11041800000000000001104180000000000000       0090770900016748000246041817000015
100000000000000000000009077090001674800000000000000000000000010002100013184404181000000000002            2  01131844041824041800000002133120000000001N110418000000000000000000000000000000000000000000000000000000000000000100013184404838CLAUDIO GOMES BAHIA                     RUA MARIA CONCEICAO - 89 - VILA SAO PEDR            07032070                                                            000017
2SR. CAIXA, APOS O VENCIMENTO COBRAR 10% DE MULTA                                NAO RECEBER APOS 30 DIAS DO VENCIMENTO.                                                                                                                                                                                                         11041800000000000001104180000000000000       0090770900016748131844041810000018
100000000000000000000009077090001674800000000000000000000000010002100006055504181600000000002            2  01060555041824041800000003230270000000001N110418000000000000000000000000000000000000000000000000000000000000000100006055565803EDSON ALVES                             RUA EDGAR CODAZZI - 49 CASA 02 - CIDADE             08225280                                                            000020
2SR. CAIXA, APOS O VENCIMENTO COBRAR 10% DE MULTA                                NAO RECEBER APOS 30 DIAS DO VENCIMENTO.                                                                                                                                                                                                         11041800000000000001104180000000000000       0090770900016748060555041816000021
100000000000000000000009077090001674800000000000000000000000010002100021899204181P00000000002            2  01218992041824041800000002353590000000001N110418000000000000000000000000000000000000000000000000000000000000000100021899277811ALESSANDRE ALVES ANDRADE                RUA MONTE CASTELO - 262 AP.132 - AVIACAO            11702720                                                            000023
2SR. CAIXA, APOS O VENCIMENTO COBRAR 10% DE MULTA                                NAO RECEBER APOS 30 DIAS DO VENCIMENTO.                                                                                                                                                                                                         11041800000000000001104180000000000000       009077090001674821899204181P000024
100000000000000000000009077090001674800000000000000000000000010002100003441204181400000000002            2  01034412041824041800000002052190000000001N110418000000000000000000000000000000000000000000000000000000000000000100003441232860LUIZ CARLOS CAMARGO BIANCHI             RUA GENERAL LEITE DE CASTRO - 200 - JARD            04182020                                                            000026
2SR. CAIXA, APOS O VENCIMENTO COBRAR 10% DE MULTA                                NAO RECEBER APOS 30 DIAS DO VENCIMENTO.                                                                                                                                                                                                         11041800000000000001104180000000000000       0090770900016748034412041814000027
100000000000000000000009077090001674800000000000000000000000010002100014681404181300000000002            2  01146814041824041800000002128970000000001N110418000000000000000000000000000000000000000000000000000000000000000100014681490830HUMBERTO MOZART CALIXTO                 RUA MONTE CASTELO - 296 AP.41 - AVIACAO             11702720                                                            000029
2SR. CAIXA, APOS O VENCIMENTO COBRAR 10% DE MULTA                                NAO RECEBER APOS 30 DIAS DO VENCIMENTO.                                                                                                                                                                                                         11041800000000000001104180000000000000       0090770900016748146814041813000030
100000000000000000000009077090001674800000000000000000000000010002100023007704181600000000002            2  01230077041824041800000001740800000000001N110418000000000000000000000000000000000000000000000000000000000000000100023007705800BRUNA ANTUN AZEVEDO                     RUA MONTE CASTELO - 296 AP.62 - AVIACAO             11702720                                                            000032
2SR. CAIXA, APOS O VENCIMENTO COBRAR 10% DE MULTA                                NAO RECEBER APOS 30 DIAS DO VENCIMENTO.                                                                                                                                                                                                         11041800000000000001104180000000000000       0090770900016748230077041816000033
100000000000000000000009077090001674800000000000000000000000010002100006550704181400000000002            2  01065507041824041800000001797330000000001N110418000000000000000000000000000000000000000000000000000000000000000100006550730864IVONE APARECIDA VIEIRA GADI TEIXEIRA    RUA SAO FLORENCIO  - 1500 AP.44 BLOCO 01            03733020                                                            000035
2SR. CAIXA, APOS O VENCIMENTO COBRAR 10% DE MULTA                                NAO RECEBER APOS 30 DIAS DO VENCIMENTO.                                                                                                                                                                                                         11041800000000000001104180000000000000       0090770900016748065507041814000036
100000000000000000000009077090001674800000000000000000000000010002100000930604181900000000002            2  01009306041824041800000003244340000000001N110418000000000000000000000000000000000000000000000000000000000000000100000930668642VALERIA RODRIGUES DANTAS                RUA MONTE CASTELO - 262 AP.21 - AVIACAO             11702720                                                            000038
2SR. CAIXA, APOS O VENCIMENTO COBRAR 10% DE MULTA                                NAO RECEBER APOS 30 DIAS DO VENCIMENTO.                                                                                                                                                                                                         11041800000000000001104180000000000000       0090770900016748009306041819000039
100000000000000000000009077090001674800000000000000000000000010002100084057904181200000000002            2  01840579041827041800000002000000000000001N110418000000000000000000000000000000000000000000000000000000000000000100084057904891ANTONIO GONZAGA DOS SANTOS              RUA BRIGADEIRO JOSE FERREIRA - 319 - CAN            11700470                                                            000041
2SR. CAIXA, APOS O VENCIMENTO COBRAR 10% DE MULTA                                NAO RECEBER APOS 30 DIAS DO VENCIMENTO.                                                                                                                                                                                                         11041800000000000001104180000000000000       0090770900016748840579041812000042
100000000000000000000009077090001674800000000000000000000000010002100075574004181200000000002            2  01755740041824041800000002782170000000001N110418000000000000000000000000000000000000000000000000000000000000000100075574063891CASSIO TADEU DA SILVEIRA                RUA CONSELHEIRO MOREIRA DE BARROS - 1.55            02430000                                                            000044
2SR. CAIXA, APOS O VENCIMENTO COBRAR 10% DE MULTA                                NAO RECEBER APOS 30 DIAS DO VENCIMENTO.                                                                                                                                                                                                         11041800000000000001104180000000000000       0090770900016748755740041812000045
100000000000000000000009077090001674800000000000000000000000010002100000764604181000000000002            2  01007646041824041800000002057560000000001N110418000000000000000000000000000000000000000000000000000000000000000100000764632817LUIZ CARLOS ANTUNES JUNIOR              RUA MONTE CASTELO - 262 AP.35 - AVIACAO             11702720                                                            000047
2SR. CAIXA, APOS O VENCIMENTO COBRAR 10% DE MULTA                                NAO RECEBER APOS 30 DIAS DO VENCIMENTO.                                                                                                                                                                                                         11041800000000000001104180000000000000       0090770900016748007646041810000048
100000000000000000000009077090001674800000000000000000000000010002100027317604181000000000002            2  01273176041824041800000002016790000000001N110418000000000000000000000000000000000000000000000000000000000000000100027317668591ERONILTON SOUSA MOTA                    AVENIDA PRESIDENTE KENNEDY - 3203 - AVIA            11701330                                                            000050
2SR. CAIXA, APOS O VENCIMENTO COBRAR 10% DE MULTA                                NAO RECEBER APOS 30 DIAS DO VENCIMENTO.                                                                                                                                                                                                         11041800000000000001104180000000000000       0090770900016748273176041810000051
100000000000000000000009077090001674800000000000000000000000010002100066104104181000000000002            2  01661041041824041800000002080050000000001N110418000000000000000000000000000000000000000000000000000000000000000100066104106820ANADIR FERREIRA                         RUA MONTE CASTELO - 296 AP.61 - AVIACAO             11702720                                                            000053
2SR. CAIXA, APOS O VENCIMENTO COBRAR 10% DE MULTA                                NAO RECEBER APOS 30 DIAS DO VENCIMENTO.                                                                                                                                                                                                         11041800000000000001104180000000000000       0090770900016748661041041810000054
100000000000000000000009077090001674800000000000000000000000010002100000741204181700000000002            2  01007412041824041800000001045860000000001N110418000000000000000000000000000000000000000000000000000000000000000100000741264820JOSE JORGE SILVEIRA                     RUA JOSE CALIXTO DO CARMO - 174 AP.82 -             11702690                                                            000056
2SR. CAIXA, APOS O VENCIMENTO COBRAR 10% DE MULTA                                NAO RECEBER APOS 30 DIAS DO VENCIMENTO.                                                                                                                                                                                                         11041800000000000001104180000000000000       0090770900016748007412041817000057
100000000000000000000009077090001674800000000000000000000000010002100057014504181700000000002            2  01570145041824041800000002335400000000001N110418000000000000000000000000000000000000000000000000000000000000000100057014582887SONIA MARIA DA SILVA PEGORARO           RUA FRANCO PAULISTA  - 80 - AGUA FRIA -             02332030                                                            000059
2SR. CAIXA, APOS O VENCIMENTO COBRAR 10% DE MULTA                                NAO RECEBER APOS 30 DIAS DO VENCIMENTO.                                                                                                                                                                                                         11041800000000000001104180000000000000       0090770900016748570145041817000060
100000000000000000000009077090001674800000000000000000000000010002100006505304181400000000002            2  01065053041824041800000002538350000000001N110418000000000000000000000000000000000000000000000000000000000000000100006505382852LUIS ANTONIO DINIS HENRIQUES            RUA ESTEVAO  BAIAO - 520 AP.93A - CAMPO             04624002                                                            000062
2SR. CAIXA, APOS O VENCIMENTO COBRAR 10% DE MULTA                                NAO RECEBER APOS 30 DIAS DO VENCIMENTO.                                                                                                                                                                                                         11041800000000000001104180000000000000       0090770900016748065053041814000063
100000000000000000000009077090001674800000000000000000000000010002100011544704181700000000002            2  01115447041824041800000004611260000000001N110418000000000000000000000000000000000000000000000000000000000000000100011544777620GRACIELY RODRIGUES FERNANDES            RUA MONTE CASTELO - 262 AP.111 - AVIACAO            11702720                                                            000065
2SR. CAIXA, APOS O VENCIMENTO COBRAR 10% DE MULTA                                NAO RECEBER APOS 30 DIAS DO VENCIMENTO.                                                                                                                                                                                                         11041800000000000001104180000000000000       0090770900016748115447041817000066
100000000000000000000009077090001674800000000000000000000000010002100005629004181100000000002            2  01056290041824041800000003353760000000001N110418000000000000000000000000000000000000000000000000000000000000000100005629087819ROMILDO MARTINS PIZA                    RUA MAESTRO ARTURO DE ANGELIS - 190 AP.3            05139010                                                            000068
2SR. CAIXA, APOS O VENCIMENTO COBRAR 10% DE MULTA                                NAO RECEBER APOS 30 DIAS DO VENCIMENTO.                                                                                                                                                                                                         11041800000000000001104180000000000000       0090770900016748056290041811000069
9                                                                                                                                                                                                                                                                                                                                                                                                         000070