01REMESSA01COBRANCA       00000000000004991788AIRES DESENVOLVIMENTO IMOBILIA237BRADESCO       130120        MX0000169                                                                                                                                                                                                                                                                                     000001
100000000000000000000009077090011897400000000000000000000000010002100027324001201300000000002            2  01273240012024012000000001692780000000001N130120000000000000000000000000000000000000000000000000000000000000000100027324099874LEONARDO BORGES DUARTE SILVA            RUA JOSE CALIXTO DO CARMO - 265 AP.94 -             11702690                                                            000002
2SR. CAIXA, APOS O VENCIMENTO COBRAR 10% DE MULTA                                NAO RECEBER APOS 30 DIAS DO VENCIMENTO.                                                                                                                                                                                                         13012000000000000001301200000000000000       0090770900118974273240012013000003
100000000000000000000009077090011897400000000000000000000000010002100084057901201400000000002            2  01840579012027012000000002000000000000001N130120000000000000000000000000000000000000000000000000000000000000000100084057904891ANTONIO GONZAGA DOS SANTOS              RUA BRIGADEIRO JOSE FERREIRA - 319 - CAN            11700470                                                            000005
2SR. CAIXA, APOS O VENCIMENTO COBRAR 10% DE MULTA                                NAO RECEBER APOS 30 DIAS DO VENCIMENTO.                                                                                                                                                                                                         13012000000000000001301200000000000000       0090770900118974840579012014000006
100000000000000000000009077090011897400000000000000000000000010002100036782001201500000000002            2  01367820012024012000000001629570000000001N130120000000000000000000000000000000000000000000000000000000000000000100036782058871ANA PAULA BUENO DA COSTA                RUA MARIQUITA ARTACHO - 218 CASA 3 - JAR            03716000                                                            000008
2SR. CAIXA, APOS O VENCIMENTO COBRAR 10% DE MULTA                                NAO RECEBER APOS 30 DIAS DO VENCIMENTO.                                                                                                                                                                                                         13012000000000000001301200000000000000       0090770900118974367820012015000009
100000000000000000000009077090011897400000000000000000000000010002100018272701201300000000002            2  01182727012027012000000001800000000000001N130120000000000000000000000000000000000000000000000000000000000000000100018272729881HENRY CESAR UEDA                        RUA MONTE CASTELO - 295 AP.94 - AVIACAO             11702720                                                            000011
2SR. CAIXA, APOS O VENCIMENTO COBRAR 10% DE MULTA                                NAO RECEBER APOS 30 DIAS DO VENCIMENTO.                                                                                                                                                                                                         13012000000000000001301200000000000000       0090770900118974182727012013000012
100000000000000000000009077090011897400000000000000000000000010002100027300901201900000000002            2  01273009012024012000000001896650000000001N130120000000000000000000000000000000000000000000000000000000000000000100027300953816HOSANA DOS SANTOS MOLEIRO               RUA JOSE CALIXTO DO CARMO - 295 AP.61 -             11702690                                                            000014
2SR. CAIXA, APOS O VENCIMENTO COBRAR 10% DE MULTA                                NAO RECEBER APOS 30 DIAS DO VENCIMENTO.                                                                                                                                                                                                         13012000000000000001301200000000000000       0090770900118974273009012019000015
100000000000000000000009077090011897400000000000000000000000010002100027300901202700000000002            2  01273009012024012000000001896630000000001N130120000000000000000000000000000000000000000000000000000000000000000100027300953816HOSANA DOS SANTOS MOLEIRO               RUA JOSE CALIXTO DO CARMO - 295 AP.61 -             11702690                                                            000017
2SR. CAIXA, APOS O VENCIMENTO COBRAR 10% DE MULTA                                NAO RECEBER APOS 30 DIAS DO VENCIMENTO.                                                                                                                                                                                                         13012000000000000001301200000000000000       0090770900118974273009012027000018
100000000000000000000009077090011897400000000000000000000000010002100027300901203500000000002            2  01273009012024012000000001896640000000001N130120000000000000000000000000000000000000000000000000000000000000000100027300953816HOSANA DOS SANTOS MOLEIRO               RUA JOSE CALIXTO DO CARMO - 295 AP.61 -             11702690                                                            000020
2SR. CAIXA, APOS O VENCIMENTO COBRAR 10% DE MULTA                                NAO RECEBER APOS 30 DIAS DO VENCIMENTO.                                                                                                                                                                                                         13012000000000000001301200000000000000       0090770900118974273009012035000021
9                                                                                                                                                                                                                                                                                                                                                                                                         000022