01REMESSA01COBRANCA       00000000000004991454AIRES CONSTRUTORA E INCORPORAD237BRADESCO       050320        MX0000152                                                                                                                                                                                                                                                                                     000001
100000000000000000000009077090001674800000000000000000000000010002100026984103201400000000002            2  01269841032024032000000001589780000000001N040320000000000000000000000000000000000000000000000000000000000000000100026984181844GISELE APARECIDA MAGALHAES              RUA GRACILIANO RAMOS - 181 - BAIRRO SAO             09581410                                                            000002
2SR. CAIXA, APOS O VENCIMENTO COBRAR 10% DE MULTA                                NAO RECEBER APOS 30 DIAS DO VENCIMENTO.                                                                                                                                                                                                         05032000000000000000503200000000000000       0090770900016748269841032014000003
100000000000000000000009077090001674800000000000000000000000010002100068806203201900000000002            2  01688062032024032000000001410910000000001N040320000000000000000000000000000000000000000000000000000000000000000100068806272853FATIMA MOREIRA SALOMAO                  RUA TORQUATO DE CAMILLO - 84 - CARANDA B            79032031                                                            000005
2SR. CAIXA, APOS O VENCIMENTO COBRAR 10% DE MULTA                                NAO RECEBER APOS 30 DIAS DO VENCIMENTO.                                                                                                                                                                                                         05032000000000000000503200000000000000       0090770900016748688062032019000006
100000000000000000000009077090001674800000000000000000000000010002100004201603201500000000002            2  01042016032024032000000002049210000000001N040320000000000000000000000000000000000000000000000000000000000000000100004201640817SANDRA APARECIDA TOJAL                  AVENIDA MASCOTE - 81 AP.132 BL.A - VILA             04363000                                                            000008
2SR. CAIXA, APOS O VENCIMENTO COBRAR 10% DE MULTA                                NAO RECEBER APOS 30 DIAS DO VENCIMENTO.                                                                                                                                                                                                         05032000000000000000503200000000000000       0090770900016748042016032015000009
100000000000000000000009077090001674800000000000000000000000010002100000024603201P00000000002            2  01000246032024032000000002439510000000001N040320000000000000000000000000000000000000000000000000000000000000000100000024633852JAYME MASRI                             RUA MONTE CASTELO - 296 AP.24 - BAIRRO A            11702720                                                            000011
2SR. CAIXA, APOS O VENCIMENTO COBRAR 10% DE MULTA                                NAO RECEBER APOS 30 DIAS DO VENCIMENTO.                                                                                                                                                                                                         05032000000000000000503200000000000000       009077090001674800024603201P000012
100000000000000000000009077090001674800000000000000000000000010002100013184403201300000000002            2  01131844032024032000000002533110000000001N040320000000000000000000000000000000000000000000000000000000000000000100013184404838CLAUDIO GOMES BAHIA                     RUA MARIA CONCEICAO - 89 - VILA SAO PEDR            07032070                                                            000014
2SR. CAIXA, APOS O VENCIMENTO COBRAR 10% DE MULTA                                NAO RECEBER APOS 30 DIAS DO VENCIMENTO.                                                                                                                                                                                                         05032000000000000000503200000000000000       0090770900016748131844032013000015
100000000000000000000009077090001674800000000000000000000000010002100006055503201900000000002            2  01060555032024032000000003835970000000001N040320000000000000000000000000000000000000000000000000000000000000000100006055565803EDSON ALVES                             RUA EDGAR CODAZZI - 49 CASA 02 - CIDADE             08225280                                                            000017
2SR. CAIXA, APOS O VENCIMENTO COBRAR 10% DE MULTA                                NAO RECEBER APOS 30 DIAS DO VENCIMENTO.                                                                                                                                                                                                         05032000000000000000503200000000000000       0090770900016748060555032019000018
100000000000000000000009077090001674800000000000000000000000010002100021899203201200000000002            2  01218992032024032000000002794890000000001N040320000000000000000000000000000000000000000000000000000000000000000100021899277811ALESSANDRE ALVES ANDRADE                RUA MONTE CASTELO - 262 AP.132 - AVIACAO            11702720                                                            000020
2SR. CAIXA, APOS O VENCIMENTO COBRAR 10% DE MULTA                                NAO RECEBER APOS 30 DIAS DO VENCIMENTO.                                                                                                                                                                                                         05032000000000000000503200000000000000       0090770900016748218992032012000021
100000000000000000000009077090001674800000000000000000000000010002100003441203201700000000002            2  01034412032024032000000002437020000000001N040320000000000000000000000000000000000000000000000000000000000000000100003441232860LUIZ CARLOS CAMARGO BIANCHI             RUA GENERAL LEITE DE CASTRO - 200 - JARD            04182020                                                            000023
2SR. CAIXA, APOS O VENCIMENTO COBRAR 10% DE MULTA                                NAO RECEBER APOS 30 DIAS DO VENCIMENTO.                                                                                                                                                                                                         05032000000000000000503200000000000000       0090770900016748034412032017000024
100000000000000000000009077090001674800000000000000000000000010002100014681403201600000000002            2  01146814032024032000000002528200000000001N040320000000000000000000000000000000000000000000000000000000000000000100014681490830HUMBERTO MOZART CALIXTO                 RUA MONTE CASTELO - 296 AP.41 - AVIACAO             11702720                                                            000026
2SR. CAIXA, APOS O VENCIMENTO COBRAR 10% DE MULTA                                NAO RECEBER APOS 30 DIAS DO VENCIMENTO.                                                                                                                                                                                                         05032000000000000000503200000000000000       0090770900016748146814032016000027
100000000000000000000009077090001674800000000000000000000000010002100023007703201900000000002            2  01230077032024032000000002067190000000001N040320000000000000000000000000000000000000000000000000000000000000000100023007705800BRUNA ANTUN AZEVEDO                     RUA MONTE CASTELO - 296 AP.62 - AVIACAO             11702720                                                            000029
2SR. CAIXA, APOS O VENCIMENTO COBRAR 10% DE MULTA                                NAO RECEBER APOS 30 DIAS DO VENCIMENTO.                                                                                                                                                                                                         05032000000000000000503200000000000000       0090770900016748230077032019000030
100000000000000000000009077090001674800000000000000000000000010002100006550703201700000000002            2  01065507032024032000000002134350000000001N040320000000000000000000000000000000000000000000000000000000000000000100006550730864IVONE APARECIDA VIEIRA GADI TEIXEIRA    RUA SAO FLORENCIO  - 1500 AP.44 BLOCO 01            03733020                                                            000032
2SR. CAIXA, APOS O VENCIMENTO COBRAR 10% DE MULTA                                NAO RECEBER APOS 30 DIAS DO VENCIMENTO.                                                                                                                                                                                                         05032000000000000000503200000000000000       0090770900016748065507032017000033
100000000000000000000009077090001674800000000000000000000000010002100006550703202500000000002            2  01065507032024032000000002134340000000001N040320000000000000000000000000000000000000000000000000000000000000000100006550730864IVONE APARECIDA VIEIRA GADI TEIXEIRA    RUA SAO FLORENCIO  - 1500 AP.44 BLOCO 01            03733020                                                            000035
2SR. CAIXA, APOS O VENCIMENTO COBRAR 10% DE MULTA                                NAO RECEBER APOS 30 DIAS DO VENCIMENTO.                                                                                                                                                                                                         05032000000000000000503200000000000000       0090770900016748065507032025000036
100000000000000000000009077090001674800000000000000000000000010002100075574003201500000000002            2  01755740032024032000000003303840000000001N040320000000000000000000000000000000000000000000000000000000000000000100075574063891CASSIO TADEU DA SILVEIRA                RUA CONSELHEIRO MOREIRA DE BARROS - 1.55            02430000                                                            000038
2SR. CAIXA, APOS O VENCIMENTO COBRAR 10% DE MULTA                                NAO RECEBER APOS 30 DIAS DO VENCIMENTO.                                                                                                                                                                                                         05032000000000000000503200000000000000       0090770900016748755740032015000039
100000000000000000000009077090001674800000000000000000000000010002100000764603201300000000002            2  01007646032024032000000002443360000000001N040320000000000000000000000000000000000000000000000000000000000000000100000764632817LUIZ CARLOS ANTUNES JUNIOR              RUA MONTE CASTELO - 262 AP.35 - AVIACAO             11702720                                                            000041
2SR. CAIXA, APOS O VENCIMENTO COBRAR 10% DE MULTA                                NAO RECEBER APOS 30 DIAS DO VENCIMENTO.                                                                                                                                                                                                         05032000000000000000503200000000000000       0090770900016748007646032013000042
100000000000000000000009077090001674800000000000000000000000010002100057014503201P00000000002            2  01570145032024032000000002773320000000001N040320000000000000000000000000000000000000000000000000000000000000000100057014582887SONIA MARIA DA SILVA PEGORARO           RUA FRANCO PAULISTA  - 80 - AGUA FRIA -             02332030                                                            000044
2SR. CAIXA, APOS O VENCIMENTO COBRAR 10% DE MULTA                                NAO RECEBER APOS 30 DIAS DO VENCIMENTO.                                                                                                                                                                                                         05032000000000000000503200000000000000       009077090001674857014503201P000045
100000000000000000000009077090001674800000000000000000000000010002100057014503202800000000002            2  01570145032024032000000002773280000000001N040320000000000000000000000000000000000000000000000000000000000000000100057014582887SONIA MARIA DA SILVA PEGORARO           RUA FRANCO PAULISTA  - 80 - AGUA FRIA -             02332030                                                            000047
2SR. CAIXA, APOS O VENCIMENTO COBRAR 10% DE MULTA                                NAO RECEBER APOS 30 DIAS DO VENCIMENTO.                                                                                                                                                                                                         05032000000000000000503200000000000000       0090770900016748570145032028000048
100000000000000000000009077090001674800000000000000000000000010002100057014503203600000000002            2  01570145032024032000000002773290000000001N040320000000000000000000000000000000000000000000000000000000000000000100057014582887SONIA MARIA DA SILVA PEGORARO           RUA FRANCO PAULISTA  - 80 - AGUA FRIA -             02332030                                                            000050
2SR. CAIXA, APOS O VENCIMENTO COBRAR 10% DE MULTA                                NAO RECEBER APOS 30 DIAS DO VENCIMENTO.                                                                                                                                                                                                         05032000000000000000503200000000000000       0090770900016748570145032036000051
100000000000000000000009077090001674800000000000000000000000010002100057014503204400000000002            2  01570145032024032000000002773300000000001N040320000000000000000000000000000000000000000000000000000000000000000100057014582887SONIA MARIA DA SILVA PEGORARO           RUA FRANCO PAULISTA  - 80 - AGUA FRIA -             02332030                                                            000053
2SR. CAIXA, APOS O VENCIMENTO COBRAR 10% DE MULTA                                NAO RECEBER APOS 30 DIAS DO VENCIMENTO.                                                                                                                                                                                                         05032000000000000000503200000000000000       0090770900016748570145032044000054
100000000000000000000009077090001674800000000000000000000000010002100006505303201700000000002            2  01065053032024032000000003014320000000001N040320000000000000000000000000000000000000000000000000000000000000000100006505382852LUIS ANTONIO DINIS HENRIQUES            RUA ESTEVAO  BAIAO - 520 AP.93A - CAMPO             04624002                                                            000056
2SR. CAIXA, APOS O VENCIMENTO COBRAR 10% DE MULTA                                NAO RECEBER APOS 30 DIAS DO VENCIMENTO.                                                                                                                                                                                                         05032000000000000000503200000000000000       0090770900016748065053032017000057
100000000000000000000009077090001674800000000000000000000000010002100011544703201P00000000002            2  01115447032024032000000005475900000000001N040320000000000000000000000000000000000000000000000000000000000000000100011544777620GRACIELY RODRIGUES FERNANDES            RUA MONTE CASTELO - 262 AP.111 - AVIACAO            11702720                                                            000059
2SR. CAIXA, APOS O VENCIMENTO COBRAR 10% DE MULTA                                NAO RECEBER APOS 30 DIAS DO VENCIMENTO.                                                                                                                                                                                                         05032000000000000000503200000000000000       009077090001674811544703201P000060
100000000000000000000009077090001674800000000000000000000000010002100005629003201400000000002            2  01056290032024032000000003982610000000001N040320000000000000000000000000000000000000000000000000000000000000000100005629087819ROMILDO MARTINS PIZA                    RUA MAESTRO ARTURO DE ANGELIS - 190 AP.3            05139010                                                            000062
2SR. CAIXA, APOS O VENCIMENTO COBRAR 10% DE MULTA                                NAO RECEBER APOS 30 DIAS DO VENCIMENTO.                                                                                                                                                                                                         05032000000000000000503200000000000000       0090770900016748056290032014000063
100000000000000000000009077090001674800000000000000000000000010002100034325503201900000000002            2  01343255032024032000000002009780000000001N040320000000000000000000000000000000000000000000000000000000000000000100034325567801LUIZ FERNANDO ALAMINO                   RUA GALDINO NASCIMENTO - 45 - PARQUE GUA            08431650                                                            000065
2SR. CAIXA, APOS O VENCIMENTO COBRAR 10% DE MULTA                                NAO RECEBER APOS 30 DIAS DO VENCIMENTO.                                                                                                                                                                                                         05032000000000000000503200000000000000       0090770900016748343255032019000066
100000000000000000000009077090001674800000000000000000000000010002100021335403201100000000002            2  01213354032024032000000001520870000000001N040320000000000000000000000000000000000000000000000000000000000000000100021335464808RAQUEL FERREIRA RAMOS                   RUA ANTONIO SEVERIANO DE ANDRADE E SILVA            11702400                                                            000068
2SR. CAIXA, APOS O VENCIMENTO COBRAR 10% DE MULTA                                NAO RECEBER APOS 30 DIAS DO VENCIMENTO.                                                                                                                                                                                                         05032000000000000000503200000000000000       0090770900016748213354032011000069
100000000000000000000009077090001674800000000000000000000000010002100005627903201000000000002            2  01056279032024032000000001783370000000001N040320000000000000000000000000000000000000000000000000000000000000000100005627947861FERNANDO CESAR MARCELINO                TRAVESSA CHARLES LEBRUN - 83 - VILA NOVA            02312060                                                            000071
2SR. CAIXA, APOS O VENCIMENTO COBRAR 10% DE MULTA                                NAO RECEBER APOS 30 DIAS DO VENCIMENTO.                                                                                                                                                                                                         05032000000000000000503200000000000000       0090770900016748056279032010000072
100000000000000000000009077090001674800000000000000000000000010002100026187903201700000000002            2  01261879032024032000000001861000000000001N040320000000000000000000000000000000000000000000000000000000000000000100026187960807CARINA CANTACESSO DE SOUZA              RUA MONTE CASTELO - 296 AP.91 - AVIACAO             11702720                                                            000074
2SR. CAIXA, APOS O VENCIMENTO COBRAR 10% DE MULTA                                NAO RECEBER APOS 30 DIAS DO VENCIMENTO.                                                                                                                                                                                                         05032000000000000000503200000000000000       0090770900016748261879032017000075
100000000000000000000009077090001674800000000000000000000000010002100004864903201200000000002            2  01048649032024032000000002487300000000001N040320000000000000000000000000000000000000000000000000000000000000000100004864924600RENATO SANTACHIARA SALVADORI            RUA PENSYLVANIA - 116 - PAYSAGE BRISE -             06730000                                                            000077
2SR. CAIXA, APOS O VENCIMENTO COBRAR 10% DE MULTA                                NAO RECEBER APOS 30 DIAS DO VENCIMENTO.                                                                                                                                                                                                         05032000000000000000503200000000000000       0090770900016748048649032012000078
100000000000000000000009077090001674800000000000000000000000010002100026647603201900000000002            2  01266476032024032000000002755030000000001N040320000000000000000000000000000000000000000000000000000000000000000100026647690816CLAUDIA FUKUDA OGATA BURATTO            RUA MONTE CASTELO - 262 AP.32 - AVIACAO             11702720                                                            000080
2SR. CAIXA, APOS O VENCIMENTO COBRAR 10% DE MULTA                                NAO RECEBER APOS 30 DIAS DO VENCIMENTO.                                                                                                                                                                                                         05032000000000000000503200000000000000       0090770900016748266476032019000081
9                                                                                                                                                                                                                                                                                                                                                                                                         000082