01REMESSA01COBRANCA       00000000000004991788AIRES DESENVOLVIMENTO IMOBILIA237BRADESCO       110817        MX0000100                                                                                                                                                                                                                                                                                     000001
100000000000000000000009077090011897400000000000000000000000010002100015988125122300000000002            2  01159881251214081700000000088880000000001N110817000000000000000000000000000000000000000000000000000000000000000100002252149892AIRES MOTA DOS SANTOS                   AV. BRASIL - 600 SALA 1009 - BOQUEIRAO -            11701090                                                            000002
2SR. CAIXA, APOS O VENCIMENTO COBRAR 10% DE MULTA                                NAO RECEBER APOS 30 DIAS DO VENCIMENTO.                                                                                                                                                                                                         11081700000000000001108170000000000000       0090770900118974159881251223000003
9                                                                                                                                                                                                                                                                                                                                                                                                         000004