01REMESSA01COBRANCA       00000000000004991786AIRES DESENVOLVIMENTO IMOBILIA237BRADESCO       010317        MX0000071                                                                                                                                                                                                                                                                                     000001
100000000000000000000009077090011102300000000000000000000000010002100012991142175000000000002            2  01129911421701031700000003425810000000099N010317000000000000000000000000000000000000000000000000000000000000000100028379879805EDMILSON DANIEL GARCIA WATANUKI         AV.PRESIDENTE CASTELO BRANCO - 4718 LOJA            11702700                                                            000002
2SR. CAIXA, APOS O VENCIMENTO COBRAR 10% DE MULTA                                NAO RECEBER APOS 30 DIAS DO VENCIMENTO.                                                                                                                                                                                                         01031700000000000000103170000000000000       0090770900111023129911421750000003
100000000000000000000009077090011102300000000000000000000000010002100013409140181800000000002            2  01134091401805031700000001526270000000099N010317000000000000000000000000000000000000000000000000000000000000000100019851254800DOUGLAS TADEU DE ALMEIDA JECKS          RUA CONSELHEIRO ELIAS DE CARVALHO - 50 A            04373000                                                            000005
2SR. CAIXA, APOS O VENCIMENTO COBRAR 10% DE MULTA                                NAO RECEBER APOS 30 DIAS DO VENCIMENTO.                                                                                                                                                                                                         01031700000000000000103170000000000000       0090770900111023134091401818000006
100000000000000000000009077090011102300000000000000000000000010002100013421146182800000000002            2  01134211461811031700000001563110000000099N010317000000000000000000000000000000000000000000000000000000000000000100037491305822NATASHA SILVEIRA DA SILVA               RUA CONSELHEIRO ELIAS DE CARVALHO - 50 A            04373000                                                            000008
2SR. CAIXA, APOS O VENCIMENTO COBRAR 10% DE MULTA                                NAO RECEBER APOS 30 DIAS DO VENCIMENTO.                                                                                                                                                                                                         01031700000000000000103170000000000000       0090770900111023134211461828000009
9                                                                                                                                                                                                                                                                                                                                                                                                         000010