01REMESSA01COBRANCA       00000000000004991788AIRES DESENVOLVIMENTO IMOBILIA237BRADESCO       130519        MX0000153                                                                                                                                                                                                                                                                                     000001
100000000000000000000009077090011897400000000000000000000000010002100014497905191800000000002            2  01144979051924051900000002114330000000001N100519000000000000000000000000000000000000000000000000000000000000000100014497915816FERNANDO JOSE ARRUDA                    RUA JOSE CALIXTO DO CARMO - 265 AP.113 -            11702690                                                            000002
2SR. CAIXA, APOS O VENCIMENTO COBRAR 10% DE MULTA                                NAO RECEBER APOS 30 DIAS DO VENCIMENTO.                                                                                                                                                                                                         13051900000000000001305190000000000000       0090770900118974144979051918000003
100000000000000000000009077090011897400000000000000000000000010002100027324005191400000000002            2  01273240051924051900000001594560000000001N100519000000000000000000000000000000000000000000000000000000000000000100027324099874LEONARDO BORGES DUARTE SILVA            RUA JOSE CALIXTO DO CARMO - 265 AP.94 -             11702690                                                            000005
2SR. CAIXA, APOS O VENCIMENTO COBRAR 10% DE MULTA                                NAO RECEBER APOS 30 DIAS DO VENCIMENTO.                                                                                                                                                                                                         13051900000000000001305190000000000000       0090770900118974273240051914000006
100000000000000000000009077090011897400000000000000000000000010002100084057905191500000000002            2  01840579051927051900000002000000000000001N100519000000000000000000000000000000000000000000000000000000000000000100084057904891ANTONIO GONZAGA DOS SANTOS              RUA BRIGADEIRO JOSE FERREIRA - 319 - CAN            11700470                                                            000008
2SR. CAIXA, APOS O VENCIMENTO COBRAR 10% DE MULTA                                NAO RECEBER APOS 30 DIAS DO VENCIMENTO.                                                                                                                                                                                                         13051900000000000001305190000000000000       0090770900118974840579051915000009
100000000000000000000009077090011897400000000000000000000000010002100036782005191600000000002            2  01367820051924051900000001535020000000001N100519000000000000000000000000000000000000000000000000000000000000000100036782058871ANA PAULA BUENO DA COSTA                RUA MARIQUITA ARTACHO - 218 CASA 3 - JAR            03716000                                                            000011
2SR. CAIXA, APOS O VENCIMENTO COBRAR 10% DE MULTA                                NAO RECEBER APOS 30 DIAS DO VENCIMENTO.                                                                                                                                                                                                         13051900000000000001305190000000000000       0090770900118974367820051916000012
100000000000000000000009077090011897400000000000000000000000010002100018272705191400000000002            2  01182727051927051900000001800000000000001N100519000000000000000000000000000000000000000000000000000000000000000100018272729881HENRY CESAR UEDA                        RUA MONTE CASTELO - 295 AP.94 - AVIACAO             11702720                                                            000014
2SR. CAIXA, APOS O VENCIMENTO COBRAR 10% DE MULTA                                NAO RECEBER APOS 30 DIAS DO VENCIMENTO.                                                                                                                                                                                                         13051900000000000001305190000000000000       0090770900118974182727051914000015
9                                                                                                                                                                                                                                                                                                                                                                                                         000016