01REMESSA01COBRANCA       00000000000004991454AIRES CONSTRUTORA E INCORPORAD237BRADESCO       010617        MX0000081                                                                                                                                                                                                                                                                                     000001
100000000000000000000009077090001674800000000000000000000000010002100011261147157800000000002            2  01112611471509061700000002492320000000001N010617000000000000000000000000000000000000000000000000000000000000000100099740451853ARNALDO DA SILVA SALES                  RUA ALEGRE - 210 - VILA SAO RAFAEL - GUA            07053100                                                            000002
2SR. CAIXA, APOS O VENCIMENTO COBRAR 10% DE MULTA                                NAO RECEBER APOS 30 DIAS DO VENCIMENTO.                                                                                                                                                                                                         01061700000000000000106170000000000000       0090770900016748112611471578000003
100000000000000000000009077090001674800000000000000000000000010002100011490148160P00000000002            2  01114901481609061700000004020340000000001N010617000000000000000000000000000000000000000000000000000000000000000100044380725812FERNANDO FIRMINO DOS SANTOS             RUA BARAO GERALDO DE RESENDE - 401 - BAI            05205220                                                            000005
2SR. CAIXA, APOS O VENCIMENTO COBRAR 10% DE MULTA                                NAO RECEBER APOS 30 DIAS DO VENCIMENTO.                                                                                                                                                                                                         01061700000000000000106170000000000000       009077090001674811490148160P000006
100000000000000000000009077090001674800000000000000000000000010002100012610155171300000000002            2  01126101551709061700000001251460000000001N010617000000000000000000000000000000000000000000000000000000000000000100025469470873JULIA MARIA RODRIGUES MARTINS           AVENIDA JOAO FIRMINO - 1229 AP.21 - BAIR            09810260                                                            000008
2SR. CAIXA, APOS O VENCIMENTO COBRAR 10% DE MULTA                                NAO RECEBER APOS 30 DIAS DO VENCIMENTO.                                                                                                                                                                                                         01061700000000000000106170000000000000       0090770900016748126101551713000009
100000000000000000000009077090001674800000000000000000000000010002100012792156173600000000002            2  01127921561709061700000001902310000000001N010617000000000000000000000000000000000000000000000000000000000000000100027396176824WALDINEA BORGES DIAS                    RUA CAP. JOAQUIM F.PEREIRA - 95 - JARDIM            13710000                                                            000011
2SR. CAIXA, APOS O VENCIMENTO COBRAR 10% DE MULTA                                NAO RECEBER APOS 30 DIAS DO VENCIMENTO.                                                                                                                                                                                                         01061700000000000000106170000000000000       0090770900016748127921561736000012
100000000000000000000009077090001674800000000000000000000000010002100012894157174200000000002            2  01128941571709061700000003029900000000001N010617000000000000000000000000000000000000000000000000000000000000000100004759534873AGNALDO PORFIRIO DOS SANTOS             RUA JUVENCIO GASPAR DA SILVA - 35 - SAO             04303060                                                            000014
2SR. CAIXA, APOS O VENCIMENTO COBRAR 10% DE MULTA                                NAO RECEBER APOS 30 DIAS DO VENCIMENTO.                                                                                                                                                                                                         01061700000000000000106170000000000000       0090770900016748128941571742000015
100000000000000000000009077090001674800000000000000000000000010002100013115159177900000000002            2  01131151591709061700000001632840000000001N010617000000000000000000000000000000000000000000000000000000000000000100014924049859KATIA REGINA DE OLIVEIRA SILVA          RUA ANTONIO SIMIONATO - 73 AP.14 - SANTA            09780180                                                            000017
2SR. CAIXA, APOS O VENCIMENTO COBRAR 10% DE MULTA                                NAO RECEBER APOS 30 DIAS DO VENCIMENTO.                                                                                                                                                                                                         01061700000000000000106170000000000000       0090770900016748131151591779000018
100000000000000000000009077090001674800000000000000000000000010002100013215160178900000000002            2  01132151601709061700000000955220000000001N010617000000000000000000000000000000000000000000000000000000000000000100090830490868IVONETE FERNANDES                       AVENIDA FREDERICO OZANAN - 5504 - VILA R            13215276                                                            000020
2SR. CAIXA, APOS O VENCIMENTO COBRAR 10% DE MULTA                                NAO RECEBER APOS 30 DIAS DO VENCIMENTO.                                                                                                                                                                                                         01061700000000000000106170000000000000       0090770900016748132151601789000021
100000000000000000000009077090001674800000000000000000000000010002100013536163184100000000002            2  01135361631809061700000002367970000000001N010617000000000000000000000000000000000000000000000000000000000000000100027093944809DAVID ALEXANDRE XAVIER ROCHA            RUA MONTE CASTELO - 296 AP.54 - AVIACAO             11702720                                                            000023
2SR. CAIXA, APOS O VENCIMENTO COBRAR 10% DE MULTA                                NAO RECEBER APOS 30 DIAS DO VENCIMENTO.                                                                                                                                                                                                         01061700000000000000106170000000000000       0090770900016748135361631841000024
100000000000000000000009077090001674800000000000000000000000010002100013704164186800000000002            2  01137041641809061700000001723730000000001N010617000000000000000000000000000000000000000000000000000000000000000100068273290891DERNEVAL JOSE MUNIZ                     RUA MARTINOPOLIS - 98 - JARDIM OTAWA - G            07230230                                                            000026
2SR. CAIXA, APOS O VENCIMENTO COBRAR 10% DE MULTA                                NAO RECEBER APOS 30 DIAS DO VENCIMENTO.                                                                                                                                                                                                         01061700000000000000106170000000000000       0090770900016748137041641868000027
100000000000000000000009077090001674800000000000000000000000010002100013979166189800000000002            2  01139791661809061700000001473120000000001N010617000000000000000000000000000000000000000000000000000000000000000100001817534807SANTINA SALVINA SOARES                  RUA CAIAPOS - 1066 AP.43 - VILA TUPI - P            11703320                                                            000029
2SR. CAIXA, APOS O VENCIMENTO COBRAR 10% DE MULTA                                NAO RECEBER APOS 30 DIAS DO VENCIMENTO.                                                                                                                                                                                                         01061700000000000000106170000000000000       0090770900016748139791661898000030
100000000000000000000009077090001674800000000000000000000000010002100014080167190900000000002            2  01140801671909061700000001591470000000001N010617000000000000000000000000000000000000000000000000000000000000000100086755790800GERALDO JAIR BROGLIATTO                 DR.ARMANDO COSTA MAGALHAES - 176 - VILA             13270490                                                            000032
2SR. CAIXA, APOS O VENCIMENTO COBRAR 10% DE MULTA                                NAO RECEBER APOS 30 DIAS DO VENCIMENTO.                                                                                                                                                                                                         01061700000000000000106170000000000000       0090770900016748140801671909000033
100000000000000000000009077090001674800000000000000000000000010002100014450170197600000000002            2  01144501701909061700000001580930000000001N010617000000000000000000000000000000000000000000000000000000000000000100007996062862HENRIQUE SALVADOR                       RUA DARDANELOS - 689 - PARQUE NOVO ORATO            09260060                                                            000035
2SR. CAIXA, APOS O VENCIMENTO COBRAR 10% DE MULTA                                NAO RECEBER APOS 30 DIAS DO VENCIMENTO.                                                                                                                                                                                                         01061700000000000000106170000000000000       0090770900016748144501701976000036
100000000000000000000009077090001674800000000000000000000000010002100014535171198200000000002            2  01145351711909061700000001210250000000001N010617000000000000000000000000000000000000000000000000000000000000000100004899735820INES CONCEICAO VIEIRA GADI ERMIDA       AVENIDA ANTONIO RICARDO DA SILVA - 77 -             08270560                                                            000038
2SR. CAIXA, APOS O VENCIMENTO COBRAR 10% DE MULTA                                NAO RECEBER APOS 30 DIAS DO VENCIMENTO.                                                                                                                                                                                                         01061700000000000000106170000000000000       0090770900016748145351711982000039
100000000000000000000009077090001674800000000000000000000000010002100014656172199500000000002            2  01146561721909061700000002117940000000001N010617000000000000000000000000000000000000000000000000000000000000000100010066071534MOISES ROQUE DO ROSARIO                 RUA DAS PAPOULAS - 53 - VILA BELA - SAO             03202010                                                            000041
2SR. CAIXA, APOS O VENCIMENTO COBRAR 10% DE MULTA                                NAO RECEBER APOS 30 DIAS DO VENCIMENTO.                                                                                                                                                                                                         01061700000000000000106170000000000000       0090770900016748146561721995000042
9                                                                                                                                                                                                                                                                                                                                                                                                         000043