01REMESSA01COBRANCA       00000000000004991788AIRES DESENVOLVIMENTO IMOBILIA237BRADESCO       010619        MX0000154                                                                                                                                                                                                                                                                                     000001
100000000000000000000009077090011897400000000000000000000000010002100012708306191200000000002            2  01127083061910061900000001743570000000001N010619000000000000000000000000000000000000000000000000000000000000000100012708342827ADRIANA RATIER CRUZ                     RUA JOSE CALIXTO DO CARMO - 295 APTO 31             11702690                                                            000002
2SR. CAIXA, APOS O VENCIMENTO COBRAR 10% DE MULTA                                NAO RECEBER APOS 30 DIAS DO VENCIMENTO.                                                                                                                                                                                                         01061900000000000000106190000000000000       0090770900118974127083061912000003
100000000000000000000009077090011897400000000000000000000000010002100000452406191900000000002            2  01004524061910061900000001351080000000001N010619000000000000000000000000000000000000000000000000000000000000000100000452415896MARILUCE SANTOS DE ALMEIDA              RUA JOSE CALIXTO DO CARMO - 295 AP.74 -             11702690                                                            000005
2SR. CAIXA, APOS O VENCIMENTO COBRAR 10% DE MULTA                                NAO RECEBER APOS 30 DIAS DO VENCIMENTO.                                                                                                                                                                                                         01061900000000000000106190000000000000       0090770900118974004524061919000006
100000000000000000000009077090011897400000000000000000000000010002100003406906191P00000000002            2  01034069061909061900000001526680000000001N010619000000000000000000000000000000000000000000000000000000000000000100003406972888RONALDO CANDIDO PANSONATO               AV. DOM JAIME DE BARROS CAMERA - 565 AP.            09895400                                                            000008
2SR. CAIXA, APOS O VENCIMENTO COBRAR 10% DE MULTA                                NAO RECEBER APOS 30 DIAS DO VENCIMENTO.                                                                                                                                                                                                         01061900000000000000106190000000000000       009077090011897403406906191P000009
100000000000000000000009077090011897400000000000000000000000010002100013191206191400000000002            2  01131912061911061900000001800000000000001N010619000000000000000000000000000000000000000000000000000000000000000100013191291881MARCELO RICARDO MASCAROS SOUTO          RUA MONTE CASTELO - 295 AP.102 - AVIACAO            11702720                                                            000011
2SR. CAIXA, APOS O VENCIMENTO COBRAR 10% DE MULTA                                NAO RECEBER APOS 30 DIAS DO VENCIMENTO.                                                                                                                                                                                                         01061900000000000000106190000000000000       0090770900118974131912061914000012
100000000000000000000009077090011897400000000000000000000000010002100037288706191P00000000002            2  01372887061911061900000001550000000000001N010619000000000000000000000000000000000000000000000000000000000000000100037288754812EVERTON CARDOSO DOS SANTOS              RUA CONSELHEIRO ELIAS DE CARVALHO - 50 A            04373000                                                            000014
2SR. CAIXA, APOS O VENCIMENTO COBRAR 10% DE MULTA                                NAO RECEBER APOS 30 DIAS DO VENCIMENTO.                                                                                                                                                                                                         01061900000000000000106190000000000000       009077090011897437288706191P000015
9                                                                                                                                                                                                                                                                                                                                                                                                         000016