01REMESSA01COBRANCA       00000000000004991454AIRES CONSTRUTORA E INCORPORAD237BRADESCO       080520        MX0000156                                                                                                                                                                                                                                                                                     000001
100000000000000000000009077090001674800000000000000000000000010002100026984105201500000000002            2  01269841052024052000000001613710000000001N050520000000000000000000000000000000000000000000000000000000000000000100026984181844GISELE APARECIDA MAGALHAES              RUA GRACILIANO RAMOS - 181 - BAIRRO SAO             09581410                                                            000002
2SR. CAIXA, APOS O VENCIMENTO COBRAR 10% DE MULTA                                NAO RECEBER APOS 30 DIAS DO VENCIMENTO.                                                                                                                                                                                                         08052000000000000000805200000000000000       0090770900016748269841052015000003
100000000000000000000009077090001674800000000000000000000000010002100068806205201P00000000002            2  01688062052024052000000001432150000000001N050520000000000000000000000000000000000000000000000000000000000000000100068806272853FATIMA MOREIRA SALOMAO                  RUA TORQUATO DE CAMILLO - 84 - CARANDA B            79032031                                                            000005
2SR. CAIXA, APOS O VENCIMENTO COBRAR 10% DE MULTA                                NAO RECEBER APOS 30 DIAS DO VENCIMENTO.                                                                                                                                                                                                         08052000000000000000805200000000000000       009077090001674868806205201P000006
100000000000000000000009077090001674800000000000000000000000010002100004201605201600000000002            2  01042016052024052000000002080060000000001N050520000000000000000000000000000000000000000000000000000000000000000100004201640817SANDRA APARECIDA TOJAL                  AVENIDA MASCOTE - 81 AP.132 BL.A - VILA             04363000                                                            000008
2SR. CAIXA, APOS O VENCIMENTO COBRAR 10% DE MULTA                                NAO RECEBER APOS 30 DIAS DO VENCIMENTO.                                                                                                                                                                                                         08052000000000000000805200000000000000       0090770900016748042016052016000009
100000000000000000000009077090001674800000000000000000000000010002100000024605201000000000002            2  01000246052024052000000002476240000000001N050520000000000000000000000000000000000000000000000000000000000000000100000024633852JAYME MASRI                             RUA MONTE CASTELO - 296 AP.24 - BAIRRO A            11702720                                                            000011
2SR. CAIXA, APOS O VENCIMENTO COBRAR 10% DE MULTA                                NAO RECEBER APOS 30 DIAS DO VENCIMENTO.                                                                                                                                                                                                         08052000000000000000805200000000000000       0090770900016748000246052010000012
100000000000000000000009077090001674800000000000000000000000010002100013184405201400000000002            2  01131844052024052000000002571250000000001N050520000000000000000000000000000000000000000000000000000000000000000100013184404838CLAUDIO GOMES BAHIA                     RUA MARIA CONCEICAO - 89 - VILA SAO PEDR            07032070                                                            000014
2SR. CAIXA, APOS O VENCIMENTO COBRAR 10% DE MULTA                                NAO RECEBER APOS 30 DIAS DO VENCIMENTO.                                                                                                                                                                                                         08052000000000000000805200000000000000       0090770900016748131844052014000015
100000000000000000000009077090001674800000000000000000000000010002100006055505201P00000000002            2  01060555052024052000000003893730000000001N050520000000000000000000000000000000000000000000000000000000000000000100006055565803EDSON ALVES                             RUA EDGAR CODAZZI - 49 CASA 02 - CIDADE             08225280                                                            000017
2SR. CAIXA, APOS O VENCIMENTO COBRAR 10% DE MULTA                                NAO RECEBER APOS 30 DIAS DO VENCIMENTO.                                                                                                                                                                                                         08052000000000000000805200000000000000       009077090001674806055505201P000018
100000000000000000000009077090001674800000000000000000000000010002100021899205201300000000002            2  01218992052024052000000002836970000000001N050520000000000000000000000000000000000000000000000000000000000000000100021899277811ALESSANDRE ALVES ANDRADE                RUA MONTE CASTELO - 262 AP.132 - AVIACAO            11702720                                                            000020
2SR. CAIXA, APOS O VENCIMENTO COBRAR 10% DE MULTA                                NAO RECEBER APOS 30 DIAS DO VENCIMENTO.                                                                                                                                                                                                         08052000000000000000805200000000000000       0090770900016748218992052013000021
100000000000000000000009077090001674800000000000000000000000010002100003441205201800000000002            2  01034412052024052000000002473710000000001N050520000000000000000000000000000000000000000000000000000000000000000100003441232860LUIZ CARLOS CAMARGO BIANCHI             RUA GENERAL LEITE DE CASTRO - 200 - JARD            04182020                                                            000023
2SR. CAIXA, APOS O VENCIMENTO COBRAR 10% DE MULTA                                NAO RECEBER APOS 30 DIAS DO VENCIMENTO.                                                                                                                                                                                                         08052000000000000000805200000000000000       0090770900016748034412052018000024
100000000000000000000009077090001674800000000000000000000000010002100014681405201700000000002            2  01146814052024052000000002566260000000001N050520000000000000000000000000000000000000000000000000000000000000000100014681490830HUMBERTO MOZART CALIXTO                 RUA MONTE CASTELO - 296 AP.41 - AVIACAO             11702720                                                            000026
2SR. CAIXA, APOS O VENCIMENTO COBRAR 10% DE MULTA                                NAO RECEBER APOS 30 DIAS DO VENCIMENTO.                                                                                                                                                                                                         08052000000000000000805200000000000000       0090770900016748146814052017000027
100000000000000000000009077090001674800000000000000000000000010002100023007705201P00000000002            2  01230077052024052000000002098310000000001N050520000000000000000000000000000000000000000000000000000000000000000100023007705800BRUNA ANTUN AZEVEDO                     RUA MONTE CASTELO - 296 AP.62 - AVIACAO             11702720                                                            000029
2SR. CAIXA, APOS O VENCIMENTO COBRAR 10% DE MULTA                                NAO RECEBER APOS 30 DIAS DO VENCIMENTO.                                                                                                                                                                                                         08052000000000000000805200000000000000       009077090001674823007705201P000030
100000000000000000000009077090001674800000000000000000000000010002100006550705201800000000002            2  01065507052024052000000002166490000000001N050520000000000000000000000000000000000000000000000000000000000000000100006550730864IVONE APARECIDA VIEIRA GADI TEIXEIRA    RUA SAO FLORENCIO  - 1500 AP.44 BLOCO 01            03733020                                                            000032
2SR. CAIXA, APOS O VENCIMENTO COBRAR 10% DE MULTA                                NAO RECEBER APOS 30 DIAS DO VENCIMENTO.                                                                                                                                                                                                         08052000000000000000805200000000000000       0090770900016748065507052018000033
100000000000000000000009077090001674800000000000000000000000010002100006550705202600000000002            2  01065507052024052000000002166480000000001N050520000000000000000000000000000000000000000000000000000000000000000100006550730864IVONE APARECIDA VIEIRA GADI TEIXEIRA    RUA SAO FLORENCIO  - 1500 AP.44 BLOCO 01            03733020                                                            000035
2SR. CAIXA, APOS O VENCIMENTO COBRAR 10% DE MULTA                                NAO RECEBER APOS 30 DIAS DO VENCIMENTO.                                                                                                                                                                                                         08052000000000000000805200000000000000       0090770900016748065507052026000036
100000000000000000000009077090001674800000000000000000000000010002100075574005201600000000002            2  01755740052024052000000003353580000000001N050520000000000000000000000000000000000000000000000000000000000000000100075574063891CASSIO TADEU DA SILVEIRA                RUA CONSELHEIRO MOREIRA DE BARROS - 1.55            02430000                                                            000038
2SR. CAIXA, APOS O VENCIMENTO COBRAR 10% DE MULTA                                NAO RECEBER APOS 30 DIAS DO VENCIMENTO.                                                                                                                                                                                                         08052000000000000000805200000000000000       0090770900016748755740052016000039
100000000000000000000009077090001674800000000000000000000000010002100000764605201400000000002            2  01007646052024052000000002480150000000001N050520000000000000000000000000000000000000000000000000000000000000000100000764632817LUIZ CARLOS ANTUNES JUNIOR              RUA MONTE CASTELO - 262 AP.35 - AVIACAO             11702720                                                            000041
2SR. CAIXA, APOS O VENCIMENTO COBRAR 10% DE MULTA                                NAO RECEBER APOS 30 DIAS DO VENCIMENTO.                                                                                                                                                                                                         08052000000000000000805200000000000000       0090770900016748007646052014000042
100000000000000000000009077090001674800000000000000000000000010002100057014505201000000000002            2  01570145052024052000000002815080000000001N050520000000000000000000000000000000000000000000000000000000000000000100057014582887SONIA MARIA DA SILVA PEGORARO           RUA FRANCO PAULISTA  - 80 - AGUA FRIA -             02332030                                                            000044
2SR. CAIXA, APOS O VENCIMENTO COBRAR 10% DE MULTA                                NAO RECEBER APOS 30 DIAS DO VENCIMENTO.                                                                                                                                                                                                         08052000000000000000805200000000000000       0090770900016748570145052010000045
100000000000000000000009077090001674800000000000000000000000010002100057014505202900000000002            2  01570145052024052000000002815050000000001N050520000000000000000000000000000000000000000000000000000000000000000100057014582887SONIA MARIA DA SILVA PEGORARO           RUA FRANCO PAULISTA  - 80 - AGUA FRIA -             02332030                                                            000047
2SR. CAIXA, APOS O VENCIMENTO COBRAR 10% DE MULTA                                NAO RECEBER APOS 30 DIAS DO VENCIMENTO.                                                                                                                                                                                                         08052000000000000000805200000000000000       0090770900016748570145052029000048
100000000000000000000009077090001674800000000000000000000000010002100057014505203700000000002            2  01570145052024052000000002815060000000001N050520000000000000000000000000000000000000000000000000000000000000000100057014582887SONIA MARIA DA SILVA PEGORARO           RUA FRANCO PAULISTA  - 80 - AGUA FRIA -             02332030                                                            000050
2SR. CAIXA, APOS O VENCIMENTO COBRAR 10% DE MULTA                                NAO RECEBER APOS 30 DIAS DO VENCIMENTO.                                                                                                                                                                                                         08052000000000000000805200000000000000       0090770900016748570145052037000051
100000000000000000000009077090001674800000000000000000000000010002100057014505204500000000002            2  01570145052024052000000002815070000000001N050520000000000000000000000000000000000000000000000000000000000000000100057014582887SONIA MARIA DA SILVA PEGORARO           RUA FRANCO PAULISTA  - 80 - AGUA FRIA -             02332030                                                            000053
2SR. CAIXA, APOS O VENCIMENTO COBRAR 10% DE MULTA                                NAO RECEBER APOS 30 DIAS DO VENCIMENTO.                                                                                                                                                                                                         08052000000000000000805200000000000000       0090770900016748570145052045000054
100000000000000000000009077090001674800000000000000000000000010002100006505305201800000000002            2  01065053052024052000000003059710000000001N050520000000000000000000000000000000000000000000000000000000000000000100006505382852LUIS ANTONIO DINIS HENRIQUES            RUA ESTEVAO  BAIAO - 520 AP.93A - CAMPO             04624002                                                            000056
2SR. CAIXA, APOS O VENCIMENTO COBRAR 10% DE MULTA                                NAO RECEBER APOS 30 DIAS DO VENCIMENTO.                                                                                                                                                                                                         08052000000000000000805200000000000000       0090770900016748065053052018000057
100000000000000000000009077090001674800000000000000000000000010002100011544705201000000000002            2  01115447052024052000000005558350000000001N050520000000000000000000000000000000000000000000000000000000000000000100011544777620GRACIELY RODRIGUES FERNANDES            RUA MONTE CASTELO - 262 AP.111 - AVIACAO            11702720                                                            000059
2SR. CAIXA, APOS O VENCIMENTO COBRAR 10% DE MULTA                                NAO RECEBER APOS 30 DIAS DO VENCIMENTO.                                                                                                                                                                                                         08052000000000000000805200000000000000       0090770900016748115447052010000060
100000000000000000000009077090001674800000000000000000000000010002100005629005201500000000002            2  01056290052024052000000012512730000000001N050520000000000000000000000000000000000000000000000000000000000000000100005629087819ROMILDO MARTINS PIZA                    RUA MAESTRO ARTURO DE ANGELIS - 190 AP.3            05139010                                                            000062
2SR. CAIXA, APOS O VENCIMENTO COBRAR 10% DE MULTA                                NAO RECEBER APOS 30 DIAS DO VENCIMENTO.                                                                                                                                                                                                         08052000000000000000805200000000000000       0090770900016748056290052015000063
100000000000000000000009077090001674800000000000000000000000010002100005629005202300000000002            2  01056290052024052000000004042570000000001N050520000000000000000000000000000000000000000000000000000000000000000100005629087819ROMILDO MARTINS PIZA                    RUA MAESTRO ARTURO DE ANGELIS - 190 AP.3            05139010                                                            000065
2SR. CAIXA, APOS O VENCIMENTO COBRAR 10% DE MULTA                                NAO RECEBER APOS 30 DIAS DO VENCIMENTO.                                                                                                                                                                                                         08052000000000000000805200000000000000       0090770900016748056290052023000066
100000000000000000000009077090001674800000000000000000000000010002100034325505201P00000000002            2  01343255052024052000000002040040000000001N050520000000000000000000000000000000000000000000000000000000000000000100034325567801LUIZ FERNANDO ALAMINO                   RUA GALDINO NASCIMENTO - 45 - PARQUE GUA            08431650                                                            000068
2SR. CAIXA, APOS O VENCIMENTO COBRAR 10% DE MULTA                                NAO RECEBER APOS 30 DIAS DO VENCIMENTO.                                                                                                                                                                                                         08052000000000000000805200000000000000       009077090001674834325505201P000069
100000000000000000000009077090001674800000000000000000000000010002100021335405201200000000002            2  01213354052024052000000001543770000000001N050520000000000000000000000000000000000000000000000000000000000000000100021335464808RAQUEL FERREIRA RAMOS                   RUA ANTONIO SEVERIANO DE ANDRADE E SILVA            11702400                                                            000071
2SR. CAIXA, APOS O VENCIMENTO COBRAR 10% DE MULTA                                NAO RECEBER APOS 30 DIAS DO VENCIMENTO.                                                                                                                                                                                                         08052000000000000000805200000000000000       0090770900016748213354052012000072
100000000000000000000009077090001674800000000000000000000000010002100005627905201100000000002            2  01056279052024052000000001810230000000001N050520000000000000000000000000000000000000000000000000000000000000000100005627947861FERNANDO CESAR MARCELINO                TRAVESSA CHARLES LEBRUN - 83 - VILA NOVA            02312060                                                            000074
2SR. CAIXA, APOS O VENCIMENTO COBRAR 10% DE MULTA                                NAO RECEBER APOS 30 DIAS DO VENCIMENTO.                                                                                                                                                                                                         08052000000000000000805200000000000000       0090770900016748056279052011000075
100000000000000000000009077090001674800000000000000000000000010002100026187905201800000000002            2  01261879052024052000000001889020000000001N050520000000000000000000000000000000000000000000000000000000000000000100026187960807CARINA CANTACESSO DE SOUZA              RUA MONTE CASTELO - 296 AP.91 - AVIACAO             11702720                                                            000077
2SR. CAIXA, APOS O VENCIMENTO COBRAR 10% DE MULTA                                NAO RECEBER APOS 30 DIAS DO VENCIMENTO.                                                                                                                                                                                                         08052000000000000000805200000000000000       0090770900016748261879052018000078
100000000000000000000009077090001674800000000000000000000000010002100004864905201300000000002            2  01048649052024052000000002524740000000001N050520000000000000000000000000000000000000000000000000000000000000000100004864924600RENATO SANTACHIARA SALVADORI            RUA PENSYLVANIA - 116 - PAYSAGE BRISE -             06730000                                                            000080
2SR. CAIXA, APOS O VENCIMENTO COBRAR 10% DE MULTA                                NAO RECEBER APOS 30 DIAS DO VENCIMENTO.                                                                                                                                                                                                         08052000000000000000805200000000000000       0090770900016748048649052013000081
100000000000000000000009077090001674800000000000000000000000010002100026647605201P00000000002            2  01266476052024052000000002796510000000001N050520000000000000000000000000000000000000000000000000000000000000000100026647690816CLAUDIA FUKUDA OGATA BURATTO            RUA MONTE CASTELO - 262 AP.32 - AVIACAO             11702720                                                            000083
2SR. CAIXA, APOS O VENCIMENTO COBRAR 10% DE MULTA                                NAO RECEBER APOS 30 DIAS DO VENCIMENTO.                                                                                                                                                                                                         08052000000000000000805200000000000000       009077090001674826647605201P000084
9                                                                                                                                                                                                                                                                                                                                                                                                         000085