01REMESSA01COBRANCA       00000000000004991788AIRES DESENVOLVIMENTO IMOBILIA237BRADESCO       010317        MX0000091                                                                                                                                                                                                                                                                                     000001
100000000000000000000009077090011897400000000000000000000000010002100000000189182300000000002            2  01000018918210031700000002287200000000099N010317000000000000000000000000000000000000000000000000000000000000000100021570843805RODRIGO LESSANDRO FREGATE               RUA JOSE PEDRO DORO - 451 BLOCO RIO GRAN            02880010                                                            000002
2SR. CAIXA, APOS O VENCIMENTO COBRAR 10% DE MULTA                                NAO RECEBER APOS 30 DIAS DO VENCIMENTO.                                                                                                                                                                                                         01031700000000000000103170000000000000       0090770900118974000001891823000003
100000000000000000000009077090011897400000000000000000000000010002100000057818478600000000002            2  01005781847810031700000002626140000000099N010317000000000000000000000000000000000000000000000000000000000000000100007508759842LAERCIO DA CRUZ FERREIRA                RUA JOSE BENEDITO SALINAS - 110 APTO 161            04674200                                                            000005
2SR. CAIXA, APOS O VENCIMENTO COBRAR 10% DE MULTA                                NAO RECEBER APOS 30 DIAS DO VENCIMENTO.                                                                                                                                                                                                         01031700000000000000103170000000000000       0090770900118974000578184786000006
100000000000000000000009077090011897400000000000000000000000010002100000061528882100000000002            2  01006152888210031700000002372430000000099N010317000000000000000000000000000000000000000000000000000000000000000100010653257899MARCIO DE SOUZA AZEVEDO                 RUA CASABLANCA - 105 - PARQUE MONTE ALEG            06756400                                                            000008
2SR. CAIXA, APOS O VENCIMENTO COBRAR 10% DE MULTA                                NAO RECEBER APOS 30 DIAS DO VENCIMENTO.                                                                                                                                                                                                         01031700000000000000103170000000000000       0090770900118974000615288821000009
100000000000000000000009077090011897400000000000000000000000010002100000062448983P00000000002            2  01006244898310031700000002361890000000099N010317000000000000000000000000000000000000000000000000000000000000000100068006292868FRANCISCO VIEIRA SOUSA                  RUA SERRA DA CANTAREIRA - 104 - JARDIM E            06413090                                                            000011
2SR. CAIXA, APOS O VENCIMENTO COBRAR 10% DE MULTA                                NAO RECEBER APOS 30 DIAS DO VENCIMENTO.                                                                                                                                                                                                         01031700000000000000103170000000000000       009077090011897400062448983P000012
100000000000000000000009077090011897400000000000000000000000010002100000070539792100000000002            2  01007053979210031700000002811680000000099N010317000000000000000000000000000000000000000000000000000000000000000100022288772808FERNANDA TAVARES MASANO                 RUA JOSE CALIXTO DO CARMO - 265 AP. 124             11702690                                                            000014
2SR. CAIXA, APOS O VENCIMENTO COBRAR 10% DE MULTA                                NAO RECEBER APOS 30 DIAS DO VENCIMENTO.                                                                                                                                                                                                         01031700000000000000103170000000000000       0090770900118974000705397921000015
100000000000000000000009077090011897400000000000000000000000010002100000761210298500000000002            2  01076121029810031700000002625610000000099N010317000000000000000000000000000000000000000000000000000000000000000100032223890806ELISANGELA CAMARGO BRAGA                RUA JOSE CALIXTO DO CARMO - 265 AP.24 -             11702690                                                            000017
2SR. CAIXA, APOS O VENCIMENTO COBRAR 10% DE MULTA                                NAO RECEBER APOS 30 DIAS DO VENCIMENTO.                                                                                                                                                                                                         01031700000000000000103170000000000000       0090770900118974007612102985000018
100000000000000000000009077090011897400000000000000000000000010002100007862105101800000000002            2  01786210510110031700000002515710000000099N010317000000000000000000000000000000000000000000000000000000000000000100010177135883VERONICA DE LIMA SANTOS                 RUA ARAGAO - 1099 - TUCURUVI - SAO PAULO            02308001                                                            000020
2SR. CAIXA, APOS O VENCIMENTO COBRAR 10% DE MULTA                                NAO RECEBER APOS 30 DIAS DO VENCIMENTO.                                                                                                                                                                                                         01031700000000000000103170000000000000       0090770900118974078621051018000021
100000000000000000000009077090011897400000000000000000000000010002100008569113109000000000002            2  01856911310910031700000002498090000000099N010317000000000000000000000000000000000000000000000000000000000000000100031000769828ANDREIA CARLA SOUSA                     RUA JOSE CALIXTO DO CARMO - 265 AP.73 -             11702690                                                            000023
2SR. CAIXA, APOS O VENCIMENTO COBRAR 10% DE MULTA                                NAO RECEBER APOS 30 DIAS DO VENCIMENTO.                                                                                                                                                                                                         01031700000000000000103170000000000000       0090770900118974085691131090000024
100000000000000000000009077090011897400000000000000000000000010002100008745115111900000000002            2  01874511511110031700000003182030000000099N010317000000000000000000000000000000000000000000000000000000000000000100027324650899LUCIANO MARTINEZ                        RUA MORGADO DE MATEUS - 473 - VILA MARIA            04015051                                                            000026
2SR. CAIXA, APOS O VENCIMENTO COBRAR 10% DE MULTA                                NAO RECEBER APOS 30 DIAS DO VENCIMENTO.                                                                                                                                                                                                         01031700000000000000103170000000000000       0090770900118974087451151119000027
100000000000000000000009077090011897400000000000000000000000010002100009002118114700000000002            2  01900211811410031700000002854610000000099N010317000000000000000000000000000000000000000000000000000000000000000100025529542867ALESSANDRO FREITAS SOUZA                JOSE CALIXTO DO CARMO - 265 AP.84 - AVIA            11702690                                                            000029
2SR. CAIXA, APOS O VENCIMENTO COBRAR 10% DE MULTA                                NAO RECEBER APOS 30 DIAS DO VENCIMENTO.                                                                                                                                                                                                         01031700000000000000103170000000000000       0090770900118974090021181147000030
100000000000000000000009077090011897400000000000000000000000010002100009521124120200000000002            2  01952112412010031700000002677010000000099N010317000000000000000000000000000000000000000000000000000000000000000100000889093873NANCY ARREBOLLA LOPES                   RUA ERNESTO MANOGRASSO - 491 - SAO MATEU            03983100                                                            000032
2SR. CAIXA, APOS O VENCIMENTO COBRAR 10% DE MULTA                                NAO RECEBER APOS 30 DIAS DO VENCIMENTO.                                                                                                                                                                                                         01031700000000000000103170000000000000       0090770900118974095211241202000033
100000000000000000000009077090011897400000000000000000000000010002100009922129127000000000002            2  01992212912710031700000002220940000000099N010317000000000000000000000000000000000000000000000000000000000000000100005253129863ADILSON JOSE BORGES                     RUA CIRIACO JIMENEZ - 83 - PARQUE NACOES            02996070                                                            000035
2SR. CAIXA, APOS O VENCIMENTO COBRAR 10% DE MULTA                                NAO RECEBER APOS 30 DIAS DO VENCIMENTO.                                                                                                                                                                                                         01031700000000000000103170000000000000       0090770900118974099221291270000036
100000000000000000000009077090011897400000000000000000000000010002100010324136134500000000002            2  01103241361310031700000002346720000000099N010317000000000000000000000000000000000000000000000000000000000000000100003996827830RONALDO PINTO BORGES                    MAGNOLIA DELFIM DA SILVA - 44 - JARDIM O            05363040                                                            000038
2SR. CAIXA, APOS O VENCIMENTO COBRAR 10% DE MULTA                                NAO RECEBER APOS 30 DIAS DO VENCIMENTO.                                                                                                                                                                                                         01031700000000000000103170000000000000       0090770900118974103241361345000039
100000000000000000000009077090011897400000000000000000000000010002100001069522141800000000002            2  01106952214110031700000001334950000000099N010317000000000000000000000000000000000000000000000000000000000000000100012708342827ADRIANA RATIER CRUZ                     RUA JOSE CALIXTO DO CARMO - 295 APTO 31             11702690                                                            000041
2SR. CAIXA, APOS O VENCIMENTO COBRAR 10% DE MULTA                                NAO RECEBER APOS 30 DIAS DO VENCIMENTO.                                                                                                                                                                                                         01031700000000000000103170000000000000       0090770900118974010695221418000042
100000000000000000000009077090011897400000000000000000000000010002100010875143149800000000002            2  01108751431410031700000001177670000000099N010317000000000000000000000000000000000000000000000000000000000000000100000452415896MARILUCE SANTOS DE ALMEIDA              RUA JOSE CALIXTO DO CARMO - 295 AP.74 -             11702690                                                            000044
2SR. CAIXA, APOS O VENCIMENTO COBRAR 10% DE MULTA                                NAO RECEBER APOS 30 DIAS DO VENCIMENTO.                                                                                                                                                                                                         01031700000000000000103170000000000000       0090770900118974108751431498000045
9                                                                                                                                                                                                                                                                                                                                                                                                         000046