01REMESSA01COBRANCA       00000000000004991454AIRES CONSTRUTORA E INCORPORAD237BRADESCO       010518        MX0000107                                                                                                                                                                                                                                                                                     000001
100000000000000000000009077090001674800000000000000000000000010002100099740405181100000000002            2  01997404051809051800000002708430000000001N010518000000000000000000000000000000000000000000000000000000000000000100099740451853ARNALDO DA SILVA SALES                  RUA ALEGRE - 210 - VILA SAO RAFAEL - GUA            07053100                                                            000002
2SR. CAIXA, APOS O VENCIMENTO COBRAR 10% DE MULTA                                NAO RECEBER APOS 30 DIAS DO VENCIMENTO.                                                                                                                                                                                                         01051800000000000000105180000000000000       0090770900016748997404051811000003
100000000000000000000009077090001674800000000000000000000000010002100049736705181100000000002            2  01497367051809051800000001643460000000001N010518000000000000000000000000000000000000000000000000000000000000000100049736787320RAIMUNDO VIEIRA DA SILVA                RUA BOLIVIA - 81 AP.ZELADORIA - JARDIM G            11701850                                                            000005
2SR. CAIXA, APOS O VENCIMENTO COBRAR 10% DE MULTA                                NAO RECEBER APOS 30 DIAS DO VENCIMENTO.                                                                                                                                                                                                         01051800000000000000105180000000000000       0090770900016748497367051811000006
100000000000000000000009077090001674800000000000000000000000010002100044380705181600000000002            2  01443807051809051800000004368970000000001N010518000000000000000000000000000000000000000000000000000000000000000100044380725812FERNANDO FIRMINO DOS SANTOS             RUA BARAO GERALDO DE RESENDE - 401 - BAI            05205220                                                            000008
2SR. CAIXA, APOS O VENCIMENTO COBRAR 10% DE MULTA                                NAO RECEBER APOS 30 DIAS DO VENCIMENTO.                                                                                                                                                                                                         01051800000000000000105180000000000000       0090770900016748443807051816000009
100000000000000000000009077090001674800000000000000000000000010002100025469405181700000000002            2  01254694051809051800000001359970000000001N010518000000000000000000000000000000000000000000000000000000000000000100025469470873JULIA MARIA RODRIGUES MARTINS           AVENIDA JOAO FIRMINO - 1229 AP.21 - BAIR            09810260                                                            000011
2SR. CAIXA, APOS O VENCIMENTO COBRAR 10% DE MULTA                                NAO RECEBER APOS 30 DIAS DO VENCIMENTO.                                                                                                                                                                                                         01051800000000000000105180000000000000       0090770900016748254694051817000012
100000000000000000000009077090001674800000000000000000000000010002100027396105181800000000002            2  01273961051809051800000002067260000000001N010518000000000000000000000000000000000000000000000000000000000000000100027396176824WALDINEA BORGES DIAS                    RUA CAP. JOAQUIM F.PEREIRA - 95 - JARDIM            13710000                                                            000014
2SR. CAIXA, APOS O VENCIMENTO COBRAR 10% DE MULTA                                NAO RECEBER APOS 30 DIAS DO VENCIMENTO.                                                                                                                                                                                                         01051800000000000000105180000000000000       0090770900016748273961051818000015
100000000000000000000009077090001674800000000000000000000000010002100004759505181800000000002            2  01047595051809051800000003292640000000001N010518000000000000000000000000000000000000000000000000000000000000000100004759534873AGNALDO PORFIRIO DOS SANTOS             RUA JUVENCIO GASPAR DA SILVA - 35 - SAO             04303060                                                            000017
2SR. CAIXA, APOS O VENCIMENTO COBRAR 10% DE MULTA                                NAO RECEBER APOS 30 DIAS DO VENCIMENTO.                                                                                                                                                                                                         01051800000000000000105180000000000000       0090770900016748047595051818000018
100000000000000000000009077090001674800000000000000000000000010002100014924005181400000000002            2  01149240051809051800000001774430000000001N010518000000000000000000000000000000000000000000000000000000000000000100014924049859KATIA REGINA DE OLIVEIRA SILVA          RUA ANTONIO SIMIONATO - 73 AP.14 - SANTA            09780180                                                            000020
2SR. CAIXA, APOS O VENCIMENTO COBRAR 10% DE MULTA                                NAO RECEBER APOS 30 DIAS DO VENCIMENTO.                                                                                                                                                                                                         01051800000000000000105180000000000000       0090770900016748149240051814000021
100000000000000000000009077090001674800000000000000000000000010002100090830405181100000000002            2  01908304051809051800000001038040000000001N010518000000000000000000000000000000000000000000000000000000000000000100090830490868IVONETE FERNANDES                       AVENIDA FREDERICO OZANAN - 5504 - VILA R            13215276                                                            000023
2SR. CAIXA, APOS O VENCIMENTO COBRAR 10% DE MULTA                                NAO RECEBER APOS 30 DIAS DO VENCIMENTO.                                                                                                                                                                                                         01051800000000000000105180000000000000       0090770900016748908304051811000024
100000000000000000000009077090001674800000000000000000000000010002100027093905181300000000002            2  01270939051809051800000002573310000000001N010518000000000000000000000000000000000000000000000000000000000000000100027093944809DAVID ALEXANDRE XAVIER ROCHA            RUA MONTE CASTELO - 296 AP.54 - AVIACAO             11702720                                                            000026
2SR. CAIXA, APOS O VENCIMENTO COBRAR 10% DE MULTA                                NAO RECEBER APOS 30 DIAS DO VENCIMENTO.                                                                                                                                                                                                         01051800000000000000105180000000000000       0090770900016748270939051813000027
100000000000000000000009077090001674800000000000000000000000010002100068273205181P00000000002            2  01682732051809051800000001873190000000001N010518000000000000000000000000000000000000000000000000000000000000000100068273290891DERNEVAL JOSE MUNIZ                     RUA MARTINOPOLIS - 98 - JARDIM OTAWA - G            07230230                                                            000029
2SR. CAIXA, APOS O VENCIMENTO COBRAR 10% DE MULTA                                NAO RECEBER APOS 30 DIAS DO VENCIMENTO.                                                                                                                                                                                                         01051800000000000000105180000000000000       009077090001674868273205181P000030
100000000000000000000009077090001674800000000000000000000000010002100001817505181200000000002            2  01018175051809051800000001600860000000001N010518000000000000000000000000000000000000000000000000000000000000000100001817534807SANTINA SALVINA SOARES                  RUA CAIAPOS - 1066 AP.43 - VILA TUPI - P            11703320                                                            000032
2SR. CAIXA, APOS O VENCIMENTO COBRAR 10% DE MULTA                                NAO RECEBER APOS 30 DIAS DO VENCIMENTO.                                                                                                                                                                                                         01051800000000000000105180000000000000       0090770900016748018175051812000033
100000000000000000000009077090001674800000000000000000000000010002100086755705181P00000000002            2  01867557051809051800000001729470000000001N010518000000000000000000000000000000000000000000000000000000000000000100086755790800GERALDO JAIR BROGLIATTO                 DR.ARMANDO COSTA MAGALHAES - 176 - VILA             13270490                                                            000035
2SR. CAIXA, APOS O VENCIMENTO COBRAR 10% DE MULTA                                NAO RECEBER APOS 30 DIAS DO VENCIMENTO.                                                                                                                                                                                                         01051800000000000000105180000000000000       009077090001674886755705181P000036
100000000000000000000009077090001674800000000000000000000000010002100013191205181100000000002            2  01131912051811051800000001800000000000001N010518000000000000000000000000000000000000000000000000000000000000000100013191291881MARCELO RICARDO MASCAROS SOUTO          RUA MONTE CASTELO - 295 AP.102 - AVIACAO            11702720                                                            000038
2SR. CAIXA, APOS O VENCIMENTO COBRAR 10% DE MULTA                                NAO RECEBER APOS 30 DIAS DO VENCIMENTO.                                                                                                                                                                                                         01051800000000000000105180000000000000       0090770900016748131912051811000039
100000000000000000000009077090001674800000000000000000000000010002100007996005181300000000002            2  01079960051809051800000001718030000000001N010518000000000000000000000000000000000000000000000000000000000000000100007996062862HENRIQUE SALVADOR                       RUA DARDANELOS - 689 - PARQUE NOVO ORATO            09260060                                                            000041
2SR. CAIXA, APOS O VENCIMENTO COBRAR 10% DE MULTA                                NAO RECEBER APOS 30 DIAS DO VENCIMENTO.                                                                                                                                                                                                         01051800000000000000105180000000000000       0090770900016748079960051813000042
100000000000000000000009077090001674800000000000000000000000010002100010066005181000000000002            2  01100660051809051800000002301600000000001N010518000000000000000000000000000000000000000000000000000000000000000100010066071534MOISES ROQUE DO ROSARIO                 RUA DAS PAPOULAS - 53 - VILA BELA - SAO             03202010                                                            000044
2SR. CAIXA, APOS O VENCIMENTO COBRAR 10% DE MULTA                                NAO RECEBER APOS 30 DIAS DO VENCIMENTO.                                                                                                                                                                                                         01051800000000000000105180000000000000       0090770900016748100660051810000045
100000000000000000000009077090001674800000000000000000000000010002100085910005181100000000002            2  01859100051809051800000002626210000000001N010518000000000000000000000000000000000000000000000000000000000000000100085910031872SERGIO NOGUEIRA                         RUA MONTE CASTELO - 262 AP.55 - AVIACAO             11702720                                                            000047
2SR. CAIXA, APOS O VENCIMENTO COBRAR 10% DE MULTA                                NAO RECEBER APOS 30 DIAS DO VENCIMENTO.                                                                                                                                                                                                         01051800000000000000105180000000000000       0090770900016748859100051811000048
100000000000000000000009077090001674800000000000000000000000010002100000746805181500000000002            2  01007468051809051800000002123210000000001N010518000000000000000000000000000000000000000000000000000000000000000100000746845820ANTONIO CARLOS DE MELLO                 RUA CONGO - 118 - PARQUE MONTE ALEGRE -             06756270                                                            000050
2SR. CAIXA, APOS O VENCIMENTO COBRAR 10% DE MULTA                                NAO RECEBER APOS 30 DIAS DO VENCIMENTO.                                                                                                                                                                                                         01051800000000000000105180000000000000       0090770900016748007468051815000051
100000000000000000000009077090001674800000000000000000000000010002100028196105181000000000002            2  01281961051809051800000001528890000000001N010518000000000000000000000000000000000000000000000000000000000000000100028196184808VANESSA NOGUEIRA CAMBUI DA SILVA        CRISTOVAO COLOMBO - 217 - VILA AMERICA -            09110160                                                            000053
2SR. CAIXA, APOS O VENCIMENTO COBRAR 10% DE MULTA                                NAO RECEBER APOS 30 DIAS DO VENCIMENTO.                                                                                                                                                                                                         01051800000000000000105180000000000000       0090770900016748281961051810000054
100000000000000000000009077090001674800000000000000000000000010002100027067005181100000000002            2  01270670051809051800000001557100000000001N010518000000000000000000000000000000000000000000000000000000000000000100027067002893MARCIA NASCIMENTO DE MORAES             RUA MONTE CASTELO - 296 AP.11 - AVIACAO             11702720                                                            000056
2SR. CAIXA, APOS O VENCIMENTO COBRAR 10% DE MULTA                                NAO RECEBER APOS 30 DIAS DO VENCIMENTO.                                                                                                                                                                                                         01051800000000000000105180000000000000       0090770900016748270670051811000057
100000000000000000000009077090001674800000000000000000000000010002100064435705181600000000002            2  01644357051809051800000001557100000000001N010518000000000000000000000000000000000000000000000000000000000000000100064435741849JURACY DA SILVA                         RUA JACARATINGA - 192 - JARDIM PIRAJUCAR            05786120                                                            000059
2SR. CAIXA, APOS O VENCIMENTO COBRAR 10% DE MULTA                                NAO RECEBER APOS 30 DIAS DO VENCIMENTO.                                                                                                                                                                                                         01051800000000000000105180000000000000       0090770900016748644357051816000060
100000000000000000000009077090001674800000000000000000000000010002100094921805181500000000002            2  01949218051809051800000001545510000000001N010518000000000000000000000000000000000000000000000000000000000000000100094921890897JOAO JORGE DA ROSA FILHO                RUA OLAVO EGIDIO DE SOUZA ARANHA - 368 A            03822000                                                            000062
2SR. CAIXA, APOS O VENCIMENTO COBRAR 10% DE MULTA                                NAO RECEBER APOS 30 DIAS DO VENCIMENTO.                                                                                                                                                                                                         01051800000000000000105180000000000000       0090770900016748949218051815000063
100000000000000000000009077090001674800000000000000000000000010002100008364805181100000000002            2  01083648051809051800000001874890000000001N010518000000000000000000000000000000000000000000000000000000000000000100008364834800JOSEFINA CORREA RAMA DOS SANTOS         AVENIDA PRESIDENTE CASTELO BRANCO - 3.78            11702700                                                            000065
2SR. CAIXA, APOS O VENCIMENTO COBRAR 10% DE MULTA                                NAO RECEBER APOS 30 DIAS DO VENCIMENTO.                                                                                                                                                                                                         01051800000000000000105180000000000000       0090770900016748083648051811000066
100000000000000000000009077090001674800000000000000000000000010002100037713305181200000000002            2  01377133051809051800000001534000000000001N010518000000000000000000000000000000000000000000000000000000000000000100037713356800JAMILLE PAULA BUENO LOPES               RUA CURIO (COND.NEW VILLE) - 172 - SURU             06509031                                                            000068
2SR. CAIXA, APOS O VENCIMENTO COBRAR 10% DE MULTA                                NAO RECEBER APOS 30 DIAS DO VENCIMENTO.                                                                                                                                                                                                         01051800000000000000105180000000000000       0090770900016748377133051812000069
100000000000000000000009077090001674800000000000000000000000010002100027100905181P00000000002            2  01271009051809051800000001787130000000001N010518000000000000000000000000000000000000000000000000000000000000000100027100951810MARCIA RAMALHO RODRIGUES                RUA MONTE CASTELO - 296 AP.82 - AVIACAO             11702720                                                            000071
2SR. CAIXA, APOS O VENCIMENTO COBRAR 10% DE MULTA                                NAO RECEBER APOS 30 DIAS DO VENCIMENTO.                                                                                                                                                                                                         01051800000000000000105180000000000000       009077090001674827100905181P000072
100000000000000000000009077090001674800000000000000000000000010002100076207905181000000000002            2  01762079051809051800000001927360000000001N010518000000000000000000000000000000000000000000000000000000000000000100076207943872JOSE MACEDO RICARTE FILHO               RUA ARTUR LOBO - 181 - JARDIM JABAQUARA             04384060                                                            000074
2SR. CAIXA, APOS O VENCIMENTO COBRAR 10% DE MULTA                                NAO RECEBER APOS 30 DIAS DO VENCIMENTO.                                                                                                                                                                                                         01051800000000000000105180000000000000       0090770900016748762079051810000075
9                                                                                                                                                                                                                                                                                                                                                                                                         000076