01REMESSA01COBRANCA       00000000000004991454AIRES CONSTRUTORA E INCORPORAD237BRADESCO       010220        MX0000149                                                                                                                                                                                                                                                                                     000001
100000000000000000000009077090001674800000000000000000000000010002100099740402201300000000002            2  01997404022009022000000003168560000000001N010220000000000000000000000000000000000000000000000000000000000000000100099740451853ARNALDO DA SILVA SALES                  RUA ALEGRE - 210 - VILA SAO RAFAEL - GUA            07053100                                                            000002
2SR. CAIXA, APOS O VENCIMENTO COBRAR 10% DE MULTA                                NAO RECEBER APOS 30 DIAS DO VENCIMENTO.                                                                                                                                                                                                         01022000000000000000102200000000000000       0090770900016748997404022013000003
100000000000000000000009077090001674800000000000000000000000010002100044380702201800000000002            2  01443807022009022000000005111230000000001N010220000000000000000000000000000000000000000000000000000000000000000100044380725812FERNANDO FIRMINO DOS SANTOS             RUA BARAO GERALDO DE RESENDE - 401 - BAI            05205220                                                            000005
2SR. CAIXA, APOS O VENCIMENTO COBRAR 10% DE MULTA                                NAO RECEBER APOS 30 DIAS DO VENCIMENTO.                                                                                                                                                                                                         01022000000000000000102200000000000000       0090770900016748443807022018000006
100000000000000000000009077090001674800000000000000000000000010002100025469402201900000000002            2  01254694022009022000000001591030000000001N010220000000000000000000000000000000000000000000000000000000000000000100025469470873JULIA MARIA RODRIGUES MARTINS           AVENIDA JOAO FIRMINO - 1229 AP.21 - BAIR            09810260                                                            000008
2SR. CAIXA, APOS O VENCIMENTO COBRAR 10% DE MULTA                                NAO RECEBER APOS 30 DIAS DO VENCIMENTO.                                                                                                                                                                                                         01022000000000000000102200000000000000       0090770900016748254694022019000009
100000000000000000000009077090001674800000000000000000000000010002100004759502201P00000000002            2  01047595022009022000000003852020000000001N010220000000000000000000000000000000000000000000000000000000000000000100004759534873AGNALDO PORFIRIO DOS SANTOS             RUA JUVENCIO GASPAR DA SILVA - 35 - SAO             04303060                                                            000011
2SR. CAIXA, APOS O VENCIMENTO COBRAR 10% DE MULTA                                NAO RECEBER APOS 30 DIAS DO VENCIMENTO.                                                                                                                                                                                                         01022000000000000000102200000000000000       009077090001674804759502201P000012
100000000000000000000009077090001674800000000000000000000000010002100090830402201300000000002            2  01908304022009022000000001214380000000001N010220000000000000000000000000000000000000000000000000000000000000000100090830490868IVONETE FERNANDES                       AVENIDA FREDERICO OZANAN - 5504 - VILA R            13215276                                                            000014
2SR. CAIXA, APOS O VENCIMENTO COBRAR 10% DE MULTA                                NAO RECEBER APOS 30 DIAS DO VENCIMENTO.                                                                                                                                                                                                         01022000000000000000102200000000000000       0090770900016748908304022013000015
100000000000000000000009077090001674800000000000000000000000010002100027093902201500000000002            2  01270939022009022000000003010490000000001N010220000000000000000000000000000000000000000000000000000000000000000100027093944809DAVID ALEXANDRE XAVIER ROCHA            RUA MONTE CASTELO - 296 AP.54 - AVIACAO             11702720                                                            000017
2SR. CAIXA, APOS O VENCIMENTO COBRAR 10% DE MULTA                                NAO RECEBER APOS 30 DIAS DO VENCIMENTO.                                                                                                                                                                                                         01022000000000000000102200000000000000       0090770900016748270939022015000018
100000000000000000000009077090001674800000000000000000000000010002100068273202201100000000002            2  01682732022009022000000002191420000000001N010220000000000000000000000000000000000000000000000000000000000000000100068273290891DERNEVAL JOSE MUNIZ                     RUA MARTINOPOLIS - 98 - JARDIM OTAWA - G            07230230                                                            000020
2SR. CAIXA, APOS O VENCIMENTO COBRAR 10% DE MULTA                                NAO RECEBER APOS 30 DIAS DO VENCIMENTO.                                                                                                                                                                                                         01022000000000000000102200000000000000       0090770900016748682732022011000021
100000000000000000000009077090001674800000000000000000000000010002100001817502201400000000002            2  01018175022009022000000001872840000000001N010220000000000000000000000000000000000000000000000000000000000000000100001817534807SANTINA SALVINA SOARES                  RUA CAIAPOS - 1066 AP.43 - VILA TUPI - P            11703320                                                            000023
2SR. CAIXA, APOS O VENCIMENTO COBRAR 10% DE MULTA                                NAO RECEBER APOS 30 DIAS DO VENCIMENTO.                                                                                                                                                                                                         01022000000000000000102200000000000000       0090770900016748018175022014000024
100000000000000000000009077090001674800000000000000000000000010002100086755702201100000000002            2  01867557022009022000000002023300000000001N010220000000000000000000000000000000000000000000000000000000000000000100086755790800GERALDO JAIR BROGLIATTO                 DR.ARMANDO COSTA MAGALHAES - 176 - VILA             13270490                                                            000026
2SR. CAIXA, APOS O VENCIMENTO COBRAR 10% DE MULTA                                NAO RECEBER APOS 30 DIAS DO VENCIMENTO.                                                                                                                                                                                                         01022000000000000000102200000000000000       0090770900016748867557022011000027
100000000000000000000009077090001674800000000000000000000000010002100007996002201500000000002            2  01079960022009022000000002009930000000001N010220000000000000000000000000000000000000000000000000000000000000000100007996062862HENRIQUE SALVADOR                       RUA DARDANELOS - 689 - PARQUE NOVO ORATO            09260060                                                            000029
2SR. CAIXA, APOS O VENCIMENTO COBRAR 10% DE MULTA                                NAO RECEBER APOS 30 DIAS DO VENCIMENTO.                                                                                                                                                                                                         01022000000000000000102200000000000000       0090770900016748079960022015000030
100000000000000000000009077090001674800000000000000000000000010002100010066002201200000000002            2  01100660022009022000000002692620000000001N010220000000000000000000000000000000000000000000000000000000000000000100010066071534MOISES ROQUE DO ROSARIO                 RUA DAS PAPOULAS - 53 - VILA BELA - SAO             03202010                                                            000032
2SR. CAIXA, APOS O VENCIMENTO COBRAR 10% DE MULTA                                NAO RECEBER APOS 30 DIAS DO VENCIMENTO.                                                                                                                                                                                                         01022000000000000000102200000000000000       0090770900016748100660022012000033
100000000000000000000009077090001674800000000000000000000000010002100085910002201300000000002            2  01859100022009022000000003072360000000001N010220000000000000000000000000000000000000000000000000000000000000000100085910031872SERGIO NOGUEIRA                         RUA MONTE CASTELO - 262 AP.55 - AVIACAO             11702720                                                            000035
2SR. CAIXA, APOS O VENCIMENTO COBRAR 10% DE MULTA                                NAO RECEBER APOS 30 DIAS DO VENCIMENTO.                                                                                                                                                                                                         01022000000000000000102200000000000000       0090770900016748859100022013000036
100000000000000000000009077090001674800000000000000000000000010002100000746802201700000000002            2  01007468022009022000000002483910000000001N010220000000000000000000000000000000000000000000000000000000000000000100000746845820ANTONIO CARLOS DE MELLO                 RUA CONGO - 118 - PARQUE MONTE ALEGRE -             06756270                                                            000038
2SR. CAIXA, APOS O VENCIMENTO COBRAR 10% DE MULTA                                NAO RECEBER APOS 30 DIAS DO VENCIMENTO.                                                                                                                                                                                                         01022000000000000000102200000000000000       0090770900016748007468022017000039
100000000000000000000009077090001674800000000000000000000000010002100028196102201200000000002            2  01281961022009022000000001788630000000001N010220000000000000000000000000000000000000000000000000000000000000000100028196184808VANESSA NOGUEIRA CAMBUI DA SILVA        CRISTOVAO COLOMBO - 217 - VILA AMERICA -            09110160                                                            000041
2SR. CAIXA, APOS O VENCIMENTO COBRAR 10% DE MULTA                                NAO RECEBER APOS 30 DIAS DO VENCIMENTO.                                                                                                                                                                                                         01022000000000000000102200000000000000       0090770900016748281961022012000042
100000000000000000000009077090001674800000000000000000000000010002100049730802201800000000002            2  01497308022009022000000001468240000000001N010220000000000000000000000000000000000000000000000000000000000000000100049730835420PEDRO LUIZ DO BOM FIM FILHO             RUA NASCER DO SOL - 91 - BAIRRO PIRAPORI            09951475                                                            000044
2SR. CAIXA, APOS O VENCIMENTO COBRAR 10% DE MULTA                                NAO RECEBER APOS 30 DIAS DO VENCIMENTO.                                                                                                                                                                                                         01022000000000000000102200000000000000       0090770900016748497308022018000045
100000000000000000000009077090001674800000000000000000000000010002100027067002201300000000002            2  01270670022009022000000001821630000000001N010220000000000000000000000000000000000000000000000000000000000000000100027067002893MARCIA NASCIMENTO DE MORAES             RUA MONTE CASTELO - 296 AP.11 - AVIACAO             11702720                                                            000047
2SR. CAIXA, APOS O VENCIMENTO COBRAR 10% DE MULTA                                NAO RECEBER APOS 30 DIAS DO VENCIMENTO.                                                                                                                                                                                                         01022000000000000000102200000000000000       0090770900016748270670022013000048
100000000000000000000009077090001674800000000000000000000000010002100064435702201800000000002            2  01644357022009022000000001821630000000001N010220000000000000000000000000000000000000000000000000000000000000000100064435741849JURACY DA SILVA                         RUA JACARATINGA - 192 - JARDIM PIRAJUCAR            05786120                                                            000050
2SR. CAIXA, APOS O VENCIMENTO COBRAR 10% DE MULTA                                NAO RECEBER APOS 30 DIAS DO VENCIMENTO.                                                                                                                                                                                                         01022000000000000000102200000000000000       0090770900016748644357022018000051
100000000000000000000009077090001674800000000000000000000000010002100094921802201700000000002            2  01949218022009022000000001808070000000001N010220000000000000000000000000000000000000000000000000000000000000000100094921890897JOAO JORGE DA ROSA FILHO                RUA OLAVO EGIDIO DE SOUZA ARANHA - 368 A            03822000                                                            000053
2SR. CAIXA, APOS O VENCIMENTO COBRAR 10% DE MULTA                                NAO RECEBER APOS 30 DIAS DO VENCIMENTO.                                                                                                                                                                                                         01022000000000000000102200000000000000       0090770900016748949218022017000054
100000000000000000000009077090001674800000000000000000000000010002100008364802201300000000002            2  01083648022009022000000002193450000000001N010220000000000000000000000000000000000000000000000000000000000000000100008364834800JOSEFINA CORREA RAMA DOS SANTOS         AVENIDA PRESIDENTE CASTELO BRANCO - 3.78            11702700                                                            000056
2SR. CAIXA, APOS O VENCIMENTO COBRAR 10% DE MULTA                                NAO RECEBER APOS 30 DIAS DO VENCIMENTO.                                                                                                                                                                                                         01022000000000000000102200000000000000       0090770900016748083648022013000057
100000000000000000000009077090001674800000000000000000000000010002100037713302201400000000002            2  01377133022009022000000001794610000000001N010220000000000000000000000000000000000000000000000000000000000000000100037713356800JAMILLE PAULA BUENO LOPES               RUA CURIO (COND.NEW VILLE) - 172 - SURU             06509031                                                            000059
2SR. CAIXA, APOS O VENCIMENTO COBRAR 10% DE MULTA                                NAO RECEBER APOS 30 DIAS DO VENCIMENTO.                                                                                                                                                                                                         01022000000000000000102200000000000000       0090770900016748377133022014000060
100000000000000000000009077090001674800000000000000000000000010002100027100902201100000000002            2  01271009022009022000000002090740000000001N010220000000000000000000000000000000000000000000000000000000000000000100027100951810MARCIA RAMALHO RODRIGUES                RUA MONTE CASTELO - 296 AP.82 - AVIACAO             11702720                                                            000062
2SR. CAIXA, APOS O VENCIMENTO COBRAR 10% DE MULTA                                NAO RECEBER APOS 30 DIAS DO VENCIMENTO.                                                                                                                                                                                                         01022000000000000000102200000000000000       0090770900016748271009022011000063
100000000000000000000009077090001674800000000000000000000000010002100076207902201200000000002            2  01762079022009022000000002254810000000001N010220000000000000000000000000000000000000000000000000000000000000000100076207943872JOSE MACEDO RICARTE FILHO               RUA ARTUR LOBO - 181 - JARDIM JABAQUARA             04384060                                                            000065
2SR. CAIXA, APOS O VENCIMENTO COBRAR 10% DE MULTA                                NAO RECEBER APOS 30 DIAS DO VENCIMENTO.                                                                                                                                                                                                         01022000000000000000102200000000000000       0090770900016748762079022012000066
100000000000000000000009077090001674800000000000000000000000010002100094672602201500000000002            2  01946726022009022000000002847580000000001N010220000000000000000000000000000000000000000000000000000000000000000100094672660834JOSE HENRIQUE SOARES PEREIRA INACIO     RUA MONTE CASTELO - 296 AP.34 - AVIACAO             11702720                                                            000068
2SR. CAIXA, APOS O VENCIMENTO COBRAR 10% DE MULTA                                NAO RECEBER APOS 30 DIAS DO VENCIMENTO.                                                                                                                                                                                                         01022000000000000000102200000000000000       0090770900016748946726022015000069
100000000000000000000009077090001674800000000000000000000000010002100025265202201600000000002            2  01252652022009022000000001548260000000001N010220000000000000000000000000000000000000000000000000000000000000000100025265260862SONIA MARIA CECILIO DA SILVA            RUA PRESIDENTE TANCREDO NEVES - 1093 AP.            06329350                                                            000071
2SR. CAIXA, APOS O VENCIMENTO COBRAR 10% DE MULTA                                NAO RECEBER APOS 30 DIAS DO VENCIMENTO.                                                                                                                                                                                                         01022000000000000000102200000000000000       0090770900016748252652022016000072
100000000000000000000009077090001674800000000000000000000000010002100011381902201300000000002            2  01113819022009022000000002950910000000001N010220000000000000000000000000000000000000000000000000000000000000000100011381987818MARIO DONIZETE MIGUEL DA SILVA          RUA JASPE - 215 - HIGIANOPOLIS - JANDIRA            06642270                                                            000074
2SR. CAIXA, APOS O VENCIMENTO COBRAR 10% DE MULTA                                NAO RECEBER APOS 30 DIAS DO VENCIMENTO.                                                                                                                                                                                                         01022000000000000000102200000000000000       0090770900016748113819022013000075
100000000000000000000009077090001674800000000000000000000000010002100020105502201P00000000002            2  01201055022009022000000002391960000000001N010220000000000000000000000000000000000000000000000000000000000000000100020105503827VALTER DE SOUSA LIBARINO FILHO          RUA DAS PAINEIRAS - 140 - BAIRRO LARANJE            07741205                                                            000077
2SR. CAIXA, APOS O VENCIMENTO COBRAR 10% DE MULTA                                NAO RECEBER APOS 30 DIAS DO VENCIMENTO.                                                                                                                                                                                                         01022000000000000000102200000000000000       009077090001674820105502201P000078
100000000000000000000009077090001674800000000000000000000000010002100003010502201700000000002            2  01030105022009022000000002584520000000001N010220000000000000000000000000000000000000000000000000000000000000000100003010502877GIZELA VIEIRA BARROS                    RUA GIACOMO DALCIN - 157 - NOVA GERTY -             09580350                                                            000080
2SR. CAIXA, APOS O VENCIMENTO COBRAR 10% DE MULTA                                NAO RECEBER APOS 30 DIAS DO VENCIMENTO.                                                                                                                                                                                                         01022000000000000000102200000000000000       0090770900016748030105022017000081
100000000000000000000009077090001674800000000000000000000000010002100036712502201800000000002            2  01367125022009022000000001925240000000001N010220000000000000000000000000000000000000000000000000000000000000000100036712580803WALTER BARRETO DE ALMEIDA               RUA MONTE CASTELO - 296 AP.44 - AVIACAO             11702720                                                            000083
2SR. CAIXA, APOS O VENCIMENTO COBRAR 10% DE MULTA                                NAO RECEBER APOS 30 DIAS DO VENCIMENTO.                                                                                                                                                                                                         01022000000000000000102200000000000000       0090770900016748367125022018000084
100000000000000000000009077090001674800000000000000000000000010002100004213002201100000000002            2  01042130022009022000000001881060000000001N010220000000000000000000000000000000000000000000000000000000000000000100004213020894ELIETE DRUGOVICH DE LIMA                RUA OSVALDO CRUZ - 141 AP.144-B - SANTA             09541270                                                            000086
2SR. CAIXA, APOS O VENCIMENTO COBRAR 10% DE MULTA                                NAO RECEBER APOS 30 DIAS DO VENCIMENTO.                                                                                                                                                                                                         01022000000000000000102200000000000000       0090770900016748042130022011000087
9                                                                                                                                                                                                                                                                                                                                                                                                         000088