01REMESSA01COBRANCA       00000000000004991454AIRES CONSTRUTORA E INCORPORAD237BRADESCO       011219        MX0000145                                                                                                                                                                                                                                                                                     000001
100000000000000000000009077090001674800000000000000000000000010002100099740412191700000000002            2  01997404121909121900000003121560000000001N011219000000000000000000000000000000000000000000000000000000000000000100099740451853ARNALDO DA SILVA SALES                  RUA ALEGRE - 210 - VILA SAO RAFAEL - GUA            07053100                                                            000002
2SR. CAIXA, APOS O VENCIMENTO COBRAR 10% DE MULTA                                NAO RECEBER APOS 30 DIAS DO VENCIMENTO.                                                                                                                                                                                                         01121900000000000000112190000000000000       0090770900016748997404121917000003
100000000000000000000009077090001674800000000000000000000000010002100044380712191100000000002            2  01443807121909121900000005035410000000001N011219000000000000000000000000000000000000000000000000000000000000000100044380725812FERNANDO FIRMINO DOS SANTOS             RUA BARAO GERALDO DE RESENDE - 401 - BAI            05205220                                                            000005
2SR. CAIXA, APOS O VENCIMENTO COBRAR 10% DE MULTA                                NAO RECEBER APOS 30 DIAS DO VENCIMENTO.                                                                                                                                                                                                         01121900000000000000112190000000000000       0090770900016748443807121911000006
100000000000000000000009077090001674800000000000000000000000010002100025469412191200000000002            2  01254694121909121900000001567430000000001N011219000000000000000000000000000000000000000000000000000000000000000100025469470873JULIA MARIA RODRIGUES MARTINS           AVENIDA JOAO FIRMINO - 1229 AP.21 - BAIR            09810260                                                            000008
2SR. CAIXA, APOS O VENCIMENTO COBRAR 10% DE MULTA                                NAO RECEBER APOS 30 DIAS DO VENCIMENTO.                                                                                                                                                                                                         01121900000000000000112190000000000000       0090770900016748254694121912000009
100000000000000000000009077090001674800000000000000000000000010002100004759512191300000000002            2  01047595121909121900000003794880000000001N011219000000000000000000000000000000000000000000000000000000000000000100004759534873AGNALDO PORFIRIO DOS SANTOS             RUA JUVENCIO GASPAR DA SILVA - 35 - SAO             04303060                                                            000011
2SR. CAIXA, APOS O VENCIMENTO COBRAR 10% DE MULTA                                NAO RECEBER APOS 30 DIAS DO VENCIMENTO.                                                                                                                                                                                                         01121900000000000000112190000000000000       0090770900016748047595121913000012
100000000000000000000009077090001674800000000000000000000000010002100090830412191700000000002            2  01908304121909121900000001196370000000001N011219000000000000000000000000000000000000000000000000000000000000000100090830490868IVONETE FERNANDES                       AVENIDA FREDERICO OZANAN - 5504 - VILA R            13215276                                                            000014
2SR. CAIXA, APOS O VENCIMENTO COBRAR 10% DE MULTA                                NAO RECEBER APOS 30 DIAS DO VENCIMENTO.                                                                                                                                                                                                         01121900000000000000112190000000000000       0090770900016748908304121917000015
100000000000000000000009077090001674800000000000000000000000010002100027093912191900000000002            2  01270939121909121900000002965840000000001N011219000000000000000000000000000000000000000000000000000000000000000100027093944809DAVID ALEXANDRE XAVIER ROCHA            RUA MONTE CASTELO - 296 AP.54 - AVIACAO             11702720                                                            000017
2SR. CAIXA, APOS O VENCIMENTO COBRAR 10% DE MULTA                                NAO RECEBER APOS 30 DIAS DO VENCIMENTO.                                                                                                                                                                                                         01121900000000000000112190000000000000       0090770900016748270939121919000018
100000000000000000000009077090001674800000000000000000000000010002100068273212191500000000002            2  01682732121909121900000002158920000000001N011219000000000000000000000000000000000000000000000000000000000000000100068273290891DERNEVAL JOSE MUNIZ                     RUA MARTINOPOLIS - 98 - JARDIM OTAWA - G            07230230                                                            000020
2SR. CAIXA, APOS O VENCIMENTO COBRAR 10% DE MULTA                                NAO RECEBER APOS 30 DIAS DO VENCIMENTO.                                                                                                                                                                                                         01121900000000000000112190000000000000       0090770900016748682732121915000021
100000000000000000000009077090001674800000000000000000000000010002100001817512191800000000002            2  01018175121909121900000001845060000000001N011219000000000000000000000000000000000000000000000000000000000000000100001817534807SANTINA SALVINA SOARES                  RUA CAIAPOS - 1066 AP.43 - VILA TUPI - P            11703320                                                            000023
2SR. CAIXA, APOS O VENCIMENTO COBRAR 10% DE MULTA                                NAO RECEBER APOS 30 DIAS DO VENCIMENTO.                                                                                                                                                                                                         01121900000000000000112190000000000000       0090770900016748018175121918000024
100000000000000000000009077090001674800000000000000000000000010002100086755712191500000000002            2  01867557121909121900000001993290000000001N011219000000000000000000000000000000000000000000000000000000000000000100086755790800GERALDO JAIR BROGLIATTO                 DR.ARMANDO COSTA MAGALHAES - 176 - VILA             13270490                                                            000026
2SR. CAIXA, APOS O VENCIMENTO COBRAR 10% DE MULTA                                NAO RECEBER APOS 30 DIAS DO VENCIMENTO.                                                                                                                                                                                                         01121900000000000000112190000000000000       0090770900016748867557121915000027
100000000000000000000009077090001674800000000000000000000000010002100010066012191600000000002            2  01100660121909121900000002652680000000001N011219000000000000000000000000000000000000000000000000000000000000000100010066071534MOISES ROQUE DO ROSARIO                 RUA DAS PAPOULAS - 53 - VILA BELA - SAO             03202010                                                            000029
2SR. CAIXA, APOS O VENCIMENTO COBRAR 10% DE MULTA                                NAO RECEBER APOS 30 DIAS DO VENCIMENTO.                                                                                                                                                                                                         01121900000000000000112190000000000000       0090770900016748100660121916000030
100000000000000000000009077090001674800000000000000000000000010002100085910012191700000000002            2  01859100121909121900000003026790000000001N011219000000000000000000000000000000000000000000000000000000000000000100085910031872SERGIO NOGUEIRA                         RUA MONTE CASTELO - 262 AP.55 - AVIACAO             11702720                                                            000032
2SR. CAIXA, APOS O VENCIMENTO COBRAR 10% DE MULTA                                NAO RECEBER APOS 30 DIAS DO VENCIMENTO.                                                                                                                                                                                                         01121900000000000000112190000000000000       0090770900016748859100121917000033
100000000000000000000009077090001674800000000000000000000000010002100000746812191000000000002            2  01007468121909121900000002447070000000001N011219000000000000000000000000000000000000000000000000000000000000000100000746845820ANTONIO CARLOS DE MELLO                 RUA CONGO - 118 - PARQUE MONTE ALEGRE -             06756270                                                            000035
2SR. CAIXA, APOS O VENCIMENTO COBRAR 10% DE MULTA                                NAO RECEBER APOS 30 DIAS DO VENCIMENTO.                                                                                                                                                                                                         01121900000000000000112190000000000000       0090770900016748007468121910000036
100000000000000000000009077090001674800000000000000000000000010002100028196112191600000000002            2  01281961121909121900000001762100000000001N011219000000000000000000000000000000000000000000000000000000000000000100028196184808VANESSA NOGUEIRA CAMBUI DA SILVA        CRISTOVAO COLOMBO - 217 - VILA AMERICA -            09110160                                                            000038
2SR. CAIXA, APOS O VENCIMENTO COBRAR 10% DE MULTA                                NAO RECEBER APOS 30 DIAS DO VENCIMENTO.                                                                                                                                                                                                         01121900000000000000112190000000000000       0090770900016748281961121916000039
100000000000000000000009077090001674800000000000000000000000010002100049730812191100000000002            2  01497308121909121900000001446460000000001N011219000000000000000000000000000000000000000000000000000000000000000100049730835420PEDRO LUIZ DO BOM FIM FILHO             RUA NASCER DO SOL - 91 - BAIRRO PIRAPORI            09951475                                                            000041
2SR. CAIXA, APOS O VENCIMENTO COBRAR 10% DE MULTA                                NAO RECEBER APOS 30 DIAS DO VENCIMENTO.                                                                                                                                                                                                         01121900000000000000112190000000000000       0090770900016748497308121911000042
100000000000000000000009077090001674800000000000000000000000010002100027067012191700000000002            2  01270670121909121900000001794610000000001N011219000000000000000000000000000000000000000000000000000000000000000100027067002893MARCIA NASCIMENTO DE MORAES             RUA MONTE CASTELO - 296 AP.11 - AVIACAO             11702720                                                            000044
2SR. CAIXA, APOS O VENCIMENTO COBRAR 10% DE MULTA                                NAO RECEBER APOS 30 DIAS DO VENCIMENTO.                                                                                                                                                                                                         01121900000000000000112190000000000000       0090770900016748270670121917000045
100000000000000000000009077090001674800000000000000000000000010002100064435712191100000000002            2  01644357121909121900000001794610000000001N011219000000000000000000000000000000000000000000000000000000000000000100064435741849JURACY DA SILVA                         RUA JACARATINGA - 192 - JARDIM PIRAJUCAR            05786120                                                            000047
2SR. CAIXA, APOS O VENCIMENTO COBRAR 10% DE MULTA                                NAO RECEBER APOS 30 DIAS DO VENCIMENTO.                                                                                                                                                                                                         01121900000000000000112190000000000000       0090770900016748644357121911000048
100000000000000000000009077090001674800000000000000000000000010002100094921812191000000000002            2  01949218121909121900000003562550000000001N011219000000000000000000000000000000000000000000000000000000000000000100094921890897JOAO JORGE DA ROSA FILHO                RUA OLAVO EGIDIO DE SOUZA ARANHA - 368 A            03822000                                                            000050
2SR. CAIXA, APOS O VENCIMENTO COBRAR 10% DE MULTA                                NAO RECEBER APOS 30 DIAS DO VENCIMENTO.                                                                                                                                                                                                         01121900000000000000112190000000000000       0090770900016748949218121910000051
100000000000000000000009077090001674800000000000000000000000010002100094921812192900000000002            2  01949218121909121900000001781250000000001N011219000000000000000000000000000000000000000000000000000000000000000100094921890897JOAO JORGE DA ROSA FILHO                RUA OLAVO EGIDIO DE SOUZA ARANHA - 368 A            03822000                                                            000053
2SR. CAIXA, APOS O VENCIMENTO COBRAR 10% DE MULTA                                NAO RECEBER APOS 30 DIAS DO VENCIMENTO.                                                                                                                                                                                                         01121900000000000000112190000000000000       0090770900016748949218121929000054
100000000000000000000009077090001674800000000000000000000000010002100008364812191700000000002            2  01083648121909121900000002160910000000001N011219000000000000000000000000000000000000000000000000000000000000000100008364834800JOSEFINA CORREA RAMA DOS SANTOS         AVENIDA PRESIDENTE CASTELO BRANCO - 3.78            11702700                                                            000056
2SR. CAIXA, APOS O VENCIMENTO COBRAR 10% DE MULTA                                NAO RECEBER APOS 30 DIAS DO VENCIMENTO.                                                                                                                                                                                                         01121900000000000000112190000000000000       0090770900016748083648121917000057
100000000000000000000009077090001674800000000000000000000000010002100037713312191800000000002            2  01377133121909121900000001767990000000001N011219000000000000000000000000000000000000000000000000000000000000000100037713356800JAMILLE PAULA BUENO LOPES               RUA CURIO (COND.NEW VILLE) - 172 - SURU             06509031                                                            000059
2SR. CAIXA, APOS O VENCIMENTO COBRAR 10% DE MULTA                                NAO RECEBER APOS 30 DIAS DO VENCIMENTO.                                                                                                                                                                                                         01121900000000000000112190000000000000       0090770900016748377133121918000060
100000000000000000000009077090001674800000000000000000000000010002100027100912191500000000002            2  01271009121909121900000002059730000000001N011219000000000000000000000000000000000000000000000000000000000000000100027100951810MARCIA RAMALHO RODRIGUES                RUA MONTE CASTELO - 296 AP.82 - AVIACAO             11702720                                                            000062
2SR. CAIXA, APOS O VENCIMENTO COBRAR 10% DE MULTA                                NAO RECEBER APOS 30 DIAS DO VENCIMENTO.                                                                                                                                                                                                         01121900000000000000112190000000000000       0090770900016748271009121915000063
100000000000000000000009077090001674800000000000000000000000010002100076207912191600000000002            2  01762079121909121900000002221360000000001N011219000000000000000000000000000000000000000000000000000000000000000100076207943872JOSE MACEDO RICARTE FILHO               RUA ARTUR LOBO - 181 - JARDIM JABAQUARA             04384060                                                            000065
2SR. CAIXA, APOS O VENCIMENTO COBRAR 10% DE MULTA                                NAO RECEBER APOS 30 DIAS DO VENCIMENTO.                                                                                                                                                                                                         01121900000000000000112190000000000000       0090770900016748762079121916000066
100000000000000000000009077090001674800000000000000000000000010002100094672612191900000000002            2  01946726121909121900000002805340000000001N011219000000000000000000000000000000000000000000000000000000000000000100094672660834JOSE HENRIQUE SOARES PEREIRA INACIO     RUA MONTE CASTELO - 296 AP.34 - AVIACAO             11702720                                                            000068
2SR. CAIXA, APOS O VENCIMENTO COBRAR 10% DE MULTA                                NAO RECEBER APOS 30 DIAS DO VENCIMENTO.                                                                                                                                                                                                         01121900000000000000112190000000000000       0090770900016748946726121919000069
100000000000000000000009077090001674800000000000000000000000010002100025265212191P00000000002            2  01252652121909121900000001525290000000001N011219000000000000000000000000000000000000000000000000000000000000000100025265260862SONIA MARIA CECILIO DA SILVA            RUA PRESIDENTE TANCREDO NEVES - 1093 AP.            06329350                                                            000071
2SR. CAIXA, APOS O VENCIMENTO COBRAR 10% DE MULTA                                NAO RECEBER APOS 30 DIAS DO VENCIMENTO.                                                                                                                                                                                                         01121900000000000000112190000000000000       009077090001674825265212191P000072
100000000000000000000009077090001674800000000000000000000000010002100011381912191700000000002            2  01113819121909121900000002907140000000001N011219000000000000000000000000000000000000000000000000000000000000000100011381987818MARIO DONIZETE MIGUEL DA SILVA          RUA JASPE - 215 - HIGIANOPOLIS - JANDIRA            06642270                                                            000074
2SR. CAIXA, APOS O VENCIMENTO COBRAR 10% DE MULTA                                NAO RECEBER APOS 30 DIAS DO VENCIMENTO.                                                                                                                                                                                                         01121900000000000000112190000000000000       0090770900016748113819121917000075
100000000000000000000009077090001674800000000000000000000000010002100020105512191300000000002            2  01201055121909121900000002356480000000001N011219000000000000000000000000000000000000000000000000000000000000000100020105503827VALTER DE SOUSA LIBARINO FILHO          RUA DAS PAINEIRAS - 140 - BAIRRO LARANJE            07741205                                                            000077
2SR. CAIXA, APOS O VENCIMENTO COBRAR 10% DE MULTA                                NAO RECEBER APOS 30 DIAS DO VENCIMENTO.                                                                                                                                                                                                         01121900000000000000112190000000000000       0090770900016748201055121913000078
100000000000000000000009077090001674800000000000000000000000010002100003010512191000000000002            2  01030105121909121900000002546180000000001N011219000000000000000000000000000000000000000000000000000000000000000100003010502877GIZELA VIEIRA BARROS                    RUA GIACOMO DALCIN - 157 - NOVA GERTY -             09580350                                                            000080
2SR. CAIXA, APOS O VENCIMENTO COBRAR 10% DE MULTA                                NAO RECEBER APOS 30 DIAS DO VENCIMENTO.                                                                                                                                                                                                         01121900000000000000112190000000000000       0090770900016748030105121910000081
100000000000000000000009077090001674800000000000000000000000010002100036712512191100000000002            2  01367125121909121900000001896680000000001N011219000000000000000000000000000000000000000000000000000000000000000100036712580803WALTER BARRETO DE ALMEIDA               RUA MONTE CASTELO - 296 AP.44 - AVIACAO             11702720                                                            000083
2SR. CAIXA, APOS O VENCIMENTO COBRAR 10% DE MULTA                                NAO RECEBER APOS 30 DIAS DO VENCIMENTO.                                                                                                                                                                                                         01121900000000000000112190000000000000       0090770900016748367125121911000084
100000000000000000000009077090001674800000000000000000000000010002100004213012191500000000002            2  01042130121909121900000001853160000000001N011219000000000000000000000000000000000000000000000000000000000000000100004213020894ELIETE DRUGOVICH DE LIMA                RUA OSVALDO CRUZ - 141 AP.144-B - SANTA             09541270                                                            000086
2SR. CAIXA, APOS O VENCIMENTO COBRAR 10% DE MULTA                                NAO RECEBER APOS 30 DIAS DO VENCIMENTO.                                                                                                                                                                                                         01121900000000000000112190000000000000       0090770900016748042130121915000087
9                                                                                                                                                                                                                                                                                                                                                                                                         000088