01REMESSA01COBRANCA       00000000000004991454AIRES CONSTRUTORA E INCORPORAD237BRADESCO       011017        MX0000090                                                                                                                                                                                                                                                                                     000001
100000000000000000000009077090001674800000000000000000000000010002100011238147157300000000002            2  01112381471509101700000006168960000000001N011017000000000000000000000000000000000000000000000000000000000000000100099740451853ARNALDO DA SILVA SALES                  RUA ALEGRE - 210 - VILA SAO RAFAEL - GUA            07053100                                                            000002
2SR. CAIXA, APOS O VENCIMENTO COBRAR 10% DE MULTA                                NAO RECEBER APOS 30 DIAS DO VENCIMENTO.                                                                                                                                                                                                         01101700000000000000110170000000000000       0090770900016748112381471573000003
100000000000000000000009077090001674800000000000000000000000010002100011265147157000000000002            2  01112651471509101700000002570410000000001N011017000000000000000000000000000000000000000000000000000000000000000100099740451853ARNALDO DA SILVA SALES                  RUA ALEGRE - 210 - VILA SAO RAFAEL - GUA            07053100                                                            000005
2SR. CAIXA, APOS O VENCIMENTO COBRAR 10% DE MULTA                                NAO RECEBER APOS 30 DIAS DO VENCIMENTO.                                                                                                                                                                                                         01101700000000000000110170000000000000       0090770900016748112651471570000006
100000000000000000000009077090001674800000000000000000000000010002100011494148160200000000002            2  01114941481609101700000004146330000000001N011017000000000000000000000000000000000000000000000000000000000000000100044380725812FERNANDO FIRMINO DOS SANTOS             RUA BARAO GERALDO DE RESENDE - 401 - BAI            05205220                                                            000008
2SR. CAIXA, APOS O VENCIMENTO COBRAR 10% DE MULTA                                NAO RECEBER APOS 30 DIAS DO VENCIMENTO.                                                                                                                                                                                                         01101700000000000000110170000000000000       0090770900016748114941481602000009
100000000000000000000009077090001674800000000000000000000000010002100012614155171600000000002            2  01126141551709101700000001290670000000001N011017000000000000000000000000000000000000000000000000000000000000000100025469470873JULIA MARIA RODRIGUES MARTINS           AVENIDA JOAO FIRMINO - 1229 AP.21 - BAIR            09810260                                                            000011
2SR. CAIXA, APOS O VENCIMENTO COBRAR 10% DE MULTA                                NAO RECEBER APOS 30 DIAS DO VENCIMENTO.                                                                                                                                                                                                         01101700000000000000110170000000000000       0090770900016748126141551716000012
100000000000000000000009077090001674800000000000000000000000010002100012796156173900000000002            2  01127961561709101700000001961920000000001N011017000000000000000000000000000000000000000000000000000000000000000100027396176824WALDINEA BORGES DIAS                    RUA CAP. JOAQUIM F.PEREIRA - 95 - JARDIM            13710000                                                            000014
2SR. CAIXA, APOS O VENCIMENTO COBRAR 10% DE MULTA                                NAO RECEBER APOS 30 DIAS DO VENCIMENTO.                                                                                                                                                                                                         01101700000000000000110170000000000000       0090770900016748127961561739000015
100000000000000000000009077090001674800000000000000000000000010002100012898157174500000000002            2  01128981571709101700000003124840000000001N011017000000000000000000000000000000000000000000000000000000000000000100004759534873AGNALDO PORFIRIO DOS SANTOS             RUA JUVENCIO GASPAR DA SILVA - 35 - SAO             04303060                                                            000017
2SR. CAIXA, APOS O VENCIMENTO COBRAR 10% DE MULTA                                NAO RECEBER APOS 30 DIAS DO VENCIMENTO.                                                                                                                                                                                                         01101700000000000000110170000000000000       0090770900016748128981571745000018
100000000000000000000009077090001674800000000000000000000000010002100013119159177100000000002            2  01131191591709101700000001684010000000001N011017000000000000000000000000000000000000000000000000000000000000000100014924049859KATIA REGINA DE OLIVEIRA SILVA          RUA ANTONIO SIMIONATO - 73 AP.14 - SANTA            09780180                                                            000020
2SR. CAIXA, APOS O VENCIMENTO COBRAR 10% DE MULTA                                NAO RECEBER APOS 30 DIAS DO VENCIMENTO.                                                                                                                                                                                                         01101700000000000000110170000000000000       0090770900016748131191591771000021
100000000000000000000009077090001674800000000000000000000000010002100013219160178100000000002            2  01132191601709101700000000985140000000001N011017000000000000000000000000000000000000000000000000000000000000000100090830490868IVONETE FERNANDES                       AVENIDA FREDERICO OZANAN - 5504 - VILA R            13215276                                                            000023
2SR. CAIXA, APOS O VENCIMENTO COBRAR 10% DE MULTA                                NAO RECEBER APOS 30 DIAS DO VENCIMENTO.                                                                                                                                                                                                         01101700000000000000110170000000000000       0090770900016748132191601781000024
100000000000000000000009077090001674800000000000000000000000010002100013540163184P00000000002            2  01135401631809101700000002442180000000001N011017000000000000000000000000000000000000000000000000000000000000000100027093944809DAVID ALEXANDRE XAVIER ROCHA            RUA MONTE CASTELO - 296 AP.54 - AVIACAO             11702720                                                            000026
2SR. CAIXA, APOS O VENCIMENTO COBRAR 10% DE MULTA                                NAO RECEBER APOS 30 DIAS DO VENCIMENTO.                                                                                                                                                                                                         01101700000000000000110170000000000000       009077090001674813540163184P000027
100000000000000000000009077090001674800000000000000000000000010002100013708164186000000000002            2  01137081641809101700000001777740000000001N011017000000000000000000000000000000000000000000000000000000000000000100068273290891DERNEVAL JOSE MUNIZ                     RUA MARTINOPOLIS - 98 - JARDIM OTAWA - G            07230230                                                            000029
2SR. CAIXA, APOS O VENCIMENTO COBRAR 10% DE MULTA                                NAO RECEBER APOS 30 DIAS DO VENCIMENTO.                                                                                                                                                                                                         01101700000000000000110170000000000000       0090770900016748137081641860000030
100000000000000000000009077090001674800000000000000000000000010002100013983166189600000000002            2  01139831661809101700000001519280000000001N011017000000000000000000000000000000000000000000000000000000000000000100001817534807SANTINA SALVINA SOARES                  RUA CAIAPOS - 1066 AP.43 - VILA TUPI - P            11703320                                                            000032
2SR. CAIXA, APOS O VENCIMENTO COBRAR 10% DE MULTA                                NAO RECEBER APOS 30 DIAS DO VENCIMENTO.                                                                                                                                                                                                         01101700000000000000110170000000000000       0090770900016748139831661896000033
100000000000000000000009077090001674800000000000000000000000010002100014084167190100000000002            2  01140841671909101700000001641340000000001N011017000000000000000000000000000000000000000000000000000000000000000100086755790800GERALDO JAIR BROGLIATTO                 DR.ARMANDO COSTA MAGALHAES - 176 - VILA             13270490                                                            000035
2SR. CAIXA, APOS O VENCIMENTO COBRAR 10% DE MULTA                                NAO RECEBER APOS 30 DIAS DO VENCIMENTO.                                                                                                                                                                                                         01101700000000000000110170000000000000       0090770900016748140841671901000036
100000000000000000000009077090001674800000000000000000000000010002100014422169196700000000002            2  01144221691911101700000001800000000000001N011017000000000000000000000000000000000000000000000000000000000000000100013191291881MARCELO RICARDO MASCAROS SOUTO          RUA MONTE CASTELO - 295 AP.102 - AVIACAO            11702720                                                            000038
2SR. CAIXA, APOS O VENCIMENTO COBRAR 10% DE MULTA                                NAO RECEBER APOS 30 DIAS DO VENCIMENTO.                                                                                                                                                                                                         01101700000000000000110170000000000000       0090770900016748144221691967000039
100000000000000000000009077090001674800000000000000000000000010002100014454170197900000000002            2  01144541701909101700000001630480000000001N011017000000000000000000000000000000000000000000000000000000000000000100007996062862HENRIQUE SALVADOR                       RUA DARDANELOS - 689 - PARQUE NOVO ORATO            09260060                                                            000041
2SR. CAIXA, APOS O VENCIMENTO COBRAR 10% DE MULTA                                NAO RECEBER APOS 30 DIAS DO VENCIMENTO.                                                                                                                                                                                                         01101700000000000000110170000000000000       0090770900016748144541701979000042
100000000000000000000009077090001674800000000000000000000000010002100014539171198500000000002            2  01145391711909101700000001248170000000001N011017000000000000000000000000000000000000000000000000000000000000000100004899735820INES CONCEICAO VIEIRA GADI ERMIDA       AVENIDA ANTONIO RICARDO DA SILVA - 77 -             08270560                                                            000044
2SR. CAIXA, APOS O VENCIMENTO COBRAR 10% DE MULTA                                NAO RECEBER APOS 30 DIAS DO VENCIMENTO.                                                                                                                                                                                                         01101700000000000000110170000000000000       0090770900016748145391711985000045
100000000000000000000009077090001674800000000000000000000000010002100014660172199300000000002            2  01146601721909101700000002184310000000001N011017000000000000000000000000000000000000000000000000000000000000000100010066071534MOISES ROQUE DO ROSARIO                 RUA DAS PAPOULAS - 53 - VILA BELA - SAO             03202010                                                            000047
2SR. CAIXA, APOS O VENCIMENTO COBRAR 10% DE MULTA                                NAO RECEBER APOS 30 DIAS DO VENCIMENTO.                                                                                                                                                                                                         01101700000000000000110170000000000000       0090770900016748146601721993000048
100000000000000000000009077090001674800000000000000000000000010002100014881173201P00000000002            2  01148811732009101700000002492390000000001N011017000000000000000000000000000000000000000000000000000000000000000100085910031872SERGIO NOGUEIRA                         RUA CARLOS ALBERTO BIANCHIM - 102 - JARD            13273063                                                            000050
2SR. CAIXA, APOS O VENCIMENTO COBRAR 10% DE MULTA                                NAO RECEBER APOS 30 DIAS DO VENCIMENTO.                                                                                                                                                                                                         01101700000000000000110170000000000000       009077090001674814881173201P000051
100000000000000000000009077090001674800000000000000000000000010002100016156181216700000000002            2  01161561812109101700000002015000000000001N011017000000000000000000000000000000000000000000000000000000000000000100000746845820ANTONIO CARLOS DE MELLO                 RUA CONGO - 118 - PARQUE MONTE ALEGRE -             06756270                                                            000053
2SR. CAIXA, APOS O VENCIMENTO COBRAR 10% DE MULTA                                NAO RECEBER APOS 30 DIAS DO VENCIMENTO.                                                                                                                                                                                                         01101700000000000000110170000000000000       0090770900016748161561812167000054
9                                                                                                                                                                                                                                                                                                                                                                                                         000055