10400000         2219876470001290000000000000000000003856372936100000000HB SANTOS CONSTRUTORA E INCORPCAIXA ECONOMICA FEDERAL                 11008201715064800003705000000                    REMESSA-PRODUCAO                                 
10400011R0100030 20219876470001297293610000000000000003856372936100000000HB SANTOS CONSTRUTORA E INCORPAPOS VENCIMENTO, COBRAR MULTA DE 2%                                             000000371008201700000000                                 
1040000300002P 0103856372936100000000000140000157651251221122015765125122    1008201700000000000013500000002A1008201721108201700000000000010000000000000000000000000000000000000000000000000000000000000000000000157651251223051030090000000000 
1040000300002Q 011000002252149892AIRES MOTA DOS SANTOS                   AV. BRASIL - 600 SALA 1009                             11701090PRAIA GRANDE   SP0000000000000000                                        000                            
1040000300002R 01000000000               000000000               210082017000000000000200                                                                                                                                                       
10400005         000005000000000000000000000000000000000000000000000000000000000000000000000                                                                                                                                                    
10499999         000001000007                                                                                                                                                                                                                   